{
	"rotatingcube.sol": {
		"RotatingCube": {
			"abi": [
				{
					"inputs": [],
					"stateMutability": "nonpayable",
					"type": "constructor"
				},
				{
					"inputs": [],
					"name": "ApprovalCallerNotOwnerNorApproved",
					"type": "error"
				},
				{
					"inputs": [],
					"name": "ApprovalQueryForNonexistentToken",
					"type": "error"
				},
				{
					"inputs": [],
					"name": "ApprovalToCurrentOwner",
					"type": "error"
				},
				{
					"inputs": [],
					"name": "ApproveToCaller",
					"type": "error"
				},
				{
					"inputs": [],
					"name": "BalanceQueryForZeroAddress",
					"type": "error"
				},
				{
					"inputs": [],
					"name": "MintToZeroAddress",
					"type": "error"
				},
				{
					"inputs": [],
					"name": "MintZeroQuantity",
					"type": "error"
				},
				{
					"inputs": [],
					"name": "OwnerQueryForNonexistentToken",
					"type": "error"
				},
				{
					"inputs": [],
					"name": "TransferCallerNotOwnerNorApproved",
					"type": "error"
				},
				{
					"inputs": [],
					"name": "TransferFromIncorrectOwner",
					"type": "error"
				},
				{
					"inputs": [],
					"name": "TransferToNonERC721ReceiverImplementer",
					"type": "error"
				},
				{
					"inputs": [],
					"name": "TransferToZeroAddress",
					"type": "error"
				},
				{
					"inputs": [],
					"name": "URIQueryForNonexistentToken",
					"type": "error"
				},
				{
					"anonymous": false,
					"inputs": [
						{
							"indexed": true,
							"internalType": "address",
							"name": "owner",
							"type": "address"
						},
						{
							"indexed": true,
							"internalType": "address",
							"name": "approved",
							"type": "address"
						},
						{
							"indexed": true,
							"internalType": "uint256",
							"name": "tokenId",
							"type": "uint256"
						}
					],
					"name": "Approval",
					"type": "event"
				},
				{
					"anonymous": false,
					"inputs": [
						{
							"indexed": true,
							"internalType": "address",
							"name": "owner",
							"type": "address"
						},
						{
							"indexed": true,
							"internalType": "address",
							"name": "operator",
							"type": "address"
						},
						{
							"indexed": false,
							"internalType": "bool",
							"name": "approved",
							"type": "bool"
						}
					],
					"name": "ApprovalForAll",
					"type": "event"
				},
				{
					"anonymous": false,
					"inputs": [
						{
							"indexed": true,
							"internalType": "address",
							"name": "from",
							"type": "address"
						},
						{
							"indexed": true,
							"internalType": "address",
							"name": "to",
							"type": "address"
						},
						{
							"indexed": true,
							"internalType": "uint256",
							"name": "tokenId",
							"type": "uint256"
						}
					],
					"name": "Transfer",
					"type": "event"
				},
				{
					"inputs": [
						{
							"internalType": "address",
							"name": "to",
							"type": "address"
						},
						{
							"internalType": "uint256",
							"name": "tokenId",
							"type": "uint256"
						}
					],
					"name": "approve",
					"outputs": [],
					"stateMutability": "nonpayable",
					"type": "function"
				},
				{
					"inputs": [
						{
							"internalType": "address",
							"name": "owner",
							"type": "address"
						}
					],
					"name": "balanceOf",
					"outputs": [
						{
							"internalType": "uint256",
							"name": "",
							"type": "uint256"
						}
					],
					"stateMutability": "view",
					"type": "function"
				},
				{
					"inputs": [
						{
							"internalType": "uint256",
							"name": "tokenId",
							"type": "uint256"
						}
					],
					"name": "getApproved",
					"outputs": [
						{
							"internalType": "address",
							"name": "",
							"type": "address"
						}
					],
					"stateMutability": "view",
					"type": "function"
				},
				{
					"inputs": [
						{
							"internalType": "address",
							"name": "owner",
							"type": "address"
						},
						{
							"internalType": "address",
							"name": "operator",
							"type": "address"
						}
					],
					"name": "isApprovedForAll",
					"outputs": [
						{
							"internalType": "bool",
							"name": "",
							"type": "bool"
						}
					],
					"stateMutability": "view",
					"type": "function"
				},
				{
					"inputs": [
						{
							"internalType": "uint256",
							"name": "quantity",
							"type": "uint256"
						}
					],
					"name": "mint",
					"outputs": [],
					"stateMutability": "payable",
					"type": "function"
				},
				{
					"inputs": [],
					"name": "name",
					"outputs": [
						{
							"internalType": "string",
							"name": "",
							"type": "string"
						}
					],
					"stateMutability": "view",
					"type": "function"
				},
				{
					"inputs": [
						{
							"internalType": "uint256",
							"name": "tokenId",
							"type": "uint256"
						}
					],
					"name": "ownerOf",
					"outputs": [
						{
							"internalType": "address",
							"name": "",
							"type": "address"
						}
					],
					"stateMutability": "view",
					"type": "function"
				},
				{
					"inputs": [
						{
							"internalType": "address",
							"name": "from",
							"type": "address"
						},
						{
							"internalType": "address",
							"name": "to",
							"type": "address"
						},
						{
							"internalType": "uint256",
							"name": "tokenId",
							"type": "uint256"
						}
					],
					"name": "safeTransferFrom",
					"outputs": [],
					"stateMutability": "nonpayable",
					"type": "function"
				},
				{
					"inputs": [
						{
							"internalType": "address",
							"name": "from",
							"type": "address"
						},
						{
							"internalType": "address",
							"name": "to",
							"type": "address"
						},
						{
							"internalType": "uint256",
							"name": "tokenId",
							"type": "uint256"
						},
						{
							"internalType": "bytes",
							"name": "_data",
							"type": "bytes"
						}
					],
					"name": "safeTransferFrom",
					"outputs": [],
					"stateMutability": "nonpayable",
					"type": "function"
				},
				{
					"inputs": [
						{
							"internalType": "address",
							"name": "operator",
							"type": "address"
						},
						{
							"internalType": "bool",
							"name": "approved",
							"type": "bool"
						}
					],
					"name": "setApprovalForAll",
					"outputs": [],
					"stateMutability": "nonpayable",
					"type": "function"
				},
				{
					"inputs": [
						{
							"internalType": "bytes4",
							"name": "interfaceId",
							"type": "bytes4"
						}
					],
					"name": "supportsInterface",
					"outputs": [
						{
							"internalType": "bool",
							"name": "",
							"type": "bool"
						}
					],
					"stateMutability": "view",
					"type": "function"
				},
				{
					"inputs": [],
					"name": "symbol",
					"outputs": [
						{
							"internalType": "string",
							"name": "",
							"type": "string"
						}
					],
					"stateMutability": "view",
					"type": "function"
				},
				{
					"inputs": [
						{
							"internalType": "uint256",
							"name": "tokenId",
							"type": "uint256"
						}
					],
					"name": "tokenURI",
					"outputs": [
						{
							"internalType": "string",
							"name": "",
							"type": "string"
						}
					],
					"stateMutability": "view",
					"type": "function"
				},
				{
					"inputs": [],
					"name": "totalSupply",
					"outputs": [
						{
							"internalType": "uint256",
							"name": "",
							"type": "uint256"
						}
					],
					"stateMutability": "view",
					"type": "function"
				},
				{
					"inputs": [
						{
							"internalType": "address",
							"name": "from",
							"type": "address"
						},
						{
							"internalType": "address",
							"name": "to",
							"type": "address"
						},
						{
							"internalType": "uint256",
							"name": "tokenId",
							"type": "uint256"
						}
					],
					"name": "transferFrom",
					"outputs": [],
					"stateMutability": "nonpayable",
					"type": "function"
				}
			],
			"devdoc": {
				"kind": "dev",
				"methods": {
					"approve(address,uint256)": {
						"details": "See {IERC721-approve}."
					},
					"balanceOf(address)": {
						"details": "See {IERC721-balanceOf}."
					},
					"getApproved(uint256)": {
						"details": "See {IERC721-getApproved}."
					},
					"isApprovedForAll(address,address)": {
						"details": "See {IERC721-isApprovedForAll}."
					},
					"name()": {
						"details": "See {IERC721Metadata-name}."
					},
					"ownerOf(uint256)": {
						"details": "See {IERC721-ownerOf}."
					},
					"safeTransferFrom(address,address,uint256)": {
						"details": "See {IERC721-safeTransferFrom}."
					},
					"safeTransferFrom(address,address,uint256,bytes)": {
						"details": "See {IERC721-safeTransferFrom}."
					},
					"setApprovalForAll(address,bool)": {
						"details": "See {IERC721-setApprovalForAll}."
					},
					"supportsInterface(bytes4)": {
						"details": "See {IERC165-supportsInterface}."
					},
					"symbol()": {
						"details": "See {IERC721Metadata-symbol}."
					},
					"tokenURI(uint256)": {
						"details": "See {IERC721Metadata-tokenURI}."
					},
					"totalSupply()": {
						"details": "Burned tokens are calculated here, use _totalMinted() if you want to count just minted tokens."
					},
					"transferFrom(address,address,uint256)": {
						"details": "See {IERC721-transferFrom}."
					}
				},
				"version": 1
			},
			"evm": {
				"assembly": "    /* \"rotatingcube.sol\":108:365  contract RotatingCube is ERC721A {... */\n  mstore(0x40, 0x80)\n    /* \"rotatingcube.sol\":145:193  constructor() ERC721A(\"RotatingCube\", \"CUBE\") {} */\n  callvalue\n  dup1\n  iszero\n  tag_1\n  jumpi\n  0x00\n  dup1\n  revert\ntag_1:\n  pop\n    /* \"erc721a/contracts/ERC721A.sol\":3357:3511  constructor(string memory name_, string memory symbol_) {... */\n  0x40\n  dup1\n  mload\n  dup1\n  dup3\n  add\n  dup3\n  mstore\n  0x0c\n  dup2\n  mstore\n  shl(0xa0, 0x526f746174696e6743756265)\n  0x20\n  dup1\n  dup4\n  add\n  swap2\n  dup3\n  mstore\n  dup4\n  mload\n  dup1\n  dup6\n  add\n  swap1\n  swap5\n  mstore\n  0x04\n  dup5\n  mstore\n  shl(0xe0, 0x43554245)\n  swap1\n  dup5\n  add\n  mstore\n    /* \"erc721a/contracts/ERC721A.sol\":3423:3436  _name = name_ */\n  dup2\n  mload\n    /* \"erc721a/contracts/ERC721A.sol\":3357:3511  constructor(string memory name_, string memory symbol_) {... */\n  swap2\n  swap3\n  swap2\n    /* \"erc721a/contracts/ERC721A.sol\":3423:3436  _name = name_ */\n  tag_5\n  swap2\n    /* \"erc721a/contracts/ERC721A.sol\":3423:3428  _name */\n  0x02\n  swap2\n    /* \"erc721a/contracts/ERC721A.sol\":3423:3436  _name = name_ */\n  tag_6\n  jump\t// in\ntag_5:\n  pop\n    /* \"erc721a/contracts/ERC721A.sol\":3446:3463  _symbol = symbol_ */\n  dup1\n  mload\n  tag_7\n  swap1\n    /* \"erc721a/contracts/ERC721A.sol\":3446:3453  _symbol */\n  0x03\n  swap1\n    /* \"erc721a/contracts/ERC721A.sol\":3446:3463  _symbol = symbol_ */\n  0x20\n  dup5\n  add\n  swap1\n  tag_6\n  jump\t// in\ntag_7:\n  pop\n  pop\n    /* \"erc721a/contracts/ERC721A.sol\":3659:3666  uint256 */\n  0x00\n    /* \"erc721a/contracts/ERC721A.sol\":3473:3504  _currentIndex = _startTokenId() */\n  dup1\n  sstore\n  pop\n    /* \"rotatingcube.sol\":108:365  contract RotatingCube is ERC721A {... */\n  jump(tag_24)\ntag_6:\n  dup3\n  dup1\n  sload\n  tag_13\n  swap1\n  tag_14\n  jump\t// in\ntag_13:\n  swap1\n  0x00\n  mstore\n  keccak256(0x00, 0x20)\n  swap1\n  0x1f\n  add\n  0x20\n  swap1\n  div\n  dup2\n  add\n  swap3\n  dup3\n  tag_16\n  jumpi\n  0x00\n  dup6\n  sstore\n  jump(tag_19)\ntag_16:\n  dup3\n  0x1f\n  lt\n  tag_17\n  jumpi\n  dup1\n  mload\n  not(0xff)\n  and\n  dup4\n  dup1\n  add\n  or\n  dup6\n  sstore\n  jump(tag_19)\ntag_17:\n  dup3\n  dup1\n  add\n  0x01\n  add\n  dup6\n  sstore\n  dup3\n  iszero\n  tag_19\n  jumpi\n  swap2\n  dup3\n  add\ntag_18:\n  dup3\n  dup2\n  gt\n  iszero\n  tag_19\n  jumpi\n  dup3\n  mload\n  dup3\n  sstore\n  swap2\n  0x20\n  add\n  swap2\n  swap1\n  0x01\n  add\n  swap1\n  jump(tag_18)\ntag_19:\n  pop\n  tag_20\n  swap3\n  swap2\n  pop\n  tag_21\n  jump\t// in\ntag_20:\n  pop\n  swap1\n  jump\t// out\ntag_21:\ntag_22:\n  dup1\n  dup3\n  gt\n  iszero\n  tag_20\n  jumpi\n  0x00\n  dup2\n  sstore\n  0x01\n  add\n  jump(tag_22)\n    /* \"#utility.yul\":14:394   */\ntag_14:\n    /* \"#utility.yul\":93:94   */\n  0x01\n    /* \"#utility.yul\":89:101   */\n  dup2\n  dup2\n  shr\n  swap1\n    /* \"#utility.yul\":136:148   */\n  dup3\n  and\n  dup1\n    /* \"#utility.yul\":157:218   */\n  tag_26\n  jumpi\n    /* \"#utility.yul\":211:215   */\n  0x7f\n    /* \"#utility.yul\":203:209   */\n  dup3\n    /* \"#utility.yul\":199:216   */\n  and\n    /* \"#utility.yul\":189:216   */\n  swap2\n  pop\n    /* \"#utility.yul\":157:218   */\ntag_26:\n    /* \"#utility.yul\":264:266   */\n  0x20\n    /* \"#utility.yul\":256:262   */\n  dup3\n    /* \"#utility.yul\":253:267   */\n  lt\n    /* \"#utility.yul\":233:251   */\n  dup2\n    /* \"#utility.yul\":230:268   */\n  eq\n    /* \"#utility.yul\":227:388   */\n  iszero\n  tag_27\n  jumpi\n    /* \"#utility.yul\":310:320   */\n  0x4e487b71\n    /* \"#utility.yul\":305:308   */\n  0xe0\n    /* \"#utility.yul\":301:321   */\n  shl\n    /* \"#utility.yul\":298:299   */\n  0x00\n    /* \"#utility.yul\":291:322   */\n  mstore\n    /* \"#utility.yul\":345:349   */\n  0x22\n    /* \"#utility.yul\":342:343   */\n  0x04\n    /* \"#utility.yul\":335:350   */\n  mstore\n    /* \"#utility.yul\":373:377   */\n  0x24\n    /* \"#utility.yul\":370:371   */\n  0x00\n    /* \"#utility.yul\":363:378   */\n  revert\n    /* \"#utility.yul\":227:388   */\ntag_27:\n  pop\n    /* \"#utility.yul\":14:394   */\n  swap2\n  swap1\n  pop\n  jump\t// out\ntag_24:\n    /* \"rotatingcube.sol\":108:365  contract RotatingCube is ERC721A {... */\n  dataSize(sub_0)\n  dup1\n  dataOffset(sub_0)\n  0x00\n  codecopy\n  0x00\n  return\nstop\n\nsub_0: assembly {\n        /* \"rotatingcube.sol\":108:365  contract RotatingCube is ERC721A {... */\n      mstore(0x40, 0x80)\n      jumpi(tag_1, lt(calldatasize, 0x04))\n      shr(0xe0, calldataload(0x00))\n      dup1\n      0x6352211e\n      gt\n      tag_17\n      jumpi\n      dup1\n      0xa22cb465\n      gt\n      tag_18\n      jumpi\n      dup1\n      0xa22cb465\n      eq\n      tag_13\n      jumpi\n      dup1\n      0xb88d4fde\n      eq\n      tag_14\n      jumpi\n      dup1\n      0xc87b56dd\n      eq\n      tag_15\n      jumpi\n      dup1\n      0xe985e9c5\n      eq\n      tag_16\n      jumpi\n      0x00\n      dup1\n      revert\n    tag_18:\n      dup1\n      0x6352211e\n      eq\n      tag_9\n      jumpi\n      dup1\n      0x70a08231\n      eq\n      tag_10\n      jumpi\n      dup1\n      0x95d89b41\n      eq\n      tag_11\n      jumpi\n      dup1\n      0xa0712d68\n      eq\n      tag_12\n      jumpi\n      0x00\n      dup1\n      revert\n    tag_17:\n      dup1\n      0x095ea7b3\n      gt\n      tag_19\n      jumpi\n      dup1\n      0x095ea7b3\n      eq\n      tag_5\n      jumpi\n      dup1\n      0x18160ddd\n      eq\n      tag_6\n      jumpi\n      dup1\n      0x23b872dd\n      eq\n      tag_7\n      jumpi\n      dup1\n      0x42842e0e\n      eq\n      tag_8\n      jumpi\n      0x00\n      dup1\n      revert\n    tag_19:\n      dup1\n      0x01ffc9a7\n      eq\n      tag_2\n      jumpi\n      dup1\n      0x06fdde03\n      eq\n      tag_3\n      jumpi\n      dup1\n      0x081812fc\n      eq\n      tag_4\n      jumpi\n    tag_1:\n      0x00\n      dup1\n      revert\n        /* \"erc721a/contracts/ERC721A.sol\":4551:4851  function supportsInterface(bytes4 interfaceId) public view virtual override(ERC165, IERC165) returns (bool) {... */\n    tag_2:\n      callvalue\n      dup1\n      iszero\n      tag_20\n      jumpi\n      0x00\n      dup1\n      revert\n    tag_20:\n      pop\n      tag_21\n      tag_22\n      calldatasize\n      0x04\n      tag_23\n      jump\t// in\n    tag_22:\n      tag_24\n      jump\t// in\n    tag_21:\n      mload(0x40)\n        /* \"#utility.yul\":5027:5041   */\n      swap1\n      iszero\n        /* \"#utility.yul\":5020:5042   */\n      iszero\n        /* \"#utility.yul\":5002:5043   */\n      dup2\n      mstore\n        /* \"#utility.yul\":4990:4992   */\n      0x20\n        /* \"#utility.yul\":4975:4993   */\n      add\n        /* \"erc721a/contracts/ERC721A.sol\":4551:4851  function supportsInterface(bytes4 interfaceId) public view virtual override(ERC165, IERC165) returns (bool) {... */\n    tag_25:\n      mload(0x40)\n      dup1\n      swap2\n      sub\n      swap1\n      return\n        /* \"erc721a/contracts/ERC721A.sol\":7579:7677  function name() public view virtual override returns (string memory) {... */\n    tag_3:\n      callvalue\n      dup1\n      iszero\n      tag_27\n      jumpi\n      0x00\n      dup1\n      revert\n    tag_27:\n      pop\n      tag_28\n      tag_29\n      jump\t// in\n    tag_28:\n      mload(0x40)\n      tag_25\n      swap2\n      swap1\n      tag_31\n      jump\t// in\n        /* \"erc721a/contracts/ERC721A.sol\":9035:9235  function getApproved(uint256 tokenId) public view override returns (address) {... */\n    tag_4:\n      callvalue\n      dup1\n      iszero\n      tag_32\n      jumpi\n      0x00\n      dup1\n      revert\n    tag_32:\n      pop\n      tag_33\n      tag_34\n      calldatasize\n      0x04\n      tag_35\n      jump\t// in\n    tag_34:\n      tag_36\n      jump\t// in\n    tag_33:\n      mload(0x40)\n      sub(shl(0xa0, 0x01), 0x01)\n        /* \"#utility.yul\":4325:4357   */\n      swap1\n      swap2\n      and\n        /* \"#utility.yul\":4307:4358   */\n      dup2\n      mstore\n        /* \"#utility.yul\":4295:4297   */\n      0x20\n        /* \"#utility.yul\":4280:4298   */\n      add\n        /* \"erc721a/contracts/ERC721A.sol\":9035:9235  function getApproved(uint256 tokenId) public view override returns (address) {... */\n      tag_25\n        /* \"#utility.yul\":4161:4364   */\n      jump\n        /* \"erc721a/contracts/ERC721A.sol\":8612:8974  function approve(address to, uint256 tokenId) public override {... */\n    tag_5:\n      callvalue\n      dup1\n      iszero\n      tag_39\n      jumpi\n      0x00\n      dup1\n      revert\n    tag_39:\n      pop\n      tag_40\n      tag_41\n      calldatasize\n      0x04\n      tag_42\n      jump\t// in\n    tag_41:\n      tag_43\n      jump\t// in\n    tag_40:\n      stop\n        /* \"erc721a/contracts/ERC721A.sol\":3822:4119  function totalSupply() public view returns (uint256) {... */\n    tag_6:\n      callvalue\n      dup1\n      iszero\n      tag_44\n      jumpi\n      0x00\n      dup1\n      revert\n    tag_44:\n      pop\n        /* \"erc721a/contracts/ERC721A.sol\":4072:4084  _burnCounter */\n      sload(0x01)\n        /* \"erc721a/contracts/ERC721A.sol\":3866:3873  uint256 */\n      0x00\n        /* \"erc721a/contracts/ERC721A.sol\":4056:4069  _currentIndex */\n      sload\n        /* \"erc721a/contracts/ERC721A.sol\":4056:4084  _currentIndex - _burnCounter */\n      sub\n        /* \"erc721a/contracts/ERC721A.sol\":3822:4119  function totalSupply() public view returns (uint256) {... */\n    tag_45:\n      mload(0x40)\n        /* \"#utility.yul\":5424:5449   */\n      swap1\n      dup2\n      mstore\n        /* \"#utility.yul\":5412:5414   */\n      0x20\n        /* \"#utility.yul\":5397:5415   */\n      add\n        /* \"erc721a/contracts/ERC721A.sol\":3822:4119  function totalSupply() public view returns (uint256) {... */\n      tag_25\n        /* \"#utility.yul\":5278:5455   */\n      jump\n        /* \"erc721a/contracts/ERC721A.sol\":9874:10038  function transferFrom(... */\n    tag_7:\n      callvalue\n      dup1\n      iszero\n      tag_49\n      jumpi\n      0x00\n      dup1\n      revert\n    tag_49:\n      pop\n      tag_40\n      tag_51\n      calldatasize\n      0x04\n      tag_52\n      jump\t// in\n    tag_51:\n      tag_53\n      jump\t// in\n        /* \"erc721a/contracts/ERC721A.sol\":10104:10283  function safeTransferFrom(... */\n    tag_8:\n      callvalue\n      dup1\n      iszero\n      tag_54\n      jumpi\n      0x00\n      dup1\n      revert\n    tag_54:\n      pop\n      tag_40\n      tag_56\n      calldatasize\n      0x04\n      tag_52\n      jump\t// in\n    tag_56:\n      tag_57\n      jump\t// in\n        /* \"erc721a/contracts/ERC721A.sol\":7394:7517  function ownerOf(uint256 tokenId) public view override returns (address) {... */\n    tag_9:\n      callvalue\n      dup1\n      iszero\n      tag_58\n      jumpi\n      0x00\n      dup1\n      revert\n    tag_58:\n      pop\n      tag_33\n      tag_60\n      calldatasize\n      0x04\n      tag_35\n      jump\t// in\n    tag_60:\n      tag_61\n      jump\t// in\n        /* \"erc721a/contracts/ERC721A.sol\":4910:5113  function balanceOf(address owner) public view override returns (uint256) {... */\n    tag_10:\n      callvalue\n      dup1\n      iszero\n      tag_63\n      jumpi\n      0x00\n      dup1\n      revert\n    tag_63:\n      pop\n      tag_45\n      tag_65\n      calldatasize\n      0x04\n      tag_66\n      jump\t// in\n    tag_65:\n      tag_67\n      jump\t// in\n        /* \"erc721a/contracts/ERC721A.sol\":7741:7843  function symbol() public view virtual override returns (string memory) {... */\n    tag_11:\n      callvalue\n      dup1\n      iszero\n      tag_69\n      jumpi\n      0x00\n      dup1\n      revert\n    tag_69:\n      pop\n      tag_28\n      tag_71\n      jump\t// in\n        /* \"rotatingcube.sol\":197:363  function mint(uint256 quantity) external payable {... */\n    tag_12:\n      tag_40\n      tag_74\n      calldatasize\n      0x04\n      tag_35\n      jump\t// in\n    tag_74:\n      tag_75\n      jump\t// in\n        /* \"erc721a/contracts/ERC721A.sol\":9302:9584  function setApprovalForAll(address operator, bool approved) public virtual override {... */\n    tag_13:\n      callvalue\n      dup1\n      iszero\n      tag_76\n      jumpi\n      0x00\n      dup1\n      revert\n    tag_76:\n      pop\n      tag_40\n      tag_78\n      calldatasize\n      0x04\n      tag_79\n      jump\t// in\n    tag_78:\n      tag_80\n      jump\t// in\n        /* \"erc721a/contracts/ERC721A.sol\":10349:10708  function safeTransferFrom(... */\n    tag_14:\n      callvalue\n      dup1\n      iszero\n      tag_81\n      jumpi\n      0x00\n      dup1\n      revert\n    tag_81:\n      pop\n      tag_40\n      tag_83\n      calldatasize\n      0x04\n      tag_84\n      jump\t// in\n    tag_83:\n      tag_85\n      jump\t// in\n        /* \"erc721a/contracts/ERC721A.sol\":7909:8222  function tokenURI(uint256 tokenId) public view virtual override returns (string memory) {... */\n    tag_15:\n      callvalue\n      dup1\n      iszero\n      tag_86\n      jumpi\n      0x00\n      dup1\n      revert\n    tag_86:\n      pop\n      tag_28\n      tag_88\n      calldatasize\n      0x04\n      tag_35\n      jump\t// in\n    tag_88:\n      tag_89\n      jump\t// in\n        /* \"erc721a/contracts/ERC721A.sol\":9650:9812  function isApprovedForAll(address owner, address operator) public view virtual override returns (bool) {... */\n    tag_16:\n      callvalue\n      dup1\n      iszero\n      tag_91\n      jumpi\n      0x00\n      dup1\n      revert\n    tag_91:\n      pop\n      tag_21\n      tag_93\n      calldatasize\n      0x04\n      tag_94\n      jump\t// in\n    tag_93:\n      sub(shl(0xa0, 0x01), 0x01)\n        /* \"erc721a/contracts/ERC721A.sol\":9770:9795  _operatorApprovals[owner] */\n      swap2\n      dup3\n      and\n        /* \"erc721a/contracts/ERC721A.sol\":9747:9751  bool */\n      0x00\n        /* \"erc721a/contracts/ERC721A.sol\":9770:9795  _operatorApprovals[owner] */\n      swap1\n      dup2\n      mstore\n        /* \"erc721a/contracts/ERC721A.sol\":9770:9788  _operatorApprovals */\n      0x07\n        /* \"erc721a/contracts/ERC721A.sol\":9770:9795  _operatorApprovals[owner] */\n      0x20\n      swap1\n      dup2\n      mstore\n      0x40\n      dup1\n      dup4\n      keccak256\n        /* \"erc721a/contracts/ERC721A.sol\":9770:9805  _operatorApprovals[owner][operator] */\n      swap4\n      swap1\n      swap5\n      and\n      dup3\n      mstore\n      swap2\n      swap1\n      swap2\n      mstore\n      keccak256\n      sload\n      0xff\n      and\n      swap1\n        /* \"erc721a/contracts/ERC721A.sol\":9650:9812  function isApprovedForAll(address owner, address operator) public view virtual override returns (bool) {... */\n      jump\n        /* \"erc721a/contracts/ERC721A.sol\":4551:4851  function supportsInterface(bytes4 interfaceId) public view virtual override(ERC165, IERC165) returns (bool) {... */\n    tag_24:\n        /* \"erc721a/contracts/ERC721A.sol\":4653:4657  bool */\n      0x00\n      not(sub(shl(0xe0, 0x01), 0x01))\n        /* \"erc721a/contracts/ERC721A.sol\":4688:4728  interfaceId == type(IERC721).interfaceId */\n      dup3\n      and\n      shl(0xe0, 0x80ac58cd)\n      eq\n      dup1\n        /* \"erc721a/contracts/ERC721A.sol\":4688:4792  interfaceId == type(IERC721).interfaceId ||... */\n      tag_98\n      jumpi\n      pop\n      not(sub(shl(0xe0, 0x01), 0x01))\n        /* \"erc721a/contracts/ERC721A.sol\":4744:4792  interfaceId == type(IERC721Metadata).interfaceId */\n      dup3\n      and\n      shl(0xe0, 0x5b5e139f)\n      eq\n        /* \"erc721a/contracts/ERC721A.sol\":4688:4792  interfaceId == type(IERC721).interfaceId ||... */\n    tag_98:\n        /* \"erc721a/contracts/ERC721A.sol\":4688:4844  interfaceId == type(IERC721).interfaceId ||... */\n      dup1\n      tag_100\n      jumpi\n      pop\n      shl(0xe0, 0x01ffc9a7)\n      not(sub(shl(0xe0, 0x01), 0x01))\n        /* \"@openzeppelin/contracts/utils/introspection/ERC165.sol\":937:977  interfaceId == type(IERC165).interfaceId */\n      dup4\n      and\n      eq\n        /* \"erc721a/contracts/ERC721A.sol\":4808:4844  super.supportsInterface(interfaceId) */\n    tag_100:\n        /* \"erc721a/contracts/ERC721A.sol\":4669:4844  return... */\n      swap3\n        /* \"erc721a/contracts/ERC721A.sol\":4551:4851  function supportsInterface(bytes4 interfaceId) public view virtual override(ERC165, IERC165) returns (bool) {... */\n      swap2\n      pop\n      pop\n      jump\t// out\n        /* \"erc721a/contracts/ERC721A.sol\":7579:7677  function name() public view virtual override returns (string memory) {... */\n    tag_29:\n        /* \"erc721a/contracts/ERC721A.sol\":7633:7646  string memory */\n      0x60\n        /* \"erc721a/contracts/ERC721A.sol\":7665:7670  _name */\n      0x02\n        /* \"erc721a/contracts/ERC721A.sol\":7658:7670  return _name */\n      dup1\n      sload\n      tag_103\n      swap1\n      tag_104\n      jump\t// in\n    tag_103:\n      dup1\n      0x1f\n      add\n      0x20\n      dup1\n      swap2\n      div\n      mul\n      0x20\n      add\n      mload(0x40)\n      swap1\n      dup2\n      add\n      0x40\n      mstore\n      dup1\n      swap3\n      swap2\n      swap1\n      dup2\n      dup2\n      mstore\n      0x20\n      add\n      dup3\n      dup1\n      sload\n      tag_105\n      swap1\n      tag_104\n      jump\t// in\n    tag_105:\n      dup1\n      iszero\n      tag_106\n      jumpi\n      dup1\n      0x1f\n      lt\n      tag_107\n      jumpi\n      0x0100\n      dup1\n      dup4\n      sload\n      div\n      mul\n      dup4\n      mstore\n      swap2\n      0x20\n      add\n      swap2\n      jump(tag_106)\n    tag_107:\n      dup3\n      add\n      swap2\n      swap1\n      0x00\n      mstore\n      keccak256(0x00, 0x20)\n      swap1\n    tag_108:\n      dup2\n      sload\n      dup2\n      mstore\n      swap1\n      0x01\n      add\n      swap1\n      0x20\n      add\n      dup1\n      dup4\n      gt\n      tag_108\n      jumpi\n      dup3\n      swap1\n      sub\n      0x1f\n      and\n      dup3\n      add\n      swap2\n    tag_106:\n      pop\n      pop\n      pop\n      pop\n      pop\n      swap1\n      pop\n        /* \"erc721a/contracts/ERC721A.sol\":7579:7677  function name() public view virtual override returns (string memory) {... */\n      swap1\n      jump\t// out\n        /* \"erc721a/contracts/ERC721A.sol\":9035:9235  function getApproved(uint256 tokenId) public view override returns (address) {... */\n    tag_36:\n        /* \"erc721a/contracts/ERC721A.sol\":9103:9110  address */\n      0x00\n        /* \"erc721a/contracts/ERC721A.sol\":9127:9143  _exists(tokenId) */\n      tag_110\n        /* \"erc721a/contracts/ERC721A.sol\":9135:9142  tokenId */\n      dup3\n        /* \"erc721a/contracts/ERC721A.sol\":9127:9134  _exists */\n      tag_111\n        /* \"erc721a/contracts/ERC721A.sol\":9127:9143  _exists(tokenId) */\n      jump\t// in\n    tag_110:\n        /* \"erc721a/contracts/ERC721A.sol\":9122:9186  if (!_exists(tokenId)) revert ApprovalQueryForNonexistentToken() */\n      tag_112\n      jumpi\n        /* \"erc721a/contracts/ERC721A.sol\":9152:9186  ApprovalQueryForNonexistentToken() */\n      mload(0x40)\n      shl(0xe2, 0x33d1c039)\n      dup2\n      mstore\n      0x04\n      add\n      mload(0x40)\n      dup1\n      swap2\n      sub\n      swap1\n      revert\n        /* \"erc721a/contracts/ERC721A.sol\":9122:9186  if (!_exists(tokenId)) revert ApprovalQueryForNonexistentToken() */\n    tag_112:\n      pop\n        /* \"erc721a/contracts/ERC721A.sol\":9204:9228  _tokenApprovals[tokenId] */\n      0x00\n      swap1\n      dup2\n      mstore\n        /* \"erc721a/contracts/ERC721A.sol\":9204:9219  _tokenApprovals */\n      0x06\n        /* \"erc721a/contracts/ERC721A.sol\":9204:9228  _tokenApprovals[tokenId] */\n      0x20\n      mstore\n      0x40\n      swap1\n      keccak256\n      sload\n      sub(shl(0xa0, 0x01), 0x01)\n      and\n      swap1\n        /* \"erc721a/contracts/ERC721A.sol\":9035:9235  function getApproved(uint256 tokenId) public view override returns (address) {... */\n      jump\t// out\n        /* \"erc721a/contracts/ERC721A.sol\":8612:8974  function approve(address to, uint256 tokenId) public override {... */\n    tag_43:\n        /* \"erc721a/contracts/ERC721A.sol\":8684:8697  address owner */\n      0x00\n        /* \"erc721a/contracts/ERC721A.sol\":8700:8724  ERC721A.ownerOf(tokenId) */\n      tag_114\n        /* \"erc721a/contracts/ERC721A.sol\":8716:8723  tokenId */\n      dup3\n        /* \"erc721a/contracts/ERC721A.sol\":8700:8715  ERC721A.ownerOf */\n      tag_61\n        /* \"erc721a/contracts/ERC721A.sol\":8700:8724  ERC721A.ownerOf(tokenId) */\n      jump\t// in\n    tag_114:\n        /* \"erc721a/contracts/ERC721A.sol\":8684:8724  address owner = ERC721A.ownerOf(tokenId) */\n      swap1\n      pop\n        /* \"erc721a/contracts/ERC721A.sol\":8744:8749  owner */\n      dup1\n      sub(shl(0xa0, 0x01), 0x01)\n        /* \"erc721a/contracts/ERC721A.sol\":8738:8749  to == owner */\n      and\n        /* \"erc721a/contracts/ERC721A.sol\":8738:8740  to */\n      dup4\n      sub(shl(0xa0, 0x01), 0x01)\n        /* \"erc721a/contracts/ERC721A.sol\":8738:8749  to == owner */\n      and\n      eq\n        /* \"erc721a/contracts/ERC721A.sol\":8734:8782  if (to == owner) revert ApprovalToCurrentOwner() */\n      iszero\n      tag_115\n      jumpi\n        /* \"erc721a/contracts/ERC721A.sol\":8758:8782  ApprovalToCurrentOwner() */\n      mload(0x40)\n      shl(0xe2, 0x250fdee3)\n      dup2\n      mstore\n      0x04\n      add\n      mload(0x40)\n      dup1\n      swap2\n      sub\n      swap1\n      revert\n        /* \"erc721a/contracts/ERC721A.sol\":8734:8782  if (to == owner) revert ApprovalToCurrentOwner() */\n    tag_115:\n        /* \"@openzeppelin/contracts/utils/Context.sol\":719:729  msg.sender */\n      caller\n      sub(shl(0xa0, 0x01), 0x01)\n        /* \"erc721a/contracts/ERC721A.sol\":8797:8818  _msgSender() != owner */\n      dup3\n      and\n      eq\n      dup1\n      iszero\n      swap1\n        /* \"erc721a/contracts/ERC721A.sol\":8797:8860  _msgSender() != owner && !isApprovedForAll(owner, _msgSender()) */\n      tag_118\n      jumpi\n      pop\n        /* \"erc721a/contracts/ERC721A.sol\":8823:8860  isApprovedForAll(owner, _msgSender()) */\n      tag_119\n        /* \"erc721a/contracts/ERC721A.sol\":8840:8845  owner */\n      dup2\n        /* \"@openzeppelin/contracts/utils/Context.sol\":719:729  msg.sender */\n      caller\n        /* \"erc721a/contracts/ERC721A.sol\":9650:9812  function isApprovedForAll(address owner, address operator) public view virtual override returns (bool) {... */\n      tag_93\n      jump\t// in\n        /* \"erc721a/contracts/ERC721A.sol\":8823:8860  isApprovedForAll(owner, _msgSender()) */\n    tag_119:\n        /* \"erc721a/contracts/ERC721A.sol\":8822:8860  !isApprovedForAll(owner, _msgSender()) */\n      iszero\n        /* \"erc721a/contracts/ERC721A.sol\":8797:8860  _msgSender() != owner && !isApprovedForAll(owner, _msgSender()) */\n    tag_118:\n        /* \"erc721a/contracts/ERC721A.sol\":8793:8929  if (_msgSender() != owner && !isApprovedForAll(owner, _msgSender())) {... */\n      iszero\n      tag_121\n      jumpi\n        /* \"erc721a/contracts/ERC721A.sol\":8883:8918  ApprovalCallerNotOwnerNorApproved() */\n      mload(0x40)\n      shl(0xe1, 0x67d9dca1)\n      dup2\n      mstore\n      0x04\n      add\n      mload(0x40)\n      dup1\n      swap2\n      sub\n      swap1\n      revert\n        /* \"erc721a/contracts/ERC721A.sol\":8793:8929  if (_msgSender() != owner && !isApprovedForAll(owner, _msgSender())) {... */\n    tag_121:\n        /* \"erc721a/contracts/ERC721A.sol\":8939:8967  _approve(to, tokenId, owner) */\n      tag_122\n        /* \"erc721a/contracts/ERC721A.sol\":8948:8950  to */\n      dup4\n        /* \"erc721a/contracts/ERC721A.sol\":8952:8959  tokenId */\n      dup4\n        /* \"erc721a/contracts/ERC721A.sol\":8961:8966  owner */\n      dup4\n        /* \"erc721a/contracts/ERC721A.sol\":8939:8947  _approve */\n      tag_123\n        /* \"erc721a/contracts/ERC721A.sol\":8939:8967  _approve(to, tokenId, owner) */\n      jump\t// in\n    tag_122:\n        /* \"erc721a/contracts/ERC721A.sol\":8674:8974  {... */\n      pop\n        /* \"erc721a/contracts/ERC721A.sol\":8612:8974  function approve(address to, uint256 tokenId) public override {... */\n      pop\n      pop\n      jump\t// out\n        /* \"erc721a/contracts/ERC721A.sol\":9874:10038  function transferFrom(... */\n    tag_53:\n        /* \"erc721a/contracts/ERC721A.sol\":10003:10031  _transfer(from, to, tokenId) */\n      tag_122\n        /* \"erc721a/contracts/ERC721A.sol\":10013:10017  from */\n      dup4\n        /* \"erc721a/contracts/ERC721A.sol\":10019:10021  to */\n      dup4\n        /* \"erc721a/contracts/ERC721A.sol\":10023:10030  tokenId */\n      dup4\n        /* \"erc721a/contracts/ERC721A.sol\":10003:10012  _transfer */\n      tag_129\n        /* \"erc721a/contracts/ERC721A.sol\":10003:10031  _transfer(from, to, tokenId) */\n      jump\t// in\n        /* \"erc721a/contracts/ERC721A.sol\":10104:10283  function safeTransferFrom(... */\n    tag_57:\n        /* \"erc721a/contracts/ERC721A.sol\":10237:10276  safeTransferFrom(from, to, tokenId, '') */\n      tag_122\n        /* \"erc721a/contracts/ERC721A.sol\":10254:10258  from */\n      dup4\n        /* \"erc721a/contracts/ERC721A.sol\":10260:10262  to */\n      dup4\n        /* \"erc721a/contracts/ERC721A.sol\":10264:10271  tokenId */\n      dup4\n        /* \"erc721a/contracts/ERC721A.sol\":10237:10276  safeTransferFrom(from, to, tokenId, '') */\n      mload(0x40)\n      dup1\n      0x20\n      add\n      0x40\n      mstore\n      dup1\n      0x00\n      dup2\n      mstore\n      pop\n        /* \"erc721a/contracts/ERC721A.sol\":10237:10253  safeTransferFrom */\n      tag_85\n        /* \"erc721a/contracts/ERC721A.sol\":10237:10276  safeTransferFrom(from, to, tokenId, '') */\n      jump\t// in\n        /* \"erc721a/contracts/ERC721A.sol\":7394:7517  function ownerOf(uint256 tokenId) public view override returns (address) {... */\n    tag_61:\n        /* \"erc721a/contracts/ERC721A.sol\":7458:7465  address */\n      0x00\n        /* \"erc721a/contracts/ERC721A.sol\":7484:7505  _ownershipOf(tokenId) */\n      tag_133\n        /* \"erc721a/contracts/ERC721A.sol\":7497:7504  tokenId */\n      dup3\n        /* \"erc721a/contracts/ERC721A.sol\":7484:7496  _ownershipOf */\n      tag_134\n        /* \"erc721a/contracts/ERC721A.sol\":7484:7505  _ownershipOf(tokenId) */\n      jump\t// in\n    tag_133:\n        /* \"erc721a/contracts/ERC721A.sol\":7484:7510  _ownershipOf(tokenId).addr */\n      mload\n      swap3\n        /* \"erc721a/contracts/ERC721A.sol\":7394:7517  function ownerOf(uint256 tokenId) public view override returns (address) {... */\n      swap2\n      pop\n      pop\n      jump\t// out\n        /* \"erc721a/contracts/ERC721A.sol\":4910:5113  function balanceOf(address owner) public view override returns (uint256) {... */\n    tag_67:\n        /* \"erc721a/contracts/ERC721A.sol\":4974:4981  uint256 */\n      0x00\n      sub(shl(0xa0, 0x01), 0x01)\n        /* \"erc721a/contracts/ERC721A.sol\":4997:5016  owner == address(0) */\n      dup3\n      and\n        /* \"erc721a/contracts/ERC721A.sol\":4993:5053  if (owner == address(0)) revert BalanceQueryForZeroAddress() */\n      tag_136\n      jumpi\n        /* \"erc721a/contracts/ERC721A.sol\":5025:5053  BalanceQueryForZeroAddress() */\n      mload(0x40)\n      shl(0xe2, 0x23d3ad81)\n      dup2\n      mstore\n      0x04\n      add\n      mload(0x40)\n      dup1\n      swap2\n      sub\n      swap1\n      revert\n        /* \"erc721a/contracts/ERC721A.sol\":4993:5053  if (owner == address(0)) revert BalanceQueryForZeroAddress() */\n    tag_136:\n      pop\n      sub(shl(0xa0, 0x01), 0x01)\n        /* \"erc721a/contracts/ERC721A.sol\":5078:5097  _addressData[owner] */\n      and\n      0x00\n      swap1\n      dup2\n      mstore\n        /* \"erc721a/contracts/ERC721A.sol\":5078:5090  _addressData */\n      0x05\n        /* \"erc721a/contracts/ERC721A.sol\":5078:5097  _addressData[owner] */\n      0x20\n      mstore\n      0x40\n      swap1\n      keccak256\n        /* \"erc721a/contracts/ERC721A.sol\":5078:5105  _addressData[owner].balance */\n      sload\n      0xffffffffffffffff\n      and\n      swap1\n        /* \"erc721a/contracts/ERC721A.sol\":4910:5113  function balanceOf(address owner) public view override returns (uint256) {... */\n      jump\t// out\n        /* \"erc721a/contracts/ERC721A.sol\":7741:7843  function symbol() public view virtual override returns (string memory) {... */\n    tag_71:\n        /* \"erc721a/contracts/ERC721A.sol\":7797:7810  string memory */\n      0x60\n        /* \"erc721a/contracts/ERC721A.sol\":7829:7836  _symbol */\n      0x03\n        /* \"erc721a/contracts/ERC721A.sol\":7822:7836  return _symbol */\n      dup1\n      sload\n      tag_103\n      swap1\n      tag_104\n      jump\t// in\n        /* \"rotatingcube.sol\":197:363  function mint(uint256 quantity) external payable {... */\n    tag_75:\n        /* \"rotatingcube.sol\":327:358  _safeMint(msg.sender, quantity) */\n      tag_144\n        /* \"rotatingcube.sol\":337:347  msg.sender */\n      caller\n        /* \"rotatingcube.sol\":349:357  quantity */\n      dup3\n        /* \"rotatingcube.sol\":327:336  _safeMint */\n      tag_145\n        /* \"rotatingcube.sol\":327:358  _safeMint(msg.sender, quantity) */\n      jump\t// in\n    tag_144:\n        /* \"rotatingcube.sol\":197:363  function mint(uint256 quantity) external payable {... */\n      pop\n      jump\t// out\n        /* \"erc721a/contracts/ERC721A.sol\":9302:9584  function setApprovalForAll(address operator, bool approved) public virtual override {... */\n    tag_80:\n      sub(shl(0xa0, 0x01), 0x01)\n        /* \"erc721a/contracts/ERC721A.sol\":9400:9424  operator == _msgSender() */\n      dup3\n      and\n        /* \"@openzeppelin/contracts/utils/Context.sol\":719:729  msg.sender */\n      caller\n        /* \"erc721a/contracts/ERC721A.sol\":9400:9424  operator == _msgSender() */\n      eq\n        /* \"erc721a/contracts/ERC721A.sol\":9396:9450  if (operator == _msgSender()) revert ApproveToCaller() */\n      iszero\n      tag_148\n      jumpi\n        /* \"erc721a/contracts/ERC721A.sol\":9433:9450  ApproveToCaller() */\n      mload(0x40)\n      shl(0xe0, 0xb06307db)\n      dup2\n      mstore\n      0x04\n      add\n      mload(0x40)\n      dup1\n      swap2\n      sub\n      swap1\n      revert\n        /* \"erc721a/contracts/ERC721A.sol\":9396:9450  if (operator == _msgSender()) revert ApproveToCaller() */\n    tag_148:\n        /* \"@openzeppelin/contracts/utils/Context.sol\":719:729  msg.sender */\n      caller\n        /* \"erc721a/contracts/ERC721A.sol\":9461:9493  _operatorApprovals[_msgSender()] */\n      0x00\n      dup2\n      dup2\n      mstore\n        /* \"erc721a/contracts/ERC721A.sol\":9461:9479  _operatorApprovals */\n      0x07\n        /* \"erc721a/contracts/ERC721A.sol\":9461:9493  _operatorApprovals[_msgSender()] */\n      0x20\n      swap1\n      dup2\n      mstore\n      0x40\n      dup1\n      dup4\n      keccak256\n      sub(shl(0xa0, 0x01), 0x01)\n        /* \"erc721a/contracts/ERC721A.sol\":9461:9503  _operatorApprovals[_msgSender()][operator] */\n      dup8\n      and\n      dup1\n      dup6\n      mstore\n      swap1\n      dup4\n      mstore\n      swap3\n      dup2\n      swap1\n      keccak256\n        /* \"erc721a/contracts/ERC721A.sol\":9461:9514  _operatorApprovals[_msgSender()][operator] = approved */\n      dup1\n      sload\n      not(0xff)\n      and\n      dup7\n      iszero\n      iszero\n      swap1\n      dup2\n      or\n      swap1\n      swap2\n      sstore\n        /* \"erc721a/contracts/ERC721A.sol\":9529:9577  ApprovalForAll(_msgSender(), operator, approved) */\n      swap1\n      mload\n        /* \"#utility.yul\":5002:5043   */\n      swap1\n      dup2\n      mstore\n        /* \"erc721a/contracts/ERC721A.sol\":9461:9503  _operatorApprovals[_msgSender()][operator] */\n      swap2\n      swap3\n        /* \"@openzeppelin/contracts/utils/Context.sol\":719:729  msg.sender */\n      swap2\n        /* \"erc721a/contracts/ERC721A.sol\":9529:9577  ApprovalForAll(_msgSender(), operator, approved) */\n      0x17307eab39ab6107e8899845ad3d59bd9653f200f220920489ca2b5937696c31\n      swap2\n        /* \"#utility.yul\":4975:4993   */\n      add\n        /* \"erc721a/contracts/ERC721A.sol\":9529:9577  ApprovalForAll(_msgSender(), operator, approved) */\n      mload(0x40)\n      dup1\n      swap2\n      sub\n      swap1\n      log3\n        /* \"erc721a/contracts/ERC721A.sol\":9302:9584  function setApprovalForAll(address operator, bool approved) public virtual override {... */\n      pop\n      pop\n      jump\t// out\n        /* \"erc721a/contracts/ERC721A.sol\":10349:10708  function safeTransferFrom(... */\n    tag_85:\n        /* \"erc721a/contracts/ERC721A.sol\":10510:10538  _transfer(from, to, tokenId) */\n      tag_153\n        /* \"erc721a/contracts/ERC721A.sol\":10520:10524  from */\n      dup5\n        /* \"erc721a/contracts/ERC721A.sol\":10526:10528  to */\n      dup5\n        /* \"erc721a/contracts/ERC721A.sol\":10530:10537  tokenId */\n      dup5\n        /* \"erc721a/contracts/ERC721A.sol\":10510:10519  _transfer */\n      tag_129\n        /* \"erc721a/contracts/ERC721A.sol\":10510:10538  _transfer(from, to, tokenId) */\n      jump\t// in\n    tag_153:\n      sub(shl(0xa0, 0x01), 0x01)\n        /* \"erc721a/contracts/ERC721A.sol\":10552:10565  to.isContract */\n      dup4\n      and\n        /* \"@openzeppelin/contracts/utils/Address.sol\":1465:1484  account.code.length */\n      extcodesize\n        /* \"@openzeppelin/contracts/utils/Address.sol\":1465:1488  account.code.length > 0 */\n      iszero\n      iszero\n        /* \"erc721a/contracts/ERC721A.sol\":10552:10628  to.isContract() && !_checkContractOnERC721Received(from, to, tokenId, _data) */\n      dup1\n      iszero\n      tag_156\n      jumpi\n      pop\n        /* \"erc721a/contracts/ERC721A.sol\":10572:10628  _checkContractOnERC721Received(from, to, tokenId, _data) */\n      tag_157\n        /* \"erc721a/contracts/ERC721A.sol\":10603:10607  from */\n      dup5\n        /* \"erc721a/contracts/ERC721A.sol\":10609:10611  to */\n      dup5\n        /* \"erc721a/contracts/ERC721A.sol\":10613:10620  tokenId */\n      dup5\n        /* \"erc721a/contracts/ERC721A.sol\":10622:10627  _data */\n      dup5\n        /* \"erc721a/contracts/ERC721A.sol\":10572:10602  _checkContractOnERC721Received */\n      tag_158\n        /* \"erc721a/contracts/ERC721A.sol\":10572:10628  _checkContractOnERC721Received(from, to, tokenId, _data) */\n      jump\t// in\n    tag_157:\n        /* \"erc721a/contracts/ERC721A.sol\":10571:10628  !_checkContractOnERC721Received(from, to, tokenId, _data) */\n      iszero\n        /* \"erc721a/contracts/ERC721A.sol\":10552:10628  to.isContract() && !_checkContractOnERC721Received(from, to, tokenId, _data) */\n    tag_156:\n        /* \"erc721a/contracts/ERC721A.sol\":10548:10702  if (to.isContract() && !_checkContractOnERC721Received(from, to, tokenId, _data)) {... */\n      iszero\n      tag_159\n      jumpi\n        /* \"erc721a/contracts/ERC721A.sol\":10651:10691  TransferToNonERC721ReceiverImplementer() */\n      mload(0x40)\n      shl(0xe1, 0x68d2bf6b)\n      dup2\n      mstore\n      0x04\n      add\n      mload(0x40)\n      dup1\n      swap2\n      sub\n      swap1\n      revert\n        /* \"erc721a/contracts/ERC721A.sol\":10548:10702  if (to.isContract() && !_checkContractOnERC721Received(from, to, tokenId, _data)) {... */\n    tag_159:\n        /* \"erc721a/contracts/ERC721A.sol\":10349:10708  function safeTransferFrom(... */\n      pop\n      pop\n      pop\n      pop\n      jump\t// out\n        /* \"erc721a/contracts/ERC721A.sol\":7909:8222  function tokenURI(uint256 tokenId) public view virtual override returns (string memory) {... */\n    tag_89:\n        /* \"erc721a/contracts/ERC721A.sol\":7982:7995  string memory */\n      0x60\n        /* \"erc721a/contracts/ERC721A.sol\":8012:8028  _exists(tokenId) */\n      tag_161\n        /* \"erc721a/contracts/ERC721A.sol\":8020:8027  tokenId */\n      dup3\n        /* \"erc721a/contracts/ERC721A.sol\":8012:8019  _exists */\n      tag_111\n        /* \"erc721a/contracts/ERC721A.sol\":8012:8028  _exists(tokenId) */\n      jump\t// in\n    tag_161:\n        /* \"erc721a/contracts/ERC721A.sol\":8007:8066  if (!_exists(tokenId)) revert URIQueryForNonexistentToken() */\n      tag_162\n      jumpi\n        /* \"erc721a/contracts/ERC721A.sol\":8037:8066  URIQueryForNonexistentToken() */\n      mload(0x40)\n      shl(0xe4, 0x0a14c4b5)\n      dup2\n      mstore\n      0x04\n      add\n      mload(0x40)\n      dup1\n      swap2\n      sub\n      swap1\n      revert\n        /* \"erc721a/contracts/ERC721A.sol\":8007:8066  if (!_exists(tokenId)) revert URIQueryForNonexistentToken() */\n    tag_162:\n        /* \"erc721a/contracts/ERC721A.sol\":8077:8098  string memory baseURI */\n      0x00\n        /* \"erc721a/contracts/ERC721A.sol\":8101:8111  _baseURI() */\n      tag_163\n        /* \"erc721a/contracts/ERC721A.sol\":8539:8548  return '' */\n      0x40\n      dup1\n      mload\n      0x20\n      dup2\n      add\n      swap1\n      swap2\n      mstore\n      0x00\n      dup2\n      mstore\n      swap1\n        /* \"erc721a/contracts/ERC721A.sol\":8463:8555  function _baseURI() internal view virtual returns (string memory) {... */\n      jump\n        /* \"erc721a/contracts/ERC721A.sol\":8101:8111  _baseURI() */\n    tag_163:\n        /* \"erc721a/contracts/ERC721A.sol\":8077:8111  string memory baseURI = _baseURI() */\n      swap1\n      pop\n        /* \"erc721a/contracts/ERC721A.sol\":8134:8141  baseURI */\n      dup1\n        /* \"erc721a/contracts/ERC721A.sol\":8128:8149  bytes(baseURI).length */\n      mload\n        /* \"erc721a/contracts/ERC721A.sol\":8153:8154  0 */\n      0x00\n        /* \"erc721a/contracts/ERC721A.sol\":8128:8154  bytes(baseURI).length != 0 */\n      eq\n      iszero\n        /* \"erc721a/contracts/ERC721A.sol\":8128:8215  bytes(baseURI).length != 0 ? string(abi.encodePacked(baseURI, tokenId.toString())) : '' */\n      tag_165\n      jumpi\n      mload(0x40)\n      dup1\n      0x20\n      add\n      0x40\n      mstore\n      dup1\n      0x00\n      dup2\n      mstore\n      pop\n      jump(tag_166)\n    tag_165:\n        /* \"erc721a/contracts/ERC721A.sol\":8181:8188  baseURI */\n      dup1\n        /* \"erc721a/contracts/ERC721A.sol\":8190:8208  tokenId.toString() */\n      tag_167\n        /* \"erc721a/contracts/ERC721A.sol\":8190:8197  tokenId */\n      dup5\n        /* \"erc721a/contracts/ERC721A.sol\":8190:8206  tokenId.toString */\n      tag_168\n        /* \"erc721a/contracts/ERC721A.sol\":8190:8208  tokenId.toString() */\n      jump\t// in\n    tag_167:\n        /* \"erc721a/contracts/ERC721A.sol\":8164:8209  abi.encodePacked(baseURI, tokenId.toString()) */\n      add(0x20, mload(0x40))\n      tag_169\n      swap3\n      swap2\n      swap1\n      tag_170\n      jump\t// in\n    tag_169:\n      mload(0x40)\n      0x20\n      dup2\n      dup4\n      sub\n      sub\n      dup2\n      mstore\n      swap1\n      0x40\n      mstore\n        /* \"erc721a/contracts/ERC721A.sol\":8128:8215  bytes(baseURI).length != 0 ? string(abi.encodePacked(baseURI, tokenId.toString())) : '' */\n    tag_166:\n        /* \"erc721a/contracts/ERC721A.sol\":8121:8215  return bytes(baseURI).length != 0 ? string(abi.encodePacked(baseURI, tokenId.toString())) : '' */\n      swap4\n        /* \"erc721a/contracts/ERC721A.sol\":7909:8222  function tokenURI(uint256 tokenId) public view virtual override returns (string memory) {... */\n      swap3\n      pop\n      pop\n      pop\n      jump\t// out\n        /* \"erc721a/contracts/ERC721A.sol\":10954:11126  function _exists(uint256 tokenId) internal view returns (bool) {... */\n    tag_111:\n        /* \"erc721a/contracts/ERC721A.sol\":11011:11015  bool */\n      0x00\n        /* \"erc721a/contracts/ERC721A.sol\":11074:11087  _currentIndex */\n      dup1\n      sload\n        /* \"erc721a/contracts/ERC721A.sol\":11064:11071  tokenId */\n      dup3\n        /* \"erc721a/contracts/ERC721A.sol\":11064:11087  tokenId < _currentIndex */\n      lt\n        /* \"erc721a/contracts/ERC721A.sol\":11034:11119  _startTokenId() <= tokenId && tokenId < _currentIndex && !_ownerships[tokenId].burned */\n      dup1\n      iszero\n      tag_100\n      jumpi\n      pop\n      pop\n        /* \"erc721a/contracts/ERC721A.sol\":11092:11112  _ownerships[tokenId] */\n      0x00\n      swap1\n      dup2\n      mstore\n        /* \"erc721a/contracts/ERC721A.sol\":11092:11103  _ownerships */\n      0x04\n        /* \"erc721a/contracts/ERC721A.sol\":11092:11112  _ownerships[tokenId] */\n      0x20\n      mstore\n      0x40\n      swap1\n      keccak256\n        /* \"erc721a/contracts/ERC721A.sol\":11092:11119  _ownerships[tokenId].burned */\n      sload\n      shl(0xe0, 0x01)\n      swap1\n      div\n      0xff\n      and\n        /* \"erc721a/contracts/ERC721A.sol\":11091:11119  !_ownerships[tokenId].burned */\n      iszero\n      swap1\n        /* \"erc721a/contracts/ERC721A.sol\":10954:11126  function _exists(uint256 tokenId) internal view returns (bool) {... */\n      jump\t// out\n        /* \"erc721a/contracts/ERC721A.sol\":18894:19083  function _approve(... */\n    tag_123:\n        /* \"erc721a/contracts/ERC721A.sol\":19004:19028  _tokenApprovals[tokenId] */\n      0x00\n      dup3\n      dup2\n      mstore\n        /* \"erc721a/contracts/ERC721A.sol\":19004:19019  _tokenApprovals */\n      0x06\n        /* \"erc721a/contracts/ERC721A.sol\":19004:19028  _tokenApprovals[tokenId] */\n      0x20\n      mstore\n      0x40\n      dup1\n      dup3\n      keccak256\n        /* \"erc721a/contracts/ERC721A.sol\":19004:19033  _tokenApprovals[tokenId] = to */\n      dup1\n      sload\n      not(sub(shl(0xa0, 0x01), 0x01))\n      and\n      sub(shl(0xa0, 0x01), 0x01)\n      dup8\n      dup2\n      and\n      swap2\n      dup3\n      or\n      swap1\n      swap3\n      sstore\n        /* \"erc721a/contracts/ERC721A.sol\":19048:19076  Approval(owner, to, tokenId) */\n      swap2\n      mload\n        /* \"erc721a/contracts/ERC721A.sol\":19004:19028  _tokenApprovals[tokenId] */\n      dup6\n      swap4\n        /* \"erc721a/contracts/ERC721A.sol\":19048:19076  Approval(owner, to, tokenId) */\n      swap2\n      dup6\n      and\n      swap2\n      0x8c5be1e5ebec7d5bd14f71427d1e84f3dd0314c0f7b2291e5b200ac8c7c3b925\n      swap2\n      log4\n        /* \"erc721a/contracts/ERC721A.sol\":18894:19083  function _approve(... */\n      pop\n      pop\n      pop\n      jump\t// out\n        /* \"erc721a/contracts/ERC721A.sol\":13964:16046  function _transfer(... */\n    tag_129:\n        /* \"erc721a/contracts/ERC721A.sol\":14074:14109  TokenOwnership memory prevOwnership */\n      0x00\n        /* \"erc721a/contracts/ERC721A.sol\":14112:14133  _ownershipOf(tokenId) */\n      tag_181\n        /* \"erc721a/contracts/ERC721A.sol\":14125:14132  tokenId */\n      dup3\n        /* \"erc721a/contracts/ERC721A.sol\":14112:14124  _ownershipOf */\n      tag_134\n        /* \"erc721a/contracts/ERC721A.sol\":14112:14133  _ownershipOf(tokenId) */\n      jump\t// in\n    tag_181:\n        /* \"erc721a/contracts/ERC721A.sol\":14074:14133  TokenOwnership memory prevOwnership = _ownershipOf(tokenId) */\n      swap1\n      pop\n        /* \"erc721a/contracts/ERC721A.sol\":14170:14174  from */\n      dup4\n      sub(shl(0xa0, 0x01), 0x01)\n        /* \"erc721a/contracts/ERC721A.sol\":14148:14174  prevOwnership.addr != from */\n      and\n        /* \"erc721a/contracts/ERC721A.sol\":14148:14161  prevOwnership */\n      dup2\n        /* \"erc721a/contracts/ERC721A.sol\":14148:14166  prevOwnership.addr */\n      0x00\n      add\n      mload\n      sub(shl(0xa0, 0x01), 0x01)\n        /* \"erc721a/contracts/ERC721A.sol\":14148:14174  prevOwnership.addr != from */\n      and\n      eq\n        /* \"erc721a/contracts/ERC721A.sol\":14144:14211  if (prevOwnership.addr != from) revert TransferFromIncorrectOwner() */\n      tag_182\n      jumpi\n        /* \"erc721a/contracts/ERC721A.sol\":14183:14211  TransferFromIncorrectOwner() */\n      mload(0x40)\n      shl(0xe8, 0xa11481)\n      dup2\n      mstore\n      0x04\n      add\n      mload(0x40)\n      dup1\n      swap2\n      sub\n      swap1\n      revert\n        /* \"erc721a/contracts/ERC721A.sol\":14144:14211  if (prevOwnership.addr != from) revert TransferFromIncorrectOwner() */\n    tag_182:\n        /* \"erc721a/contracts/ERC721A.sol\":14222:14244  bool isApprovedOrOwner */\n      0x00\n        /* \"@openzeppelin/contracts/utils/Context.sol\":719:729  msg.sender */\n      caller\n      sub(shl(0xa0, 0x01), 0x01)\n        /* \"erc721a/contracts/ERC721A.sol\":14248:14268  _msgSender() == from */\n      dup7\n      and\n      eq\n      dup1\n        /* \"erc721a/contracts/ERC721A.sol\":14248:14320  _msgSender() == from ||... */\n      tag_185\n      jumpi\n      pop\n        /* \"erc721a/contracts/ERC721A.sol\":14284:14320  isApprovedForAll(from, _msgSender()) */\n      tag_185\n        /* \"erc721a/contracts/ERC721A.sol\":14301:14305  from */\n      dup6\n        /* \"@openzeppelin/contracts/utils/Context.sol\":719:729  msg.sender */\n      caller\n        /* \"erc721a/contracts/ERC721A.sol\":9650:9812  function isApprovedForAll(address owner, address operator) public view virtual override returns (bool) {... */\n      tag_93\n      jump\t// in\n        /* \"erc721a/contracts/ERC721A.sol\":14284:14320  isApprovedForAll(from, _msgSender()) */\n    tag_185:\n        /* \"erc721a/contracts/ERC721A.sol\":14248:14372  _msgSender() == from ||... */\n      dup1\n      tag_187\n      jumpi\n      pop\n        /* \"@openzeppelin/contracts/utils/Context.sol\":719:729  msg.sender */\n      caller\n        /* \"erc721a/contracts/ERC721A.sol\":14336:14356  getApproved(tokenId) */\n      tag_189\n        /* \"erc721a/contracts/ERC721A.sol\":14348:14355  tokenId */\n      dup5\n        /* \"erc721a/contracts/ERC721A.sol\":14336:14347  getApproved */\n      tag_36\n        /* \"erc721a/contracts/ERC721A.sol\":14336:14356  getApproved(tokenId) */\n      jump\t// in\n    tag_189:\n      sub(shl(0xa0, 0x01), 0x01)\n        /* \"erc721a/contracts/ERC721A.sol\":14336:14372  getApproved(tokenId) == _msgSender() */\n      and\n      eq\n        /* \"erc721a/contracts/ERC721A.sol\":14248:14372  _msgSender() == from ||... */\n    tag_187:\n        /* \"erc721a/contracts/ERC721A.sol\":14222:14373  bool isApprovedOrOwner = (_msgSender() == from ||... */\n      swap1\n      pop\n        /* \"erc721a/contracts/ERC721A.sol\":14389:14406  isApprovedOrOwner */\n      dup1\n        /* \"erc721a/contracts/ERC721A.sol\":14384:14450  if (!isApprovedOrOwner) revert TransferCallerNotOwnerNorApproved() */\n      tag_190\n      jumpi\n        /* \"erc721a/contracts/ERC721A.sol\":14415:14450  TransferCallerNotOwnerNorApproved() */\n      mload(0x40)\n      shl(0xe1, 0x2ce44b5f)\n      dup2\n      mstore\n      0x04\n      add\n      mload(0x40)\n      dup1\n      swap2\n      sub\n      swap1\n      revert\n        /* \"erc721a/contracts/ERC721A.sol\":14384:14450  if (!isApprovedOrOwner) revert TransferCallerNotOwnerNorApproved() */\n    tag_190:\n      sub(shl(0xa0, 0x01), 0x01)\n        /* \"erc721a/contracts/ERC721A.sol\":14464:14480  to == address(0) */\n      dup5\n      and\n        /* \"erc721a/contracts/ERC721A.sol\":14460:14512  if (to == address(0)) revert TransferToZeroAddress() */\n      tag_191\n      jumpi\n        /* \"erc721a/contracts/ERC721A.sol\":14489:14512  TransferToZeroAddress() */\n      mload(0x40)\n      shl(0xe2, 0x3a954ecd)\n      dup2\n      mstore\n      0x04\n      add\n      mload(0x40)\n      dup1\n      swap2\n      sub\n      swap1\n      revert\n        /* \"erc721a/contracts/ERC721A.sol\":14460:14512  if (to == address(0)) revert TransferToZeroAddress() */\n    tag_191:\n        /* \"erc721a/contracts/ERC721A.sol\":14628:14663  _approve(address(0), tokenId, from) */\n      tag_194\n        /* \"erc721a/contracts/ERC721A.sol\":14645:14646  0 */\n      0x00\n        /* \"erc721a/contracts/ERC721A.sol\":14649:14656  tokenId */\n      dup5\n        /* \"erc721a/contracts/ERC721A.sol\":14658:14662  from */\n      dup8\n        /* \"erc721a/contracts/ERC721A.sol\":14628:14636  _approve */\n      tag_123\n        /* \"erc721a/contracts/ERC721A.sol\":14628:14663  _approve(address(0), tokenId, from) */\n      jump\t// in\n    tag_194:\n      sub(shl(0xa0, 0x01), 0x01)\n        /* \"erc721a/contracts/ERC721A.sol\":14953:14971  _addressData[from] */\n      dup6\n      dup2\n      and\n      0x00\n      swap1\n      dup2\n      mstore\n        /* \"erc721a/contracts/ERC721A.sol\":14953:14965  _addressData */\n      0x05\n        /* \"erc721a/contracts/ERC721A.sol\":14953:14971  _addressData[from] */\n      0x20\n      swap1\n      dup2\n      mstore\n      0x40\n      dup1\n      dup4\n      keccak256\n        /* \"erc721a/contracts/ERC721A.sol\":14953:14984  _addressData[from].balance -= 1 */\n      dup1\n      sload\n      not(0xffffffffffffffff)\n      dup1\n      dup3\n      and\n      0xffffffffffffffff\n      swap3\n      dup4\n      and\n      not(0x00)\n      add\n      dup4\n      and\n      or\n      swap1\n      swap3\n      sstore\n        /* \"erc721a/contracts/ERC721A.sol\":14998:15014  _addressData[to] */\n      dup10\n      dup7\n      and\n      dup1\n      dup7\n      mstore\n      dup4\n      dup7\n      keccak256\n        /* \"erc721a/contracts/ERC721A.sol\":14998:15027  _addressData[to].balance += 1 */\n      dup1\n      sload\n      swap4\n      dup5\n      and\n      swap4\n      dup4\n      and\n      0x01\n      swap1\n      dup2\n      add\n      dup5\n      and\n      swap5\n      swap1\n      swap5\n      or\n      swap1\n      sstore\n        /* \"erc721a/contracts/ERC721A.sol\":15076:15096  _ownerships[tokenId] */\n      dup10\n      dup7\n      mstore\n        /* \"erc721a/contracts/ERC721A.sol\":15076:15087  _ownerships */\n      0x04\n        /* \"erc721a/contracts/ERC721A.sol\":15076:15096  _ownerships[tokenId] */\n      swap1\n      swap5\n      mstore\n      dup3\n      dup6\n      keccak256\n        /* \"erc721a/contracts/ERC721A.sol\":15110:15128  currSlot.addr = to */\n      dup1\n      sload\n      not(sub(shl(0xe0, 0x01), 0x01))\n        /* \"erc721a/contracts/ERC721A.sol\":15142:15191  currSlot.startTimestamp = uint64(block.timestamp) */\n      and\n      swap1\n      swap5\n      or\n      shl(0xa0, 0x01)\n        /* \"erc721a/contracts/ERC721A.sol\":15175:15190  block.timestamp */\n      timestamp\n        /* \"erc721a/contracts/ERC721A.sol\":15142:15191  currSlot.startTimestamp = uint64(block.timestamp) */\n      swap1\n      swap3\n      and\n      swap2\n      swap1\n      swap2\n      mul\n      or\n      dup4\n      sstore\n        /* \"erc721a/contracts/ERC721A.sol\":15461:15472  tokenId + 1 */\n      dup8\n      add\n        /* \"erc721a/contracts/ERC721A.sol\":15520:15544  _ownerships[nextTokenId] */\n      dup1\n      dup5\n      mstore\n      swap3\n      keccak256\n        /* \"erc721a/contracts/ERC721A.sol\":15562:15575  nextSlot.addr */\n      dup1\n      sload\n        /* \"erc721a/contracts/ERC721A.sol\":15076:15096  _ownerships[tokenId] */\n      swap2\n      swap4\n        /* \"erc721a/contracts/ERC721A.sol\":15520:15544  _ownerships[nextTokenId] */\n      swap1\n      swap2\n        /* \"erc721a/contracts/ERC721A.sol\":15562:15575  nextSlot.addr */\n      and\n        /* \"erc721a/contracts/ERC721A.sol\":15558:15935  if (nextSlot.addr == address(0)) {... */\n      tag_196\n      jumpi\n        /* \"erc721a/contracts/ERC721A.sol\":15769:15782  _currentIndex */\n      sload(0x00)\n        /* \"erc721a/contracts/ERC721A.sol\":15754:15765  nextTokenId */\n      dup3\n        /* \"erc721a/contracts/ERC721A.sol\":15754:15782  nextTokenId != _currentIndex */\n      eq\n        /* \"erc721a/contracts/ERC721A.sol\":15750:15921  if (nextTokenId != _currentIndex) {... */\n      tag_196\n      jumpi\n        /* \"erc721a/contracts/ERC721A.sol\":15806:15826  nextSlot.addr = from */\n      dup1\n      sload\n        /* \"erc721a/contracts/ERC721A.sol\":15874:15902  prevOwnership.startTimestamp */\n      0x20\n      dup7\n      add\n      mload\n        /* \"erc721a/contracts/ERC721A.sol\":15848:15902  nextSlot.startTimestamp = prevOwnership.startTimestamp */\n      0xffffffffffffffff\n      and\n      shl(0xa0, 0x01)\n      mul\n      not(sub(shl(0xe0, 0x01), 0x01))\n      swap1\n      swap2\n      and\n      sub(shl(0xa0, 0x01), 0x01)\n        /* \"erc721a/contracts/ERC721A.sol\":15806:15826  nextSlot.addr = from */\n      dup11\n      and\n        /* \"erc721a/contracts/ERC721A.sol\":15848:15902  nextSlot.startTimestamp = prevOwnership.startTimestamp */\n      or\n      or\n      dup2\n      sstore\n        /* \"erc721a/contracts/ERC721A.sol\":15750:15921  if (nextTokenId != _currentIndex) {... */\n    tag_196:\n        /* \"erc721a/contracts/ERC721A.sol\":14929:15945  unchecked {... */\n      pop\n      pop\n      pop\n        /* \"erc721a/contracts/ERC721A.sol\":15979:15986  tokenId */\n      dup3\n        /* \"erc721a/contracts/ERC721A.sol\":15975:15977  to */\n      dup5\n      sub(shl(0xa0, 0x01), 0x01)\n        /* \"erc721a/contracts/ERC721A.sol\":15960:15987  Transfer(from, to, tokenId) */\n      and\n        /* \"erc721a/contracts/ERC721A.sol\":15969:15973  from */\n      dup7\n      sub(shl(0xa0, 0x01), 0x01)\n        /* \"erc721a/contracts/ERC721A.sol\":15960:15987  Transfer(from, to, tokenId) */\n      and\n      0xddf252ad1be2c89b69c2b068fc378daa952ba7f163c4a11628f55a4df523b3ef\n      mload(0x40)\n      mload(0x40)\n      dup1\n      swap2\n      sub\n      swap1\n      log4\n        /* \"erc721a/contracts/ERC721A.sol\":15997:16039  _afterTokenTransfers(from, to, tokenId, 1) */\n    tag_197:\n        /* \"erc721a/contracts/ERC721A.sol\":14064:16046  {... */\n      pop\n      pop\n        /* \"erc721a/contracts/ERC721A.sol\":13964:16046  function _transfer(... */\n      pop\n      pop\n      pop\n      jump\t// out\n        /* \"erc721a/contracts/ERC721A.sol\":6253:7337  function _ownershipOf(uint256 tokenId) internal view returns (TokenOwnership memory) {... */\n    tag_134:\n      0x40\n      dup1\n      mload\n      0x60\n      dup2\n      add\n      dup3\n      mstore\n      0x00\n      dup1\n      dup3\n      mstore\n      0x20\n      dup3\n      add\n      dup2\n      swap1\n      mstore\n      swap2\n      dup2\n      add\n      swap2\n      swap1\n      swap2\n      mstore\n        /* \"erc721a/contracts/ERC721A.sol\":6363:6370  tokenId */\n      dup2\n        /* \"erc721a/contracts/ERC721A.sol\":6443:6456  _currentIndex */\n      sload(0x00)\n        /* \"erc721a/contracts/ERC721A.sol\":6436:6440  curr */\n      dup2\n        /* \"erc721a/contracts/ERC721A.sol\":6436:6456  curr < _currentIndex */\n      lt\n        /* \"erc721a/contracts/ERC721A.sol\":6405:7273  if (_startTokenId() <= curr && curr < _currentIndex) {... */\n      iszero\n      tag_204\n      jumpi\n        /* \"erc721a/contracts/ERC721A.sol\":6476:6507  TokenOwnership memory ownership */\n      0x00\n        /* \"erc721a/contracts/ERC721A.sol\":6510:6527  _ownerships[curr] */\n      dup2\n      dup2\n      mstore\n        /* \"erc721a/contracts/ERC721A.sol\":6510:6521  _ownerships */\n      0x04\n        /* \"erc721a/contracts/ERC721A.sol\":6510:6527  _ownerships[curr] */\n      0x20\n      swap1\n      dup2\n      mstore\n      0x40\n      swap2\n      dup3\n      swap1\n      keccak256\n        /* \"erc721a/contracts/ERC721A.sol\":6476:6527  TokenOwnership memory ownership = _ownerships[curr] */\n      dup3\n      mload\n      0x60\n      dup2\n      add\n      dup5\n      mstore\n      swap1\n      sload\n      sub(shl(0xa0, 0x01), 0x01)\n      dup2\n      and\n      dup3\n      mstore\n      shl(0xa0, 0x01)\n      dup2\n      div\n      0xffffffffffffffff\n      and\n      swap3\n      dup3\n      add\n      swap3\n      swap1\n      swap3\n      mstore\n      shl(0xe0, 0x01)\n      swap1\n      swap2\n      div\n      0xff\n      and\n      iszero\n      iszero\n      swap2\n      dup2\n      add\n      dup3\n      swap1\n      mstore\n      swap1\n        /* \"erc721a/contracts/ERC721A.sol\":6545:7259  if (!ownership.burned) {... */\n      tag_208\n      jumpi\n        /* \"erc721a/contracts/ERC721A.sol\":6594:6608  ownership.addr */\n      dup1\n      mload\n      sub(shl(0xa0, 0x01), 0x01)\n        /* \"erc721a/contracts/ERC721A.sol\":6594:6622  ownership.addr != address(0) */\n      and\n      iszero\n        /* \"erc721a/contracts/ERC721A.sol\":6590:6689  if (ownership.addr != address(0)) {... */\n      tag_206\n      jumpi\n        /* \"erc721a/contracts/ERC721A.sol\":6657:6666  ownership */\n      swap4\n        /* \"erc721a/contracts/ERC721A.sol\":6253:7337  function _ownershipOf(uint256 tokenId) internal view returns (TokenOwnership memory) {... */\n      swap3\n      pop\n      pop\n      pop\n      jump\t// out\n        /* \"erc721a/contracts/ERC721A.sol\":6590:6689  if (ownership.addr != address(0)) {... */\n    tag_206:\n      pop\n      not(0x00)\n        /* \"erc721a/contracts/ERC721A.sol\":7025:7031  curr-- */\n      add\n        /* \"erc721a/contracts/ERC721A.sol\":7069:7086  _ownerships[curr] */\n      0x00\n      dup2\n      dup2\n      mstore\n        /* \"erc721a/contracts/ERC721A.sol\":7069:7080  _ownerships */\n      0x04\n        /* \"erc721a/contracts/ERC721A.sol\":7069:7086  _ownerships[curr] */\n      0x20\n      swap1\n      dup2\n      mstore\n      0x40\n      swap2\n      dup3\n      swap1\n      keccak256\n        /* \"erc721a/contracts/ERC721A.sol\":7057:7086  ownership = _ownerships[curr] */\n      dup3\n      mload\n      0x60\n      dup2\n      add\n      dup5\n      mstore\n      swap1\n      sload\n      sub(shl(0xa0, 0x01), 0x01)\n      dup2\n      and\n      dup1\n      dup4\n      mstore\n      shl(0xa0, 0x01)\n      dup3\n      div\n      0xffffffffffffffff\n      and\n      swap4\n      dup4\n      add\n      swap4\n      swap1\n      swap4\n      mstore\n      shl(0xe0, 0x01)\n      swap1\n      div\n      0xff\n      and\n      iszero\n      iszero\n      swap3\n      dup2\n      add\n      swap3\n      swap1\n      swap3\n      mstore\n        /* \"erc721a/contracts/ERC721A.sol\":7116:7144  ownership.addr != address(0) */\n      iszero\n        /* \"erc721a/contracts/ERC721A.sol\":7112:7219  if (ownership.addr != address(0)) {... */\n      tag_209\n      jumpi\n        /* \"erc721a/contracts/ERC721A.sol\":7183:7192  ownership */\n      swap4\n        /* \"erc721a/contracts/ERC721A.sol\":6253:7337  function _ownershipOf(uint256 tokenId) internal view returns (TokenOwnership memory) {... */\n      swap3\n      pop\n      pop\n      pop\n      jump\t// out\n        /* \"erc721a/contracts/ERC721A.sol\":7112:7219  if (ownership.addr != address(0)) {... */\n    tag_209:\n        /* \"erc721a/contracts/ERC721A.sol\":6986:7241  while (true) {... */\n      jump(tag_206)\n    tag_208:\n        /* \"erc721a/contracts/ERC721A.sol\":6458:7273  {... */\n      pop\n        /* \"erc721a/contracts/ERC721A.sol\":6405:7273  if (_startTokenId() <= curr && curr < _currentIndex) {... */\n    tag_204:\n        /* \"erc721a/contracts/ERC721A.sol\":7299:7330  OwnerQueryForNonexistentToken() */\n      mload(0x40)\n      shl(0xe1, 0x6f96cda1)\n      dup2\n      mstore\n      0x04\n      add\n      mload(0x40)\n      dup1\n      swap2\n      sub\n      swap1\n      revert\n        /* \"erc721a/contracts/ERC721A.sol\":11132:11234  function _safeMint(address to, uint256 quantity) internal {... */\n    tag_145:\n        /* \"erc721a/contracts/ERC721A.sol\":11200:11227  _safeMint(to, quantity, '') */\n      tag_211\n        /* \"erc721a/contracts/ERC721A.sol\":11210:11212  to */\n      dup3\n        /* \"erc721a/contracts/ERC721A.sol\":11214:11222  quantity */\n      dup3\n        /* \"erc721a/contracts/ERC721A.sol\":11200:11227  _safeMint(to, quantity, '') */\n      mload(0x40)\n      dup1\n      0x20\n      add\n      0x40\n      mstore\n      dup1\n      0x00\n      dup2\n      mstore\n      pop\n        /* \"erc721a/contracts/ERC721A.sol\":11200:11209  _safeMint */\n      tag_212\n        /* \"erc721a/contracts/ERC721A.sol\":11200:11227  _safeMint(to, quantity, '') */\n      jump\t// in\n    tag_211:\n        /* \"erc721a/contracts/ERC721A.sol\":11132:11234  function _safeMint(address to, uint256 quantity) internal {... */\n      pop\n      pop\n      jump\t// out\n        /* \"erc721a/contracts/ERC721A.sol\":19564:20214  function _checkContractOnERC721Received(... */\n    tag_158:\n        /* \"erc721a/contracts/ERC721A.sol\":19742:19814  IERC721Receiver(to).onERC721Received(_msgSender(), from, tokenId, _data) */\n      mload(0x40)\n      shl(0xe1, 0x0a85bd01)\n      dup2\n      mstore\n        /* \"erc721a/contracts/ERC721A.sol\":19722:19726  bool */\n      0x00\n      swap1\n      sub(shl(0xa0, 0x01), 0x01)\n        /* \"erc721a/contracts/ERC721A.sol\":19742:19778  IERC721Receiver(to).onERC721Received */\n      dup6\n      and\n      swap1\n      0x150b7a02\n      swap1\n        /* \"erc721a/contracts/ERC721A.sol\":19742:19814  IERC721Receiver(to).onERC721Received(_msgSender(), from, tokenId, _data) */\n      tag_216\n      swap1\n        /* \"@openzeppelin/contracts/utils/Context.sol\":719:729  msg.sender */\n      caller\n      swap1\n        /* \"erc721a/contracts/ERC721A.sol\":19793:19797  from */\n      dup10\n      swap1\n        /* \"erc721a/contracts/ERC721A.sol\":19799:19806  tokenId */\n      dup9\n      swap1\n        /* \"erc721a/contracts/ERC721A.sol\":19808:19813  _data */\n      dup9\n      swap1\n        /* \"erc721a/contracts/ERC721A.sol\":19742:19814  IERC721Receiver(to).onERC721Received(_msgSender(), from, tokenId, _data) */\n      0x04\n      add\n      tag_217\n      jump\t// in\n    tag_216:\n      0x20\n      mload(0x40)\n      dup1\n      dup4\n      sub\n      dup2\n      0x00\n      dup8\n      dup1\n      extcodesize\n      iszero\n      dup1\n      iszero\n      tag_218\n      jumpi\n      0x00\n      dup1\n      revert\n    tag_218:\n      pop\n      gas\n      call\n      swap3\n      pop\n      pop\n      pop\n      dup1\n      iszero\n      tag_219\n      jumpi\n      pop\n      0x40\n      dup1\n      mload\n      0x1f\n      returndatasize\n      swap1\n      dup2\n      add\n      not(0x1f)\n      and\n      dup3\n      add\n      swap1\n      swap3\n      mstore\n      tag_220\n      swap2\n      dup2\n      add\n      swap1\n      tag_221\n      jump\t// in\n    tag_220:\n      0x01\n    tag_219:\n        /* \"erc721a/contracts/ERC721A.sol\":19738:20208  try IERC721Receiver(to).onERC721Received(_msgSender(), from, tokenId, _data) returns (bytes4 retval) {... */\n      tag_222\n      jumpi\n      returndatasize\n      dup1\n      dup1\n      iszero\n      tag_227\n      jumpi\n      mload(0x40)\n      swap2\n      pop\n      and(add(returndatasize, 0x3f), not(0x1f))\n      dup3\n      add\n      0x40\n      mstore\n      returndatasize\n      dup3\n      mstore\n      returndatasize\n      0x00\n      0x20\n      dup5\n      add\n      returndatacopy\n      jump(tag_226)\n    tag_227:\n      0x60\n      swap2\n      pop\n    tag_226:\n      pop\n        /* \"erc721a/contracts/ERC721A.sol\":19973:19986  reason.length */\n      dup1\n      mload\n        /* \"erc721a/contracts/ERC721A.sol\":19969:20198  if (reason.length == 0) {... */\n      tag_228\n      jumpi\n        /* \"erc721a/contracts/ERC721A.sol\":20018:20058  TransferToNonERC721ReceiverImplementer() */\n      mload(0x40)\n      shl(0xe1, 0x68d2bf6b)\n      dup2\n      mstore\n      0x04\n      add\n      mload(0x40)\n      dup1\n      swap2\n      sub\n      swap1\n      revert\n        /* \"erc721a/contracts/ERC721A.sol\":19969:20198  if (reason.length == 0) {... */\n    tag_228:\n        /* \"erc721a/contracts/ERC721A.sol\":20158:20164  reason */\n      dup1\n        /* \"erc721a/contracts/ERC721A.sol\":20152:20165  mload(reason) */\n      mload\n        /* \"erc721a/contracts/ERC721A.sol\":20143:20149  reason */\n      dup2\n        /* \"erc721a/contracts/ERC721A.sol\":20139:20141  32 */\n      0x20\n        /* \"erc721a/contracts/ERC721A.sol\":20135:20150  add(32, reason) */\n      add\n        /* \"erc721a/contracts/ERC721A.sol\":20128:20166  revert(add(32, reason), mload(reason)) */\n      revert\n        /* \"erc721a/contracts/ERC721A.sol\":19738:20208  try IERC721Receiver(to).onERC721Received(_msgSender(), from, tokenId, _data) returns (bytes4 retval) {... */\n    tag_222:\n      not(sub(shl(0xe0, 0x01), 0x01))\n        /* \"erc721a/contracts/ERC721A.sol\":19860:19915  retval == IERC721Receiver(to).onERC721Received.selector */\n      and\n      shl(0xe1, 0x0a85bd01)\n      eq\n      swap1\n      pop\n        /* \"erc721a/contracts/ERC721A.sol\":19738:20208  try IERC721Receiver(to).onERC721Received(_msgSender(), from, tokenId, _data) returns (bytes4 retval) {... */\n    tag_230:\n        /* \"erc721a/contracts/ERC721A.sol\":19564:20214  function _checkContractOnERC721Received(... */\n      swap5\n      swap4\n      pop\n      pop\n      pop\n      pop\n      jump\t// out\n        /* \"@openzeppelin/contracts/utils/Strings.sol\":328:1031  function toString(uint256 value) internal pure returns (string memory) {... */\n    tag_168:\n        /* \"@openzeppelin/contracts/utils/Strings.sol\":384:397  string memory */\n      0x60\n        /* \"@openzeppelin/contracts/utils/Strings.sol\":601:611  value == 0 */\n      dup2\n        /* \"@openzeppelin/contracts/utils/Strings.sol\":597:648  if (value == 0) {... */\n      tag_233\n      jumpi\n      pop\n      pop\n        /* \"@openzeppelin/contracts/utils/Strings.sol\":627:637  return \"0\" */\n      0x40\n      dup1\n      mload\n      dup1\n      dup3\n      add\n      swap1\n      swap2\n      mstore\n      0x01\n      dup2\n      mstore\n      shl(0xfc, 0x03)\n      0x20\n      dup3\n      add\n      mstore\n      swap1\n        /* \"@openzeppelin/contracts/utils/Strings.sol\":328:1031  function toString(uint256 value) internal pure returns (string memory) {... */\n      jump\t// out\n        /* \"@openzeppelin/contracts/utils/Strings.sol\":597:648  if (value == 0) {... */\n    tag_233:\n        /* \"@openzeppelin/contracts/utils/Strings.sol\":672:677  value */\n      dup2\n        /* \"@openzeppelin/contracts/utils/Strings.sol\":657:669  uint256 temp */\n      0x00\n        /* \"@openzeppelin/contracts/utils/Strings.sol\":711:786  while (temp != 0) {... */\n    tag_234:\n        /* \"@openzeppelin/contracts/utils/Strings.sol\":718:727  temp != 0 */\n      dup2\n      iszero\n        /* \"@openzeppelin/contracts/utils/Strings.sol\":711:786  while (temp != 0) {... */\n      tag_235\n      jumpi\n        /* \"@openzeppelin/contracts/utils/Strings.sol\":743:751  digits++ */\n      dup1\n      tag_236\n      dup2\n      tag_237\n      jump\t// in\n    tag_236:\n      swap2\n      pop\n        /* \"@openzeppelin/contracts/utils/Strings.sol\":765:775  temp /= 10 */\n      tag_238\n      swap1\n      pop\n        /* \"@openzeppelin/contracts/utils/Strings.sol\":773:775  10 */\n      0x0a\n        /* \"@openzeppelin/contracts/utils/Strings.sol\":765:775  temp /= 10 */\n      dup4\n      tag_239\n      jump\t// in\n    tag_238:\n      swap2\n      pop\n        /* \"@openzeppelin/contracts/utils/Strings.sol\":711:786  while (temp != 0) {... */\n      jump(tag_234)\n    tag_235:\n        /* \"@openzeppelin/contracts/utils/Strings.sol\":795:814  bytes memory buffer */\n      0x00\n        /* \"@openzeppelin/contracts/utils/Strings.sol\":827:833  digits */\n      dup2\n        /* \"@openzeppelin/contracts/utils/Strings.sol\":817:834  new bytes(digits) */\n      0xffffffffffffffff\n      dup2\n      gt\n      iszero\n      tag_241\n      jumpi\n      tag_241\n      tag_242\n      jump\t// in\n    tag_241:\n      mload(0x40)\n      swap1\n      dup1\n      dup3\n      mstore\n      dup1\n      0x1f\n      add\n      not(0x1f)\n      and\n      0x20\n      add\n      dup3\n      add\n      0x40\n      mstore\n      dup1\n      iszero\n      tag_243\n      jumpi\n      0x20\n      dup3\n      add\n      dup2\n      dup1\n      calldatasize\n      dup4\n      calldatacopy\n      add\n      swap1\n      pop\n    tag_243:\n      pop\n        /* \"@openzeppelin/contracts/utils/Strings.sol\":795:834  bytes memory buffer = new bytes(digits) */\n      swap1\n      pop\n        /* \"@openzeppelin/contracts/utils/Strings.sol\":844:994  while (value != 0) {... */\n    tag_244:\n        /* \"@openzeppelin/contracts/utils/Strings.sol\":851:861  value != 0 */\n      dup5\n      iszero\n        /* \"@openzeppelin/contracts/utils/Strings.sol\":844:994  while (value != 0) {... */\n      tag_230\n      jumpi\n        /* \"@openzeppelin/contracts/utils/Strings.sol\":877:888  digits -= 1 */\n      tag_246\n        /* \"@openzeppelin/contracts/utils/Strings.sol\":887:888  1 */\n      0x01\n        /* \"@openzeppelin/contracts/utils/Strings.sol\":877:888  digits -= 1 */\n      dup4\n      tag_247\n      jump\t// in\n    tag_246:\n      swap2\n      pop\n        /* \"@openzeppelin/contracts/utils/Strings.sol\":945:955  value % 10 */\n      tag_248\n        /* \"@openzeppelin/contracts/utils/Strings.sol\":953:955  10 */\n      0x0a\n        /* \"@openzeppelin/contracts/utils/Strings.sol\":945:950  value */\n      dup7\n        /* \"@openzeppelin/contracts/utils/Strings.sol\":945:955  value % 10 */\n      tag_249\n      jump\t// in\n    tag_248:\n        /* \"@openzeppelin/contracts/utils/Strings.sol\":932:956  48 + uint256(value % 10) */\n      tag_250\n      swap1\n        /* \"@openzeppelin/contracts/utils/Strings.sol\":932:934  48 */\n      0x30\n        /* \"@openzeppelin/contracts/utils/Strings.sol\":932:956  48 + uint256(value % 10) */\n      tag_251\n      jump\t// in\n    tag_250:\n        /* \"@openzeppelin/contracts/utils/Strings.sol\":919:958  bytes1(uint8(48 + uint256(value % 10))) */\n      0xf8\n      shl\n        /* \"@openzeppelin/contracts/utils/Strings.sol\":902:908  buffer */\n      dup2\n        /* \"@openzeppelin/contracts/utils/Strings.sol\":909:915  digits */\n      dup4\n        /* \"@openzeppelin/contracts/utils/Strings.sol\":902:916  buffer[digits] */\n      dup2\n      mload\n      dup2\n      lt\n      tag_253\n      jumpi\n      tag_253\n      tag_254\n      jump\t// in\n    tag_253:\n      0x20\n      add\n      add\n        /* \"@openzeppelin/contracts/utils/Strings.sol\":902:958  buffer[digits] = bytes1(uint8(48 + uint256(value % 10))) */\n      swap1\n      not(sub(shl(0xf8, 0x01), 0x01))\n      and\n      swap1\n      dup2\n      0x00\n      byte\n      swap1\n      mstore8\n      pop\n        /* \"@openzeppelin/contracts/utils/Strings.sol\":972:983  value /= 10 */\n      tag_255\n        /* \"@openzeppelin/contracts/utils/Strings.sol\":981:983  10 */\n      0x0a\n        /* \"@openzeppelin/contracts/utils/Strings.sol\":972:983  value /= 10 */\n      dup7\n      tag_239\n      jump\t// in\n    tag_255:\n      swap5\n      pop\n        /* \"@openzeppelin/contracts/utils/Strings.sol\":844:994  while (value != 0) {... */\n      jump(tag_244)\n        /* \"erc721a/contracts/ERC721A.sol\":11585:11742  function _safeMint(... */\n    tag_212:\n        /* \"erc721a/contracts/ERC721A.sol\":11703:11735  _mint(to, quantity, _data, true) */\n      tag_122\n        /* \"erc721a/contracts/ERC721A.sol\":11709:11711  to */\n      dup4\n        /* \"erc721a/contracts/ERC721A.sol\":11713:11721  quantity */\n      dup4\n        /* \"erc721a/contracts/ERC721A.sol\":11723:11728  _data */\n      dup4\n        /* \"erc721a/contracts/ERC721A.sol\":11730:11734  true */\n      0x01\n        /* \"erc721a/contracts/ERC721A.sol\":12122:12142  uint256 startTokenId */\n      0x00\n        /* \"erc721a/contracts/ERC721A.sol\":12145:12158  _currentIndex */\n      sload\n      sub(shl(0xa0, 0x01), 0x01)\n        /* \"erc721a/contracts/ERC721A.sol\":12172:12188  to == address(0) */\n      dup6\n      and\n        /* \"erc721a/contracts/ERC721A.sol\":12168:12216  if (to == address(0)) revert MintToZeroAddress() */\n      tag_262\n      jumpi\n        /* \"erc721a/contracts/ERC721A.sol\":12197:12216  MintToZeroAddress() */\n      mload(0x40)\n      shl(0xe8, 0x2e0763)\n      dup2\n      mstore\n      0x04\n      add\n      mload(0x40)\n      dup1\n      swap2\n      sub\n      swap1\n      revert\n        /* \"erc721a/contracts/ERC721A.sol\":12168:12216  if (to == address(0)) revert MintToZeroAddress() */\n    tag_262:\n        /* \"erc721a/contracts/ERC721A.sol\":12230:12243  quantity == 0 */\n      dup4\n        /* \"erc721a/contracts/ERC721A.sol\":12226:12270  if (quantity == 0) revert MintZeroQuantity() */\n      tag_263\n      jumpi\n        /* \"erc721a/contracts/ERC721A.sol\":12252:12270  MintZeroQuantity() */\n      mload(0x40)\n      shl(0xe0, 0xb562e8dd)\n      dup2\n      mstore\n      0x04\n      add\n      mload(0x40)\n      dup1\n      swap2\n      sub\n      swap1\n      revert\n        /* \"erc721a/contracts/ERC721A.sol\":12226:12270  if (quantity == 0) revert MintZeroQuantity() */\n    tag_263:\n      sub(shl(0xa0, 0x01), 0x01)\n        /* \"erc721a/contracts/ERC721A.sol\":12613:12629  _addressData[to] */\n      dup6\n      and\n      0x00\n      dup2\n      dup2\n      mstore\n        /* \"erc721a/contracts/ERC721A.sol\":12613:12625  _addressData */\n      0x05\n        /* \"erc721a/contracts/ERC721A.sol\":12613:12629  _addressData[to] */\n      0x20\n      swap1\n      dup2\n      mstore\n      0x40\n      dup1\n      dup4\n      keccak256\n        /* \"erc721a/contracts/ERC721A.sol\":12613:12657  _addressData[to].balance += uint64(quantity) */\n      dup1\n      sload\n      not(0xffffffffffffffffffffffffffffffff)\n        /* \"erc721a/contracts/ERC721A.sol\":12671:12720  _addressData[to].numberMinted += uint64(quantity) */\n      dup2\n      and\n        /* \"erc721a/contracts/ERC721A.sol\":12613:12657  _addressData[to].balance += uint64(quantity) */\n      0xffffffffffffffff\n      dup1\n      dup4\n      and\n      dup13\n      add\n      dup2\n      and\n        /* \"erc721a/contracts/ERC721A.sol\":12671:12720  _addressData[to].numberMinted += uint64(quantity) */\n      swap2\n      dup3\n      or\n      0x010000000000000000\n      not(0xffffffffffffffff)\n        /* \"erc721a/contracts/ERC721A.sol\":12613:12657  _addressData[to].balance += uint64(quantity) */\n      swap1\n      swap5\n      and\n      swap1\n      swap3\n      or\n        /* \"erc721a/contracts/ERC721A.sol\":12671:12720  _addressData[to].numberMinted += uint64(quantity) */\n      dup4\n      swap1\n      div\n      dup2\n      and\n      dup13\n      add\n      dup2\n      and\n      swap1\n      swap3\n      mul\n      or\n      swap1\n      swap2\n      sstore\n        /* \"erc721a/contracts/ERC721A.sol\":12735:12760  _ownerships[startTokenId] */\n      dup6\n      dup5\n      mstore\n        /* \"erc721a/contracts/ERC721A.sol\":12735:12746  _ownerships */\n      0x04\n        /* \"erc721a/contracts/ERC721A.sol\":12735:12760  _ownerships[startTokenId] */\n      swap1\n      swap3\n      mstore\n      swap1\n      swap2\n      keccak256\n        /* \"erc721a/contracts/ERC721A.sol\":12735:12770  _ownerships[startTokenId].addr = to */\n      dup1\n      sload\n      not(sub(shl(0xe0, 0x01), 0x01))\n        /* \"erc721a/contracts/ERC721A.sol\":12784:12850  _ownerships[startTokenId].startTimestamp = uint64(block.timestamp) */\n      and\n      swap1\n      swap3\n      or\n      shl(0xa0, 0x01)\n        /* \"erc721a/contracts/ERC721A.sol\":12834:12849  block.timestamp */\n      timestamp\n        /* \"erc721a/contracts/ERC721A.sol\":12784:12850  _ownerships[startTokenId].startTimestamp = uint64(block.timestamp) */\n      swap1\n      swap3\n      and\n      swap2\n      swap1\n      swap2\n      mul\n      or\n      swap1\n      sstore\n        /* \"erc721a/contracts/ERC721A.sol\":12735:12760  _ownerships[startTokenId] */\n      dup1\n        /* \"erc721a/contracts/ERC721A.sol\":12928:12951  updatedIndex + quantity */\n      dup1\n      dup6\n      add\n        /* \"erc721a/contracts/ERC721A.sol\":12970:12974  safe */\n      dup4\n        /* \"erc721a/contracts/ERC721A.sol\":12970:12993  safe && to.isContract() */\n      dup1\n      iszero\n      tag_266\n      jumpi\n      pop\n      sub(shl(0xa0, 0x01), 0x01)\n        /* \"erc721a/contracts/ERC721A.sol\":12978:12991  to.isContract */\n      dup8\n      and\n        /* \"@openzeppelin/contracts/utils/Address.sol\":1465:1484  account.code.length */\n      extcodesize\n        /* \"@openzeppelin/contracts/utils/Address.sol\":1465:1488  account.code.length > 0 */\n      iszero\n      iszero\n        /* \"erc721a/contracts/ERC721A.sol\":12978:12993  to.isContract() */\n    tag_266:\n        /* \"erc721a/contracts/ERC721A.sol\":12966:13594  if (safe && to.isContract()) {... */\n      iszero\n      tag_267\n      jumpi\n        /* \"erc721a/contracts/ERC721A.sol\":13013:13322  do {... */\n    tag_268:\n        /* \"erc721a/contracts/ERC721A.sol\":13043:13081  Transfer(address(0), to, updatedIndex) */\n      mload(0x40)\n        /* \"erc721a/contracts/ERC721A.sol\":13068:13080  updatedIndex */\n      dup3\n      swap1\n      sub(shl(0xa0, 0x01), 0x01)\n        /* \"erc721a/contracts/ERC721A.sol\":13043:13081  Transfer(address(0), to, updatedIndex) */\n      dup10\n      and\n      swap1\n        /* \"erc721a/contracts/ERC721A.sol\":13060:13061  0 */\n      0x00\n      swap1\n        /* \"erc721a/contracts/ERC721A.sol\":13043:13081  Transfer(address(0), to, updatedIndex) */\n      0xddf252ad1be2c89b69c2b068fc378daa952ba7f163c4a11628f55a4df523b3ef\n      swap1\n        /* \"erc721a/contracts/ERC721A.sol\":13060:13061  0 */\n      dup3\n      swap1\n        /* \"erc721a/contracts/ERC721A.sol\":13043:13081  Transfer(address(0), to, updatedIndex) */\n      log4\n        /* \"erc721a/contracts/ERC721A.sol\":13108:13177  _checkContractOnERC721Received(address(0), to, updatedIndex++, _data) */\n      tag_271\n        /* \"erc721a/contracts/ERC721A.sol\":13147:13148  0 */\n      0x00\n        /* \"erc721a/contracts/ERC721A.sol\":13151:13153  to */\n      dup9\n        /* \"erc721a/contracts/ERC721A.sol\":13155:13169  updatedIndex++ */\n      dup5\n      dup1\n      0x01\n      add\n      swap6\n      pop\n        /* \"erc721a/contracts/ERC721A.sol\":13171:13176  _data */\n      dup9\n        /* \"erc721a/contracts/ERC721A.sol\":13108:13138  _checkContractOnERC721Received */\n      tag_158\n        /* \"erc721a/contracts/ERC721A.sol\":13108:13177  _checkContractOnERC721Received(address(0), to, updatedIndex++, _data) */\n      jump\t// in\n    tag_271:\n        /* \"erc721a/contracts/ERC721A.sol\":13103:13275  if (!_checkContractOnERC721Received(address(0), to, updatedIndex++, _data)) {... */\n      tag_272\n      jumpi\n        /* \"erc721a/contracts/ERC721A.sol\":13212:13252  TransferToNonERC721ReceiverImplementer() */\n      mload(0x40)\n      shl(0xe1, 0x68d2bf6b)\n      dup2\n      mstore\n      0x04\n      add\n      mload(0x40)\n      dup1\n      swap2\n      sub\n      swap1\n      revert\n        /* \"erc721a/contracts/ERC721A.sol\":13103:13275  if (!_checkContractOnERC721Received(address(0), to, updatedIndex++, _data)) {... */\n    tag_272:\n        /* \"erc721a/contracts/ERC721A.sol\":13317:13320  end */\n      dup1\n        /* \"erc721a/contracts/ERC721A.sol\":13301:13313  updatedIndex */\n      dup3\n        /* \"erc721a/contracts/ERC721A.sol\":13301:13320  updatedIndex != end */\n      eq\n      iszero\n        /* \"erc721a/contracts/ERC721A.sol\":13013:13322  do {... */\n      tag_268\n      jumpi\n        /* \"erc721a/contracts/ERC721A.sol\":13401:13413  startTokenId */\n      dup3\n        /* \"erc721a/contracts/ERC721A.sol\":13384:13397  _currentIndex */\n      sload(0x00)\n        /* \"erc721a/contracts/ERC721A.sol\":13384:13413  _currentIndex != startTokenId */\n      eq\n        /* \"erc721a/contracts/ERC721A.sol\":13380:13423  if (_currentIndex != startTokenId) revert() */\n      tag_273\n      jumpi\n        /* \"erc721a/contracts/ERC721A.sol\":13415:13423  revert() */\n      0x00\n      dup1\n      revert\n        /* \"erc721a/contracts/ERC721A.sol\":13380:13423  if (_currentIndex != startTokenId) revert() */\n    tag_273:\n        /* \"erc721a/contracts/ERC721A.sol\":12966:13594  if (safe && to.isContract()) {... */\n      jump(tag_274)\n    tag_267:\n        /* \"erc721a/contracts/ERC721A.sol\":13462:13580  do {... */\n    tag_275:\n        /* \"erc721a/contracts/ERC721A.sol\":13492:13532  Transfer(address(0), to, updatedIndex++) */\n      mload(0x40)\n        /* \"erc721a/contracts/ERC721A.sol\":13517:13531  updatedIndex++ */\n      0x01\n      dup4\n      add\n      swap3\n      swap1\n      sub(shl(0xa0, 0x01), 0x01)\n        /* \"erc721a/contracts/ERC721A.sol\":13492:13532  Transfer(address(0), to, updatedIndex++) */\n      dup10\n      and\n      swap1\n        /* \"erc721a/contracts/ERC721A.sol\":13509:13510  0 */\n      0x00\n      swap1\n        /* \"erc721a/contracts/ERC721A.sol\":13492:13532  Transfer(address(0), to, updatedIndex++) */\n      0xddf252ad1be2c89b69c2b068fc378daa952ba7f163c4a11628f55a4df523b3ef\n      swap1\n        /* \"erc721a/contracts/ERC721A.sol\":13509:13510  0 */\n      dup3\n      swap1\n        /* \"erc721a/contracts/ERC721A.sol\":13492:13532  Transfer(address(0), to, updatedIndex++) */\n      log4\n        /* \"erc721a/contracts/ERC721A.sol\":13575:13578  end */\n      dup1\n        /* \"erc721a/contracts/ERC721A.sol\":13559:13571  updatedIndex */\n      dup3\n        /* \"erc721a/contracts/ERC721A.sol\":13559:13578  updatedIndex != end */\n      eq\n      iszero\n        /* \"erc721a/contracts/ERC721A.sol\":13462:13580  do {... */\n      tag_275\n      jumpi\n        /* \"erc721a/contracts/ERC721A.sol\":12966:13594  if (safe && to.isContract()) {... */\n    tag_274:\n      pop\n        /* \"erc721a/contracts/ERC721A.sol\":13607:13620  _currentIndex */\n      0x00\n        /* \"erc721a/contracts/ERC721A.sol\":13607:13635  _currentIndex = updatedIndex */\n      sstore\n        /* \"erc721a/contracts/ERC721A.sol\":13655:13715  _afterTokenTransfers(address(0), to, startTokenId, quantity) */\n      tag_197\n        /* \"erc721a/contracts/ERC721A.sol\":10349:10708  function safeTransferFrom(... */\n      jump\n        /* \"#utility.yul\":14:187   */\n    tag_280:\n        /* \"#utility.yul\":82:102   */\n      dup1\n      calldataload\n      sub(shl(0xa0, 0x01), 0x01)\n        /* \"#utility.yul\":131:162   */\n      dup2\n      and\n        /* \"#utility.yul\":121:163   */\n      dup2\n      eq\n        /* \"#utility.yul\":111:181   */\n      tag_282\n      jumpi\n        /* \"#utility.yul\":177:178   */\n      0x00\n        /* \"#utility.yul\":174:175   */\n      dup1\n        /* \"#utility.yul\":167:179   */\n      revert\n        /* \"#utility.yul\":111:181   */\n    tag_282:\n        /* \"#utility.yul\":14:187   */\n      swap2\n      swap1\n      pop\n      jump\t// out\n        /* \"#utility.yul\":192:378   */\n    tag_66:\n        /* \"#utility.yul\":251:257   */\n      0x00\n        /* \"#utility.yul\":304:306   */\n      0x20\n        /* \"#utility.yul\":292:301   */\n      dup3\n        /* \"#utility.yul\":283:290   */\n      dup5\n        /* \"#utility.yul\":279:302   */\n      sub\n        /* \"#utility.yul\":275:307   */\n      slt\n        /* \"#utility.yul\":272:324   */\n      iszero\n      tag_284\n      jumpi\n        /* \"#utility.yul\":320:321   */\n      0x00\n        /* \"#utility.yul\":317:318   */\n      dup1\n        /* \"#utility.yul\":310:322   */\n      revert\n        /* \"#utility.yul\":272:324   */\n    tag_284:\n        /* \"#utility.yul\":343:372   */\n      tag_166\n        /* \"#utility.yul\":362:371   */\n      dup3\n        /* \"#utility.yul\":343:372   */\n      tag_280\n      jump\t// in\n        /* \"#utility.yul\":383:643   */\n    tag_94:\n        /* \"#utility.yul\":451:457   */\n      0x00\n        /* \"#utility.yul\":459:465   */\n      dup1\n        /* \"#utility.yul\":512:514   */\n      0x40\n        /* \"#utility.yul\":500:509   */\n      dup4\n        /* \"#utility.yul\":491:498   */\n      dup6\n        /* \"#utility.yul\":487:510   */\n      sub\n        /* \"#utility.yul\":483:515   */\n      slt\n        /* \"#utility.yul\":480:532   */\n      iszero\n      tag_287\n      jumpi\n        /* \"#utility.yul\":528:529   */\n      0x00\n        /* \"#utility.yul\":525:526   */\n      dup1\n        /* \"#utility.yul\":518:530   */\n      revert\n        /* \"#utility.yul\":480:532   */\n    tag_287:\n        /* \"#utility.yul\":551:580   */\n      tag_288\n        /* \"#utility.yul\":570:579   */\n      dup4\n        /* \"#utility.yul\":551:580   */\n      tag_280\n      jump\t// in\n    tag_288:\n        /* \"#utility.yul\":541:580   */\n      swap2\n      pop\n        /* \"#utility.yul\":599:637   */\n      tag_289\n        /* \"#utility.yul\":633:635   */\n      0x20\n        /* \"#utility.yul\":622:631   */\n      dup5\n        /* \"#utility.yul\":618:636   */\n      add\n        /* \"#utility.yul\":599:637   */\n      tag_280\n      jump\t// in\n    tag_289:\n        /* \"#utility.yul\":589:637   */\n      swap1\n      pop\n        /* \"#utility.yul\":383:643   */\n      swap3\n      pop\n      swap3\n      swap1\n      pop\n      jump\t// out\n        /* \"#utility.yul\":648:976   */\n    tag_52:\n        /* \"#utility.yul\":725:731   */\n      0x00\n        /* \"#utility.yul\":733:739   */\n      dup1\n        /* \"#utility.yul\":741:747   */\n      0x00\n        /* \"#utility.yul\":794:796   */\n      0x60\n        /* \"#utility.yul\":782:791   */\n      dup5\n        /* \"#utility.yul\":773:780   */\n      dup7\n        /* \"#utility.yul\":769:792   */\n      sub\n        /* \"#utility.yul\":765:797   */\n      slt\n        /* \"#utility.yul\":762:814   */\n      iszero\n      tag_291\n      jumpi\n        /* \"#utility.yul\":810:811   */\n      0x00\n        /* \"#utility.yul\":807:808   */\n      dup1\n        /* \"#utility.yul\":800:812   */\n      revert\n        /* \"#utility.yul\":762:814   */\n    tag_291:\n        /* \"#utility.yul\":833:862   */\n      tag_292\n        /* \"#utility.yul\":852:861   */\n      dup5\n        /* \"#utility.yul\":833:862   */\n      tag_280\n      jump\t// in\n    tag_292:\n        /* \"#utility.yul\":823:862   */\n      swap3\n      pop\n        /* \"#utility.yul\":881:919   */\n      tag_293\n        /* \"#utility.yul\":915:917   */\n      0x20\n        /* \"#utility.yul\":904:913   */\n      dup6\n        /* \"#utility.yul\":900:918   */\n      add\n        /* \"#utility.yul\":881:919   */\n      tag_280\n      jump\t// in\n    tag_293:\n        /* \"#utility.yul\":871:919   */\n      swap2\n      pop\n        /* \"#utility.yul\":966:968   */\n      0x40\n        /* \"#utility.yul\":955:964   */\n      dup5\n        /* \"#utility.yul\":951:969   */\n      add\n        /* \"#utility.yul\":938:970   */\n      calldataload\n        /* \"#utility.yul\":928:970   */\n      swap1\n      pop\n        /* \"#utility.yul\":648:976   */\n      swap3\n      pop\n      swap3\n      pop\n      swap3\n      jump\t// out\n        /* \"#utility.yul\":981:2119   */\n    tag_84:\n        /* \"#utility.yul\":1076:1082   */\n      0x00\n        /* \"#utility.yul\":1084:1090   */\n      dup1\n        /* \"#utility.yul\":1092:1098   */\n      0x00\n        /* \"#utility.yul\":1100:1106   */\n      dup1\n        /* \"#utility.yul\":1153:1156   */\n      0x80\n        /* \"#utility.yul\":1141:1150   */\n      dup6\n        /* \"#utility.yul\":1132:1139   */\n      dup8\n        /* \"#utility.yul\":1128:1151   */\n      sub\n        /* \"#utility.yul\":1124:1157   */\n      slt\n        /* \"#utility.yul\":1121:1174   */\n      iszero\n      tag_295\n      jumpi\n        /* \"#utility.yul\":1170:1171   */\n      0x00\n        /* \"#utility.yul\":1167:1168   */\n      dup1\n        /* \"#utility.yul\":1160:1172   */\n      revert\n        /* \"#utility.yul\":1121:1174   */\n    tag_295:\n        /* \"#utility.yul\":1193:1222   */\n      tag_296\n        /* \"#utility.yul\":1212:1221   */\n      dup6\n        /* \"#utility.yul\":1193:1222   */\n      tag_280\n      jump\t// in\n    tag_296:\n        /* \"#utility.yul\":1183:1222   */\n      swap4\n      pop\n        /* \"#utility.yul\":1241:1279   */\n      tag_297\n        /* \"#utility.yul\":1275:1277   */\n      0x20\n        /* \"#utility.yul\":1264:1273   */\n      dup7\n        /* \"#utility.yul\":1260:1278   */\n      add\n        /* \"#utility.yul\":1241:1279   */\n      tag_280\n      jump\t// in\n    tag_297:\n        /* \"#utility.yul\":1231:1279   */\n      swap3\n      pop\n        /* \"#utility.yul\":1326:1328   */\n      0x40\n        /* \"#utility.yul\":1315:1324   */\n      dup6\n        /* \"#utility.yul\":1311:1329   */\n      add\n        /* \"#utility.yul\":1298:1330   */\n      calldataload\n        /* \"#utility.yul\":1288:1330   */\n      swap2\n      pop\n        /* \"#utility.yul\":1381:1383   */\n      0x60\n        /* \"#utility.yul\":1370:1379   */\n      dup6\n        /* \"#utility.yul\":1366:1384   */\n      add\n        /* \"#utility.yul\":1353:1385   */\n      calldataload\n        /* \"#utility.yul\":1404:1422   */\n      0xffffffffffffffff\n        /* \"#utility.yul\":1445:1447   */\n      dup1\n        /* \"#utility.yul\":1437:1443   */\n      dup3\n        /* \"#utility.yul\":1434:1448   */\n      gt\n        /* \"#utility.yul\":1431:1465   */\n      iszero\n      tag_298\n      jumpi\n        /* \"#utility.yul\":1461:1462   */\n      0x00\n        /* \"#utility.yul\":1458:1459   */\n      dup1\n        /* \"#utility.yul\":1451:1463   */\n      revert\n        /* \"#utility.yul\":1431:1465   */\n    tag_298:\n        /* \"#utility.yul\":1499:1505   */\n      dup2\n        /* \"#utility.yul\":1488:1497   */\n      dup8\n        /* \"#utility.yul\":1484:1506   */\n      add\n        /* \"#utility.yul\":1474:1506   */\n      swap2\n      pop\n        /* \"#utility.yul\":1544:1551   */\n      dup8\n        /* \"#utility.yul\":1537:1541   */\n      0x1f\n        /* \"#utility.yul\":1533:1535   */\n      dup4\n        /* \"#utility.yul\":1529:1542   */\n      add\n        /* \"#utility.yul\":1525:1552   */\n      slt\n        /* \"#utility.yul\":1515:1570   */\n      tag_299\n      jumpi\n        /* \"#utility.yul\":1566:1567   */\n      0x00\n        /* \"#utility.yul\":1563:1564   */\n      dup1\n        /* \"#utility.yul\":1556:1568   */\n      revert\n        /* \"#utility.yul\":1515:1570   */\n    tag_299:\n        /* \"#utility.yul\":1602:1604   */\n      dup2\n        /* \"#utility.yul\":1589:1605   */\n      calldataload\n        /* \"#utility.yul\":1624:1626   */\n      dup2\n        /* \"#utility.yul\":1620:1622   */\n      dup2\n        /* \"#utility.yul\":1617:1627   */\n      gt\n        /* \"#utility.yul\":1614:1650   */\n      iszero\n      tag_301\n      jumpi\n        /* \"#utility.yul\":1630:1648   */\n      tag_301\n      tag_242\n      jump\t// in\n    tag_301:\n        /* \"#utility.yul\":1705:1707   */\n      0x40\n        /* \"#utility.yul\":1699:1708   */\n      mload\n        /* \"#utility.yul\":1673:1675   */\n      0x1f\n        /* \"#utility.yul\":1759:1772   */\n      dup3\n      add\n      not(0x1f)\n        /* \"#utility.yul\":1755:1777   */\n      swap1\n      dup2\n      and\n        /* \"#utility.yul\":1779:1781   */\n      0x3f\n        /* \"#utility.yul\":1751:1782   */\n      add\n        /* \"#utility.yul\":1747:1787   */\n      and\n        /* \"#utility.yul\":1735:1788   */\n      dup2\n      add\n      swap1\n        /* \"#utility.yul\":1803:1821   */\n      dup4\n      dup3\n      gt\n        /* \"#utility.yul\":1823:1845   */\n      dup2\n      dup4\n      lt\n        /* \"#utility.yul\":1800:1846   */\n      or\n        /* \"#utility.yul\":1797:1869   */\n      iszero\n      tag_303\n      jumpi\n        /* \"#utility.yul\":1849:1867   */\n      tag_303\n      tag_242\n      jump\t// in\n    tag_303:\n        /* \"#utility.yul\":1889:1899   */\n      dup2\n        /* \"#utility.yul\":1885:1887   */\n      0x40\n        /* \"#utility.yul\":1878:1900   */\n      mstore\n        /* \"#utility.yul\":1924:1926   */\n      dup3\n        /* \"#utility.yul\":1916:1922   */\n      dup2\n        /* \"#utility.yul\":1909:1927   */\n      mstore\n        /* \"#utility.yul\":1964:1971   */\n      dup11\n        /* \"#utility.yul\":1959:1961   */\n      0x20\n        /* \"#utility.yul\":1954:1956   */\n      dup5\n        /* \"#utility.yul\":1950:1952   */\n      dup8\n        /* \"#utility.yul\":1946:1957   */\n      add\n        /* \"#utility.yul\":1942:1962   */\n      add\n        /* \"#utility.yul\":1939:1972   */\n      gt\n        /* \"#utility.yul\":1936:1989   */\n      iszero\n      tag_304\n      jumpi\n        /* \"#utility.yul\":1985:1986   */\n      0x00\n        /* \"#utility.yul\":1982:1983   */\n      dup1\n        /* \"#utility.yul\":1975:1987   */\n      revert\n        /* \"#utility.yul\":1936:1989   */\n    tag_304:\n        /* \"#utility.yul\":2041:2043   */\n      dup3\n        /* \"#utility.yul\":2036:2038   */\n      0x20\n        /* \"#utility.yul\":2032:2034   */\n      dup7\n        /* \"#utility.yul\":2028:2039   */\n      add\n        /* \"#utility.yul\":2023:2025   */\n      0x20\n        /* \"#utility.yul\":2015:2021   */\n      dup4\n        /* \"#utility.yul\":2011:2026   */\n      add\n        /* \"#utility.yul\":1998:2044   */\n      calldatacopy\n        /* \"#utility.yul\":2086:2087   */\n      0x00\n        /* \"#utility.yul\":2081:2083   */\n      0x20\n        /* \"#utility.yul\":2076:2078   */\n      dup5\n        /* \"#utility.yul\":2068:2074   */\n      dup4\n        /* \"#utility.yul\":2064:2079   */\n      add\n        /* \"#utility.yul\":2060:2084   */\n      add\n        /* \"#utility.yul\":2053:2088   */\n      mstore\n        /* \"#utility.yul\":2107:2113   */\n      dup1\n        /* \"#utility.yul\":2097:2113   */\n      swap6\n      pop\n      pop\n      pop\n      pop\n      pop\n      pop\n        /* \"#utility.yul\":981:2119   */\n      swap3\n      swap6\n      swap2\n      swap5\n      pop\n      swap3\n      pop\n      jump\t// out\n        /* \"#utility.yul\":2124:2471   */\n    tag_79:\n        /* \"#utility.yul\":2189:2195   */\n      0x00\n        /* \"#utility.yul\":2197:2203   */\n      dup1\n        /* \"#utility.yul\":2250:2252   */\n      0x40\n        /* \"#utility.yul\":2238:2247   */\n      dup4\n        /* \"#utility.yul\":2229:2236   */\n      dup6\n        /* \"#utility.yul\":2225:2248   */\n      sub\n        /* \"#utility.yul\":2221:2253   */\n      slt\n        /* \"#utility.yul\":2218:2270   */\n      iszero\n      tag_306\n      jumpi\n        /* \"#utility.yul\":2266:2267   */\n      0x00\n        /* \"#utility.yul\":2263:2264   */\n      dup1\n        /* \"#utility.yul\":2256:2268   */\n      revert\n        /* \"#utility.yul\":2218:2270   */\n    tag_306:\n        /* \"#utility.yul\":2289:2318   */\n      tag_307\n        /* \"#utility.yul\":2308:2317   */\n      dup4\n        /* \"#utility.yul\":2289:2318   */\n      tag_280\n      jump\t// in\n    tag_307:\n        /* \"#utility.yul\":2279:2318   */\n      swap2\n      pop\n        /* \"#utility.yul\":2368:2370   */\n      0x20\n        /* \"#utility.yul\":2357:2366   */\n      dup4\n        /* \"#utility.yul\":2353:2371   */\n      add\n        /* \"#utility.yul\":2340:2372   */\n      calldataload\n        /* \"#utility.yul\":2415:2420   */\n      dup1\n        /* \"#utility.yul\":2408:2421   */\n      iszero\n        /* \"#utility.yul\":2401:2422   */\n      iszero\n        /* \"#utility.yul\":2394:2399   */\n      dup2\n        /* \"#utility.yul\":2391:2423   */\n      eq\n        /* \"#utility.yul\":2381:2441   */\n      tag_308\n      jumpi\n        /* \"#utility.yul\":2437:2438   */\n      0x00\n        /* \"#utility.yul\":2434:2435   */\n      dup1\n        /* \"#utility.yul\":2427:2439   */\n      revert\n        /* \"#utility.yul\":2381:2441   */\n    tag_308:\n        /* \"#utility.yul\":2460:2465   */\n      dup1\n        /* \"#utility.yul\":2450:2465   */\n      swap2\n      pop\n      pop\n        /* \"#utility.yul\":2124:2471   */\n      swap3\n      pop\n      swap3\n      swap1\n      pop\n      jump\t// out\n        /* \"#utility.yul\":2476:2730   */\n    tag_42:\n        /* \"#utility.yul\":2544:2550   */\n      0x00\n        /* \"#utility.yul\":2552:2558   */\n      dup1\n        /* \"#utility.yul\":2605:2607   */\n      0x40\n        /* \"#utility.yul\":2593:2602   */\n      dup4\n        /* \"#utility.yul\":2584:2591   */\n      dup6\n        /* \"#utility.yul\":2580:2603   */\n      sub\n        /* \"#utility.yul\":2576:2608   */\n      slt\n        /* \"#utility.yul\":2573:2625   */\n      iszero\n      tag_310\n      jumpi\n        /* \"#utility.yul\":2621:2622   */\n      0x00\n        /* \"#utility.yul\":2618:2619   */\n      dup1\n        /* \"#utility.yul\":2611:2623   */\n      revert\n        /* \"#utility.yul\":2573:2625   */\n    tag_310:\n        /* \"#utility.yul\":2644:2673   */\n      tag_311\n        /* \"#utility.yul\":2663:2672   */\n      dup4\n        /* \"#utility.yul\":2644:2673   */\n      tag_280\n      jump\t// in\n    tag_311:\n        /* \"#utility.yul\":2634:2673   */\n      swap5\n        /* \"#utility.yul\":2720:2722   */\n      0x20\n        /* \"#utility.yul\":2705:2723   */\n      swap4\n      swap1\n      swap4\n      add\n        /* \"#utility.yul\":2692:2724   */\n      calldataload\n      swap4\n      pop\n      pop\n      pop\n        /* \"#utility.yul\":2476:2730   */\n      jump\t// out\n        /* \"#utility.yul\":2735:2980   */\n    tag_23:\n        /* \"#utility.yul\":2793:2799   */\n      0x00\n        /* \"#utility.yul\":2846:2848   */\n      0x20\n        /* \"#utility.yul\":2834:2843   */\n      dup3\n        /* \"#utility.yul\":2825:2832   */\n      dup5\n        /* \"#utility.yul\":2821:2844   */\n      sub\n        /* \"#utility.yul\":2817:2849   */\n      slt\n        /* \"#utility.yul\":2814:2866   */\n      iszero\n      tag_313\n      jumpi\n        /* \"#utility.yul\":2862:2863   */\n      0x00\n        /* \"#utility.yul\":2859:2860   */\n      dup1\n        /* \"#utility.yul\":2852:2864   */\n      revert\n        /* \"#utility.yul\":2814:2866   */\n    tag_313:\n        /* \"#utility.yul\":2901:2910   */\n      dup2\n        /* \"#utility.yul\":2888:2911   */\n      calldataload\n        /* \"#utility.yul\":2920:2950   */\n      tag_166\n        /* \"#utility.yul\":2944:2949   */\n      dup2\n        /* \"#utility.yul\":2920:2950   */\n      tag_315\n      jump\t// in\n        /* \"#utility.yul\":2985:3234   */\n    tag_221:\n        /* \"#utility.yul\":3054:3060   */\n      0x00\n        /* \"#utility.yul\":3107:3109   */\n      0x20\n        /* \"#utility.yul\":3095:3104   */\n      dup3\n        /* \"#utility.yul\":3086:3093   */\n      dup5\n        /* \"#utility.yul\":3082:3105   */\n      sub\n        /* \"#utility.yul\":3078:3110   */\n      slt\n        /* \"#utility.yul\":3075:3127   */\n      iszero\n      tag_317\n      jumpi\n        /* \"#utility.yul\":3123:3124   */\n      0x00\n        /* \"#utility.yul\":3120:3121   */\n      dup1\n        /* \"#utility.yul\":3113:3125   */\n      revert\n        /* \"#utility.yul\":3075:3127   */\n    tag_317:\n        /* \"#utility.yul\":3155:3164   */\n      dup2\n        /* \"#utility.yul\":3149:3165   */\n      mload\n        /* \"#utility.yul\":3174:3204   */\n      tag_166\n        /* \"#utility.yul\":3198:3203   */\n      dup2\n        /* \"#utility.yul\":3174:3204   */\n      tag_315\n      jump\t// in\n        /* \"#utility.yul\":3239:3419   */\n    tag_35:\n        /* \"#utility.yul\":3298:3304   */\n      0x00\n        /* \"#utility.yul\":3351:3353   */\n      0x20\n        /* \"#utility.yul\":3339:3348   */\n      dup3\n        /* \"#utility.yul\":3330:3337   */\n      dup5\n        /* \"#utility.yul\":3326:3349   */\n      sub\n        /* \"#utility.yul\":3322:3354   */\n      slt\n        /* \"#utility.yul\":3319:3371   */\n      iszero\n      tag_320\n      jumpi\n        /* \"#utility.yul\":3367:3368   */\n      0x00\n        /* \"#utility.yul\":3364:3365   */\n      dup1\n        /* \"#utility.yul\":3357:3369   */\n      revert\n        /* \"#utility.yul\":3319:3371   */\n    tag_320:\n      pop\n        /* \"#utility.yul\":3390:3413   */\n      calldataload\n      swap2\n        /* \"#utility.yul\":3239:3419   */\n      swap1\n      pop\n      jump\t// out\n        /* \"#utility.yul\":3424:3681   */\n    tag_321:\n        /* \"#utility.yul\":3465:3468   */\n      0x00\n        /* \"#utility.yul\":3503:3508   */\n      dup2\n        /* \"#utility.yul\":3497:3509   */\n      mload\n        /* \"#utility.yul\":3530:3536   */\n      dup1\n        /* \"#utility.yul\":3525:3528   */\n      dup5\n        /* \"#utility.yul\":3518:3537   */\n      mstore\n        /* \"#utility.yul\":3546:3609   */\n      tag_323\n        /* \"#utility.yul\":3602:3608   */\n      dup2\n        /* \"#utility.yul\":3595:3599   */\n      0x20\n        /* \"#utility.yul\":3590:3593   */\n      dup7\n        /* \"#utility.yul\":3586:3600   */\n      add\n        /* \"#utility.yul\":3579:3583   */\n      0x20\n        /* \"#utility.yul\":3572:3577   */\n      dup7\n        /* \"#utility.yul\":3568:3584   */\n      add\n        /* \"#utility.yul\":3546:3609   */\n      tag_324\n      jump\t// in\n    tag_323:\n        /* \"#utility.yul\":3663:3665   */\n      0x1f\n        /* \"#utility.yul\":3642:3657   */\n      add\n      not(0x1f)\n        /* \"#utility.yul\":3638:3667   */\n      and\n        /* \"#utility.yul\":3629:3668   */\n      swap3\n      swap1\n      swap3\n      add\n        /* \"#utility.yul\":3670:3674   */\n      0x20\n        /* \"#utility.yul\":3625:3675   */\n      add\n      swap3\n        /* \"#utility.yul\":3424:3681   */\n      swap2\n      pop\n      pop\n      jump\t// out\n        /* \"#utility.yul\":3686:4156   */\n    tag_170:\n        /* \"#utility.yul\":3865:3868   */\n      0x00\n        /* \"#utility.yul\":3903:3909   */\n      dup4\n        /* \"#utility.yul\":3897:3910   */\n      mload\n        /* \"#utility.yul\":3919:3972   */\n      tag_326\n        /* \"#utility.yul\":3965:3971   */\n      dup2\n        /* \"#utility.yul\":3960:3963   */\n      dup5\n        /* \"#utility.yul\":3953:3957   */\n      0x20\n        /* \"#utility.yul\":3945:3951   */\n      dup9\n        /* \"#utility.yul\":3941:3958   */\n      add\n        /* \"#utility.yul\":3919:3972   */\n      tag_324\n      jump\t// in\n    tag_326:\n        /* \"#utility.yul\":4035:4048   */\n      dup4\n      mload\n        /* \"#utility.yul\":3994:4010   */\n      swap1\n      dup4\n      add\n      swap1\n        /* \"#utility.yul\":4057:4114   */\n      tag_327\n        /* \"#utility.yul\":4035:4048   */\n      dup2\n        /* \"#utility.yul\":3994:4010   */\n      dup4\n        /* \"#utility.yul\":4091:4095   */\n      0x20\n        /* \"#utility.yul\":4079:4096   */\n      dup9\n      add\n        /* \"#utility.yul\":4057:4114   */\n      tag_324\n      jump\t// in\n    tag_327:\n        /* \"#utility.yul\":4130:4150   */\n      add\n      swap5\n        /* \"#utility.yul\":3686:4156   */\n      swap4\n      pop\n      pop\n      pop\n      pop\n      jump\t// out\n        /* \"#utility.yul\":4369:4857   */\n    tag_217:\n      sub(shl(0xa0, 0x01), 0x01)\n        /* \"#utility.yul\":4638:4653   */\n      dup6\n      dup2\n      and\n        /* \"#utility.yul\":4620:4654   */\n      dup3\n      mstore\n        /* \"#utility.yul\":4690:4705   */\n      dup5\n      and\n        /* \"#utility.yul\":4685:4687   */\n      0x20\n        /* \"#utility.yul\":4670:4688   */\n      dup3\n      add\n        /* \"#utility.yul\":4663:4706   */\n      mstore\n        /* \"#utility.yul\":4737:4739   */\n      0x40\n        /* \"#utility.yul\":4722:4740   */\n      dup2\n      add\n        /* \"#utility.yul\":4715:4749   */\n      dup4\n      swap1\n      mstore\n        /* \"#utility.yul\":4785:4788   */\n      0x80\n        /* \"#utility.yul\":4780:4782   */\n      0x60\n        /* \"#utility.yul\":4765:4783   */\n      dup3\n      add\n        /* \"#utility.yul\":4758:4789   */\n      dup2\n      swap1\n      mstore\n        /* \"#utility.yul\":4563:4567   */\n      0x00\n      swap1\n        /* \"#utility.yul\":4806:4851   */\n      tag_330\n      swap1\n        /* \"#utility.yul\":4831:4850   */\n      dup4\n      add\n        /* \"#utility.yul\":4823:4829   */\n      dup5\n        /* \"#utility.yul\":4806:4851   */\n      tag_321\n      jump\t// in\n    tag_330:\n        /* \"#utility.yul\":4798:4851   */\n      swap7\n        /* \"#utility.yul\":4369:4857   */\n      swap6\n      pop\n      pop\n      pop\n      pop\n      pop\n      pop\n      jump\t// out\n        /* \"#utility.yul\":5054:5273   */\n    tag_31:\n        /* \"#utility.yul\":5203:5205   */\n      0x20\n        /* \"#utility.yul\":5192:5201   */\n      dup2\n        /* \"#utility.yul\":5185:5206   */\n      mstore\n        /* \"#utility.yul\":5166:5170   */\n      0x00\n        /* \"#utility.yul\":5223:5267   */\n      tag_166\n        /* \"#utility.yul\":5263:5265   */\n      0x20\n        /* \"#utility.yul\":5252:5261   */\n      dup4\n        /* \"#utility.yul\":5248:5266   */\n      add\n        /* \"#utility.yul\":5240:5246   */\n      dup5\n        /* \"#utility.yul\":5223:5267   */\n      tag_321\n      jump\t// in\n        /* \"#utility.yul\":5460:5588   */\n    tag_251:\n        /* \"#utility.yul\":5500:5503   */\n      0x00\n        /* \"#utility.yul\":5531:5532   */\n      dup3\n        /* \"#utility.yul\":5527:5533   */\n      not\n        /* \"#utility.yul\":5524:5525   */\n      dup3\n        /* \"#utility.yul\":5521:5534   */\n      gt\n        /* \"#utility.yul\":5518:5557   */\n      iszero\n      tag_337\n      jumpi\n        /* \"#utility.yul\":5537:5555   */\n      tag_337\n      tag_338\n      jump\t// in\n    tag_337:\n      pop\n        /* \"#utility.yul\":5573:5582   */\n      add\n      swap1\n        /* \"#utility.yul\":5460:5588   */\n      jump\t// out\n        /* \"#utility.yul\":5593:5713   */\n    tag_239:\n        /* \"#utility.yul\":5633:5634   */\n      0x00\n        /* \"#utility.yul\":5659:5660   */\n      dup3\n        /* \"#utility.yul\":5649:5684   */\n      tag_341\n      jumpi\n        /* \"#utility.yul\":5664:5682   */\n      tag_341\n      tag_342\n      jump\t// in\n    tag_341:\n      pop\n        /* \"#utility.yul\":5698:5707   */\n      div\n      swap1\n        /* \"#utility.yul\":5593:5713   */\n      jump\t// out\n        /* \"#utility.yul\":5718:5843   */\n    tag_247:\n        /* \"#utility.yul\":5758:5762   */\n      0x00\n        /* \"#utility.yul\":5786:5787   */\n      dup3\n        /* \"#utility.yul\":5783:5784   */\n      dup3\n        /* \"#utility.yul\":5780:5788   */\n      lt\n        /* \"#utility.yul\":5777:5811   */\n      iszero\n      tag_345\n      jumpi\n        /* \"#utility.yul\":5791:5809   */\n      tag_345\n      tag_338\n      jump\t// in\n    tag_345:\n      pop\n        /* \"#utility.yul\":5828:5837   */\n      sub\n      swap1\n        /* \"#utility.yul\":5718:5843   */\n      jump\t// out\n        /* \"#utility.yul\":5848:6106   */\n    tag_324:\n        /* \"#utility.yul\":5920:5921   */\n      0x00\n        /* \"#utility.yul\":5930:6043   */\n    tag_347:\n        /* \"#utility.yul\":5944:5950   */\n      dup4\n        /* \"#utility.yul\":5941:5942   */\n      dup2\n        /* \"#utility.yul\":5938:5951   */\n      lt\n        /* \"#utility.yul\":5930:6043   */\n      iszero\n      tag_349\n      jumpi\n        /* \"#utility.yul\":6020:6031   */\n      dup2\n      dup2\n      add\n        /* \"#utility.yul\":6014:6032   */\n      mload\n        /* \"#utility.yul\":6001:6012   */\n      dup4\n      dup3\n      add\n        /* \"#utility.yul\":5994:6033   */\n      mstore\n        /* \"#utility.yul\":5966:5968   */\n      0x20\n        /* \"#utility.yul\":5959:5969   */\n      add\n        /* \"#utility.yul\":5930:6043   */\n      jump(tag_347)\n    tag_349:\n        /* \"#utility.yul\":6061:6067   */\n      dup4\n        /* \"#utility.yul\":6058:6059   */\n      dup2\n        /* \"#utility.yul\":6055:6068   */\n      gt\n        /* \"#utility.yul\":6052:6100   */\n      iszero\n      tag_159\n      jumpi\n      pop\n      pop\n        /* \"#utility.yul\":6096:6097   */\n      0x00\n        /* \"#utility.yul\":6078:6094   */\n      swap2\n      add\n        /* \"#utility.yul\":6071:6098   */\n      mstore\n        /* \"#utility.yul\":5848:6106   */\n      jump\t// out\n        /* \"#utility.yul\":6111:6491   */\n    tag_104:\n        /* \"#utility.yul\":6190:6191   */\n      0x01\n        /* \"#utility.yul\":6186:6198   */\n      dup2\n      dup2\n      shr\n      swap1\n        /* \"#utility.yul\":6233:6245   */\n      dup3\n      and\n      dup1\n        /* \"#utility.yul\":6254:6315   */\n      tag_352\n      jumpi\n        /* \"#utility.yul\":6308:6312   */\n      0x7f\n        /* \"#utility.yul\":6300:6306   */\n      dup3\n        /* \"#utility.yul\":6296:6313   */\n      and\n        /* \"#utility.yul\":6286:6313   */\n      swap2\n      pop\n        /* \"#utility.yul\":6254:6315   */\n    tag_352:\n        /* \"#utility.yul\":6361:6363   */\n      0x20\n        /* \"#utility.yul\":6353:6359   */\n      dup3\n        /* \"#utility.yul\":6350:6364   */\n      lt\n        /* \"#utility.yul\":6330:6348   */\n      dup2\n        /* \"#utility.yul\":6327:6365   */\n      eq\n        /* \"#utility.yul\":6324:6485   */\n      iszero\n      tag_353\n      jumpi\n        /* \"#utility.yul\":6407:6417   */\n      0x4e487b71\n        /* \"#utility.yul\":6402:6405   */\n      0xe0\n        /* \"#utility.yul\":6398:6418   */\n      shl\n        /* \"#utility.yul\":6395:6396   */\n      0x00\n        /* \"#utility.yul\":6388:6419   */\n      mstore\n        /* \"#utility.yul\":6442:6446   */\n      0x22\n        /* \"#utility.yul\":6439:6440   */\n      0x04\n        /* \"#utility.yul\":6432:6447   */\n      mstore\n        /* \"#utility.yul\":6470:6474   */\n      0x24\n        /* \"#utility.yul\":6467:6468   */\n      0x00\n        /* \"#utility.yul\":6460:6475   */\n      revert\n        /* \"#utility.yul\":6324:6485   */\n    tag_353:\n      pop\n        /* \"#utility.yul\":6111:6491   */\n      swap2\n      swap1\n      pop\n      jump\t// out\n        /* \"#utility.yul\":6496:6631   */\n    tag_237:\n        /* \"#utility.yul\":6535:6538   */\n      0x00\n      not(0x00)\n        /* \"#utility.yul\":6556:6573   */\n      dup3\n      eq\n        /* \"#utility.yul\":6553:6596   */\n      iszero\n      tag_356\n      jumpi\n        /* \"#utility.yul\":6576:6594   */\n      tag_356\n      tag_338\n      jump\t// in\n    tag_356:\n      pop\n        /* \"#utility.yul\":6623:6624   */\n      0x01\n        /* \"#utility.yul\":6612:6625   */\n      add\n      swap1\n        /* \"#utility.yul\":6496:6631   */\n      jump\t// out\n        /* \"#utility.yul\":6636:6748   */\n    tag_249:\n        /* \"#utility.yul\":6668:6669   */\n      0x00\n        /* \"#utility.yul\":6694:6695   */\n      dup3\n        /* \"#utility.yul\":6684:6719   */\n      tag_359\n      jumpi\n        /* \"#utility.yul\":6699:6717   */\n      tag_359\n      tag_342\n      jump\t// in\n    tag_359:\n      pop\n        /* \"#utility.yul\":6733:6742   */\n      mod\n      swap1\n        /* \"#utility.yul\":6636:6748   */\n      jump\t// out\n        /* \"#utility.yul\":6753:6880   */\n    tag_338:\n        /* \"#utility.yul\":6814:6824   */\n      0x4e487b71\n        /* \"#utility.yul\":6809:6812   */\n      0xe0\n        /* \"#utility.yul\":6805:6825   */\n      shl\n        /* \"#utility.yul\":6802:6803   */\n      0x00\n        /* \"#utility.yul\":6795:6826   */\n      mstore\n        /* \"#utility.yul\":6845:6849   */\n      0x11\n        /* \"#utility.yul\":6842:6843   */\n      0x04\n        /* \"#utility.yul\":6835:6850   */\n      mstore\n        /* \"#utility.yul\":6869:6873   */\n      0x24\n        /* \"#utility.yul\":6866:6867   */\n      0x00\n        /* \"#utility.yul\":6859:6874   */\n      revert\n        /* \"#utility.yul\":6885:7012   */\n    tag_342:\n        /* \"#utility.yul\":6946:6956   */\n      0x4e487b71\n        /* \"#utility.yul\":6941:6944   */\n      0xe0\n        /* \"#utility.yul\":6937:6957   */\n      shl\n        /* \"#utility.yul\":6934:6935   */\n      0x00\n        /* \"#utility.yul\":6927:6958   */\n      mstore\n        /* \"#utility.yul\":6977:6981   */\n      0x12\n        /* \"#utility.yul\":6974:6975   */\n      0x04\n        /* \"#utility.yul\":6967:6982   */\n      mstore\n        /* \"#utility.yul\":7001:7005   */\n      0x24\n        /* \"#utility.yul\":6998:6999   */\n      0x00\n        /* \"#utility.yul\":6991:7006   */\n      revert\n        /* \"#utility.yul\":7017:7144   */\n    tag_254:\n        /* \"#utility.yul\":7078:7088   */\n      0x4e487b71\n        /* \"#utility.yul\":7073:7076   */\n      0xe0\n        /* \"#utility.yul\":7069:7089   */\n      shl\n        /* \"#utility.yul\":7066:7067   */\n      0x00\n        /* \"#utility.yul\":7059:7090   */\n      mstore\n        /* \"#utility.yul\":7109:7113   */\n      0x32\n        /* \"#utility.yul\":7106:7107   */\n      0x04\n        /* \"#utility.yul\":7099:7114   */\n      mstore\n        /* \"#utility.yul\":7133:7137   */\n      0x24\n        /* \"#utility.yul\":7130:7131   */\n      0x00\n        /* \"#utility.yul\":7123:7138   */\n      revert\n        /* \"#utility.yul\":7149:7276   */\n    tag_242:\n        /* \"#utility.yul\":7210:7220   */\n      0x4e487b71\n        /* \"#utility.yul\":7205:7208   */\n      0xe0\n        /* \"#utility.yul\":7201:7221   */\n      shl\n        /* \"#utility.yul\":7198:7199   */\n      0x00\n        /* \"#utility.yul\":7191:7222   */\n      mstore\n        /* \"#utility.yul\":7241:7245   */\n      0x41\n        /* \"#utility.yul\":7238:7239   */\n      0x04\n        /* \"#utility.yul\":7231:7246   */\n      mstore\n        /* \"#utility.yul\":7265:7269   */\n      0x24\n        /* \"#utility.yul\":7262:7263   */\n      0x00\n        /* \"#utility.yul\":7255:7270   */\n      revert\n        /* \"#utility.yul\":7281:7412   */\n    tag_315:\n      not(sub(shl(0xe0, 0x01), 0x01))\n        /* \"#utility.yul\":7355:7387   */\n      dup2\n      and\n        /* \"#utility.yul\":7345:7388   */\n      dup2\n      eq\n        /* \"#utility.yul\":7335:7406   */\n      tag_144\n      jumpi\n        /* \"#utility.yul\":7402:7403   */\n      0x00\n        /* \"#utility.yul\":7399:7400   */\n      dup1\n        /* \"#utility.yul\":7392:7404   */\n      revert\n\n    auxdata: 0xa2646970667358221220ac843734620c7a06fa133ba77e35acc416c4cfc6a4cddbac334629095d7ad60f64736f6c63430008070033\n}\n",
				"bytecode": {
					"linkReferences": {},
					"object": "60806040523480156200001157600080fd5b50604080518082018252600c81526b526f746174696e674375626560a01b6020808301918252835180850190945260048452634355424560e01b908401528151919291620000629160029162000085565b5080516200007890600390602084019062000085565b5050600080555062000168565b82805462000093906200012b565b90600052602060002090601f016020900481019282620000b7576000855562000102565b82601f10620000d257805160ff191683800117855562000102565b8280016001018555821562000102579182015b8281111562000102578251825591602001919060010190620000e5565b506200011092915062000114565b5090565b5b8082111562000110576000815560010162000115565b600181811c908216806200014057607f821691505b602082108114156200016257634e487b7160e01b600052602260045260246000fd5b50919050565b6112c780620001786000396000f3fe6080604052600436106100e85760003560e01c80636352211e1161008a578063a22cb46511610059578063a22cb46514610269578063b88d4fde14610289578063c87b56dd146102a9578063e985e9c5146102c957600080fd5b80636352211e1461020157806370a082311461022157806395d89b4114610241578063a0712d681461025657600080fd5b8063095ea7b3116100c6578063095ea7b31461017c57806318160ddd1461019e57806323b872dd146101c157806342842e0e146101e157600080fd5b806301ffc9a7146100ed57806306fdde0314610122578063081812fc14610144575b600080fd5b3480156100f957600080fd5b5061010d61010836600461104c565b610312565b60405190151581526020015b60405180910390f35b34801561012e57600080fd5b50610137610364565b6040516101199190611137565b34801561015057600080fd5b5061016461015f366004611086565b6103f6565b6040516001600160a01b039091168152602001610119565b34801561018857600080fd5b5061019c610197366004611022565b61043a565b005b3480156101aa57600080fd5b50600154600054035b604051908152602001610119565b3480156101cd57600080fd5b5061019c6101dc366004610ece565b6104c8565b3480156101ed57600080fd5b5061019c6101fc366004610ece565b6104d3565b34801561020d57600080fd5b5061016461021c366004611086565b6104ee565b34801561022d57600080fd5b506101b361023c366004610e80565b610500565b34801561024d57600080fd5b5061013761054f565b61019c610264366004611086565b61055e565b34801561027557600080fd5b5061019c610284366004610fe6565b61056b565b34801561029557600080fd5b5061019c6102a4366004610f0a565b610601565b3480156102b557600080fd5b506101376102c4366004611086565b610652565b3480156102d557600080fd5b5061010d6102e4366004610e9b565b6001600160a01b03918216600090815260076020908152604080832093909416825291909152205460ff1690565b60006001600160e01b031982166380ac58cd60e01b148061034357506001600160e01b03198216635b5e139f60e01b145b8061035e57506301ffc9a760e01b6001600160e01b03198316145b92915050565b606060028054610373906111b9565b80601f016020809104026020016040519081016040528092919081815260200182805461039f906111b9565b80156103ec5780601f106103c1576101008083540402835291602001916103ec565b820191906000526020600020905b8154815290600101906020018083116103cf57829003601f168201915b5050505050905090565b6000610401826106e4565b61041e576040516333d1c03960e21b815260040160405180910390fd5b506000908152600660205260409020546001600160a01b031690565b6000610445826104ee565b9050806001600160a01b0316836001600160a01b0316141561047a5760405163250fdee360e21b815260040160405180910390fd5b336001600160a01b0382161480159061049a575061049881336102e4565b155b156104b8576040516367d9dca160e11b815260040160405180910390fd5b6104c383838361070f565b505050565b6104c383838361076b565b6104c383838360405180602001604052806000815250610601565b60006104f98261095b565b5192915050565b60006001600160a01b038216610529576040516323d3ad8160e21b815260040160405180910390fd5b506001600160a01b031660009081526005602052604090205467ffffffffffffffff1690565b606060038054610373906111b9565b6105683382610a77565b50565b6001600160a01b0382163314156105955760405163b06307db60e01b815260040160405180910390fd5b3360008181526007602090815260408083206001600160a01b03871680855290835292819020805460ff191686151590811790915590519081529192917f17307eab39ab6107e8899845ad3d59bd9653f200f220920489ca2b5937696c31910160405180910390a35050565b61060c84848461076b565b6001600160a01b0383163b1515801561062e575061062c84848484610a95565b155b1561064c576040516368d2bf6b60e11b815260040160405180910390fd5b50505050565b606061065d826106e4565b61067a57604051630a14c4b560e41b815260040160405180910390fd5b600061069160408051602081019091526000815290565b90508051600014156106b257604051806020016040528060008152506106dd565b806106bc84610b8d565b6040516020016106cd9291906110cb565b6040516020818303038152906040525b9392505050565b600080548210801561035e575050600090815260046020526040902054600160e01b900460ff161590565b60008281526006602052604080822080546001600160a01b0319166001600160a01b0387811691821790925591518593918516917f8c5be1e5ebec7d5bd14f71427d1e84f3dd0314c0f7b2291e5b200ac8c7c3b92591a4505050565b60006107768261095b565b9050836001600160a01b031681600001516001600160a01b0316146107ad5760405162a1148160e81b815260040160405180910390fd5b6000336001600160a01b03861614806107cb57506107cb85336102e4565b806107e65750336107db846103f6565b6001600160a01b0316145b90508061080657604051632ce44b5f60e11b815260040160405180910390fd5b6001600160a01b03841661082d57604051633a954ecd60e21b815260040160405180910390fd5b6108396000848761070f565b6001600160a01b038581166000908152600560209081526040808320805467ffffffffffffffff1980821667ffffffffffffffff92831660001901831617909255898616808652838620805493841693831660019081018416949094179055898652600490945282852080546001600160e01b031916909417600160a01b4290921691909102178355870180845292208054919390911661090f57600054821461090f578054602086015167ffffffffffffffff16600160a01b026001600160e01b03199091166001600160a01b038a16171781555b50505082846001600160a01b0316866001600160a01b03167fddf252ad1be2c89b69c2b068fc378daa952ba7f163c4a11628f55a4df523b3ef60405160405180910390a45b5050505050565b604080516060810182526000808252602082018190529181019190915281600054811015610a5e57600081815260046020908152604091829020825160608101845290546001600160a01b0381168252600160a01b810467ffffffffffffffff1692820192909252600160e01b90910460ff16151591810182905290610a5c5780516001600160a01b0316156109f2579392505050565b5060001901600081815260046020908152604091829020825160608101845290546001600160a01b038116808352600160a01b820467ffffffffffffffff1693830193909352600160e01b900460ff1615159281019290925215610a57579392505050565b6109f2565b505b604051636f96cda160e11b815260040160405180910390fd5b610a91828260405180602001604052806000815250610c8b565b5050565b604051630a85bd0160e11b81526000906001600160a01b0385169063150b7a0290610aca9033908990889088906004016110fa565b602060405180830381600087803b158015610ae457600080fd5b505af1925050508015610b14575060408051601f3d908101601f19168201909252610b1191810190611069565b60015b610b6f573d808015610b42576040519150601f19603f3d011682016040523d82523d6000602084013e610b47565b606091505b508051610b67576040516368d2bf6b60e11b815260040160405180910390fd5b805181602001fd5b6001600160e01b031916630a85bd0160e11b1490505b949350505050565b606081610bb15750506040805180820190915260018152600360fc1b602082015290565b8160005b8115610bdb5780610bc5816111f4565b9150610bd49050600a83611162565b9150610bb5565b60008167ffffffffffffffff811115610bf657610bf6611265565b6040519080825280601f01601f191660200182016040528015610c20576020820181803683370190505b5090505b8415610b8557610c35600183611176565b9150610c42600a8661120f565b610c4d90603061114a565b60f81b818381518110610c6257610c6261124f565b60200101906001600160f81b031916908160001a905350610c84600a86611162565b9450610c24565b6104c383838360016000546001600160a01b038516610cbc57604051622e076360e81b815260040160405180910390fd5b83610cda5760405163b562e8dd60e01b815260040160405180910390fd5b6001600160a01b038516600081815260056020908152604080832080546fffffffffffffffffffffffffffffffff19811667ffffffffffffffff8083168c0181169182176801000000000000000067ffffffffffffffff1990941690921783900481168c01811690920217909155858452600490925290912080546001600160e01b031916909217600160a01b429092169190910217905580808501838015610d8c57506001600160a01b0387163b15155b15610e15575b60405182906001600160a01b038916906000907fddf252ad1be2c89b69c2b068fc378daa952ba7f163c4a11628f55a4df523b3ef908290a4610ddd6000888480600101955088610a95565b610dfa576040516368d2bf6b60e11b815260040160405180910390fd5b80821415610d92578260005414610e1057600080fd5b610e5b565b5b6040516001830192906001600160a01b038916906000907fddf252ad1be2c89b69c2b068fc378daa952ba7f163c4a11628f55a4df523b3ef908290a480821415610e16575b50600055610954565b80356001600160a01b0381168114610e7b57600080fd5b919050565b600060208284031215610e9257600080fd5b6106dd82610e64565b60008060408385031215610eae57600080fd5b610eb783610e64565b9150610ec560208401610e64565b90509250929050565b600080600060608486031215610ee357600080fd5b610eec84610e64565b9250610efa60208501610e64565b9150604084013590509250925092565b60008060008060808587031215610f2057600080fd5b610f2985610e64565b9350610f3760208601610e64565b925060408501359150606085013567ffffffffffffffff80821115610f5b57600080fd5b818701915087601f830112610f6f57600080fd5b813581811115610f8157610f81611265565b604051601f8201601f19908116603f01168101908382118183101715610fa957610fa9611265565b816040528281528a6020848701011115610fc257600080fd5b82602086016020830137600060208483010152809550505050505092959194509250565b60008060408385031215610ff957600080fd5b61100283610e64565b91506020830135801515811461101757600080fd5b809150509250929050565b6000806040838503121561103557600080fd5b61103e83610e64565b946020939093013593505050565b60006020828403121561105e57600080fd5b81356106dd8161127b565b60006020828403121561107b57600080fd5b81516106dd8161127b565b60006020828403121561109857600080fd5b5035919050565b600081518084526110b781602086016020860161118d565b601f01601f19169290920160200192915050565b600083516110dd81846020880161118d565b8351908301906110f181836020880161118d565b01949350505050565b6001600160a01b038581168252841660208201526040810183905260806060820181905260009061112d9083018461109f565b9695505050505050565b6020815260006106dd602083018461109f565b6000821982111561115d5761115d611223565b500190565b60008261117157611171611239565b500490565b60008282101561118857611188611223565b500390565b60005b838110156111a8578181015183820152602001611190565b8381111561064c5750506000910152565b600181811c908216806111cd57607f821691505b602082108114156111ee57634e487b7160e01b600052602260045260246000fd5b50919050565b600060001982141561120857611208611223565b5060010190565b60008261121e5761121e611239565b500690565b634e487b7160e01b600052601160045260246000fd5b634e487b7160e01b600052601260045260246000fd5b634e487b7160e01b600052603260045260246000fd5b634e487b7160e01b600052604160045260246000fd5b6001600160e01b03198116811461056857600080fdfea2646970667358221220ac843734620c7a06fa133ba77e35acc416c4cfc6a4cddbac334629095d7ad60f64736f6c63430008070033",
					"opcodes": "PUSH1 0x80 PUSH1 0x40 MSTORE CALLVALUE DUP1 ISZERO PUSH3 0x11 JUMPI PUSH1 0x0 DUP1 REVERT JUMPDEST POP PUSH1 0x40 DUP1 MLOAD DUP1 DUP3 ADD DUP3 MSTORE PUSH1 0xC DUP2 MSTORE PUSH12 0x526F746174696E6743756265 PUSH1 0xA0 SHL PUSH1 0x20 DUP1 DUP4 ADD SWAP2 DUP3 MSTORE DUP4 MLOAD DUP1 DUP6 ADD SWAP1 SWAP5 MSTORE PUSH1 0x4 DUP5 MSTORE PUSH4 0x43554245 PUSH1 0xE0 SHL SWAP1 DUP5 ADD MSTORE DUP2 MLOAD SWAP2 SWAP3 SWAP2 PUSH3 0x62 SWAP2 PUSH1 0x2 SWAP2 PUSH3 0x85 JUMP JUMPDEST POP DUP1 MLOAD PUSH3 0x78 SWAP1 PUSH1 0x3 SWAP1 PUSH1 0x20 DUP5 ADD SWAP1 PUSH3 0x85 JUMP JUMPDEST POP POP PUSH1 0x0 DUP1 SSTORE POP PUSH3 0x168 JUMP JUMPDEST DUP3 DUP1 SLOAD PUSH3 0x93 SWAP1 PUSH3 0x12B JUMP JUMPDEST SWAP1 PUSH1 0x0 MSTORE PUSH1 0x20 PUSH1 0x0 KECCAK256 SWAP1 PUSH1 0x1F ADD PUSH1 0x20 SWAP1 DIV DUP2 ADD SWAP3 DUP3 PUSH3 0xB7 JUMPI PUSH1 0x0 DUP6 SSTORE PUSH3 0x102 JUMP JUMPDEST DUP3 PUSH1 0x1F LT PUSH3 0xD2 JUMPI DUP1 MLOAD PUSH1 0xFF NOT AND DUP4 DUP1 ADD OR DUP6 SSTORE PUSH3 0x102 JUMP JUMPDEST DUP3 DUP1 ADD PUSH1 0x1 ADD DUP6 SSTORE DUP3 ISZERO PUSH3 0x102 JUMPI SWAP2 DUP3 ADD JUMPDEST DUP3 DUP2 GT ISZERO PUSH3 0x102 JUMPI DUP3 MLOAD DUP3 SSTORE SWAP2 PUSH1 0x20 ADD SWAP2 SWAP1 PUSH1 0x1 ADD SWAP1 PUSH3 0xE5 JUMP JUMPDEST POP PUSH3 0x110 SWAP3 SWAP2 POP PUSH3 0x114 JUMP JUMPDEST POP SWAP1 JUMP JUMPDEST JUMPDEST DUP1 DUP3 GT ISZERO PUSH3 0x110 JUMPI PUSH1 0x0 DUP2 SSTORE PUSH1 0x1 ADD PUSH3 0x115 JUMP JUMPDEST PUSH1 0x1 DUP2 DUP2 SHR SWAP1 DUP3 AND DUP1 PUSH3 0x140 JUMPI PUSH1 0x7F DUP3 AND SWAP2 POP JUMPDEST PUSH1 0x20 DUP3 LT DUP2 EQ ISZERO PUSH3 0x162 JUMPI PUSH4 0x4E487B71 PUSH1 0xE0 SHL PUSH1 0x0 MSTORE PUSH1 0x22 PUSH1 0x4 MSTORE PUSH1 0x24 PUSH1 0x0 REVERT JUMPDEST POP SWAP2 SWAP1 POP JUMP JUMPDEST PUSH2 0x12C7 DUP1 PUSH3 0x178 PUSH1 0x0 CODECOPY PUSH1 0x0 RETURN INVALID PUSH1 0x80 PUSH1 0x40 MSTORE PUSH1 0x4 CALLDATASIZE LT PUSH2 0xE8 JUMPI PUSH1 0x0 CALLDATALOAD PUSH1 0xE0 SHR DUP1 PUSH4 0x6352211E GT PUSH2 0x8A JUMPI DUP1 PUSH4 0xA22CB465 GT PUSH2 0x59 JUMPI DUP1 PUSH4 0xA22CB465 EQ PUSH2 0x269 JUMPI DUP1 PUSH4 0xB88D4FDE EQ PUSH2 0x289 JUMPI DUP1 PUSH4 0xC87B56DD EQ PUSH2 0x2A9 JUMPI DUP1 PUSH4 0xE985E9C5 EQ PUSH2 0x2C9 JUMPI PUSH1 0x0 DUP1 REVERT JUMPDEST DUP1 PUSH4 0x6352211E EQ PUSH2 0x201 JUMPI DUP1 PUSH4 0x70A08231 EQ PUSH2 0x221 JUMPI DUP1 PUSH4 0x95D89B41 EQ PUSH2 0x241 JUMPI DUP1 PUSH4 0xA0712D68 EQ PUSH2 0x256 JUMPI PUSH1 0x0 DUP1 REVERT JUMPDEST DUP1 PUSH4 0x95EA7B3 GT PUSH2 0xC6 JUMPI DUP1 PUSH4 0x95EA7B3 EQ PUSH2 0x17C JUMPI DUP1 PUSH4 0x18160DDD EQ PUSH2 0x19E JUMPI DUP1 PUSH4 0x23B872DD EQ PUSH2 0x1C1 JUMPI DUP1 PUSH4 0x42842E0E EQ PUSH2 0x1E1 JUMPI PUSH1 0x0 DUP1 REVERT JUMPDEST DUP1 PUSH4 0x1FFC9A7 EQ PUSH2 0xED JUMPI DUP1 PUSH4 0x6FDDE03 EQ PUSH2 0x122 JUMPI DUP1 PUSH4 0x81812FC EQ PUSH2 0x144 JUMPI JUMPDEST PUSH1 0x0 DUP1 REVERT JUMPDEST CALLVALUE DUP1 ISZERO PUSH2 0xF9 JUMPI PUSH1 0x0 DUP1 REVERT JUMPDEST POP PUSH2 0x10D PUSH2 0x108 CALLDATASIZE PUSH1 0x4 PUSH2 0x104C JUMP JUMPDEST PUSH2 0x312 JUMP JUMPDEST PUSH1 0x40 MLOAD SWAP1 ISZERO ISZERO DUP2 MSTORE PUSH1 0x20 ADD JUMPDEST PUSH1 0x40 MLOAD DUP1 SWAP2 SUB SWAP1 RETURN JUMPDEST CALLVALUE DUP1 ISZERO PUSH2 0x12E JUMPI PUSH1 0x0 DUP1 REVERT JUMPDEST POP PUSH2 0x137 PUSH2 0x364 JUMP JUMPDEST PUSH1 0x40 MLOAD PUSH2 0x119 SWAP2 SWAP1 PUSH2 0x1137 JUMP JUMPDEST CALLVALUE DUP1 ISZERO PUSH2 0x150 JUMPI PUSH1 0x0 DUP1 REVERT JUMPDEST POP PUSH2 0x164 PUSH2 0x15F CALLDATASIZE PUSH1 0x4 PUSH2 0x1086 JUMP JUMPDEST PUSH2 0x3F6 JUMP JUMPDEST PUSH1 0x40 MLOAD PUSH1 0x1 PUSH1 0x1 PUSH1 0xA0 SHL SUB SWAP1 SWAP2 AND DUP2 MSTORE PUSH1 0x20 ADD PUSH2 0x119 JUMP JUMPDEST CALLVALUE DUP1 ISZERO PUSH2 0x188 JUMPI PUSH1 0x0 DUP1 REVERT JUMPDEST POP PUSH2 0x19C PUSH2 0x197 CALLDATASIZE PUSH1 0x4 PUSH2 0x1022 JUMP JUMPDEST PUSH2 0x43A JUMP JUMPDEST STOP JUMPDEST CALLVALUE DUP1 ISZERO PUSH2 0x1AA JUMPI PUSH1 0x0 DUP1 REVERT JUMPDEST POP PUSH1 0x1 SLOAD PUSH1 0x0 SLOAD SUB JUMPDEST PUSH1 0x40 MLOAD SWAP1 DUP2 MSTORE PUSH1 0x20 ADD PUSH2 0x119 JUMP JUMPDEST CALLVALUE DUP1 ISZERO PUSH2 0x1CD JUMPI PUSH1 0x0 DUP1 REVERT JUMPDEST POP PUSH2 0x19C PUSH2 0x1DC CALLDATASIZE PUSH1 0x4 PUSH2 0xECE JUMP JUMPDEST PUSH2 0x4C8 JUMP JUMPDEST CALLVALUE DUP1 ISZERO PUSH2 0x1ED JUMPI PUSH1 0x0 DUP1 REVERT JUMPDEST POP PUSH2 0x19C PUSH2 0x1FC CALLDATASIZE PUSH1 0x4 PUSH2 0xECE JUMP JUMPDEST PUSH2 0x4D3 JUMP JUMPDEST CALLVALUE DUP1 ISZERO PUSH2 0x20D JUMPI PUSH1 0x0 DUP1 REVERT JUMPDEST POP PUSH2 0x164 PUSH2 0x21C CALLDATASIZE PUSH1 0x4 PUSH2 0x1086 JUMP JUMPDEST PUSH2 0x4EE JUMP JUMPDEST CALLVALUE DUP1 ISZERO PUSH2 0x22D JUMPI PUSH1 0x0 DUP1 REVERT JUMPDEST POP PUSH2 0x1B3 PUSH2 0x23C CALLDATASIZE PUSH1 0x4 PUSH2 0xE80 JUMP JUMPDEST PUSH2 0x500 JUMP JUMPDEST CALLVALUE DUP1 ISZERO PUSH2 0x24D JUMPI PUSH1 0x0 DUP1 REVERT JUMPDEST POP PUSH2 0x137 PUSH2 0x54F JUMP JUMPDEST PUSH2 0x19C PUSH2 0x264 CALLDATASIZE PUSH1 0x4 PUSH2 0x1086 JUMP JUMPDEST PUSH2 0x55E JUMP JUMPDEST CALLVALUE DUP1 ISZERO PUSH2 0x275 JUMPI PUSH1 0x0 DUP1 REVERT JUMPDEST POP PUSH2 0x19C PUSH2 0x284 CALLDATASIZE PUSH1 0x4 PUSH2 0xFE6 JUMP JUMPDEST PUSH2 0x56B JUMP JUMPDEST CALLVALUE DUP1 ISZERO PUSH2 0x295 JUMPI PUSH1 0x0 DUP1 REVERT JUMPDEST POP PUSH2 0x19C PUSH2 0x2A4 CALLDATASIZE PUSH1 0x4 PUSH2 0xF0A JUMP JUMPDEST PUSH2 0x601 JUMP JUMPDEST CALLVALUE DUP1 ISZERO PUSH2 0x2B5 JUMPI PUSH1 0x0 DUP1 REVERT JUMPDEST POP PUSH2 0x137 PUSH2 0x2C4 CALLDATASIZE PUSH1 0x4 PUSH2 0x1086 JUMP JUMPDEST PUSH2 0x652 JUMP JUMPDEST CALLVALUE DUP1 ISZERO PUSH2 0x2D5 JUMPI PUSH1 0x0 DUP1 REVERT JUMPDEST POP PUSH2 0x10D PUSH2 0x2E4 CALLDATASIZE PUSH1 0x4 PUSH2 0xE9B JUMP JUMPDEST PUSH1 0x1 PUSH1 0x1 PUSH1 0xA0 SHL SUB SWAP2 DUP3 AND PUSH1 0x0 SWAP1 DUP2 MSTORE PUSH1 0x7 PUSH1 0x20 SWAP1 DUP2 MSTORE PUSH1 0x40 DUP1 DUP4 KECCAK256 SWAP4 SWAP1 SWAP5 AND DUP3 MSTORE SWAP2 SWAP1 SWAP2 MSTORE KECCAK256 SLOAD PUSH1 0xFF AND SWAP1 JUMP JUMPDEST PUSH1 0x0 PUSH1 0x1 PUSH1 0x1 PUSH1 0xE0 SHL SUB NOT DUP3 AND PUSH4 0x80AC58CD PUSH1 0xE0 SHL EQ DUP1 PUSH2 0x343 JUMPI POP PUSH1 0x1 PUSH1 0x1 PUSH1 0xE0 SHL SUB NOT DUP3 AND PUSH4 0x5B5E139F PUSH1 0xE0 SHL EQ JUMPDEST DUP1 PUSH2 0x35E JUMPI POP PUSH4 0x1FFC9A7 PUSH1 0xE0 SHL PUSH1 0x1 PUSH1 0x1 PUSH1 0xE0 SHL SUB NOT DUP4 AND EQ JUMPDEST SWAP3 SWAP2 POP POP JUMP JUMPDEST PUSH1 0x60 PUSH1 0x2 DUP1 SLOAD PUSH2 0x373 SWAP1 PUSH2 0x11B9 JUMP JUMPDEST DUP1 PUSH1 0x1F ADD PUSH1 0x20 DUP1 SWAP2 DIV MUL PUSH1 0x20 ADD PUSH1 0x40 MLOAD SWAP1 DUP2 ADD PUSH1 0x40 MSTORE DUP1 SWAP3 SWAP2 SWAP1 DUP2 DUP2 MSTORE PUSH1 0x20 ADD DUP3 DUP1 SLOAD PUSH2 0x39F SWAP1 PUSH2 0x11B9 JUMP JUMPDEST DUP1 ISZERO PUSH2 0x3EC JUMPI DUP1 PUSH1 0x1F LT PUSH2 0x3C1 JUMPI PUSH2 0x100 DUP1 DUP4 SLOAD DIV MUL DUP4 MSTORE SWAP2 PUSH1 0x20 ADD SWAP2 PUSH2 0x3EC JUMP JUMPDEST DUP3 ADD SWAP2 SWAP1 PUSH1 0x0 MSTORE PUSH1 0x20 PUSH1 0x0 KECCAK256 SWAP1 JUMPDEST DUP2 SLOAD DUP2 MSTORE SWAP1 PUSH1 0x1 ADD SWAP1 PUSH1 0x20 ADD DUP1 DUP4 GT PUSH2 0x3CF JUMPI DUP3 SWAP1 SUB PUSH1 0x1F AND DUP3 ADD SWAP2 JUMPDEST POP POP POP POP POP SWAP1 POP SWAP1 JUMP JUMPDEST PUSH1 0x0 PUSH2 0x401 DUP3 PUSH2 0x6E4 JUMP JUMPDEST PUSH2 0x41E JUMPI PUSH1 0x40 MLOAD PUSH4 0x33D1C039 PUSH1 0xE2 SHL DUP2 MSTORE PUSH1 0x4 ADD PUSH1 0x40 MLOAD DUP1 SWAP2 SUB SWAP1 REVERT JUMPDEST POP PUSH1 0x0 SWAP1 DUP2 MSTORE PUSH1 0x6 PUSH1 0x20 MSTORE PUSH1 0x40 SWAP1 KECCAK256 SLOAD PUSH1 0x1 PUSH1 0x1 PUSH1 0xA0 SHL SUB AND SWAP1 JUMP JUMPDEST PUSH1 0x0 PUSH2 0x445 DUP3 PUSH2 0x4EE JUMP JUMPDEST SWAP1 POP DUP1 PUSH1 0x1 PUSH1 0x1 PUSH1 0xA0 SHL SUB AND DUP4 PUSH1 0x1 PUSH1 0x1 PUSH1 0xA0 SHL SUB AND EQ ISZERO PUSH2 0x47A JUMPI PUSH1 0x40 MLOAD PUSH4 0x250FDEE3 PUSH1 0xE2 SHL DUP2 MSTORE PUSH1 0x4 ADD PUSH1 0x40 MLOAD DUP1 SWAP2 SUB SWAP1 REVERT JUMPDEST CALLER PUSH1 0x1 PUSH1 0x1 PUSH1 0xA0 SHL SUB DUP3 AND EQ DUP1 ISZERO SWAP1 PUSH2 0x49A JUMPI POP PUSH2 0x498 DUP2 CALLER PUSH2 0x2E4 JUMP JUMPDEST ISZERO JUMPDEST ISZERO PUSH2 0x4B8 JUMPI PUSH1 0x40 MLOAD PUSH4 0x67D9DCA1 PUSH1 0xE1 SHL DUP2 MSTORE PUSH1 0x4 ADD PUSH1 0x40 MLOAD DUP1 SWAP2 SUB SWAP1 REVERT JUMPDEST PUSH2 0x4C3 DUP4 DUP4 DUP4 PUSH2 0x70F JUMP JUMPDEST POP POP POP JUMP JUMPDEST PUSH2 0x4C3 DUP4 DUP4 DUP4 PUSH2 0x76B JUMP JUMPDEST PUSH2 0x4C3 DUP4 DUP4 DUP4 PUSH1 0x40 MLOAD DUP1 PUSH1 0x20 ADD PUSH1 0x40 MSTORE DUP1 PUSH1 0x0 DUP2 MSTORE POP PUSH2 0x601 JUMP JUMPDEST PUSH1 0x0 PUSH2 0x4F9 DUP3 PUSH2 0x95B JUMP JUMPDEST MLOAD SWAP3 SWAP2 POP POP JUMP JUMPDEST PUSH1 0x0 PUSH1 0x1 PUSH1 0x1 PUSH1 0xA0 SHL SUB DUP3 AND PUSH2 0x529 JUMPI PUSH1 0x40 MLOAD PUSH4 0x23D3AD81 PUSH1 0xE2 SHL DUP2 MSTORE PUSH1 0x4 ADD PUSH1 0x40 MLOAD DUP1 SWAP2 SUB SWAP1 REVERT JUMPDEST POP PUSH1 0x1 PUSH1 0x1 PUSH1 0xA0 SHL SUB AND PUSH1 0x0 SWAP1 DUP2 MSTORE PUSH1 0x5 PUSH1 0x20 MSTORE PUSH1 0x40 SWAP1 KECCAK256 SLOAD PUSH8 0xFFFFFFFFFFFFFFFF AND SWAP1 JUMP JUMPDEST PUSH1 0x60 PUSH1 0x3 DUP1 SLOAD PUSH2 0x373 SWAP1 PUSH2 0x11B9 JUMP JUMPDEST PUSH2 0x568 CALLER DUP3 PUSH2 0xA77 JUMP JUMPDEST POP JUMP JUMPDEST PUSH1 0x1 PUSH1 0x1 PUSH1 0xA0 SHL SUB DUP3 AND CALLER EQ ISZERO PUSH2 0x595 JUMPI PUSH1 0x40 MLOAD PUSH4 0xB06307DB PUSH1 0xE0 SHL DUP2 MSTORE PUSH1 0x4 ADD PUSH1 0x40 MLOAD DUP1 SWAP2 SUB SWAP1 REVERT JUMPDEST CALLER PUSH1 0x0 DUP2 DUP2 MSTORE PUSH1 0x7 PUSH1 0x20 SWAP1 DUP2 MSTORE PUSH1 0x40 DUP1 DUP4 KECCAK256 PUSH1 0x1 PUSH1 0x1 PUSH1 0xA0 SHL SUB DUP8 AND DUP1 DUP6 MSTORE SWAP1 DUP4 MSTORE SWAP3 DUP2 SWAP1 KECCAK256 DUP1 SLOAD PUSH1 0xFF NOT AND DUP7 ISZERO ISZERO SWAP1 DUP2 OR SWAP1 SWAP2 SSTORE SWAP1 MLOAD SWAP1 DUP2 MSTORE SWAP2 SWAP3 SWAP2 PUSH32 0x17307EAB39AB6107E8899845AD3D59BD9653F200F220920489CA2B5937696C31 SWAP2 ADD PUSH1 0x40 MLOAD DUP1 SWAP2 SUB SWAP1 LOG3 POP POP JUMP JUMPDEST PUSH2 0x60C DUP5 DUP5 DUP5 PUSH2 0x76B JUMP JUMPDEST PUSH1 0x1 PUSH1 0x1 PUSH1 0xA0 SHL SUB DUP4 AND EXTCODESIZE ISZERO ISZERO DUP1 ISZERO PUSH2 0x62E JUMPI POP PUSH2 0x62C DUP5 DUP5 DUP5 DUP5 PUSH2 0xA95 JUMP JUMPDEST ISZERO JUMPDEST ISZERO PUSH2 0x64C JUMPI PUSH1 0x40 MLOAD PUSH4 0x68D2BF6B PUSH1 0xE1 SHL DUP2 MSTORE PUSH1 0x4 ADD PUSH1 0x40 MLOAD DUP1 SWAP2 SUB SWAP1 REVERT JUMPDEST POP POP POP POP JUMP JUMPDEST PUSH1 0x60 PUSH2 0x65D DUP3 PUSH2 0x6E4 JUMP JUMPDEST PUSH2 0x67A JUMPI PUSH1 0x40 MLOAD PUSH4 0xA14C4B5 PUSH1 0xE4 SHL DUP2 MSTORE PUSH1 0x4 ADD PUSH1 0x40 MLOAD DUP1 SWAP2 SUB SWAP1 REVERT JUMPDEST PUSH1 0x0 PUSH2 0x691 PUSH1 0x40 DUP1 MLOAD PUSH1 0x20 DUP2 ADD SWAP1 SWAP2 MSTORE PUSH1 0x0 DUP2 MSTORE SWAP1 JUMP JUMPDEST SWAP1 POP DUP1 MLOAD PUSH1 0x0 EQ ISZERO PUSH2 0x6B2 JUMPI PUSH1 0x40 MLOAD DUP1 PUSH1 0x20 ADD PUSH1 0x40 MSTORE DUP1 PUSH1 0x0 DUP2 MSTORE POP PUSH2 0x6DD JUMP JUMPDEST DUP1 PUSH2 0x6BC DUP5 PUSH2 0xB8D JUMP JUMPDEST PUSH1 0x40 MLOAD PUSH1 0x20 ADD PUSH2 0x6CD SWAP3 SWAP2 SWAP1 PUSH2 0x10CB JUMP JUMPDEST PUSH1 0x40 MLOAD PUSH1 0x20 DUP2 DUP4 SUB SUB DUP2 MSTORE SWAP1 PUSH1 0x40 MSTORE JUMPDEST SWAP4 SWAP3 POP POP POP JUMP JUMPDEST PUSH1 0x0 DUP1 SLOAD DUP3 LT DUP1 ISZERO PUSH2 0x35E JUMPI POP POP PUSH1 0x0 SWAP1 DUP2 MSTORE PUSH1 0x4 PUSH1 0x20 MSTORE PUSH1 0x40 SWAP1 KECCAK256 SLOAD PUSH1 0x1 PUSH1 0xE0 SHL SWAP1 DIV PUSH1 0xFF AND ISZERO SWAP1 JUMP JUMPDEST PUSH1 0x0 DUP3 DUP2 MSTORE PUSH1 0x6 PUSH1 0x20 MSTORE PUSH1 0x40 DUP1 DUP3 KECCAK256 DUP1 SLOAD PUSH1 0x1 PUSH1 0x1 PUSH1 0xA0 SHL SUB NOT AND PUSH1 0x1 PUSH1 0x1 PUSH1 0xA0 SHL SUB DUP8 DUP2 AND SWAP2 DUP3 OR SWAP1 SWAP3 SSTORE SWAP2 MLOAD DUP6 SWAP4 SWAP2 DUP6 AND SWAP2 PUSH32 0x8C5BE1E5EBEC7D5BD14F71427D1E84F3DD0314C0F7B2291E5B200AC8C7C3B925 SWAP2 LOG4 POP POP POP JUMP JUMPDEST PUSH1 0x0 PUSH2 0x776 DUP3 PUSH2 0x95B JUMP JUMPDEST SWAP1 POP DUP4 PUSH1 0x1 PUSH1 0x1 PUSH1 0xA0 SHL SUB AND DUP2 PUSH1 0x0 ADD MLOAD PUSH1 0x1 PUSH1 0x1 PUSH1 0xA0 SHL SUB AND EQ PUSH2 0x7AD JUMPI PUSH1 0x40 MLOAD PUSH3 0xA11481 PUSH1 0xE8 SHL DUP2 MSTORE PUSH1 0x4 ADD PUSH1 0x40 MLOAD DUP1 SWAP2 SUB SWAP1 REVERT JUMPDEST PUSH1 0x0 CALLER PUSH1 0x1 PUSH1 0x1 PUSH1 0xA0 SHL SUB DUP7 AND EQ DUP1 PUSH2 0x7CB JUMPI POP PUSH2 0x7CB DUP6 CALLER PUSH2 0x2E4 JUMP JUMPDEST DUP1 PUSH2 0x7E6 JUMPI POP CALLER PUSH2 0x7DB DUP5 PUSH2 0x3F6 JUMP JUMPDEST PUSH1 0x1 PUSH1 0x1 PUSH1 0xA0 SHL SUB AND EQ JUMPDEST SWAP1 POP DUP1 PUSH2 0x806 JUMPI PUSH1 0x40 MLOAD PUSH4 0x2CE44B5F PUSH1 0xE1 SHL DUP2 MSTORE PUSH1 0x4 ADD PUSH1 0x40 MLOAD DUP1 SWAP2 SUB SWAP1 REVERT JUMPDEST PUSH1 0x1 PUSH1 0x1 PUSH1 0xA0 SHL SUB DUP5 AND PUSH2 0x82D JUMPI PUSH1 0x40 MLOAD PUSH4 0x3A954ECD PUSH1 0xE2 SHL DUP2 MSTORE PUSH1 0x4 ADD PUSH1 0x40 MLOAD DUP1 SWAP2 SUB SWAP1 REVERT JUMPDEST PUSH2 0x839 PUSH1 0x0 DUP5 DUP8 PUSH2 0x70F JUMP JUMPDEST PUSH1 0x1 PUSH1 0x1 PUSH1 0xA0 SHL SUB DUP6 DUP2 AND PUSH1 0x0 SWAP1 DUP2 MSTORE PUSH1 0x5 PUSH1 0x20 SWAP1 DUP2 MSTORE PUSH1 0x40 DUP1 DUP4 KECCAK256 DUP1 SLOAD PUSH8 0xFFFFFFFFFFFFFFFF NOT DUP1 DUP3 AND PUSH8 0xFFFFFFFFFFFFFFFF SWAP3 DUP4 AND PUSH1 0x0 NOT ADD DUP4 AND OR SWAP1 SWAP3 SSTORE DUP10 DUP7 AND DUP1 DUP7 MSTORE DUP4 DUP7 KECCAK256 DUP1 SLOAD SWAP4 DUP5 AND SWAP4 DUP4 AND PUSH1 0x1 SWAP1 DUP2 ADD DUP5 AND SWAP5 SWAP1 SWAP5 OR SWAP1 SSTORE DUP10 DUP7 MSTORE PUSH1 0x4 SWAP1 SWAP5 MSTORE DUP3 DUP6 KECCAK256 DUP1 SLOAD PUSH1 0x1 PUSH1 0x1 PUSH1 0xE0 SHL SUB NOT AND SWAP1 SWAP5 OR PUSH1 0x1 PUSH1 0xA0 SHL TIMESTAMP SWAP1 SWAP3 AND SWAP2 SWAP1 SWAP2 MUL OR DUP4 SSTORE DUP8 ADD DUP1 DUP5 MSTORE SWAP3 KECCAK256 DUP1 SLOAD SWAP2 SWAP4 SWAP1 SWAP2 AND PUSH2 0x90F JUMPI PUSH1 0x0 SLOAD DUP3 EQ PUSH2 0x90F JUMPI DUP1 SLOAD PUSH1 0x20 DUP7 ADD MLOAD PUSH8 0xFFFFFFFFFFFFFFFF AND PUSH1 0x1 PUSH1 0xA0 SHL MUL PUSH1 0x1 PUSH1 0x1 PUSH1 0xE0 SHL SUB NOT SWAP1 SWAP2 AND PUSH1 0x1 PUSH1 0x1 PUSH1 0xA0 SHL SUB DUP11 AND OR OR DUP2 SSTORE JUMPDEST POP POP POP DUP3 DUP5 PUSH1 0x1 PUSH1 0x1 PUSH1 0xA0 SHL SUB AND DUP7 PUSH1 0x1 PUSH1 0x1 PUSH1 0xA0 SHL SUB AND PUSH32 0xDDF252AD1BE2C89B69C2B068FC378DAA952BA7F163C4A11628F55A4DF523B3EF PUSH1 0x40 MLOAD PUSH1 0x40 MLOAD DUP1 SWAP2 SUB SWAP1 LOG4 JUMPDEST POP POP POP POP POP JUMP JUMPDEST PUSH1 0x40 DUP1 MLOAD PUSH1 0x60 DUP2 ADD DUP3 MSTORE PUSH1 0x0 DUP1 DUP3 MSTORE PUSH1 0x20 DUP3 ADD DUP2 SWAP1 MSTORE SWAP2 DUP2 ADD SWAP2 SWAP1 SWAP2 MSTORE DUP2 PUSH1 0x0 SLOAD DUP2 LT ISZERO PUSH2 0xA5E JUMPI PUSH1 0x0 DUP2 DUP2 MSTORE PUSH1 0x4 PUSH1 0x20 SWAP1 DUP2 MSTORE PUSH1 0x40 SWAP2 DUP3 SWAP1 KECCAK256 DUP3 MLOAD PUSH1 0x60 DUP2 ADD DUP5 MSTORE SWAP1 SLOAD PUSH1 0x1 PUSH1 0x1 PUSH1 0xA0 SHL SUB DUP2 AND DUP3 MSTORE PUSH1 0x1 PUSH1 0xA0 SHL DUP2 DIV PUSH8 0xFFFFFFFFFFFFFFFF AND SWAP3 DUP3 ADD SWAP3 SWAP1 SWAP3 MSTORE PUSH1 0x1 PUSH1 0xE0 SHL SWAP1 SWAP2 DIV PUSH1 0xFF AND ISZERO ISZERO SWAP2 DUP2 ADD DUP3 SWAP1 MSTORE SWAP1 PUSH2 0xA5C JUMPI DUP1 MLOAD PUSH1 0x1 PUSH1 0x1 PUSH1 0xA0 SHL SUB AND ISZERO PUSH2 0x9F2 JUMPI SWAP4 SWAP3 POP POP POP JUMP JUMPDEST POP PUSH1 0x0 NOT ADD PUSH1 0x0 DUP2 DUP2 MSTORE PUSH1 0x4 PUSH1 0x20 SWAP1 DUP2 MSTORE PUSH1 0x40 SWAP2 DUP3 SWAP1 KECCAK256 DUP3 MLOAD PUSH1 0x60 DUP2 ADD DUP5 MSTORE SWAP1 SLOAD PUSH1 0x1 PUSH1 0x1 PUSH1 0xA0 SHL SUB DUP2 AND DUP1 DUP4 MSTORE PUSH1 0x1 PUSH1 0xA0 SHL DUP3 DIV PUSH8 0xFFFFFFFFFFFFFFFF AND SWAP4 DUP4 ADD SWAP4 SWAP1 SWAP4 MSTORE PUSH1 0x1 PUSH1 0xE0 SHL SWAP1 DIV PUSH1 0xFF AND ISZERO ISZERO SWAP3 DUP2 ADD SWAP3 SWAP1 SWAP3 MSTORE ISZERO PUSH2 0xA57 JUMPI SWAP4 SWAP3 POP POP POP JUMP JUMPDEST PUSH2 0x9F2 JUMP JUMPDEST POP JUMPDEST PUSH1 0x40 MLOAD PUSH4 0x6F96CDA1 PUSH1 0xE1 SHL DUP2 MSTORE PUSH1 0x4 ADD PUSH1 0x40 MLOAD DUP1 SWAP2 SUB SWAP1 REVERT JUMPDEST PUSH2 0xA91 DUP3 DUP3 PUSH1 0x40 MLOAD DUP1 PUSH1 0x20 ADD PUSH1 0x40 MSTORE DUP1 PUSH1 0x0 DUP2 MSTORE POP PUSH2 0xC8B JUMP JUMPDEST POP POP JUMP JUMPDEST PUSH1 0x40 MLOAD PUSH4 0xA85BD01 PUSH1 0xE1 SHL DUP2 MSTORE PUSH1 0x0 SWAP1 PUSH1 0x1 PUSH1 0x1 PUSH1 0xA0 SHL SUB DUP6 AND SWAP1 PUSH4 0x150B7A02 SWAP1 PUSH2 0xACA SWAP1 CALLER SWAP1 DUP10 SWAP1 DUP9 SWAP1 DUP9 SWAP1 PUSH1 0x4 ADD PUSH2 0x10FA JUMP JUMPDEST PUSH1 0x20 PUSH1 0x40 MLOAD DUP1 DUP4 SUB DUP2 PUSH1 0x0 DUP8 DUP1 EXTCODESIZE ISZERO DUP1 ISZERO PUSH2 0xAE4 JUMPI PUSH1 0x0 DUP1 REVERT JUMPDEST POP GAS CALL SWAP3 POP POP POP DUP1 ISZERO PUSH2 0xB14 JUMPI POP PUSH1 0x40 DUP1 MLOAD PUSH1 0x1F RETURNDATASIZE SWAP1 DUP2 ADD PUSH1 0x1F NOT AND DUP3 ADD SWAP1 SWAP3 MSTORE PUSH2 0xB11 SWAP2 DUP2 ADD SWAP1 PUSH2 0x1069 JUMP JUMPDEST PUSH1 0x1 JUMPDEST PUSH2 0xB6F JUMPI RETURNDATASIZE DUP1 DUP1 ISZERO PUSH2 0xB42 JUMPI PUSH1 0x40 MLOAD SWAP2 POP PUSH1 0x1F NOT PUSH1 0x3F RETURNDATASIZE ADD AND DUP3 ADD PUSH1 0x40 MSTORE RETURNDATASIZE DUP3 MSTORE RETURNDATASIZE PUSH1 0x0 PUSH1 0x20 DUP5 ADD RETURNDATACOPY PUSH2 0xB47 JUMP JUMPDEST PUSH1 0x60 SWAP2 POP JUMPDEST POP DUP1 MLOAD PUSH2 0xB67 JUMPI PUSH1 0x40 MLOAD PUSH4 0x68D2BF6B PUSH1 0xE1 SHL DUP2 MSTORE PUSH1 0x4 ADD PUSH1 0x40 MLOAD DUP1 SWAP2 SUB SWAP1 REVERT JUMPDEST DUP1 MLOAD DUP2 PUSH1 0x20 ADD REVERT JUMPDEST PUSH1 0x1 PUSH1 0x1 PUSH1 0xE0 SHL SUB NOT AND PUSH4 0xA85BD01 PUSH1 0xE1 SHL EQ SWAP1 POP JUMPDEST SWAP5 SWAP4 POP POP POP POP JUMP JUMPDEST PUSH1 0x60 DUP2 PUSH2 0xBB1 JUMPI POP POP PUSH1 0x40 DUP1 MLOAD DUP1 DUP3 ADD SWAP1 SWAP2 MSTORE PUSH1 0x1 DUP2 MSTORE PUSH1 0x3 PUSH1 0xFC SHL PUSH1 0x20 DUP3 ADD MSTORE SWAP1 JUMP JUMPDEST DUP2 PUSH1 0x0 JUMPDEST DUP2 ISZERO PUSH2 0xBDB JUMPI DUP1 PUSH2 0xBC5 DUP2 PUSH2 0x11F4 JUMP JUMPDEST SWAP2 POP PUSH2 0xBD4 SWAP1 POP PUSH1 0xA DUP4 PUSH2 0x1162 JUMP JUMPDEST SWAP2 POP PUSH2 0xBB5 JUMP JUMPDEST PUSH1 0x0 DUP2 PUSH8 0xFFFFFFFFFFFFFFFF DUP2 GT ISZERO PUSH2 0xBF6 JUMPI PUSH2 0xBF6 PUSH2 0x1265 JUMP JUMPDEST PUSH1 0x40 MLOAD SWAP1 DUP1 DUP3 MSTORE DUP1 PUSH1 0x1F ADD PUSH1 0x1F NOT AND PUSH1 0x20 ADD DUP3 ADD PUSH1 0x40 MSTORE DUP1 ISZERO PUSH2 0xC20 JUMPI PUSH1 0x20 DUP3 ADD DUP2 DUP1 CALLDATASIZE DUP4 CALLDATACOPY ADD SWAP1 POP JUMPDEST POP SWAP1 POP JUMPDEST DUP5 ISZERO PUSH2 0xB85 JUMPI PUSH2 0xC35 PUSH1 0x1 DUP4 PUSH2 0x1176 JUMP JUMPDEST SWAP2 POP PUSH2 0xC42 PUSH1 0xA DUP7 PUSH2 0x120F JUMP JUMPDEST PUSH2 0xC4D SWAP1 PUSH1 0x30 PUSH2 0x114A JUMP JUMPDEST PUSH1 0xF8 SHL DUP2 DUP4 DUP2 MLOAD DUP2 LT PUSH2 0xC62 JUMPI PUSH2 0xC62 PUSH2 0x124F JUMP JUMPDEST PUSH1 0x20 ADD ADD SWAP1 PUSH1 0x1 PUSH1 0x1 PUSH1 0xF8 SHL SUB NOT AND SWAP1 DUP2 PUSH1 0x0 BYTE SWAP1 MSTORE8 POP PUSH2 0xC84 PUSH1 0xA DUP7 PUSH2 0x1162 JUMP JUMPDEST SWAP5 POP PUSH2 0xC24 JUMP JUMPDEST PUSH2 0x4C3 DUP4 DUP4 DUP4 PUSH1 0x1 PUSH1 0x0 SLOAD PUSH1 0x1 PUSH1 0x1 PUSH1 0xA0 SHL SUB DUP6 AND PUSH2 0xCBC JUMPI PUSH1 0x40 MLOAD PUSH3 0x2E0763 PUSH1 0xE8 SHL DUP2 MSTORE PUSH1 0x4 ADD PUSH1 0x40 MLOAD DUP1 SWAP2 SUB SWAP1 REVERT JUMPDEST DUP4 PUSH2 0xCDA JUMPI PUSH1 0x40 MLOAD PUSH4 0xB562E8DD PUSH1 0xE0 SHL DUP2 MSTORE PUSH1 0x4 ADD PUSH1 0x40 MLOAD DUP1 SWAP2 SUB SWAP1 REVERT JUMPDEST PUSH1 0x1 PUSH1 0x1 PUSH1 0xA0 SHL SUB DUP6 AND PUSH1 0x0 DUP2 DUP2 MSTORE PUSH1 0x5 PUSH1 0x20 SWAP1 DUP2 MSTORE PUSH1 0x40 DUP1 DUP4 KECCAK256 DUP1 SLOAD PUSH16 0xFFFFFFFFFFFFFFFFFFFFFFFFFFFFFFFF NOT DUP2 AND PUSH8 0xFFFFFFFFFFFFFFFF DUP1 DUP4 AND DUP13 ADD DUP2 AND SWAP2 DUP3 OR PUSH9 0x10000000000000000 PUSH8 0xFFFFFFFFFFFFFFFF NOT SWAP1 SWAP5 AND SWAP1 SWAP3 OR DUP4 SWAP1 DIV DUP2 AND DUP13 ADD DUP2 AND SWAP1 SWAP3 MUL OR SWAP1 SWAP2 SSTORE DUP6 DUP5 MSTORE PUSH1 0x4 SWAP1 SWAP3 MSTORE SWAP1 SWAP2 KECCAK256 DUP1 SLOAD PUSH1 0x1 PUSH1 0x1 PUSH1 0xE0 SHL SUB NOT AND SWAP1 SWAP3 OR PUSH1 0x1 PUSH1 0xA0 SHL TIMESTAMP SWAP1 SWAP3 AND SWAP2 SWAP1 SWAP2 MUL OR SWAP1 SSTORE DUP1 DUP1 DUP6 ADD DUP4 DUP1 ISZERO PUSH2 0xD8C JUMPI POP PUSH1 0x1 PUSH1 0x1 PUSH1 0xA0 SHL SUB DUP8 AND EXTCODESIZE ISZERO ISZERO JUMPDEST ISZERO PUSH2 0xE15 JUMPI JUMPDEST PUSH1 0x40 MLOAD DUP3 SWAP1 PUSH1 0x1 PUSH1 0x1 PUSH1 0xA0 SHL SUB DUP10 AND SWAP1 PUSH1 0x0 SWAP1 PUSH32 0xDDF252AD1BE2C89B69C2B068FC378DAA952BA7F163C4A11628F55A4DF523B3EF SWAP1 DUP3 SWAP1 LOG4 PUSH2 0xDDD PUSH1 0x0 DUP9 DUP5 DUP1 PUSH1 0x1 ADD SWAP6 POP DUP9 PUSH2 0xA95 JUMP JUMPDEST PUSH2 0xDFA JUMPI PUSH1 0x40 MLOAD PUSH4 0x68D2BF6B PUSH1 0xE1 SHL DUP2 MSTORE PUSH1 0x4 ADD PUSH1 0x40 MLOAD DUP1 SWAP2 SUB SWAP1 REVERT JUMPDEST DUP1 DUP3 EQ ISZERO PUSH2 0xD92 JUMPI DUP3 PUSH1 0x0 SLOAD EQ PUSH2 0xE10 JUMPI PUSH1 0x0 DUP1 REVERT JUMPDEST PUSH2 0xE5B JUMP JUMPDEST JUMPDEST PUSH1 0x40 MLOAD PUSH1 0x1 DUP4 ADD SWAP3 SWAP1 PUSH1 0x1 PUSH1 0x1 PUSH1 0xA0 SHL SUB DUP10 AND SWAP1 PUSH1 0x0 SWAP1 PUSH32 0xDDF252AD1BE2C89B69C2B068FC378DAA952BA7F163C4A11628F55A4DF523B3EF SWAP1 DUP3 SWAP1 LOG4 DUP1 DUP3 EQ ISZERO PUSH2 0xE16 JUMPI JUMPDEST POP PUSH1 0x0 SSTORE PUSH2 0x954 JUMP JUMPDEST DUP1 CALLDATALOAD PUSH1 0x1 PUSH1 0x1 PUSH1 0xA0 SHL SUB DUP2 AND DUP2 EQ PUSH2 0xE7B JUMPI PUSH1 0x0 DUP1 REVERT JUMPDEST SWAP2 SWAP1 POP JUMP JUMPDEST PUSH1 0x0 PUSH1 0x20 DUP3 DUP5 SUB SLT ISZERO PUSH2 0xE92 JUMPI PUSH1 0x0 DUP1 REVERT JUMPDEST PUSH2 0x6DD DUP3 PUSH2 0xE64 JUMP JUMPDEST PUSH1 0x0 DUP1 PUSH1 0x40 DUP4 DUP6 SUB SLT ISZERO PUSH2 0xEAE JUMPI PUSH1 0x0 DUP1 REVERT JUMPDEST PUSH2 0xEB7 DUP4 PUSH2 0xE64 JUMP JUMPDEST SWAP2 POP PUSH2 0xEC5 PUSH1 0x20 DUP5 ADD PUSH2 0xE64 JUMP JUMPDEST SWAP1 POP SWAP3 POP SWAP3 SWAP1 POP JUMP JUMPDEST PUSH1 0x0 DUP1 PUSH1 0x0 PUSH1 0x60 DUP5 DUP7 SUB SLT ISZERO PUSH2 0xEE3 JUMPI PUSH1 0x0 DUP1 REVERT JUMPDEST PUSH2 0xEEC DUP5 PUSH2 0xE64 JUMP JUMPDEST SWAP3 POP PUSH2 0xEFA PUSH1 0x20 DUP6 ADD PUSH2 0xE64 JUMP JUMPDEST SWAP2 POP PUSH1 0x40 DUP5 ADD CALLDATALOAD SWAP1 POP SWAP3 POP SWAP3 POP SWAP3 JUMP JUMPDEST PUSH1 0x0 DUP1 PUSH1 0x0 DUP1 PUSH1 0x80 DUP6 DUP8 SUB SLT ISZERO PUSH2 0xF20 JUMPI PUSH1 0x0 DUP1 REVERT JUMPDEST PUSH2 0xF29 DUP6 PUSH2 0xE64 JUMP JUMPDEST SWAP4 POP PUSH2 0xF37 PUSH1 0x20 DUP7 ADD PUSH2 0xE64 JUMP JUMPDEST SWAP3 POP PUSH1 0x40 DUP6 ADD CALLDATALOAD SWAP2 POP PUSH1 0x60 DUP6 ADD CALLDATALOAD PUSH8 0xFFFFFFFFFFFFFFFF DUP1 DUP3 GT ISZERO PUSH2 0xF5B JUMPI PUSH1 0x0 DUP1 REVERT JUMPDEST DUP2 DUP8 ADD SWAP2 POP DUP8 PUSH1 0x1F DUP4 ADD SLT PUSH2 0xF6F JUMPI PUSH1 0x0 DUP1 REVERT JUMPDEST DUP2 CALLDATALOAD DUP2 DUP2 GT ISZERO PUSH2 0xF81 JUMPI PUSH2 0xF81 PUSH2 0x1265 JUMP JUMPDEST PUSH1 0x40 MLOAD PUSH1 0x1F DUP3 ADD PUSH1 0x1F NOT SWAP1 DUP2 AND PUSH1 0x3F ADD AND DUP2 ADD SWAP1 DUP4 DUP3 GT DUP2 DUP4 LT OR ISZERO PUSH2 0xFA9 JUMPI PUSH2 0xFA9 PUSH2 0x1265 JUMP JUMPDEST DUP2 PUSH1 0x40 MSTORE DUP3 DUP2 MSTORE DUP11 PUSH1 0x20 DUP5 DUP8 ADD ADD GT ISZERO PUSH2 0xFC2 JUMPI PUSH1 0x0 DUP1 REVERT JUMPDEST DUP3 PUSH1 0x20 DUP7 ADD PUSH1 0x20 DUP4 ADD CALLDATACOPY PUSH1 0x0 PUSH1 0x20 DUP5 DUP4 ADD ADD MSTORE DUP1 SWAP6 POP POP POP POP POP POP SWAP3 SWAP6 SWAP2 SWAP5 POP SWAP3 POP JUMP JUMPDEST PUSH1 0x0 DUP1 PUSH1 0x40 DUP4 DUP6 SUB SLT ISZERO PUSH2 0xFF9 JUMPI PUSH1 0x0 DUP1 REVERT JUMPDEST PUSH2 0x1002 DUP4 PUSH2 0xE64 JUMP JUMPDEST SWAP2 POP PUSH1 0x20 DUP4 ADD CALLDATALOAD DUP1 ISZERO ISZERO DUP2 EQ PUSH2 0x1017 JUMPI PUSH1 0x0 DUP1 REVERT JUMPDEST DUP1 SWAP2 POP POP SWAP3 POP SWAP3 SWAP1 POP JUMP JUMPDEST PUSH1 0x0 DUP1 PUSH1 0x40 DUP4 DUP6 SUB SLT ISZERO PUSH2 0x1035 JUMPI PUSH1 0x0 DUP1 REVERT JUMPDEST PUSH2 0x103E DUP4 PUSH2 0xE64 JUMP JUMPDEST SWAP5 PUSH1 0x20 SWAP4 SWAP1 SWAP4 ADD CALLDATALOAD SWAP4 POP POP POP JUMP JUMPDEST PUSH1 0x0 PUSH1 0x20 DUP3 DUP5 SUB SLT ISZERO PUSH2 0x105E JUMPI PUSH1 0x0 DUP1 REVERT JUMPDEST DUP2 CALLDATALOAD PUSH2 0x6DD DUP2 PUSH2 0x127B JUMP JUMPDEST PUSH1 0x0 PUSH1 0x20 DUP3 DUP5 SUB SLT ISZERO PUSH2 0x107B JUMPI PUSH1 0x0 DUP1 REVERT JUMPDEST DUP2 MLOAD PUSH2 0x6DD DUP2 PUSH2 0x127B JUMP JUMPDEST PUSH1 0x0 PUSH1 0x20 DUP3 DUP5 SUB SLT ISZERO PUSH2 0x1098 JUMPI PUSH1 0x0 DUP1 REVERT JUMPDEST POP CALLDATALOAD SWAP2 SWAP1 POP JUMP JUMPDEST PUSH1 0x0 DUP2 MLOAD DUP1 DUP5 MSTORE PUSH2 0x10B7 DUP2 PUSH1 0x20 DUP7 ADD PUSH1 0x20 DUP7 ADD PUSH2 0x118D JUMP JUMPDEST PUSH1 0x1F ADD PUSH1 0x1F NOT AND SWAP3 SWAP1 SWAP3 ADD PUSH1 0x20 ADD SWAP3 SWAP2 POP POP JUMP JUMPDEST PUSH1 0x0 DUP4 MLOAD PUSH2 0x10DD DUP2 DUP5 PUSH1 0x20 DUP9 ADD PUSH2 0x118D JUMP JUMPDEST DUP4 MLOAD SWAP1 DUP4 ADD SWAP1 PUSH2 0x10F1 DUP2 DUP4 PUSH1 0x20 DUP9 ADD PUSH2 0x118D JUMP JUMPDEST ADD SWAP5 SWAP4 POP POP POP POP JUMP JUMPDEST PUSH1 0x1 PUSH1 0x1 PUSH1 0xA0 SHL SUB DUP6 DUP2 AND DUP3 MSTORE DUP5 AND PUSH1 0x20 DUP3 ADD MSTORE PUSH1 0x40 DUP2 ADD DUP4 SWAP1 MSTORE PUSH1 0x80 PUSH1 0x60 DUP3 ADD DUP2 SWAP1 MSTORE PUSH1 0x0 SWAP1 PUSH2 0x112D SWAP1 DUP4 ADD DUP5 PUSH2 0x109F JUMP JUMPDEST SWAP7 SWAP6 POP POP POP POP POP POP JUMP JUMPDEST PUSH1 0x20 DUP2 MSTORE PUSH1 0x0 PUSH2 0x6DD PUSH1 0x20 DUP4 ADD DUP5 PUSH2 0x109F JUMP JUMPDEST PUSH1 0x0 DUP3 NOT DUP3 GT ISZERO PUSH2 0x115D JUMPI PUSH2 0x115D PUSH2 0x1223 JUMP JUMPDEST POP ADD SWAP1 JUMP JUMPDEST PUSH1 0x0 DUP3 PUSH2 0x1171 JUMPI PUSH2 0x1171 PUSH2 0x1239 JUMP JUMPDEST POP DIV SWAP1 JUMP JUMPDEST PUSH1 0x0 DUP3 DUP3 LT ISZERO PUSH2 0x1188 JUMPI PUSH2 0x1188 PUSH2 0x1223 JUMP JUMPDEST POP SUB SWAP1 JUMP JUMPDEST PUSH1 0x0 JUMPDEST DUP4 DUP2 LT ISZERO PUSH2 0x11A8 JUMPI DUP2 DUP2 ADD MLOAD DUP4 DUP3 ADD MSTORE PUSH1 0x20 ADD PUSH2 0x1190 JUMP JUMPDEST DUP4 DUP2 GT ISZERO PUSH2 0x64C JUMPI POP POP PUSH1 0x0 SWAP2 ADD MSTORE JUMP JUMPDEST PUSH1 0x1 DUP2 DUP2 SHR SWAP1 DUP3 AND DUP1 PUSH2 0x11CD JUMPI PUSH1 0x7F DUP3 AND SWAP2 POP JUMPDEST PUSH1 0x20 DUP3 LT DUP2 EQ ISZERO PUSH2 0x11EE JUMPI PUSH4 0x4E487B71 PUSH1 0xE0 SHL PUSH1 0x0 MSTORE PUSH1 0x22 PUSH1 0x4 MSTORE PUSH1 0x24 PUSH1 0x0 REVERT JUMPDEST POP SWAP2 SWAP1 POP JUMP JUMPDEST PUSH1 0x0 PUSH1 0x0 NOT DUP3 EQ ISZERO PUSH2 0x1208 JUMPI PUSH2 0x1208 PUSH2 0x1223 JUMP JUMPDEST POP PUSH1 0x1 ADD SWAP1 JUMP JUMPDEST PUSH1 0x0 DUP3 PUSH2 0x121E JUMPI PUSH2 0x121E PUSH2 0x1239 JUMP JUMPDEST POP MOD SWAP1 JUMP JUMPDEST PUSH4 0x4E487B71 PUSH1 0xE0 SHL PUSH1 0x0 MSTORE PUSH1 0x11 PUSH1 0x4 MSTORE PUSH1 0x24 PUSH1 0x0 REVERT JUMPDEST PUSH4 0x4E487B71 PUSH1 0xE0 SHL PUSH1 0x0 MSTORE PUSH1 0x12 PUSH1 0x4 MSTORE PUSH1 0x24 PUSH1 0x0 REVERT JUMPDEST PUSH4 0x4E487B71 PUSH1 0xE0 SHL PUSH1 0x0 MSTORE PUSH1 0x32 PUSH1 0x4 MSTORE PUSH1 0x24 PUSH1 0x0 REVERT JUMPDEST PUSH4 0x4E487B71 PUSH1 0xE0 SHL PUSH1 0x0 MSTORE PUSH1 0x41 PUSH1 0x4 MSTORE PUSH1 0x24 PUSH1 0x0 REVERT JUMPDEST PUSH1 0x1 PUSH1 0x1 PUSH1 0xE0 SHL SUB NOT DUP2 AND DUP2 EQ PUSH2 0x568 JUMPI PUSH1 0x0 DUP1 REVERT INVALID LOG2 PUSH5 0x6970667358 0x22 SLT KECCAK256 0xAC DUP5 CALLDATACOPY CALLVALUE PUSH3 0xC7A06 STATICCALL SGT EXTCODESIZE 0xA7 PUSH31 0x35ACC416C4CFC6A4CDDBAC334629095D7AD60F64736F6C6343000807003300 "
				},
				"gasEstimates": {
					"creation": {
						"codeDepositCost": "961400",
						"executionCost": "infinite",
						"totalCost": "infinite"
					},
					"external": {
						"approve(address,uint256)": "infinite",
						"balanceOf(address)": "2640",
						"getApproved(uint256)": "6936",
						"isApprovedForAll(address,address)": "infinite",
						"mint(uint256)": "infinite",
						"name()": "infinite",
						"ownerOf(uint256)": "infinite",
						"safeTransferFrom(address,address,uint256)": "infinite",
						"safeTransferFrom(address,address,uint256,bytes)": "infinite",
						"setApprovalForAll(address,bool)": "26650",
						"supportsInterface(bytes4)": "534",
						"symbol()": "infinite",
						"tokenURI(uint256)": "infinite",
						"totalSupply()": "4432",
						"transferFrom(address,address,uint256)": "infinite"
					}
				},
				"methodIdentifiers": {
					"approve(address,uint256)": "095ea7b3",
					"balanceOf(address)": "70a08231",
					"getApproved(uint256)": "081812fc",
					"isApprovedForAll(address,address)": "e985e9c5",
					"mint(uint256)": "a0712d68",
					"name()": "06fdde03",
					"ownerOf(uint256)": "6352211e",
					"safeTransferFrom(address,address,uint256)": "42842e0e",
					"safeTransferFrom(address,address,uint256,bytes)": "b88d4fde",
					"setApprovalForAll(address,bool)": "a22cb465",
					"supportsInterface(bytes4)": "01ffc9a7",
					"symbol()": "95d89b41",
					"tokenURI(uint256)": "c87b56dd",
					"totalSupply()": "18160ddd",
					"transferFrom(address,address,uint256)": "23b872dd"
				}
			},
			"userdoc": {
				"kind": "user",
				"methods": {},
				"version": 1
			}
		}
	}
}