{
	"rotatingcube.sol": {
		"RotatingCube": {
			"abi": [
				{
					"inputs": [],
					"stateMutability": "nonpayable",
					"type": "constructor"
				},
				{
					"inputs": [],
					"name": "ApprovalCallerNotOwnerNorApproved",
					"type": "error"
				},
				{
					"inputs": [],
					"name": "ApprovalQueryForNonexistentToken",
					"type": "error"
				},
				{
					"inputs": [],
					"name": "ApprovalToCurrentOwner",
					"type": "error"
				},
				{
					"inputs": [],
					"name": "ApproveToCaller",
					"type": "error"
				},
				{
					"inputs": [],
					"name": "BalanceQueryForZeroAddress",
					"type": "error"
				},
				{
					"inputs": [],
					"name": "MintToZeroAddress",
					"type": "error"
				},
				{
					"inputs": [],
					"name": "MintZeroQuantity",
					"type": "error"
				},
				{
					"inputs": [],
					"name": "OwnerQueryForNonexistentToken",
					"type": "error"
				},
				{
					"inputs": [],
					"name": "TransferCallerNotOwnerNorApproved",
					"type": "error"
				},
				{
					"inputs": [],
					"name": "TransferFromIncorrectOwner",
					"type": "error"
				},
				{
					"inputs": [],
					"name": "TransferToNonERC721ReceiverImplementer",
					"type": "error"
				},
				{
					"inputs": [],
					"name": "TransferToZeroAddress",
					"type": "error"
				},
				{
					"inputs": [],
					"name": "URIQueryForNonexistentToken",
					"type": "error"
				},
				{
					"anonymous": false,
					"inputs": [
						{
							"indexed": true,
							"internalType": "address",
							"name": "owner",
							"type": "address"
						},
						{
							"indexed": true,
							"internalType": "address",
							"name": "approved",
							"type": "address"
						},
						{
							"indexed": true,
							"internalType": "uint256",
							"name": "tokenId",
							"type": "uint256"
						}
					],
					"name": "Approval",
					"type": "event"
				},
				{
					"anonymous": false,
					"inputs": [
						{
							"indexed": true,
							"internalType": "address",
							"name": "owner",
							"type": "address"
						},
						{
							"indexed": true,
							"internalType": "address",
							"name": "operator",
							"type": "address"
						},
						{
							"indexed": false,
							"internalType": "bool",
							"name": "approved",
							"type": "bool"
						}
					],
					"name": "ApprovalForAll",
					"type": "event"
				},
				{
					"anonymous": false,
					"inputs": [
						{
							"indexed": true,
							"internalType": "address",
							"name": "previousOwner",
							"type": "address"
						},
						{
							"indexed": true,
							"internalType": "address",
							"name": "newOwner",
							"type": "address"
						}
					],
					"name": "OwnershipTransferred",
					"type": "event"
				},
				{
					"anonymous": false,
					"inputs": [
						{
							"indexed": true,
							"internalType": "address",
							"name": "from",
							"type": "address"
						},
						{
							"indexed": true,
							"internalType": "address",
							"name": "to",
							"type": "address"
						},
						{
							"indexed": true,
							"internalType": "uint256",
							"name": "tokenId",
							"type": "uint256"
						}
					],
					"name": "Transfer",
					"type": "event"
				},
				{
					"inputs": [
						{
							"internalType": "address",
							"name": "to",
							"type": "address"
						},
						{
							"internalType": "uint256",
							"name": "tokenId",
							"type": "uint256"
						}
					],
					"name": "approve",
					"outputs": [],
					"stateMutability": "nonpayable",
					"type": "function"
				},
				{
					"inputs": [
						{
							"internalType": "address",
							"name": "owner",
							"type": "address"
						}
					],
					"name": "balanceOf",
					"outputs": [
						{
							"internalType": "uint256",
							"name": "",
							"type": "uint256"
						}
					],
					"stateMutability": "view",
					"type": "function"
				},
				{
					"inputs": [
						{
							"internalType": "uint256",
							"name": "tokenId",
							"type": "uint256"
						}
					],
					"name": "getApproved",
					"outputs": [
						{
							"internalType": "address",
							"name": "",
							"type": "address"
						}
					],
					"stateMutability": "view",
					"type": "function"
				},
				{
					"inputs": [
						{
							"internalType": "address",
							"name": "owner",
							"type": "address"
						},
						{
							"internalType": "address",
							"name": "operator",
							"type": "address"
						}
					],
					"name": "isApprovedForAll",
					"outputs": [
						{
							"internalType": "bool",
							"name": "",
							"type": "bool"
						}
					],
					"stateMutability": "view",
					"type": "function"
				},
				{
					"inputs": [
						{
							"internalType": "uint256",
							"name": "quantity",
							"type": "uint256"
						}
					],
					"name": "mint",
					"outputs": [],
					"stateMutability": "payable",
					"type": "function"
				},
				{
					"inputs": [],
					"name": "name",
					"outputs": [
						{
							"internalType": "string",
							"name": "",
							"type": "string"
						}
					],
					"stateMutability": "view",
					"type": "function"
				},
				{
					"inputs": [],
					"name": "owner",
					"outputs": [
						{
							"internalType": "address",
							"name": "",
							"type": "address"
						}
					],
					"stateMutability": "view",
					"type": "function"
				},
				{
					"inputs": [
						{
							"internalType": "uint256",
							"name": "tokenId",
							"type": "uint256"
						}
					],
					"name": "ownerOf",
					"outputs": [
						{
							"internalType": "address",
							"name": "",
							"type": "address"
						}
					],
					"stateMutability": "view",
					"type": "function"
				},
				{
					"inputs": [],
					"name": "renounceOwnership",
					"outputs": [],
					"stateMutability": "nonpayable",
					"type": "function"
				},
				{
					"inputs": [
						{
							"internalType": "address",
							"name": "from",
							"type": "address"
						},
						{
							"internalType": "address",
							"name": "to",
							"type": "address"
						},
						{
							"internalType": "uint256",
							"name": "tokenId",
							"type": "uint256"
						}
					],
					"name": "safeTransferFrom",
					"outputs": [],
					"stateMutability": "nonpayable",
					"type": "function"
				},
				{
					"inputs": [
						{
							"internalType": "address",
							"name": "from",
							"type": "address"
						},
						{
							"internalType": "address",
							"name": "to",
							"type": "address"
						},
						{
							"internalType": "uint256",
							"name": "tokenId",
							"type": "uint256"
						},
						{
							"internalType": "bytes",
							"name": "_data",
							"type": "bytes"
						}
					],
					"name": "safeTransferFrom",
					"outputs": [],
					"stateMutability": "nonpayable",
					"type": "function"
				},
				{
					"inputs": [
						{
							"internalType": "address",
							"name": "operator",
							"type": "address"
						},
						{
							"internalType": "bool",
							"name": "approved",
							"type": "bool"
						}
					],
					"name": "setApprovalForAll",
					"outputs": [],
					"stateMutability": "nonpayable",
					"type": "function"
				},
				{
					"inputs": [
						{
							"internalType": "string",
							"name": "baseURI",
							"type": "string"
						}
					],
					"name": "setBaseURI",
					"outputs": [],
					"stateMutability": "nonpayable",
					"type": "function"
				},
				{
					"inputs": [
						{
							"internalType": "bytes4",
							"name": "interfaceId",
							"type": "bytes4"
						}
					],
					"name": "supportsInterface",
					"outputs": [
						{
							"internalType": "bool",
							"name": "",
							"type": "bool"
						}
					],
					"stateMutability": "view",
					"type": "function"
				},
				{
					"inputs": [],
					"name": "symbol",
					"outputs": [
						{
							"internalType": "string",
							"name": "",
							"type": "string"
						}
					],
					"stateMutability": "view",
					"type": "function"
				},
				{
					"inputs": [
						{
							"internalType": "uint256",
							"name": "tokenId",
							"type": "uint256"
						}
					],
					"name": "tokenURI",
					"outputs": [
						{
							"internalType": "string",
							"name": "",
							"type": "string"
						}
					],
					"stateMutability": "view",
					"type": "function"
				},
				{
					"inputs": [],
					"name": "totalSupply",
					"outputs": [
						{
							"internalType": "uint256",
							"name": "",
							"type": "uint256"
						}
					],
					"stateMutability": "view",
					"type": "function"
				},
				{
					"inputs": [
						{
							"internalType": "address",
							"name": "from",
							"type": "address"
						},
						{
							"internalType": "address",
							"name": "to",
							"type": "address"
						},
						{
							"internalType": "uint256",
							"name": "tokenId",
							"type": "uint256"
						}
					],
					"name": "transferFrom",
					"outputs": [],
					"stateMutability": "nonpayable",
					"type": "function"
				},
				{
					"inputs": [
						{
							"internalType": "address",
							"name": "newOwner",
							"type": "address"
						}
					],
					"name": "transferOwnership",
					"outputs": [],
					"stateMutability": "nonpayable",
					"type": "function"
				}
			],
			"devdoc": {
				"kind": "dev",
				"methods": {
					"approve(address,uint256)": {
						"details": "See {IERC721-approve}."
					},
					"balanceOf(address)": {
						"details": "See {IERC721-balanceOf}."
					},
					"getApproved(uint256)": {
						"details": "See {IERC721-getApproved}."
					},
					"isApprovedForAll(address,address)": {
						"details": "See {IERC721-isApprovedForAll}."
					},
					"name()": {
						"details": "See {IERC721Metadata-name}."
					},
					"owner()": {
						"details": "Returns the address of the current owner."
					},
					"ownerOf(uint256)": {
						"details": "See {IERC721-ownerOf}."
					},
					"renounceOwnership()": {
						"details": "Leaves the contract without owner. It will not be possible to call `onlyOwner` functions anymore. Can only be called by the current owner. NOTE: Renouncing ownership will leave the contract without an owner, thereby removing any functionality that is only available to the owner."
					},
					"safeTransferFrom(address,address,uint256)": {
						"details": "See {IERC721-safeTransferFrom}."
					},
					"safeTransferFrom(address,address,uint256,bytes)": {
						"details": "See {IERC721-safeTransferFrom}."
					},
					"setApprovalForAll(address,bool)": {
						"details": "See {IERC721-setApprovalForAll}."
					},
					"supportsInterface(bytes4)": {
						"details": "See {IERC165-supportsInterface}."
					},
					"symbol()": {
						"details": "See {IERC721Metadata-symbol}."
					},
					"tokenURI(uint256)": {
						"details": "See {IERC721Metadata-tokenURI}."
					},
					"totalSupply()": {
						"details": "Burned tokens are calculated here, use _totalMinted() if you want to count just minted tokens."
					},
					"transferFrom(address,address,uint256)": {
						"details": "See {IERC721-transferFrom}."
					},
					"transferOwnership(address)": {
						"details": "Transfers ownership of the contract to a new account (`newOwner`). Can only be called by the current owner."
					}
				},
				"version": 1
			},
			"evm": {
				"assembly": "    /* \"rotatingcube.sol\":369:1309  contract RotatingCube is Ownable, ERC721A {... */\n  mstore(0x40, 0x80)\n    /* \"rotatingcube.sol\":466:514  constructor() ERC721A(\"RotatingCube\", \"CUBE\") {} */\n  callvalue\n  dup1\n  iszero\n  tag_1\n  jumpi\n  0x00\n  dup1\n  revert\ntag_1:\n  pop\n    /* \"erc721a/contracts/ERC721A.sol\":3357:3511  constructor(string memory name_, string memory symbol_) {... */\n  mload(0x40)\n  dup1\n  0x40\n  add\n  0x40\n  mstore\n  dup1\n  0x0c\n  dup2\n  mstore\n  0x20\n  add\n  0x526f746174696e67437562650000000000000000000000000000000000000000\n  dup2\n  mstore\n  pop\n  mload(0x40)\n  dup1\n  0x40\n  add\n  0x40\n  mstore\n  dup1\n  0x04\n  dup2\n  mstore\n  0x20\n  add\n  0x4355424500000000000000000000000000000000000000000000000000000000\n  dup2\n  mstore\n  pop\n    /* \"@openzeppelin/contracts/access/Ownable.sol\":921:953  _transferOwnership(_msgSender()) */\n  tag_6\n    /* \"@openzeppelin/contracts/access/Ownable.sol\":940:952  _msgSender() */\n  tag_7\n    /* \"@openzeppelin/contracts/access/Ownable.sol\":940:950  _msgSender */\n  shl(0x20, tag_8)\n    /* \"@openzeppelin/contracts/access/Ownable.sol\":940:952  _msgSender() */\n  0x20\n  shr\n  jump\t// in\ntag_7:\n    /* \"@openzeppelin/contracts/access/Ownable.sol\":921:939  _transferOwnership */\n  shl(0x20, tag_9)\n    /* \"@openzeppelin/contracts/access/Ownable.sol\":921:953  _transferOwnership(_msgSender()) */\n  0x20\n  shr\n  jump\t// in\ntag_6:\n    /* \"erc721a/contracts/ERC721A.sol\":3431:3436  name_ */\n  dup2\n    /* \"erc721a/contracts/ERC721A.sol\":3423:3428  _name */\n  0x03\n    /* \"erc721a/contracts/ERC721A.sol\":3423:3436  _name = name_ */\n  swap1\n  dup1\n  mload\n  swap1\n  0x20\n  add\n  swap1\n  tag_11\n  swap3\n  swap2\n  swap1\n  tag_12\n  jump\t// in\ntag_11:\n  pop\n    /* \"erc721a/contracts/ERC721A.sol\":3456:3463  symbol_ */\n  dup1\n    /* \"erc721a/contracts/ERC721A.sol\":3446:3453  _symbol */\n  0x04\n    /* \"erc721a/contracts/ERC721A.sol\":3446:3463  _symbol = symbol_ */\n  swap1\n  dup1\n  mload\n  swap1\n  0x20\n  add\n  swap1\n  tag_13\n  swap3\n  swap2\n  swap1\n  tag_12\n  jump\t// in\ntag_13:\n  pop\n    /* \"erc721a/contracts/ERC721A.sol\":3489:3504  _startTokenId() */\n  tag_14\n    /* \"erc721a/contracts/ERC721A.sol\":3489:3502  _startTokenId */\n  shl(0x20, tag_15)\n    /* \"erc721a/contracts/ERC721A.sol\":3489:3504  _startTokenId() */\n  0x20\n  shr\n  jump\t// in\ntag_14:\n    /* \"erc721a/contracts/ERC721A.sol\":3473:3486  _currentIndex */\n  0x01\n    /* \"erc721a/contracts/ERC721A.sol\":3473:3504  _currentIndex = _startTokenId() */\n  dup2\n  swap1\n  sstore\n  pop\n    /* \"erc721a/contracts/ERC721A.sol\":3357:3511  constructor(string memory name_, string memory symbol_) {... */\n  pop\n  pop\n    /* \"rotatingcube.sol\":369:1309  contract RotatingCube is Ownable, ERC721A {... */\n  jump(tag_17)\n    /* \"@openzeppelin/contracts/utils/Context.sol\":640:736  function _msgSender() internal view virtual returns (address) {... */\ntag_8:\n    /* \"@openzeppelin/contracts/utils/Context.sol\":693:700  address */\n  0x00\n    /* \"@openzeppelin/contracts/utils/Context.sol\":719:729  msg.sender */\n  caller\n    /* \"@openzeppelin/contracts/utils/Context.sol\":712:729  return msg.sender */\n  swap1\n  pop\n    /* \"@openzeppelin/contracts/utils/Context.sol\":640:736  function _msgSender() internal view virtual returns (address) {... */\n  swap1\n  jump\t// out\n    /* \"@openzeppelin/contracts/access/Ownable.sol\":2270:2457  function _transferOwnership(address newOwner) internal virtual {... */\ntag_9:\n    /* \"@openzeppelin/contracts/access/Ownable.sol\":2343:2359  address oldOwner */\n  0x00\n    /* \"@openzeppelin/contracts/access/Ownable.sol\":2362:2368  _owner */\n  dup1\n  0x00\n  swap1\n  sload\n  swap1\n  0x0100\n  exp\n  swap1\n  div\n  0xffffffffffffffffffffffffffffffffffffffff\n  and\n    /* \"@openzeppelin/contracts/access/Ownable.sol\":2343:2368  address oldOwner = _owner */\n  swap1\n  pop\n    /* \"@openzeppelin/contracts/access/Ownable.sol\":2387:2395  newOwner */\n  dup2\n    /* \"@openzeppelin/contracts/access/Ownable.sol\":2378:2384  _owner */\n  0x00\n  dup1\n    /* \"@openzeppelin/contracts/access/Ownable.sol\":2378:2395  _owner = newOwner */\n  0x0100\n  exp\n  dup2\n  sload\n  dup2\n  0xffffffffffffffffffffffffffffffffffffffff\n  mul\n  not\n  and\n  swap1\n  dup4\n  0xffffffffffffffffffffffffffffffffffffffff\n  and\n  mul\n  or\n  swap1\n  sstore\n  pop\n    /* \"@openzeppelin/contracts/access/Ownable.sol\":2441:2449  newOwner */\n  dup2\n    /* \"@openzeppelin/contracts/access/Ownable.sol\":2410:2450  OwnershipTransferred(oldOwner, newOwner) */\n  0xffffffffffffffffffffffffffffffffffffffff\n  and\n    /* \"@openzeppelin/contracts/access/Ownable.sol\":2431:2439  oldOwner */\n  dup2\n    /* \"@openzeppelin/contracts/access/Ownable.sol\":2410:2450  OwnershipTransferred(oldOwner, newOwner) */\n  0xffffffffffffffffffffffffffffffffffffffff\n  and\n  0x8be0079c531659141344cd1fd0a4f28419497f9722a3daafe3b4186f6b6457e0\n  mload(0x40)\n  mload(0x40)\n  dup1\n  swap2\n  sub\n  swap1\n  log3\n    /* \"@openzeppelin/contracts/access/Ownable.sol\":2333:2457  {... */\n  pop\n    /* \"@openzeppelin/contracts/access/Ownable.sol\":2270:2457  function _transferOwnership(address newOwner) internal virtual {... */\n  pop\n  jump\t// out\n    /* \"erc721a/contracts/ERC721A.sol\":3603:3693  function _startTokenId() internal view virtual returns (uint256) {... */\ntag_15:\n    /* \"erc721a/contracts/ERC721A.sol\":3659:3666  uint256 */\n  0x00\n    /* \"erc721a/contracts/ERC721A.sol\":3603:3693  function _startTokenId() internal view virtual returns (uint256) {... */\n  swap1\n  jump\t// out\n    /* \"rotatingcube.sol\":369:1309  contract RotatingCube is Ownable, ERC721A {... */\ntag_12:\n  dup3\n  dup1\n  sload\n  tag_21\n  swap1\n  tag_22\n  jump\t// in\ntag_21:\n  swap1\n  0x00\n  mstore\n  keccak256(0x00, 0x20)\n  swap1\n  0x1f\n  add\n  0x20\n  swap1\n  div\n  dup2\n  add\n  swap3\n  dup3\n  tag_24\n  jumpi\n  0x00\n  dup6\n  sstore\n  jump(tag_23)\ntag_24:\n  dup3\n  0x1f\n  lt\n  tag_25\n  jumpi\n  dup1\n  mload\n  not(0xff)\n  and\n  dup4\n  dup1\n  add\n  or\n  dup6\n  sstore\n  jump(tag_23)\ntag_25:\n  dup3\n  dup1\n  add\n  0x01\n  add\n  dup6\n  sstore\n  dup3\n  iszero\n  tag_23\n  jumpi\n  swap2\n  dup3\n  add\ntag_26:\n  dup3\n  dup2\n  gt\n  iszero\n  tag_27\n  jumpi\n  dup3\n  mload\n  dup3\n  sstore\n  swap2\n  0x20\n  add\n  swap2\n  swap1\n  0x01\n  add\n  swap1\n  jump(tag_26)\ntag_27:\ntag_23:\n  pop\n  swap1\n  pop\n  tag_28\n  swap2\n  swap1\n  tag_29\n  jump\t// in\ntag_28:\n  pop\n  swap1\n  jump\t// out\ntag_29:\ntag_30:\n  dup1\n  dup3\n  gt\n  iszero\n  tag_31\n  jumpi\n  0x00\n  dup2\n  0x00\n  swap1\n  sstore\n  pop\n  0x01\n  add\n  jump(tag_30)\ntag_31:\n  pop\n  swap1\n  jump\t// out\n    /* \"#utility.yul\":7:187   */\ntag_32:\n    /* \"#utility.yul\":55:132   */\n  0x4e487b7100000000000000000000000000000000000000000000000000000000\n    /* \"#utility.yul\":52:53   */\n  0x00\n    /* \"#utility.yul\":45:133   */\n  mstore\n    /* \"#utility.yul\":152:156   */\n  0x22\n    /* \"#utility.yul\":149:150   */\n  0x04\n    /* \"#utility.yul\":142:157   */\n  mstore\n    /* \"#utility.yul\":176:180   */\n  0x24\n    /* \"#utility.yul\":173:174   */\n  0x00\n    /* \"#utility.yul\":166:181   */\n  revert\n    /* \"#utility.yul\":193:513   */\ntag_22:\n    /* \"#utility.yul\":237:243   */\n  0x00\n    /* \"#utility.yul\":274:275   */\n  0x02\n    /* \"#utility.yul\":268:272   */\n  dup3\n    /* \"#utility.yul\":264:276   */\n  div\n    /* \"#utility.yul\":254:276   */\n  swap1\n  pop\n    /* \"#utility.yul\":321:322   */\n  0x01\n    /* \"#utility.yul\":315:319   */\n  dup3\n    /* \"#utility.yul\":311:323   */\n  and\n    /* \"#utility.yul\":342:360   */\n  dup1\n    /* \"#utility.yul\":332:413   */\n  tag_36\n  jumpi\n    /* \"#utility.yul\":398:402   */\n  0x7f\n    /* \"#utility.yul\":390:396   */\n  dup3\n    /* \"#utility.yul\":386:403   */\n  and\n    /* \"#utility.yul\":376:403   */\n  swap2\n  pop\n    /* \"#utility.yul\":332:413   */\ntag_36:\n    /* \"#utility.yul\":460:462   */\n  0x20\n    /* \"#utility.yul\":452:458   */\n  dup3\n    /* \"#utility.yul\":449:463   */\n  lt\n    /* \"#utility.yul\":429:447   */\n  dup2\n    /* \"#utility.yul\":426:464   */\n  sub\n    /* \"#utility.yul\":423:507   */\n  tag_37\n  jumpi\n    /* \"#utility.yul\":479:497   */\n  tag_38\n  tag_32\n  jump\t// in\ntag_38:\n    /* \"#utility.yul\":423:507   */\ntag_37:\n    /* \"#utility.yul\":244:513   */\n  pop\n    /* \"#utility.yul\":193:513   */\n  swap2\n  swap1\n  pop\n  jump\t// out\n    /* \"rotatingcube.sol\":369:1309  contract RotatingCube is Ownable, ERC721A {... */\ntag_17:\n  dataSize(sub_0)\n  dup1\n  dataOffset(sub_0)\n  0x00\n  codecopy\n  0x00\n  return\nstop\n\nsub_0: assembly {\n        /* \"rotatingcube.sol\":369:1309  contract RotatingCube is Ownable, ERC721A {... */\n      mstore(0x40, 0x80)\n      jumpi(tag_1, lt(calldatasize, 0x04))\n      shr(0xe0, calldataload(0x00))\n      dup1\n      0x70a08231\n      gt\n      tag_21\n      jumpi\n      dup1\n      0xa22cb465\n      gt\n      tag_22\n      jumpi\n      dup1\n      0xa22cb465\n      eq\n      tag_16\n      jumpi\n      dup1\n      0xb88d4fde\n      eq\n      tag_17\n      jumpi\n      dup1\n      0xc87b56dd\n      eq\n      tag_18\n      jumpi\n      dup1\n      0xe985e9c5\n      eq\n      tag_19\n      jumpi\n      dup1\n      0xf2fde38b\n      eq\n      tag_20\n      jumpi\n      jump(tag_1)\n    tag_22:\n      dup1\n      0x70a08231\n      eq\n      tag_11\n      jumpi\n      dup1\n      0x715018a6\n      eq\n      tag_12\n      jumpi\n      dup1\n      0x8da5cb5b\n      eq\n      tag_13\n      jumpi\n      dup1\n      0x95d89b41\n      eq\n      tag_14\n      jumpi\n      dup1\n      0xa0712d68\n      eq\n      tag_15\n      jumpi\n      jump(tag_1)\n    tag_21:\n      dup1\n      0x18160ddd\n      gt\n      tag_23\n      jumpi\n      dup1\n      0x18160ddd\n      eq\n      tag_6\n      jumpi\n      dup1\n      0x23b872dd\n      eq\n      tag_7\n      jumpi\n      dup1\n      0x42842e0e\n      eq\n      tag_8\n      jumpi\n      dup1\n      0x55f804b3\n      eq\n      tag_9\n      jumpi\n      dup1\n      0x6352211e\n      eq\n      tag_10\n      jumpi\n      jump(tag_1)\n    tag_23:\n      dup1\n      0x01ffc9a7\n      eq\n      tag_2\n      jumpi\n      dup1\n      0x06fdde03\n      eq\n      tag_3\n      jumpi\n      dup1\n      0x081812fc\n      eq\n      tag_4\n      jumpi\n      dup1\n      0x095ea7b3\n      eq\n      tag_5\n      jumpi\n    tag_1:\n      0x00\n      dup1\n      revert\n        /* \"rotatingcube.sol\":957:1307  function supportsInterface(bytes4 interfaceId)... */\n    tag_2:\n      callvalue\n      dup1\n      iszero\n      tag_24\n      jumpi\n      0x00\n      dup1\n      revert\n    tag_24:\n      pop\n      tag_25\n      0x04\n      dup1\n      calldatasize\n      sub\n      dup2\n      add\n      swap1\n      tag_26\n      swap2\n      swap1\n      tag_27\n      jump\t// in\n    tag_26:\n      tag_28\n      jump\t// in\n    tag_25:\n      mload(0x40)\n      tag_29\n      swap2\n      swap1\n      tag_30\n      jump\t// in\n    tag_29:\n      mload(0x40)\n      dup1\n      swap2\n      sub\n      swap1\n      return\n        /* \"erc721a/contracts/ERC721A.sol\":7579:7677  function name() public view virtual override returns (string memory) {... */\n    tag_3:\n      callvalue\n      dup1\n      iszero\n      tag_31\n      jumpi\n      0x00\n      dup1\n      revert\n    tag_31:\n      pop\n      tag_32\n      tag_33\n      jump\t// in\n    tag_32:\n      mload(0x40)\n      tag_34\n      swap2\n      swap1\n      tag_35\n      jump\t// in\n    tag_34:\n      mload(0x40)\n      dup1\n      swap2\n      sub\n      swap1\n      return\n        /* \"erc721a/contracts/ERC721A.sol\":9035:9235  function getApproved(uint256 tokenId) public view override returns (address) {... */\n    tag_4:\n      callvalue\n      dup1\n      iszero\n      tag_36\n      jumpi\n      0x00\n      dup1\n      revert\n    tag_36:\n      pop\n      tag_37\n      0x04\n      dup1\n      calldatasize\n      sub\n      dup2\n      add\n      swap1\n      tag_38\n      swap2\n      swap1\n      tag_39\n      jump\t// in\n    tag_38:\n      tag_40\n      jump\t// in\n    tag_37:\n      mload(0x40)\n      tag_41\n      swap2\n      swap1\n      tag_42\n      jump\t// in\n    tag_41:\n      mload(0x40)\n      dup1\n      swap2\n      sub\n      swap1\n      return\n        /* \"erc721a/contracts/ERC721A.sol\":8612:8974  function approve(address to, uint256 tokenId) public override {... */\n    tag_5:\n      callvalue\n      dup1\n      iszero\n      tag_43\n      jumpi\n      0x00\n      dup1\n      revert\n    tag_43:\n      pop\n      tag_44\n      0x04\n      dup1\n      calldatasize\n      sub\n      dup2\n      add\n      swap1\n      tag_45\n      swap2\n      swap1\n      tag_46\n      jump\t// in\n    tag_45:\n      tag_47\n      jump\t// in\n    tag_44:\n      stop\n        /* \"erc721a/contracts/ERC721A.sol\":3822:4119  function totalSupply() public view returns (uint256) {... */\n    tag_6:\n      callvalue\n      dup1\n      iszero\n      tag_48\n      jumpi\n      0x00\n      dup1\n      revert\n    tag_48:\n      pop\n      tag_49\n      tag_50\n      jump\t// in\n    tag_49:\n      mload(0x40)\n      tag_51\n      swap2\n      swap1\n      tag_52\n      jump\t// in\n    tag_51:\n      mload(0x40)\n      dup1\n      swap2\n      sub\n      swap1\n      return\n        /* \"erc721a/contracts/ERC721A.sol\":9874:10038  function transferFrom(... */\n    tag_7:\n      callvalue\n      dup1\n      iszero\n      tag_53\n      jumpi\n      0x00\n      dup1\n      revert\n    tag_53:\n      pop\n      tag_54\n      0x04\n      dup1\n      calldatasize\n      sub\n      dup2\n      add\n      swap1\n      tag_55\n      swap2\n      swap1\n      tag_56\n      jump\t// in\n    tag_55:\n      tag_57\n      jump\t// in\n    tag_54:\n      stop\n        /* \"erc721a/contracts/ERC721A.sol\":10104:10283  function safeTransferFrom(... */\n    tag_8:\n      callvalue\n      dup1\n      iszero\n      tag_58\n      jumpi\n      0x00\n      dup1\n      revert\n    tag_58:\n      pop\n      tag_59\n      0x04\n      dup1\n      calldatasize\n      sub\n      dup2\n      add\n      swap1\n      tag_60\n      swap2\n      swap1\n      tag_56\n      jump\t// in\n    tag_60:\n      tag_61\n      jump\t// in\n    tag_59:\n      stop\n        /* \"rotatingcube.sol\":630:728  function setBaseURI(string calldata baseURI) external onlyOwner {... */\n    tag_9:\n      callvalue\n      dup1\n      iszero\n      tag_62\n      jumpi\n      0x00\n      dup1\n      revert\n    tag_62:\n      pop\n      tag_63\n      0x04\n      dup1\n      calldatasize\n      sub\n      dup2\n      add\n      swap1\n      tag_64\n      swap2\n      swap1\n      tag_65\n      jump\t// in\n    tag_64:\n      tag_66\n      jump\t// in\n    tag_63:\n      stop\n        /* \"erc721a/contracts/ERC721A.sol\":7394:7517  function ownerOf(uint256 tokenId) public view override returns (address) {... */\n    tag_10:\n      callvalue\n      dup1\n      iszero\n      tag_67\n      jumpi\n      0x00\n      dup1\n      revert\n    tag_67:\n      pop\n      tag_68\n      0x04\n      dup1\n      calldatasize\n      sub\n      dup2\n      add\n      swap1\n      tag_69\n      swap2\n      swap1\n      tag_39\n      jump\t// in\n    tag_69:\n      tag_70\n      jump\t// in\n    tag_68:\n      mload(0x40)\n      tag_71\n      swap2\n      swap1\n      tag_42\n      jump\t// in\n    tag_71:\n      mload(0x40)\n      dup1\n      swap2\n      sub\n      swap1\n      return\n        /* \"erc721a/contracts/ERC721A.sol\":4910:5113  function balanceOf(address owner) public view override returns (uint256) {... */\n    tag_11:\n      callvalue\n      dup1\n      iszero\n      tag_72\n      jumpi\n      0x00\n      dup1\n      revert\n    tag_72:\n      pop\n      tag_73\n      0x04\n      dup1\n      calldatasize\n      sub\n      dup2\n      add\n      swap1\n      tag_74\n      swap2\n      swap1\n      tag_75\n      jump\t// in\n    tag_74:\n      tag_76\n      jump\t// in\n    tag_73:\n      mload(0x40)\n      tag_77\n      swap2\n      swap1\n      tag_52\n      jump\t// in\n    tag_77:\n      mload(0x40)\n      dup1\n      swap2\n      sub\n      swap1\n      return\n        /* \"@openzeppelin/contracts/access/Ownable.sol\":1668:1769  function renounceOwnership() public virtual onlyOwner {... */\n    tag_12:\n      callvalue\n      dup1\n      iszero\n      tag_78\n      jumpi\n      0x00\n      dup1\n      revert\n    tag_78:\n      pop\n      tag_79\n      tag_80\n      jump\t// in\n    tag_79:\n      stop\n        /* \"@openzeppelin/contracts/access/Ownable.sol\":1036:1121  function owner() public view virtual returns (address) {... */\n    tag_13:\n      callvalue\n      dup1\n      iszero\n      tag_81\n      jumpi\n      0x00\n      dup1\n      revert\n    tag_81:\n      pop\n      tag_82\n      tag_83\n      jump\t// in\n    tag_82:\n      mload(0x40)\n      tag_84\n      swap2\n      swap1\n      tag_42\n      jump\t// in\n    tag_84:\n      mload(0x40)\n      dup1\n      swap2\n      sub\n      swap1\n      return\n        /* \"erc721a/contracts/ERC721A.sol\":7741:7843  function symbol() public view virtual override returns (string memory) {... */\n    tag_14:\n      callvalue\n      dup1\n      iszero\n      tag_85\n      jumpi\n      0x00\n      dup1\n      revert\n    tag_85:\n      pop\n      tag_86\n      tag_87\n      jump\t// in\n    tag_86:\n      mload(0x40)\n      tag_88\n      swap2\n      swap1\n      tag_35\n      jump\t// in\n    tag_88:\n      mload(0x40)\n      dup1\n      swap2\n      sub\n      swap1\n      return\n        /* \"rotatingcube.sol\":732:898  function mint(uint256 quantity) external payable {... */\n    tag_15:\n      tag_89\n      0x04\n      dup1\n      calldatasize\n      sub\n      dup2\n      add\n      swap1\n      tag_90\n      swap2\n      swap1\n      tag_39\n      jump\t// in\n    tag_90:\n      tag_91\n      jump\t// in\n    tag_89:\n      stop\n        /* \"erc721a/contracts/ERC721A.sol\":9302:9584  function setApprovalForAll(address operator, bool approved) public virtual override {... */\n    tag_16:\n      callvalue\n      dup1\n      iszero\n      tag_92\n      jumpi\n      0x00\n      dup1\n      revert\n    tag_92:\n      pop\n      tag_93\n      0x04\n      dup1\n      calldatasize\n      sub\n      dup2\n      add\n      swap1\n      tag_94\n      swap2\n      swap1\n      tag_95\n      jump\t// in\n    tag_94:\n      tag_96\n      jump\t// in\n    tag_93:\n      stop\n        /* \"erc721a/contracts/ERC721A.sol\":10349:10708  function safeTransferFrom(... */\n    tag_17:\n      callvalue\n      dup1\n      iszero\n      tag_97\n      jumpi\n      0x00\n      dup1\n      revert\n    tag_97:\n      pop\n      tag_98\n      0x04\n      dup1\n      calldatasize\n      sub\n      dup2\n      add\n      swap1\n      tag_99\n      swap2\n      swap1\n      tag_100\n      jump\t// in\n    tag_99:\n      tag_101\n      jump\t// in\n    tag_98:\n      stop\n        /* \"erc721a/contracts/ERC721A.sol\":7909:8222  function tokenURI(uint256 tokenId) public view virtual override returns (string memory) {... */\n    tag_18:\n      callvalue\n      dup1\n      iszero\n      tag_102\n      jumpi\n      0x00\n      dup1\n      revert\n    tag_102:\n      pop\n      tag_103\n      0x04\n      dup1\n      calldatasize\n      sub\n      dup2\n      add\n      swap1\n      tag_104\n      swap2\n      swap1\n      tag_39\n      jump\t// in\n    tag_104:\n      tag_105\n      jump\t// in\n    tag_103:\n      mload(0x40)\n      tag_106\n      swap2\n      swap1\n      tag_35\n      jump\t// in\n    tag_106:\n      mload(0x40)\n      dup1\n      swap2\n      sub\n      swap1\n      return\n        /* \"erc721a/contracts/ERC721A.sol\":9650:9812  function isApprovedForAll(address owner, address operator) public view virtual override returns (bool) {... */\n    tag_19:\n      callvalue\n      dup1\n      iszero\n      tag_107\n      jumpi\n      0x00\n      dup1\n      revert\n    tag_107:\n      pop\n      tag_108\n      0x04\n      dup1\n      calldatasize\n      sub\n      dup2\n      add\n      swap1\n      tag_109\n      swap2\n      swap1\n      tag_110\n      jump\t// in\n    tag_109:\n      tag_111\n      jump\t// in\n    tag_108:\n      mload(0x40)\n      tag_112\n      swap2\n      swap1\n      tag_30\n      jump\t// in\n    tag_112:\n      mload(0x40)\n      dup1\n      swap2\n      sub\n      swap1\n      return\n        /* \"@openzeppelin/contracts/access/Ownable.sol\":1918:2116  function transferOwnership(address newOwner) public virtual onlyOwner {... */\n    tag_20:\n      callvalue\n      dup1\n      iszero\n      tag_113\n      jumpi\n      0x00\n      dup1\n      revert\n    tag_113:\n      pop\n      tag_114\n      0x04\n      dup1\n      calldatasize\n      sub\n      dup2\n      add\n      swap1\n      tag_115\n      swap2\n      swap1\n      tag_75\n      jump\t// in\n    tag_115:\n      tag_116\n      jump\t// in\n    tag_114:\n      stop\n        /* \"rotatingcube.sol\":957:1307  function supportsInterface(bytes4 interfaceId)... */\n    tag_28:\n        /* \"rotatingcube.sol\":1071:1075  bool */\n      0x00\n        /* \"rotatingcube.sol\":1113:1138  type(IERC721).interfaceId */\n      0x80ac58cd00000000000000000000000000000000000000000000000000000000\n        /* \"rotatingcube.sol\":1098:1138  interfaceId == type(IERC721).interfaceId */\n      not(0xffffffffffffffffffffffffffffffffffffffffffffffffffffffff)\n      and\n        /* \"rotatingcube.sol\":1098:1109  interfaceId */\n      dup3\n        /* \"rotatingcube.sol\":1098:1138  interfaceId == type(IERC721).interfaceId */\n      not(0xffffffffffffffffffffffffffffffffffffffffffffffffffffffff)\n      and\n      eq\n        /* \"rotatingcube.sol\":1098:1196  interfaceId == type(IERC721).interfaceId ||... */\n      dup1\n      tag_118\n      jumpi\n      pop\n        /* \"rotatingcube.sol\":1163:1196  type(IERC721Metadata).interfaceId */\n      0x5b5e139f00000000000000000000000000000000000000000000000000000000\n        /* \"rotatingcube.sol\":1148:1196  interfaceId == type(IERC721Metadata).interfaceId */\n      not(0xffffffffffffffffffffffffffffffffffffffffffffffffffffffff)\n      and\n        /* \"rotatingcube.sol\":1148:1159  interfaceId */\n      dup3\n        /* \"rotatingcube.sol\":1148:1196  interfaceId == type(IERC721Metadata).interfaceId */\n      not(0xffffffffffffffffffffffffffffffffffffffffffffffffffffffff)\n      and\n      eq\n        /* \"rotatingcube.sol\":1098:1196  interfaceId == type(IERC721).interfaceId ||... */\n    tag_118:\n        /* \"rotatingcube.sol\":1098:1256  interfaceId == type(IERC721).interfaceId ||... */\n      dup1\n      tag_119\n      jumpi\n      pop\n        /* \"rotatingcube.sol\":1221:1256  type(IERC721Enumerable).interfaceId */\n      0x780e9d6300000000000000000000000000000000000000000000000000000000\n        /* \"rotatingcube.sol\":1206:1256  interfaceId == type(IERC721Enumerable).interfaceId */\n      not(0xffffffffffffffffffffffffffffffffffffffffffffffffffffffff)\n      and\n        /* \"rotatingcube.sol\":1206:1217  interfaceId */\n      dup3\n        /* \"rotatingcube.sol\":1206:1256  interfaceId == type(IERC721Enumerable).interfaceId */\n      not(0xffffffffffffffffffffffffffffffffffffffffffffffffffffffff)\n      and\n      eq\n        /* \"rotatingcube.sol\":1098:1256  interfaceId == type(IERC721).interfaceId ||... */\n    tag_119:\n        /* \"rotatingcube.sol\":1098:1302  interfaceId == type(IERC721).interfaceId ||... */\n      dup1\n      tag_120\n      jumpi\n      pop\n        /* \"rotatingcube.sol\":1266:1302  super.supportsInterface(interfaceId) */\n      tag_121\n        /* \"rotatingcube.sol\":1290:1301  interfaceId */\n      dup3\n        /* \"rotatingcube.sol\":1266:1289  super.supportsInterface */\n      tag_122\n        /* \"rotatingcube.sol\":1266:1302  super.supportsInterface(interfaceId) */\n      jump\t// in\n    tag_121:\n        /* \"rotatingcube.sol\":1098:1302  interfaceId == type(IERC721).interfaceId ||... */\n    tag_120:\n        /* \"rotatingcube.sol\":1085:1302  return... */\n      swap1\n      pop\n        /* \"rotatingcube.sol\":957:1307  function supportsInterface(bytes4 interfaceId)... */\n      swap2\n      swap1\n      pop\n      jump\t// out\n        /* \"erc721a/contracts/ERC721A.sol\":7579:7677  function name() public view virtual override returns (string memory) {... */\n    tag_33:\n        /* \"erc721a/contracts/ERC721A.sol\":7633:7646  string memory */\n      0x60\n        /* \"erc721a/contracts/ERC721A.sol\":7665:7670  _name */\n      0x03\n        /* \"erc721a/contracts/ERC721A.sol\":7658:7670  return _name */\n      dup1\n      sload\n      tag_124\n      swap1\n      tag_125\n      jump\t// in\n    tag_124:\n      dup1\n      0x1f\n      add\n      0x20\n      dup1\n      swap2\n      div\n      mul\n      0x20\n      add\n      mload(0x40)\n      swap1\n      dup2\n      add\n      0x40\n      mstore\n      dup1\n      swap3\n      swap2\n      swap1\n      dup2\n      dup2\n      mstore\n      0x20\n      add\n      dup3\n      dup1\n      sload\n      tag_126\n      swap1\n      tag_125\n      jump\t// in\n    tag_126:\n      dup1\n      iszero\n      tag_127\n      jumpi\n      dup1\n      0x1f\n      lt\n      tag_128\n      jumpi\n      0x0100\n      dup1\n      dup4\n      sload\n      div\n      mul\n      dup4\n      mstore\n      swap2\n      0x20\n      add\n      swap2\n      jump(tag_127)\n    tag_128:\n      dup3\n      add\n      swap2\n      swap1\n      0x00\n      mstore\n      keccak256(0x00, 0x20)\n      swap1\n    tag_129:\n      dup2\n      sload\n      dup2\n      mstore\n      swap1\n      0x01\n      add\n      swap1\n      0x20\n      add\n      dup1\n      dup4\n      gt\n      tag_129\n      jumpi\n      dup3\n      swap1\n      sub\n      0x1f\n      and\n      dup3\n      add\n      swap2\n    tag_127:\n      pop\n      pop\n      pop\n      pop\n      pop\n      swap1\n      pop\n        /* \"erc721a/contracts/ERC721A.sol\":7579:7677  function name() public view virtual override returns (string memory) {... */\n      swap1\n      jump\t// out\n        /* \"erc721a/contracts/ERC721A.sol\":9035:9235  function getApproved(uint256 tokenId) public view override returns (address) {... */\n    tag_40:\n        /* \"erc721a/contracts/ERC721A.sol\":9103:9110  address */\n      0x00\n        /* \"erc721a/contracts/ERC721A.sol\":9127:9143  _exists(tokenId) */\n      tag_131\n        /* \"erc721a/contracts/ERC721A.sol\":9135:9142  tokenId */\n      dup3\n        /* \"erc721a/contracts/ERC721A.sol\":9127:9134  _exists */\n      tag_132\n        /* \"erc721a/contracts/ERC721A.sol\":9127:9143  _exists(tokenId) */\n      jump\t// in\n    tag_131:\n        /* \"erc721a/contracts/ERC721A.sol\":9122:9186  if (!_exists(tokenId)) revert ApprovalQueryForNonexistentToken() */\n      tag_133\n      jumpi\n        /* \"erc721a/contracts/ERC721A.sol\":9152:9186  ApprovalQueryForNonexistentToken() */\n      mload(0x40)\n      0xcf4700e400000000000000000000000000000000000000000000000000000000\n      dup2\n      mstore\n      0x04\n      add\n      mload(0x40)\n      dup1\n      swap2\n      sub\n      swap1\n      revert\n        /* \"erc721a/contracts/ERC721A.sol\":9122:9186  if (!_exists(tokenId)) revert ApprovalQueryForNonexistentToken() */\n    tag_133:\n        /* \"erc721a/contracts/ERC721A.sol\":9204:9219  _tokenApprovals */\n      0x07\n        /* \"erc721a/contracts/ERC721A.sol\":9204:9228  _tokenApprovals[tokenId] */\n      0x00\n        /* \"erc721a/contracts/ERC721A.sol\":9220:9227  tokenId */\n      dup4\n        /* \"erc721a/contracts/ERC721A.sol\":9204:9228  _tokenApprovals[tokenId] */\n      dup2\n      mstore\n      0x20\n      add\n      swap1\n      dup2\n      mstore\n      0x20\n      add\n      0x00\n      keccak256\n      0x00\n      swap1\n      sload\n      swap1\n      0x0100\n      exp\n      swap1\n      div\n      0xffffffffffffffffffffffffffffffffffffffff\n      and\n        /* \"erc721a/contracts/ERC721A.sol\":9197:9228  return _tokenApprovals[tokenId] */\n      swap1\n      pop\n        /* \"erc721a/contracts/ERC721A.sol\":9035:9235  function getApproved(uint256 tokenId) public view override returns (address) {... */\n      swap2\n      swap1\n      pop\n      jump\t// out\n        /* \"erc721a/contracts/ERC721A.sol\":8612:8974  function approve(address to, uint256 tokenId) public override {... */\n    tag_47:\n        /* \"erc721a/contracts/ERC721A.sol\":8684:8697  address owner */\n      0x00\n        /* \"erc721a/contracts/ERC721A.sol\":8700:8724  ERC721A.ownerOf(tokenId) */\n      tag_135\n        /* \"erc721a/contracts/ERC721A.sol\":8716:8723  tokenId */\n      dup3\n        /* \"erc721a/contracts/ERC721A.sol\":8700:8715  ERC721A.ownerOf */\n      tag_70\n        /* \"erc721a/contracts/ERC721A.sol\":8700:8724  ERC721A.ownerOf(tokenId) */\n      jump\t// in\n    tag_135:\n        /* \"erc721a/contracts/ERC721A.sol\":8684:8724  address owner = ERC721A.ownerOf(tokenId) */\n      swap1\n      pop\n        /* \"erc721a/contracts/ERC721A.sol\":8744:8749  owner */\n      dup1\n        /* \"erc721a/contracts/ERC721A.sol\":8738:8749  to == owner */\n      0xffffffffffffffffffffffffffffffffffffffff\n      and\n        /* \"erc721a/contracts/ERC721A.sol\":8738:8740  to */\n      dup4\n        /* \"erc721a/contracts/ERC721A.sol\":8738:8749  to == owner */\n      0xffffffffffffffffffffffffffffffffffffffff\n      and\n      sub\n        /* \"erc721a/contracts/ERC721A.sol\":8734:8782  if (to == owner) revert ApprovalToCurrentOwner() */\n      tag_136\n      jumpi\n        /* \"erc721a/contracts/ERC721A.sol\":8758:8782  ApprovalToCurrentOwner() */\n      mload(0x40)\n      0x943f7b8c00000000000000000000000000000000000000000000000000000000\n      dup2\n      mstore\n      0x04\n      add\n      mload(0x40)\n      dup1\n      swap2\n      sub\n      swap1\n      revert\n        /* \"erc721a/contracts/ERC721A.sol\":8734:8782  if (to == owner) revert ApprovalToCurrentOwner() */\n    tag_136:\n        /* \"erc721a/contracts/ERC721A.sol\":8813:8818  owner */\n      dup1\n        /* \"erc721a/contracts/ERC721A.sol\":8797:8818  _msgSender() != owner */\n      0xffffffffffffffffffffffffffffffffffffffff\n      and\n        /* \"erc721a/contracts/ERC721A.sol\":8797:8809  _msgSender() */\n      tag_137\n        /* \"erc721a/contracts/ERC721A.sol\":8797:8807  _msgSender */\n      tag_138\n        /* \"erc721a/contracts/ERC721A.sol\":8797:8809  _msgSender() */\n      jump\t// in\n    tag_137:\n        /* \"erc721a/contracts/ERC721A.sol\":8797:8818  _msgSender() != owner */\n      0xffffffffffffffffffffffffffffffffffffffff\n      and\n      eq\n      iszero\n        /* \"erc721a/contracts/ERC721A.sol\":8797:8860  _msgSender() != owner && !isApprovedForAll(owner, _msgSender()) */\n      dup1\n      iszero\n      tag_139\n      jumpi\n      pop\n        /* \"erc721a/contracts/ERC721A.sol\":8823:8860  isApprovedForAll(owner, _msgSender()) */\n      tag_140\n        /* \"erc721a/contracts/ERC721A.sol\":8840:8845  owner */\n      dup2\n        /* \"erc721a/contracts/ERC721A.sol\":8847:8859  _msgSender() */\n      tag_141\n        /* \"erc721a/contracts/ERC721A.sol\":8847:8857  _msgSender */\n      tag_138\n        /* \"erc721a/contracts/ERC721A.sol\":8847:8859  _msgSender() */\n      jump\t// in\n    tag_141:\n        /* \"erc721a/contracts/ERC721A.sol\":8823:8839  isApprovedForAll */\n      tag_111\n        /* \"erc721a/contracts/ERC721A.sol\":8823:8860  isApprovedForAll(owner, _msgSender()) */\n      jump\t// in\n    tag_140:\n        /* \"erc721a/contracts/ERC721A.sol\":8822:8860  !isApprovedForAll(owner, _msgSender()) */\n      iszero\n        /* \"erc721a/contracts/ERC721A.sol\":8797:8860  _msgSender() != owner && !isApprovedForAll(owner, _msgSender()) */\n    tag_139:\n        /* \"erc721a/contracts/ERC721A.sol\":8793:8929  if (_msgSender() != owner && !isApprovedForAll(owner, _msgSender())) {... */\n      iszero\n      tag_142\n      jumpi\n        /* \"erc721a/contracts/ERC721A.sol\":8883:8918  ApprovalCallerNotOwnerNorApproved() */\n      mload(0x40)\n      0xcfb3b94200000000000000000000000000000000000000000000000000000000\n      dup2\n      mstore\n      0x04\n      add\n      mload(0x40)\n      dup1\n      swap2\n      sub\n      swap1\n      revert\n        /* \"erc721a/contracts/ERC721A.sol\":8793:8929  if (_msgSender() != owner && !isApprovedForAll(owner, _msgSender())) {... */\n    tag_142:\n        /* \"erc721a/contracts/ERC721A.sol\":8939:8967  _approve(to, tokenId, owner) */\n      tag_143\n        /* \"erc721a/contracts/ERC721A.sol\":8948:8950  to */\n      dup4\n        /* \"erc721a/contracts/ERC721A.sol\":8952:8959  tokenId */\n      dup4\n        /* \"erc721a/contracts/ERC721A.sol\":8961:8966  owner */\n      dup4\n        /* \"erc721a/contracts/ERC721A.sol\":8939:8947  _approve */\n      tag_144\n        /* \"erc721a/contracts/ERC721A.sol\":8939:8967  _approve(to, tokenId, owner) */\n      jump\t// in\n    tag_143:\n        /* \"erc721a/contracts/ERC721A.sol\":8674:8974  {... */\n      pop\n        /* \"erc721a/contracts/ERC721A.sol\":8612:8974  function approve(address to, uint256 tokenId) public override {... */\n      pop\n      pop\n      jump\t// out\n        /* \"erc721a/contracts/ERC721A.sol\":3822:4119  function totalSupply() public view returns (uint256) {... */\n    tag_50:\n        /* \"erc721a/contracts/ERC721A.sol\":3866:3873  uint256 */\n      0x00\n        /* \"erc721a/contracts/ERC721A.sol\":4087:4102  _startTokenId() */\n      tag_146\n        /* \"erc721a/contracts/ERC721A.sol\":4087:4100  _startTokenId */\n      tag_147\n        /* \"erc721a/contracts/ERC721A.sol\":4087:4102  _startTokenId() */\n      jump\t// in\n    tag_146:\n        /* \"erc721a/contracts/ERC721A.sol\":4072:4084  _burnCounter */\n      sload(0x02)\n        /* \"erc721a/contracts/ERC721A.sol\":4056:4069  _currentIndex */\n      sload(0x01)\n        /* \"erc721a/contracts/ERC721A.sol\":4056:4084  _currentIndex - _burnCounter */\n      sub\n        /* \"erc721a/contracts/ERC721A.sol\":4056:4102  _currentIndex - _burnCounter - _startTokenId() */\n      sub\n        /* \"erc721a/contracts/ERC721A.sol\":4049:4102  return _currentIndex - _burnCounter - _startTokenId() */\n      swap1\n      pop\n        /* \"erc721a/contracts/ERC721A.sol\":3822:4119  function totalSupply() public view returns (uint256) {... */\n      swap1\n      jump\t// out\n        /* \"erc721a/contracts/ERC721A.sol\":9874:10038  function transferFrom(... */\n    tag_57:\n        /* \"erc721a/contracts/ERC721A.sol\":10003:10031  _transfer(from, to, tokenId) */\n      tag_149\n        /* \"erc721a/contracts/ERC721A.sol\":10013:10017  from */\n      dup4\n        /* \"erc721a/contracts/ERC721A.sol\":10019:10021  to */\n      dup4\n        /* \"erc721a/contracts/ERC721A.sol\":10023:10030  tokenId */\n      dup4\n        /* \"erc721a/contracts/ERC721A.sol\":10003:10012  _transfer */\n      tag_150\n        /* \"erc721a/contracts/ERC721A.sol\":10003:10031  _transfer(from, to, tokenId) */\n      jump\t// in\n    tag_149:\n        /* \"erc721a/contracts/ERC721A.sol\":9874:10038  function transferFrom(... */\n      pop\n      pop\n      pop\n      jump\t// out\n        /* \"erc721a/contracts/ERC721A.sol\":10104:10283  function safeTransferFrom(... */\n    tag_61:\n        /* \"erc721a/contracts/ERC721A.sol\":10237:10276  safeTransferFrom(from, to, tokenId, '') */\n      tag_152\n        /* \"erc721a/contracts/ERC721A.sol\":10254:10258  from */\n      dup4\n        /* \"erc721a/contracts/ERC721A.sol\":10260:10262  to */\n      dup4\n        /* \"erc721a/contracts/ERC721A.sol\":10264:10271  tokenId */\n      dup4\n        /* \"erc721a/contracts/ERC721A.sol\":10237:10276  safeTransferFrom(from, to, tokenId, '') */\n      mload(0x40)\n      dup1\n      0x20\n      add\n      0x40\n      mstore\n      dup1\n      0x00\n      dup2\n      mstore\n      pop\n        /* \"erc721a/contracts/ERC721A.sol\":10237:10253  safeTransferFrom */\n      tag_101\n        /* \"erc721a/contracts/ERC721A.sol\":10237:10276  safeTransferFrom(from, to, tokenId, '') */\n      jump\t// in\n    tag_152:\n        /* \"erc721a/contracts/ERC721A.sol\":10104:10283  function safeTransferFrom(... */\n      pop\n      pop\n      pop\n      jump\t// out\n        /* \"rotatingcube.sol\":630:728  function setBaseURI(string calldata baseURI) external onlyOwner {... */\n    tag_66:\n        /* \"@openzeppelin/contracts/access/Ownable.sol\":1259:1271  _msgSender() */\n      tag_154\n        /* \"@openzeppelin/contracts/access/Ownable.sol\":1259:1269  _msgSender */\n      tag_138\n        /* \"@openzeppelin/contracts/access/Ownable.sol\":1259:1271  _msgSender() */\n      jump\t// in\n    tag_154:\n        /* \"@openzeppelin/contracts/access/Ownable.sol\":1248:1271  owner() == _msgSender() */\n      0xffffffffffffffffffffffffffffffffffffffff\n      and\n        /* \"@openzeppelin/contracts/access/Ownable.sol\":1248:1255  owner() */\n      tag_155\n        /* \"@openzeppelin/contracts/access/Ownable.sol\":1248:1253  owner */\n      tag_83\n        /* \"@openzeppelin/contracts/access/Ownable.sol\":1248:1255  owner() */\n      jump\t// in\n    tag_155:\n        /* \"@openzeppelin/contracts/access/Ownable.sol\":1248:1271  owner() == _msgSender() */\n      0xffffffffffffffffffffffffffffffffffffffff\n      and\n      eq\n        /* \"@openzeppelin/contracts/access/Ownable.sol\":1240:1308  require(owner() == _msgSender(), \"Ownable: caller is not the owner\") */\n      tag_156\n      jumpi\n      mload(0x40)\n      0x08c379a000000000000000000000000000000000000000000000000000000000\n      dup2\n      mstore\n      0x04\n      add\n      tag_157\n      swap1\n      tag_158\n      jump\t// in\n    tag_157:\n      mload(0x40)\n      dup1\n      swap2\n      sub\n      swap1\n      revert\n    tag_156:\n        /* \"rotatingcube.sol\":716:723  baseURI */\n      dup2\n      dup2\n        /* \"rotatingcube.sol\":700:713  _baseTokenURI */\n      0x09\n        /* \"rotatingcube.sol\":700:723  _baseTokenURI = baseURI */\n      swap2\n      swap1\n      tag_160\n      swap3\n      swap2\n      swap1\n      tag_161\n      jump\t// in\n    tag_160:\n      pop\n        /* \"rotatingcube.sol\":630:728  function setBaseURI(string calldata baseURI) external onlyOwner {... */\n      pop\n      pop\n      jump\t// out\n        /* \"erc721a/contracts/ERC721A.sol\":7394:7517  function ownerOf(uint256 tokenId) public view override returns (address) {... */\n    tag_70:\n        /* \"erc721a/contracts/ERC721A.sol\":7458:7465  address */\n      0x00\n        /* \"erc721a/contracts/ERC721A.sol\":7484:7505  _ownershipOf(tokenId) */\n      tag_163\n        /* \"erc721a/contracts/ERC721A.sol\":7497:7504  tokenId */\n      dup3\n        /* \"erc721a/contracts/ERC721A.sol\":7484:7496  _ownershipOf */\n      tag_164\n        /* \"erc721a/contracts/ERC721A.sol\":7484:7505  _ownershipOf(tokenId) */\n      jump\t// in\n    tag_163:\n        /* \"erc721a/contracts/ERC721A.sol\":7484:7510  _ownershipOf(tokenId).addr */\n      0x00\n      add\n      mload\n        /* \"erc721a/contracts/ERC721A.sol\":7477:7510  return _ownershipOf(tokenId).addr */\n      swap1\n      pop\n        /* \"erc721a/contracts/ERC721A.sol\":7394:7517  function ownerOf(uint256 tokenId) public view override returns (address) {... */\n      swap2\n      swap1\n      pop\n      jump\t// out\n        /* \"erc721a/contracts/ERC721A.sol\":4910:5113  function balanceOf(address owner) public view override returns (uint256) {... */\n    tag_76:\n        /* \"erc721a/contracts/ERC721A.sol\":4974:4981  uint256 */\n      0x00\n        /* \"erc721a/contracts/ERC721A.sol\":5014:5015  0 */\n      dup1\n        /* \"erc721a/contracts/ERC721A.sol\":4997:5016  owner == address(0) */\n      0xffffffffffffffffffffffffffffffffffffffff\n      and\n        /* \"erc721a/contracts/ERC721A.sol\":4997:5002  owner */\n      dup3\n        /* \"erc721a/contracts/ERC721A.sol\":4997:5016  owner == address(0) */\n      0xffffffffffffffffffffffffffffffffffffffff\n      and\n      sub\n        /* \"erc721a/contracts/ERC721A.sol\":4993:5053  if (owner == address(0)) revert BalanceQueryForZeroAddress() */\n      tag_166\n      jumpi\n        /* \"erc721a/contracts/ERC721A.sol\":5025:5053  BalanceQueryForZeroAddress() */\n      mload(0x40)\n      0x8f4eb60400000000000000000000000000000000000000000000000000000000\n      dup2\n      mstore\n      0x04\n      add\n      mload(0x40)\n      dup1\n      swap2\n      sub\n      swap1\n      revert\n        /* \"erc721a/contracts/ERC721A.sol\":4993:5053  if (owner == address(0)) revert BalanceQueryForZeroAddress() */\n    tag_166:\n        /* \"erc721a/contracts/ERC721A.sol\":5078:5090  _addressData */\n      0x06\n        /* \"erc721a/contracts/ERC721A.sol\":5078:5097  _addressData[owner] */\n      0x00\n        /* \"erc721a/contracts/ERC721A.sol\":5091:5096  owner */\n      dup4\n        /* \"erc721a/contracts/ERC721A.sol\":5078:5097  _addressData[owner] */\n      0xffffffffffffffffffffffffffffffffffffffff\n      and\n      0xffffffffffffffffffffffffffffffffffffffff\n      and\n      dup2\n      mstore\n      0x20\n      add\n      swap1\n      dup2\n      mstore\n      0x20\n      add\n      0x00\n      keccak256\n        /* \"erc721a/contracts/ERC721A.sol\":5078:5105  _addressData[owner].balance */\n      0x00\n      add\n      0x00\n      swap1\n      sload\n      swap1\n      0x0100\n      exp\n      swap1\n      div\n      0xffffffffffffffff\n      and\n        /* \"erc721a/contracts/ERC721A.sol\":5070:5106  uint256(_addressData[owner].balance) */\n      0xffffffffffffffff\n      and\n        /* \"erc721a/contracts/ERC721A.sol\":5063:5106  return uint256(_addressData[owner].balance) */\n      swap1\n      pop\n        /* \"erc721a/contracts/ERC721A.sol\":4910:5113  function balanceOf(address owner) public view override returns (uint256) {... */\n      swap2\n      swap1\n      pop\n      jump\t// out\n        /* \"@openzeppelin/contracts/access/Ownable.sol\":1668:1769  function renounceOwnership() public virtual onlyOwner {... */\n    tag_80:\n        /* \"@openzeppelin/contracts/access/Ownable.sol\":1259:1271  _msgSender() */\n      tag_168\n        /* \"@openzeppelin/contracts/access/Ownable.sol\":1259:1269  _msgSender */\n      tag_138\n        /* \"@openzeppelin/contracts/access/Ownable.sol\":1259:1271  _msgSender() */\n      jump\t// in\n    tag_168:\n        /* \"@openzeppelin/contracts/access/Ownable.sol\":1248:1271  owner() == _msgSender() */\n      0xffffffffffffffffffffffffffffffffffffffff\n      and\n        /* \"@openzeppelin/contracts/access/Ownable.sol\":1248:1255  owner() */\n      tag_169\n        /* \"@openzeppelin/contracts/access/Ownable.sol\":1248:1253  owner */\n      tag_83\n        /* \"@openzeppelin/contracts/access/Ownable.sol\":1248:1255  owner() */\n      jump\t// in\n    tag_169:\n        /* \"@openzeppelin/contracts/access/Ownable.sol\":1248:1271  owner() == _msgSender() */\n      0xffffffffffffffffffffffffffffffffffffffff\n      and\n      eq\n        /* \"@openzeppelin/contracts/access/Ownable.sol\":1240:1308  require(owner() == _msgSender(), \"Ownable: caller is not the owner\") */\n      tag_170\n      jumpi\n      mload(0x40)\n      0x08c379a000000000000000000000000000000000000000000000000000000000\n      dup2\n      mstore\n      0x04\n      add\n      tag_171\n      swap1\n      tag_158\n      jump\t// in\n    tag_171:\n      mload(0x40)\n      dup1\n      swap2\n      sub\n      swap1\n      revert\n    tag_170:\n        /* \"@openzeppelin/contracts/access/Ownable.sol\":1732:1762  _transferOwnership(address(0)) */\n      tag_173\n        /* \"@openzeppelin/contracts/access/Ownable.sol\":1759:1760  0 */\n      0x00\n        /* \"@openzeppelin/contracts/access/Ownable.sol\":1732:1750  _transferOwnership */\n      tag_174\n        /* \"@openzeppelin/contracts/access/Ownable.sol\":1732:1762  _transferOwnership(address(0)) */\n      jump\t// in\n    tag_173:\n        /* \"@openzeppelin/contracts/access/Ownable.sol\":1668:1769  function renounceOwnership() public virtual onlyOwner {... */\n      jump\t// out\n        /* \"@openzeppelin/contracts/access/Ownable.sol\":1036:1121  function owner() public view virtual returns (address) {... */\n    tag_83:\n        /* \"@openzeppelin/contracts/access/Ownable.sol\":1082:1089  address */\n      0x00\n        /* \"@openzeppelin/contracts/access/Ownable.sol\":1108:1114  _owner */\n      dup1\n      0x00\n      swap1\n      sload\n      swap1\n      0x0100\n      exp\n      swap1\n      div\n      0xffffffffffffffffffffffffffffffffffffffff\n      and\n        /* \"@openzeppelin/contracts/access/Ownable.sol\":1101:1114  return _owner */\n      swap1\n      pop\n        /* \"@openzeppelin/contracts/access/Ownable.sol\":1036:1121  function owner() public view virtual returns (address) {... */\n      swap1\n      jump\t// out\n        /* \"erc721a/contracts/ERC721A.sol\":7741:7843  function symbol() public view virtual override returns (string memory) {... */\n    tag_87:\n        /* \"erc721a/contracts/ERC721A.sol\":7797:7810  string memory */\n      0x60\n        /* \"erc721a/contracts/ERC721A.sol\":7829:7836  _symbol */\n      0x04\n        /* \"erc721a/contracts/ERC721A.sol\":7822:7836  return _symbol */\n      dup1\n      sload\n      tag_177\n      swap1\n      tag_125\n      jump\t// in\n    tag_177:\n      dup1\n      0x1f\n      add\n      0x20\n      dup1\n      swap2\n      div\n      mul\n      0x20\n      add\n      mload(0x40)\n      swap1\n      dup2\n      add\n      0x40\n      mstore\n      dup1\n      swap3\n      swap2\n      swap1\n      dup2\n      dup2\n      mstore\n      0x20\n      add\n      dup3\n      dup1\n      sload\n      tag_178\n      swap1\n      tag_125\n      jump\t// in\n    tag_178:\n      dup1\n      iszero\n      tag_179\n      jumpi\n      dup1\n      0x1f\n      lt\n      tag_180\n      jumpi\n      0x0100\n      dup1\n      dup4\n      sload\n      div\n      mul\n      dup4\n      mstore\n      swap2\n      0x20\n      add\n      swap2\n      jump(tag_179)\n    tag_180:\n      dup3\n      add\n      swap2\n      swap1\n      0x00\n      mstore\n      keccak256(0x00, 0x20)\n      swap1\n    tag_181:\n      dup2\n      sload\n      dup2\n      mstore\n      swap1\n      0x01\n      add\n      swap1\n      0x20\n      add\n      dup1\n      dup4\n      gt\n      tag_181\n      jumpi\n      dup3\n      swap1\n      sub\n      0x1f\n      and\n      dup3\n      add\n      swap2\n    tag_179:\n      pop\n      pop\n      pop\n      pop\n      pop\n      swap1\n      pop\n        /* \"erc721a/contracts/ERC721A.sol\":7741:7843  function symbol() public view virtual override returns (string memory) {... */\n      swap1\n      jump\t// out\n        /* \"rotatingcube.sol\":732:898  function mint(uint256 quantity) external payable {... */\n    tag_91:\n        /* \"rotatingcube.sol\":862:893  _safeMint(msg.sender, quantity) */\n      tag_183\n        /* \"rotatingcube.sol\":872:882  msg.sender */\n      caller\n        /* \"rotatingcube.sol\":884:892  quantity */\n      dup3\n        /* \"rotatingcube.sol\":862:871  _safeMint */\n      tag_184\n        /* \"rotatingcube.sol\":862:893  _safeMint(msg.sender, quantity) */\n      jump\t// in\n    tag_183:\n        /* \"rotatingcube.sol\":732:898  function mint(uint256 quantity) external payable {... */\n      pop\n      jump\t// out\n        /* \"erc721a/contracts/ERC721A.sol\":9302:9584  function setApprovalForAll(address operator, bool approved) public virtual override {... */\n    tag_96:\n        /* \"erc721a/contracts/ERC721A.sol\":9412:9424  _msgSender() */\n      tag_186\n        /* \"erc721a/contracts/ERC721A.sol\":9412:9422  _msgSender */\n      tag_138\n        /* \"erc721a/contracts/ERC721A.sol\":9412:9424  _msgSender() */\n      jump\t// in\n    tag_186:\n        /* \"erc721a/contracts/ERC721A.sol\":9400:9424  operator == _msgSender() */\n      0xffffffffffffffffffffffffffffffffffffffff\n      and\n        /* \"erc721a/contracts/ERC721A.sol\":9400:9408  operator */\n      dup3\n        /* \"erc721a/contracts/ERC721A.sol\":9400:9424  operator == _msgSender() */\n      0xffffffffffffffffffffffffffffffffffffffff\n      and\n      sub\n        /* \"erc721a/contracts/ERC721A.sol\":9396:9450  if (operator == _msgSender()) revert ApproveToCaller() */\n      tag_187\n      jumpi\n        /* \"erc721a/contracts/ERC721A.sol\":9433:9450  ApproveToCaller() */\n      mload(0x40)\n      0xb06307db00000000000000000000000000000000000000000000000000000000\n      dup2\n      mstore\n      0x04\n      add\n      mload(0x40)\n      dup1\n      swap2\n      sub\n      swap1\n      revert\n        /* \"erc721a/contracts/ERC721A.sol\":9396:9450  if (operator == _msgSender()) revert ApproveToCaller() */\n    tag_187:\n        /* \"erc721a/contracts/ERC721A.sol\":9506:9514  approved */\n      dup1\n        /* \"erc721a/contracts/ERC721A.sol\":9461:9479  _operatorApprovals */\n      0x08\n        /* \"erc721a/contracts/ERC721A.sol\":9461:9493  _operatorApprovals[_msgSender()] */\n      0x00\n        /* \"erc721a/contracts/ERC721A.sol\":9480:9492  _msgSender() */\n      tag_188\n        /* \"erc721a/contracts/ERC721A.sol\":9480:9490  _msgSender */\n      tag_138\n        /* \"erc721a/contracts/ERC721A.sol\":9480:9492  _msgSender() */\n      jump\t// in\n    tag_188:\n        /* \"erc721a/contracts/ERC721A.sol\":9461:9493  _operatorApprovals[_msgSender()] */\n      0xffffffffffffffffffffffffffffffffffffffff\n      and\n      0xffffffffffffffffffffffffffffffffffffffff\n      and\n      dup2\n      mstore\n      0x20\n      add\n      swap1\n      dup2\n      mstore\n      0x20\n      add\n      0x00\n      keccak256\n        /* \"erc721a/contracts/ERC721A.sol\":9461:9503  _operatorApprovals[_msgSender()][operator] */\n      0x00\n        /* \"erc721a/contracts/ERC721A.sol\":9494:9502  operator */\n      dup5\n        /* \"erc721a/contracts/ERC721A.sol\":9461:9503  _operatorApprovals[_msgSender()][operator] */\n      0xffffffffffffffffffffffffffffffffffffffff\n      and\n      0xffffffffffffffffffffffffffffffffffffffff\n      and\n      dup2\n      mstore\n      0x20\n      add\n      swap1\n      dup2\n      mstore\n      0x20\n      add\n      0x00\n      keccak256\n      0x00\n        /* \"erc721a/contracts/ERC721A.sol\":9461:9514  _operatorApprovals[_msgSender()][operator] = approved */\n      0x0100\n      exp\n      dup2\n      sload\n      dup2\n      0xff\n      mul\n      not\n      and\n      swap1\n      dup4\n      iszero\n      iszero\n      mul\n      or\n      swap1\n      sstore\n      pop\n        /* \"erc721a/contracts/ERC721A.sol\":9558:9566  operator */\n      dup2\n        /* \"erc721a/contracts/ERC721A.sol\":9529:9577  ApprovalForAll(_msgSender(), operator, approved) */\n      0xffffffffffffffffffffffffffffffffffffffff\n      and\n        /* \"erc721a/contracts/ERC721A.sol\":9544:9556  _msgSender() */\n      tag_189\n        /* \"erc721a/contracts/ERC721A.sol\":9544:9554  _msgSender */\n      tag_138\n        /* \"erc721a/contracts/ERC721A.sol\":9544:9556  _msgSender() */\n      jump\t// in\n    tag_189:\n        /* \"erc721a/contracts/ERC721A.sol\":9529:9577  ApprovalForAll(_msgSender(), operator, approved) */\n      0xffffffffffffffffffffffffffffffffffffffff\n      and\n      0x17307eab39ab6107e8899845ad3d59bd9653f200f220920489ca2b5937696c31\n        /* \"erc721a/contracts/ERC721A.sol\":9568:9576  approved */\n      dup4\n        /* \"erc721a/contracts/ERC721A.sol\":9529:9577  ApprovalForAll(_msgSender(), operator, approved) */\n      mload(0x40)\n      tag_190\n      swap2\n      swap1\n      tag_30\n      jump\t// in\n    tag_190:\n      mload(0x40)\n      dup1\n      swap2\n      sub\n      swap1\n      log3\n        /* \"erc721a/contracts/ERC721A.sol\":9302:9584  function setApprovalForAll(address operator, bool approved) public virtual override {... */\n      pop\n      pop\n      jump\t// out\n        /* \"erc721a/contracts/ERC721A.sol\":10349:10708  function safeTransferFrom(... */\n    tag_101:\n        /* \"erc721a/contracts/ERC721A.sol\":10510:10538  _transfer(from, to, tokenId) */\n      tag_192\n        /* \"erc721a/contracts/ERC721A.sol\":10520:10524  from */\n      dup5\n        /* \"erc721a/contracts/ERC721A.sol\":10526:10528  to */\n      dup5\n        /* \"erc721a/contracts/ERC721A.sol\":10530:10537  tokenId */\n      dup5\n        /* \"erc721a/contracts/ERC721A.sol\":10510:10519  _transfer */\n      tag_150\n        /* \"erc721a/contracts/ERC721A.sol\":10510:10538  _transfer(from, to, tokenId) */\n      jump\t// in\n    tag_192:\n        /* \"erc721a/contracts/ERC721A.sol\":10552:10567  to.isContract() */\n      tag_193\n        /* \"erc721a/contracts/ERC721A.sol\":10552:10554  to */\n      dup4\n        /* \"erc721a/contracts/ERC721A.sol\":10552:10565  to.isContract */\n      0xffffffffffffffffffffffffffffffffffffffff\n      and\n      tag_194\n        /* \"erc721a/contracts/ERC721A.sol\":10552:10567  to.isContract() */\n      jump\t// in\n    tag_193:\n        /* \"erc721a/contracts/ERC721A.sol\":10552:10628  to.isContract() && !_checkContractOnERC721Received(from, to, tokenId, _data) */\n      dup1\n      iszero\n      tag_195\n      jumpi\n      pop\n        /* \"erc721a/contracts/ERC721A.sol\":10572:10628  _checkContractOnERC721Received(from, to, tokenId, _data) */\n      tag_196\n        /* \"erc721a/contracts/ERC721A.sol\":10603:10607  from */\n      dup5\n        /* \"erc721a/contracts/ERC721A.sol\":10609:10611  to */\n      dup5\n        /* \"erc721a/contracts/ERC721A.sol\":10613:10620  tokenId */\n      dup5\n        /* \"erc721a/contracts/ERC721A.sol\":10622:10627  _data */\n      dup5\n        /* \"erc721a/contracts/ERC721A.sol\":10572:10602  _checkContractOnERC721Received */\n      tag_197\n        /* \"erc721a/contracts/ERC721A.sol\":10572:10628  _checkContractOnERC721Received(from, to, tokenId, _data) */\n      jump\t// in\n    tag_196:\n        /* \"erc721a/contracts/ERC721A.sol\":10571:10628  !_checkContractOnERC721Received(from, to, tokenId, _data) */\n      iszero\n        /* \"erc721a/contracts/ERC721A.sol\":10552:10628  to.isContract() && !_checkContractOnERC721Received(from, to, tokenId, _data) */\n    tag_195:\n        /* \"erc721a/contracts/ERC721A.sol\":10548:10702  if (to.isContract() && !_checkContractOnERC721Received(from, to, tokenId, _data)) {... */\n      iszero\n      tag_198\n      jumpi\n        /* \"erc721a/contracts/ERC721A.sol\":10651:10691  TransferToNonERC721ReceiverImplementer() */\n      mload(0x40)\n      0xd1a57ed600000000000000000000000000000000000000000000000000000000\n      dup2\n      mstore\n      0x04\n      add\n      mload(0x40)\n      dup1\n      swap2\n      sub\n      swap1\n      revert\n        /* \"erc721a/contracts/ERC721A.sol\":10548:10702  if (to.isContract() && !_checkContractOnERC721Received(from, to, tokenId, _data)) {... */\n    tag_198:\n        /* \"erc721a/contracts/ERC721A.sol\":10349:10708  function safeTransferFrom(... */\n      pop\n      pop\n      pop\n      pop\n      jump\t// out\n        /* \"erc721a/contracts/ERC721A.sol\":7909:8222  function tokenURI(uint256 tokenId) public view virtual override returns (string memory) {... */\n    tag_105:\n        /* \"erc721a/contracts/ERC721A.sol\":7982:7995  string memory */\n      0x60\n        /* \"erc721a/contracts/ERC721A.sol\":8012:8028  _exists(tokenId) */\n      tag_200\n        /* \"erc721a/contracts/ERC721A.sol\":8020:8027  tokenId */\n      dup3\n        /* \"erc721a/contracts/ERC721A.sol\":8012:8019  _exists */\n      tag_132\n        /* \"erc721a/contracts/ERC721A.sol\":8012:8028  _exists(tokenId) */\n      jump\t// in\n    tag_200:\n        /* \"erc721a/contracts/ERC721A.sol\":8007:8066  if (!_exists(tokenId)) revert URIQueryForNonexistentToken() */\n      tag_201\n      jumpi\n        /* \"erc721a/contracts/ERC721A.sol\":8037:8066  URIQueryForNonexistentToken() */\n      mload(0x40)\n      0xa14c4b5000000000000000000000000000000000000000000000000000000000\n      dup2\n      mstore\n      0x04\n      add\n      mload(0x40)\n      dup1\n      swap2\n      sub\n      swap1\n      revert\n        /* \"erc721a/contracts/ERC721A.sol\":8007:8066  if (!_exists(tokenId)) revert URIQueryForNonexistentToken() */\n    tag_201:\n        /* \"erc721a/contracts/ERC721A.sol\":8077:8098  string memory baseURI */\n      0x00\n        /* \"erc721a/contracts/ERC721A.sol\":8101:8111  _baseURI() */\n      tag_202\n        /* \"erc721a/contracts/ERC721A.sol\":8101:8109  _baseURI */\n      tag_203\n        /* \"erc721a/contracts/ERC721A.sol\":8101:8111  _baseURI() */\n      jump\t// in\n    tag_202:\n        /* \"erc721a/contracts/ERC721A.sol\":8077:8111  string memory baseURI = _baseURI() */\n      swap1\n      pop\n        /* \"erc721a/contracts/ERC721A.sol\":8153:8154  0 */\n      0x00\n        /* \"erc721a/contracts/ERC721A.sol\":8134:8141  baseURI */\n      dup2\n        /* \"erc721a/contracts/ERC721A.sol\":8128:8149  bytes(baseURI).length */\n      mload\n        /* \"erc721a/contracts/ERC721A.sol\":8128:8154  bytes(baseURI).length != 0 */\n      sub\n        /* \"erc721a/contracts/ERC721A.sol\":8128:8215  bytes(baseURI).length != 0 ? string(abi.encodePacked(baseURI, tokenId.toString())) : '' */\n      tag_204\n      jumpi\n      mload(0x40)\n      dup1\n      0x20\n      add\n      0x40\n      mstore\n      dup1\n      0x00\n      dup2\n      mstore\n      pop\n      jump(tag_205)\n    tag_204:\n        /* \"erc721a/contracts/ERC721A.sol\":8181:8188  baseURI */\n      dup1\n        /* \"erc721a/contracts/ERC721A.sol\":8190:8208  tokenId.toString() */\n      tag_206\n        /* \"erc721a/contracts/ERC721A.sol\":8190:8197  tokenId */\n      dup5\n        /* \"erc721a/contracts/ERC721A.sol\":8190:8206  tokenId.toString */\n      tag_207\n        /* \"erc721a/contracts/ERC721A.sol\":8190:8208  tokenId.toString() */\n      jump\t// in\n    tag_206:\n        /* \"erc721a/contracts/ERC721A.sol\":8164:8209  abi.encodePacked(baseURI, tokenId.toString()) */\n      add(0x20, mload(0x40))\n      tag_208\n      swap3\n      swap2\n      swap1\n      tag_209\n      jump\t// in\n    tag_208:\n      mload(0x40)\n      0x20\n      dup2\n      dup4\n      sub\n      sub\n      dup2\n      mstore\n      swap1\n      0x40\n      mstore\n        /* \"erc721a/contracts/ERC721A.sol\":8128:8215  bytes(baseURI).length != 0 ? string(abi.encodePacked(baseURI, tokenId.toString())) : '' */\n    tag_205:\n        /* \"erc721a/contracts/ERC721A.sol\":8121:8215  return bytes(baseURI).length != 0 ? string(abi.encodePacked(baseURI, tokenId.toString())) : '' */\n      swap2\n      pop\n      pop\n        /* \"erc721a/contracts/ERC721A.sol\":7909:8222  function tokenURI(uint256 tokenId) public view virtual override returns (string memory) {... */\n      swap2\n      swap1\n      pop\n      jump\t// out\n        /* \"erc721a/contracts/ERC721A.sol\":9650:9812  function isApprovedForAll(address owner, address operator) public view virtual override returns (bool) {... */\n    tag_111:\n        /* \"erc721a/contracts/ERC721A.sol\":9747:9751  bool */\n      0x00\n        /* \"erc721a/contracts/ERC721A.sol\":9770:9788  _operatorApprovals */\n      0x08\n        /* \"erc721a/contracts/ERC721A.sol\":9770:9795  _operatorApprovals[owner] */\n      0x00\n        /* \"erc721a/contracts/ERC721A.sol\":9789:9794  owner */\n      dup5\n        /* \"erc721a/contracts/ERC721A.sol\":9770:9795  _operatorApprovals[owner] */\n      0xffffffffffffffffffffffffffffffffffffffff\n      and\n      0xffffffffffffffffffffffffffffffffffffffff\n      and\n      dup2\n      mstore\n      0x20\n      add\n      swap1\n      dup2\n      mstore\n      0x20\n      add\n      0x00\n      keccak256\n        /* \"erc721a/contracts/ERC721A.sol\":9770:9805  _operatorApprovals[owner][operator] */\n      0x00\n        /* \"erc721a/contracts/ERC721A.sol\":9796:9804  operator */\n      dup4\n        /* \"erc721a/contracts/ERC721A.sol\":9770:9805  _operatorApprovals[owner][operator] */\n      0xffffffffffffffffffffffffffffffffffffffff\n      and\n      0xffffffffffffffffffffffffffffffffffffffff\n      and\n      dup2\n      mstore\n      0x20\n      add\n      swap1\n      dup2\n      mstore\n      0x20\n      add\n      0x00\n      keccak256\n      0x00\n      swap1\n      sload\n      swap1\n      0x0100\n      exp\n      swap1\n      div\n      0xff\n      and\n        /* \"erc721a/contracts/ERC721A.sol\":9763:9805  return _operatorApprovals[owner][operator] */\n      swap1\n      pop\n        /* \"erc721a/contracts/ERC721A.sol\":9650:9812  function isApprovedForAll(address owner, address operator) public view virtual override returns (bool) {... */\n      swap3\n      swap2\n      pop\n      pop\n      jump\t// out\n        /* \"@openzeppelin/contracts/access/Ownable.sol\":1918:2116  function transferOwnership(address newOwner) public virtual onlyOwner {... */\n    tag_116:\n        /* \"@openzeppelin/contracts/access/Ownable.sol\":1259:1271  _msgSender() */\n      tag_212\n        /* \"@openzeppelin/contracts/access/Ownable.sol\":1259:1269  _msgSender */\n      tag_138\n        /* \"@openzeppelin/contracts/access/Ownable.sol\":1259:1271  _msgSender() */\n      jump\t// in\n    tag_212:\n        /* \"@openzeppelin/contracts/access/Ownable.sol\":1248:1271  owner() == _msgSender() */\n      0xffffffffffffffffffffffffffffffffffffffff\n      and\n        /* \"@openzeppelin/contracts/access/Ownable.sol\":1248:1255  owner() */\n      tag_213\n        /* \"@openzeppelin/contracts/access/Ownable.sol\":1248:1253  owner */\n      tag_83\n        /* \"@openzeppelin/contracts/access/Ownable.sol\":1248:1255  owner() */\n      jump\t// in\n    tag_213:\n        /* \"@openzeppelin/contracts/access/Ownable.sol\":1248:1271  owner() == _msgSender() */\n      0xffffffffffffffffffffffffffffffffffffffff\n      and\n      eq\n        /* \"@openzeppelin/contracts/access/Ownable.sol\":1240:1308  require(owner() == _msgSender(), \"Ownable: caller is not the owner\") */\n      tag_214\n      jumpi\n      mload(0x40)\n      0x08c379a000000000000000000000000000000000000000000000000000000000\n      dup2\n      mstore\n      0x04\n      add\n      tag_215\n      swap1\n      tag_158\n      jump\t// in\n    tag_215:\n      mload(0x40)\n      dup1\n      swap2\n      sub\n      swap1\n      revert\n    tag_214:\n        /* \"@openzeppelin/contracts/access/Ownable.sol\":2026:2027  0 */\n      0x00\n        /* \"@openzeppelin/contracts/access/Ownable.sol\":2006:2028  newOwner != address(0) */\n      0xffffffffffffffffffffffffffffffffffffffff\n      and\n        /* \"@openzeppelin/contracts/access/Ownable.sol\":2006:2014  newOwner */\n      dup2\n        /* \"@openzeppelin/contracts/access/Ownable.sol\":2006:2028  newOwner != address(0) */\n      0xffffffffffffffffffffffffffffffffffffffff\n      and\n      sub\n        /* \"@openzeppelin/contracts/access/Ownable.sol\":1998:2071  require(newOwner != address(0), \"Ownable: new owner is the zero address\") */\n      tag_217\n      jumpi\n      mload(0x40)\n      0x08c379a000000000000000000000000000000000000000000000000000000000\n      dup2\n      mstore\n      0x04\n      add\n      tag_218\n      swap1\n      tag_219\n      jump\t// in\n    tag_218:\n      mload(0x40)\n      dup1\n      swap2\n      sub\n      swap1\n      revert\n    tag_217:\n        /* \"@openzeppelin/contracts/access/Ownable.sol\":2081:2109  _transferOwnership(newOwner) */\n      tag_220\n        /* \"@openzeppelin/contracts/access/Ownable.sol\":2100:2108  newOwner */\n      dup2\n        /* \"@openzeppelin/contracts/access/Ownable.sol\":2081:2099  _transferOwnership */\n      tag_174\n        /* \"@openzeppelin/contracts/access/Ownable.sol\":2081:2109  _transferOwnership(newOwner) */\n      jump\t// in\n    tag_220:\n        /* \"@openzeppelin/contracts/access/Ownable.sol\":1918:2116  function transferOwnership(address newOwner) public virtual onlyOwner {... */\n      pop\n      jump\t// out\n        /* \"erc721a/contracts/ERC721A.sol\":4551:4851  function supportsInterface(bytes4 interfaceId) public view virtual override(ERC165, IERC165) returns (bool) {... */\n    tag_122:\n        /* \"erc721a/contracts/ERC721A.sol\":4653:4657  bool */\n      0x00\n        /* \"erc721a/contracts/ERC721A.sol\":4703:4728  type(IERC721).interfaceId */\n      0x80ac58cd00000000000000000000000000000000000000000000000000000000\n        /* \"erc721a/contracts/ERC721A.sol\":4688:4728  interfaceId == type(IERC721).interfaceId */\n      not(0xffffffffffffffffffffffffffffffffffffffffffffffffffffffff)\n      and\n        /* \"erc721a/contracts/ERC721A.sol\":4688:4699  interfaceId */\n      dup3\n        /* \"erc721a/contracts/ERC721A.sol\":4688:4728  interfaceId == type(IERC721).interfaceId */\n      not(0xffffffffffffffffffffffffffffffffffffffffffffffffffffffff)\n      and\n      eq\n        /* \"erc721a/contracts/ERC721A.sol\":4688:4792  interfaceId == type(IERC721).interfaceId ||... */\n      dup1\n      tag_222\n      jumpi\n      pop\n        /* \"erc721a/contracts/ERC721A.sol\":4759:4792  type(IERC721Metadata).interfaceId */\n      0x5b5e139f00000000000000000000000000000000000000000000000000000000\n        /* \"erc721a/contracts/ERC721A.sol\":4744:4792  interfaceId == type(IERC721Metadata).interfaceId */\n      not(0xffffffffffffffffffffffffffffffffffffffffffffffffffffffff)\n      and\n        /* \"erc721a/contracts/ERC721A.sol\":4744:4755  interfaceId */\n      dup3\n        /* \"erc721a/contracts/ERC721A.sol\":4744:4792  interfaceId == type(IERC721Metadata).interfaceId */\n      not(0xffffffffffffffffffffffffffffffffffffffffffffffffffffffff)\n      and\n      eq\n        /* \"erc721a/contracts/ERC721A.sol\":4688:4792  interfaceId == type(IERC721).interfaceId ||... */\n    tag_222:\n        /* \"erc721a/contracts/ERC721A.sol\":4688:4844  interfaceId == type(IERC721).interfaceId ||... */\n      dup1\n      tag_223\n      jumpi\n      pop\n        /* \"erc721a/contracts/ERC721A.sol\":4808:4844  super.supportsInterface(interfaceId) */\n      tag_224\n        /* \"erc721a/contracts/ERC721A.sol\":4832:4843  interfaceId */\n      dup3\n        /* \"erc721a/contracts/ERC721A.sol\":4808:4831  super.supportsInterface */\n      tag_225\n        /* \"erc721a/contracts/ERC721A.sol\":4808:4844  super.supportsInterface(interfaceId) */\n      jump\t// in\n    tag_224:\n        /* \"erc721a/contracts/ERC721A.sol\":4688:4844  interfaceId == type(IERC721).interfaceId ||... */\n    tag_223:\n        /* \"erc721a/contracts/ERC721A.sol\":4669:4844  return... */\n      swap1\n      pop\n        /* \"erc721a/contracts/ERC721A.sol\":4551:4851  function supportsInterface(bytes4 interfaceId) public view virtual override(ERC165, IERC165) returns (bool) {... */\n      swap2\n      swap1\n      pop\n      jump\t// out\n        /* \"erc721a/contracts/ERC721A.sol\":10954:11126  function _exists(uint256 tokenId) internal view returns (bool) {... */\n    tag_132:\n        /* \"erc721a/contracts/ERC721A.sol\":11011:11015  bool */\n      0x00\n        /* \"erc721a/contracts/ERC721A.sol\":11053:11060  tokenId */\n      dup2\n        /* \"erc721a/contracts/ERC721A.sol\":11034:11049  _startTokenId() */\n      tag_227\n        /* \"erc721a/contracts/ERC721A.sol\":11034:11047  _startTokenId */\n      tag_147\n        /* \"erc721a/contracts/ERC721A.sol\":11034:11049  _startTokenId() */\n      jump\t// in\n    tag_227:\n        /* \"erc721a/contracts/ERC721A.sol\":11034:11060  _startTokenId() <= tokenId */\n      gt\n      iszero\n        /* \"erc721a/contracts/ERC721A.sol\":11034:11087  _startTokenId() <= tokenId && tokenId < _currentIndex */\n      dup1\n      iszero\n      tag_228\n      jumpi\n      pop\n        /* \"erc721a/contracts/ERC721A.sol\":11074:11087  _currentIndex */\n      sload(0x01)\n        /* \"erc721a/contracts/ERC721A.sol\":11064:11071  tokenId */\n      dup3\n        /* \"erc721a/contracts/ERC721A.sol\":11064:11087  tokenId < _currentIndex */\n      lt\n        /* \"erc721a/contracts/ERC721A.sol\":11034:11087  _startTokenId() <= tokenId && tokenId < _currentIndex */\n    tag_228:\n        /* \"erc721a/contracts/ERC721A.sol\":11034:11119  _startTokenId() <= tokenId && tokenId < _currentIndex && !_ownerships[tokenId].burned */\n      dup1\n      iszero\n      tag_229\n      jumpi\n      pop\n        /* \"erc721a/contracts/ERC721A.sol\":11092:11103  _ownerships */\n      0x05\n        /* \"erc721a/contracts/ERC721A.sol\":11092:11112  _ownerships[tokenId] */\n      0x00\n        /* \"erc721a/contracts/ERC721A.sol\":11104:11111  tokenId */\n      dup4\n        /* \"erc721a/contracts/ERC721A.sol\":11092:11112  _ownerships[tokenId] */\n      dup2\n      mstore\n      0x20\n      add\n      swap1\n      dup2\n      mstore\n      0x20\n      add\n      0x00\n      keccak256\n        /* \"erc721a/contracts/ERC721A.sol\":11092:11119  _ownerships[tokenId].burned */\n      0x00\n      add\n      0x1c\n      swap1\n      sload\n      swap1\n      0x0100\n      exp\n      swap1\n      div\n      0xff\n      and\n        /* \"erc721a/contracts/ERC721A.sol\":11091:11119  !_ownerships[tokenId].burned */\n      iszero\n        /* \"erc721a/contracts/ERC721A.sol\":11034:11119  _startTokenId() <= tokenId && tokenId < _currentIndex && !_ownerships[tokenId].burned */\n    tag_229:\n        /* \"erc721a/contracts/ERC721A.sol\":11027:11119  return _startTokenId() <= tokenId && tokenId < _currentIndex && !_ownerships[tokenId].burned */\n      swap1\n      pop\n        /* \"erc721a/contracts/ERC721A.sol\":10954:11126  function _exists(uint256 tokenId) internal view returns (bool) {... */\n      swap2\n      swap1\n      pop\n      jump\t// out\n        /* \"@openzeppelin/contracts/utils/Context.sol\":640:736  function _msgSender() internal view virtual returns (address) {... */\n    tag_138:\n        /* \"@openzeppelin/contracts/utils/Context.sol\":693:700  address */\n      0x00\n        /* \"@openzeppelin/contracts/utils/Context.sol\":719:729  msg.sender */\n      caller\n        /* \"@openzeppelin/contracts/utils/Context.sol\":712:729  return msg.sender */\n      swap1\n      pop\n        /* \"@openzeppelin/contracts/utils/Context.sol\":640:736  function _msgSender() internal view virtual returns (address) {... */\n      swap1\n      jump\t// out\n        /* \"erc721a/contracts/ERC721A.sol\":18894:19083  function _approve(... */\n    tag_144:\n        /* \"erc721a/contracts/ERC721A.sol\":19031:19033  to */\n      dup3\n        /* \"erc721a/contracts/ERC721A.sol\":19004:19019  _tokenApprovals */\n      0x07\n        /* \"erc721a/contracts/ERC721A.sol\":19004:19028  _tokenApprovals[tokenId] */\n      0x00\n        /* \"erc721a/contracts/ERC721A.sol\":19020:19027  tokenId */\n      dup5\n        /* \"erc721a/contracts/ERC721A.sol\":19004:19028  _tokenApprovals[tokenId] */\n      dup2\n      mstore\n      0x20\n      add\n      swap1\n      dup2\n      mstore\n      0x20\n      add\n      0x00\n      keccak256\n      0x00\n        /* \"erc721a/contracts/ERC721A.sol\":19004:19033  _tokenApprovals[tokenId] = to */\n      0x0100\n      exp\n      dup2\n      sload\n      dup2\n      0xffffffffffffffffffffffffffffffffffffffff\n      mul\n      not\n      and\n      swap1\n      dup4\n      0xffffffffffffffffffffffffffffffffffffffff\n      and\n      mul\n      or\n      swap1\n      sstore\n      pop\n        /* \"erc721a/contracts/ERC721A.sol\":19068:19075  tokenId */\n      dup2\n        /* \"erc721a/contracts/ERC721A.sol\":19064:19066  to */\n      dup4\n        /* \"erc721a/contracts/ERC721A.sol\":19048:19076  Approval(owner, to, tokenId) */\n      0xffffffffffffffffffffffffffffffffffffffff\n      and\n        /* \"erc721a/contracts/ERC721A.sol\":19057:19062  owner */\n      dup3\n        /* \"erc721a/contracts/ERC721A.sol\":19048:19076  Approval(owner, to, tokenId) */\n      0xffffffffffffffffffffffffffffffffffffffff\n      and\n      0x8c5be1e5ebec7d5bd14f71427d1e84f3dd0314c0f7b2291e5b200ac8c7c3b925\n      mload(0x40)\n      mload(0x40)\n      dup1\n      swap2\n      sub\n      swap1\n      log4\n        /* \"erc721a/contracts/ERC721A.sol\":18894:19083  function _approve(... */\n      pop\n      pop\n      pop\n      jump\t// out\n        /* \"erc721a/contracts/ERC721A.sol\":3603:3693  function _startTokenId() internal view virtual returns (uint256) {... */\n    tag_147:\n        /* \"erc721a/contracts/ERC721A.sol\":3659:3666  uint256 */\n      0x00\n        /* \"erc721a/contracts/ERC721A.sol\":3603:3693  function _startTokenId() internal view virtual returns (uint256) {... */\n      swap1\n      jump\t// out\n        /* \"erc721a/contracts/ERC721A.sol\":13964:16046  function _transfer(... */\n    tag_150:\n        /* \"erc721a/contracts/ERC721A.sol\":14074:14109  TokenOwnership memory prevOwnership */\n      0x00\n        /* \"erc721a/contracts/ERC721A.sol\":14112:14133  _ownershipOf(tokenId) */\n      tag_234\n        /* \"erc721a/contracts/ERC721A.sol\":14125:14132  tokenId */\n      dup3\n        /* \"erc721a/contracts/ERC721A.sol\":14112:14124  _ownershipOf */\n      tag_164\n        /* \"erc721a/contracts/ERC721A.sol\":14112:14133  _ownershipOf(tokenId) */\n      jump\t// in\n    tag_234:\n        /* \"erc721a/contracts/ERC721A.sol\":14074:14133  TokenOwnership memory prevOwnership = _ownershipOf(tokenId) */\n      swap1\n      pop\n        /* \"erc721a/contracts/ERC721A.sol\":14170:14174  from */\n      dup4\n        /* \"erc721a/contracts/ERC721A.sol\":14148:14174  prevOwnership.addr != from */\n      0xffffffffffffffffffffffffffffffffffffffff\n      and\n        /* \"erc721a/contracts/ERC721A.sol\":14148:14161  prevOwnership */\n      dup2\n        /* \"erc721a/contracts/ERC721A.sol\":14148:14166  prevOwnership.addr */\n      0x00\n      add\n      mload\n        /* \"erc721a/contracts/ERC721A.sol\":14148:14174  prevOwnership.addr != from */\n      0xffffffffffffffffffffffffffffffffffffffff\n      and\n      eq\n        /* \"erc721a/contracts/ERC721A.sol\":14144:14211  if (prevOwnership.addr != from) revert TransferFromIncorrectOwner() */\n      tag_235\n      jumpi\n        /* \"erc721a/contracts/ERC721A.sol\":14183:14211  TransferFromIncorrectOwner() */\n      mload(0x40)\n      0xa114810000000000000000000000000000000000000000000000000000000000\n      dup2\n      mstore\n      0x04\n      add\n      mload(0x40)\n      dup1\n      swap2\n      sub\n      swap1\n      revert\n        /* \"erc721a/contracts/ERC721A.sol\":14144:14211  if (prevOwnership.addr != from) revert TransferFromIncorrectOwner() */\n    tag_235:\n        /* \"erc721a/contracts/ERC721A.sol\":14222:14244  bool isApprovedOrOwner */\n      0x00\n        /* \"erc721a/contracts/ERC721A.sol\":14264:14268  from */\n      dup5\n        /* \"erc721a/contracts/ERC721A.sol\":14248:14268  _msgSender() == from */\n      0xffffffffffffffffffffffffffffffffffffffff\n      and\n        /* \"erc721a/contracts/ERC721A.sol\":14248:14260  _msgSender() */\n      tag_236\n        /* \"erc721a/contracts/ERC721A.sol\":14248:14258  _msgSender */\n      tag_138\n        /* \"erc721a/contracts/ERC721A.sol\":14248:14260  _msgSender() */\n      jump\t// in\n    tag_236:\n        /* \"erc721a/contracts/ERC721A.sol\":14248:14268  _msgSender() == from */\n      0xffffffffffffffffffffffffffffffffffffffff\n      and\n      eq\n        /* \"erc721a/contracts/ERC721A.sol\":14248:14320  _msgSender() == from ||... */\n      dup1\n      tag_237\n      jumpi\n      pop\n        /* \"erc721a/contracts/ERC721A.sol\":14284:14320  isApprovedForAll(from, _msgSender()) */\n      tag_238\n        /* \"erc721a/contracts/ERC721A.sol\":14301:14305  from */\n      dup6\n        /* \"erc721a/contracts/ERC721A.sol\":14307:14319  _msgSender() */\n      tag_239\n        /* \"erc721a/contracts/ERC721A.sol\":14307:14317  _msgSender */\n      tag_138\n        /* \"erc721a/contracts/ERC721A.sol\":14307:14319  _msgSender() */\n      jump\t// in\n    tag_239:\n        /* \"erc721a/contracts/ERC721A.sol\":14284:14300  isApprovedForAll */\n      tag_111\n        /* \"erc721a/contracts/ERC721A.sol\":14284:14320  isApprovedForAll(from, _msgSender()) */\n      jump\t// in\n    tag_238:\n        /* \"erc721a/contracts/ERC721A.sol\":14248:14320  _msgSender() == from ||... */\n    tag_237:\n        /* \"erc721a/contracts/ERC721A.sol\":14248:14372  _msgSender() == from ||... */\n      dup1\n      tag_240\n      jumpi\n      pop\n        /* \"erc721a/contracts/ERC721A.sol\":14360:14372  _msgSender() */\n      tag_241\n        /* \"erc721a/contracts/ERC721A.sol\":14360:14370  _msgSender */\n      tag_138\n        /* \"erc721a/contracts/ERC721A.sol\":14360:14372  _msgSender() */\n      jump\t// in\n    tag_241:\n        /* \"erc721a/contracts/ERC721A.sol\":14336:14372  getApproved(tokenId) == _msgSender() */\n      0xffffffffffffffffffffffffffffffffffffffff\n      and\n        /* \"erc721a/contracts/ERC721A.sol\":14336:14356  getApproved(tokenId) */\n      tag_242\n        /* \"erc721a/contracts/ERC721A.sol\":14348:14355  tokenId */\n      dup5\n        /* \"erc721a/contracts/ERC721A.sol\":14336:14347  getApproved */\n      tag_40\n        /* \"erc721a/contracts/ERC721A.sol\":14336:14356  getApproved(tokenId) */\n      jump\t// in\n    tag_242:\n        /* \"erc721a/contracts/ERC721A.sol\":14336:14372  getApproved(tokenId) == _msgSender() */\n      0xffffffffffffffffffffffffffffffffffffffff\n      and\n      eq\n        /* \"erc721a/contracts/ERC721A.sol\":14248:14372  _msgSender() == from ||... */\n    tag_240:\n        /* \"erc721a/contracts/ERC721A.sol\":14222:14373  bool isApprovedOrOwner = (_msgSender() == from ||... */\n      swap1\n      pop\n        /* \"erc721a/contracts/ERC721A.sol\":14389:14406  isApprovedOrOwner */\n      dup1\n        /* \"erc721a/contracts/ERC721A.sol\":14384:14450  if (!isApprovedOrOwner) revert TransferCallerNotOwnerNorApproved() */\n      tag_243\n      jumpi\n        /* \"erc721a/contracts/ERC721A.sol\":14415:14450  TransferCallerNotOwnerNorApproved() */\n      mload(0x40)\n      0x59c896be00000000000000000000000000000000000000000000000000000000\n      dup2\n      mstore\n      0x04\n      add\n      mload(0x40)\n      dup1\n      swap2\n      sub\n      swap1\n      revert\n        /* \"erc721a/contracts/ERC721A.sol\":14384:14450  if (!isApprovedOrOwner) revert TransferCallerNotOwnerNorApproved() */\n    tag_243:\n        /* \"erc721a/contracts/ERC721A.sol\":14478:14479  0 */\n      0x00\n        /* \"erc721a/contracts/ERC721A.sol\":14464:14480  to == address(0) */\n      0xffffffffffffffffffffffffffffffffffffffff\n      and\n        /* \"erc721a/contracts/ERC721A.sol\":14464:14466  to */\n      dup5\n        /* \"erc721a/contracts/ERC721A.sol\":14464:14480  to == address(0) */\n      0xffffffffffffffffffffffffffffffffffffffff\n      and\n      sub\n        /* \"erc721a/contracts/ERC721A.sol\":14460:14512  if (to == address(0)) revert TransferToZeroAddress() */\n      tag_244\n      jumpi\n        /* \"erc721a/contracts/ERC721A.sol\":14489:14512  TransferToZeroAddress() */\n      mload(0x40)\n      0xea553b3400000000000000000000000000000000000000000000000000000000\n      dup2\n      mstore\n      0x04\n      add\n      mload(0x40)\n      dup1\n      swap2\n      sub\n      swap1\n      revert\n        /* \"erc721a/contracts/ERC721A.sol\":14460:14512  if (to == address(0)) revert TransferToZeroAddress() */\n    tag_244:\n        /* \"erc721a/contracts/ERC721A.sol\":14523:14566  _beforeTokenTransfers(from, to, tokenId, 1) */\n      tag_245\n        /* \"erc721a/contracts/ERC721A.sol\":14545:14549  from */\n      dup6\n        /* \"erc721a/contracts/ERC721A.sol\":14551:14553  to */\n      dup6\n        /* \"erc721a/contracts/ERC721A.sol\":14555:14562  tokenId */\n      dup6\n        /* \"erc721a/contracts/ERC721A.sol\":14564:14565  1 */\n      0x01\n        /* \"erc721a/contracts/ERC721A.sol\":14523:14544  _beforeTokenTransfers */\n      tag_246\n        /* \"erc721a/contracts/ERC721A.sol\":14523:14566  _beforeTokenTransfers(from, to, tokenId, 1) */\n      jump\t// in\n    tag_245:\n        /* \"erc721a/contracts/ERC721A.sol\":14628:14663  _approve(address(0), tokenId, from) */\n      tag_247\n        /* \"erc721a/contracts/ERC721A.sol\":14645:14646  0 */\n      0x00\n        /* \"erc721a/contracts/ERC721A.sol\":14649:14656  tokenId */\n      dup5\n        /* \"erc721a/contracts/ERC721A.sol\":14658:14662  from */\n      dup8\n        /* \"erc721a/contracts/ERC721A.sol\":14628:14636  _approve */\n      tag_144\n        /* \"erc721a/contracts/ERC721A.sol\":14628:14663  _approve(address(0), tokenId, from) */\n      jump\t// in\n    tag_247:\n        /* \"erc721a/contracts/ERC721A.sol\":14983:14984  1 */\n      0x01\n        /* \"erc721a/contracts/ERC721A.sol\":14953:14965  _addressData */\n      0x06\n        /* \"erc721a/contracts/ERC721A.sol\":14953:14971  _addressData[from] */\n      0x00\n        /* \"erc721a/contracts/ERC721A.sol\":14966:14970  from */\n      dup8\n        /* \"erc721a/contracts/ERC721A.sol\":14953:14971  _addressData[from] */\n      0xffffffffffffffffffffffffffffffffffffffff\n      and\n      0xffffffffffffffffffffffffffffffffffffffff\n      and\n      dup2\n      mstore\n      0x20\n      add\n      swap1\n      dup2\n      mstore\n      0x20\n      add\n      0x00\n      keccak256\n        /* \"erc721a/contracts/ERC721A.sol\":14953:14979  _addressData[from].balance */\n      0x00\n      add\n      0x00\n        /* \"erc721a/contracts/ERC721A.sol\":14953:14984  _addressData[from].balance -= 1 */\n      dup3\n      dup3\n      dup3\n      swap1\n      sload\n      swap1\n      0x0100\n      exp\n      swap1\n      div\n      0xffffffffffffffff\n      and\n      sub\n      swap3\n      pop\n      0x0100\n      exp\n      dup2\n      sload\n      dup2\n      0xffffffffffffffff\n      mul\n      not\n      and\n      swap1\n      dup4\n      0xffffffffffffffff\n      and\n      mul\n      or\n      swap1\n      sstore\n      pop\n        /* \"erc721a/contracts/ERC721A.sol\":15026:15027  1 */\n      0x01\n        /* \"erc721a/contracts/ERC721A.sol\":14998:15010  _addressData */\n      0x06\n        /* \"erc721a/contracts/ERC721A.sol\":14998:15014  _addressData[to] */\n      0x00\n        /* \"erc721a/contracts/ERC721A.sol\":15011:15013  to */\n      dup7\n        /* \"erc721a/contracts/ERC721A.sol\":14998:15014  _addressData[to] */\n      0xffffffffffffffffffffffffffffffffffffffff\n      and\n      0xffffffffffffffffffffffffffffffffffffffff\n      and\n      dup2\n      mstore\n      0x20\n      add\n      swap1\n      dup2\n      mstore\n      0x20\n      add\n      0x00\n      keccak256\n        /* \"erc721a/contracts/ERC721A.sol\":14998:15022  _addressData[to].balance */\n      0x00\n      add\n      0x00\n        /* \"erc721a/contracts/ERC721A.sol\":14998:15027  _addressData[to].balance += 1 */\n      dup3\n      dup3\n      dup3\n      swap1\n      sload\n      swap1\n      0x0100\n      exp\n      swap1\n      div\n      0xffffffffffffffff\n      and\n      add\n      swap3\n      pop\n      0x0100\n      exp\n      dup2\n      sload\n      dup2\n      0xffffffffffffffff\n      mul\n      not\n      and\n      swap1\n      dup4\n      0xffffffffffffffff\n      and\n      mul\n      or\n      swap1\n      sstore\n      pop\n        /* \"erc721a/contracts/ERC721A.sol\":15042:15073  TokenOwnership storage currSlot */\n      0x00\n        /* \"erc721a/contracts/ERC721A.sol\":15076:15087  _ownerships */\n      0x05\n        /* \"erc721a/contracts/ERC721A.sol\":15076:15096  _ownerships[tokenId] */\n      0x00\n        /* \"erc721a/contracts/ERC721A.sol\":15088:15095  tokenId */\n      dup6\n        /* \"erc721a/contracts/ERC721A.sol\":15076:15096  _ownerships[tokenId] */\n      dup2\n      mstore\n      0x20\n      add\n      swap1\n      dup2\n      mstore\n      0x20\n      add\n      0x00\n      keccak256\n        /* \"erc721a/contracts/ERC721A.sol\":15042:15096  TokenOwnership storage currSlot = _ownerships[tokenId] */\n      swap1\n      pop\n        /* \"erc721a/contracts/ERC721A.sol\":15126:15128  to */\n      dup5\n        /* \"erc721a/contracts/ERC721A.sol\":15110:15118  currSlot */\n      dup2\n        /* \"erc721a/contracts/ERC721A.sol\":15110:15123  currSlot.addr */\n      0x00\n      add\n      0x00\n        /* \"erc721a/contracts/ERC721A.sol\":15110:15128  currSlot.addr = to */\n      0x0100\n      exp\n      dup2\n      sload\n      dup2\n      0xffffffffffffffffffffffffffffffffffffffff\n      mul\n      not\n      and\n      swap1\n      dup4\n      0xffffffffffffffffffffffffffffffffffffffff\n      and\n      mul\n      or\n      swap1\n      sstore\n      pop\n        /* \"erc721a/contracts/ERC721A.sol\":15175:15190  block.timestamp */\n      timestamp\n        /* \"erc721a/contracts/ERC721A.sol\":15142:15150  currSlot */\n      dup2\n        /* \"erc721a/contracts/ERC721A.sol\":15142:15165  currSlot.startTimestamp */\n      0x00\n      add\n      0x14\n        /* \"erc721a/contracts/ERC721A.sol\":15142:15191  currSlot.startTimestamp = uint64(block.timestamp) */\n      0x0100\n      exp\n      dup2\n      sload\n      dup2\n      0xffffffffffffffff\n      mul\n      not\n      and\n      swap1\n      dup4\n      0xffffffffffffffff\n      and\n      mul\n      or\n      swap1\n      sstore\n      pop\n        /* \"erc721a/contracts/ERC721A.sol\":15439:15458  uint256 nextTokenId */\n      0x00\n        /* \"erc721a/contracts/ERC721A.sol\":15471:15472  1 */\n      0x01\n        /* \"erc721a/contracts/ERC721A.sol\":15461:15468  tokenId */\n      dup6\n        /* \"erc721a/contracts/ERC721A.sol\":15461:15472  tokenId + 1 */\n      add\n        /* \"erc721a/contracts/ERC721A.sol\":15439:15472  uint256 nextTokenId = tokenId + 1 */\n      swap1\n      pop\n        /* \"erc721a/contracts/ERC721A.sol\":15486:15517  TokenOwnership storage nextSlot */\n      0x00\n        /* \"erc721a/contracts/ERC721A.sol\":15520:15531  _ownerships */\n      0x05\n        /* \"erc721a/contracts/ERC721A.sol\":15520:15544  _ownerships[nextTokenId] */\n      0x00\n        /* \"erc721a/contracts/ERC721A.sol\":15532:15543  nextTokenId */\n      dup4\n        /* \"erc721a/contracts/ERC721A.sol\":15520:15544  _ownerships[nextTokenId] */\n      dup2\n      mstore\n      0x20\n      add\n      swap1\n      dup2\n      mstore\n      0x20\n      add\n      0x00\n      keccak256\n        /* \"erc721a/contracts/ERC721A.sol\":15486:15544  TokenOwnership storage nextSlot = _ownerships[nextTokenId] */\n      swap1\n      pop\n        /* \"erc721a/contracts/ERC721A.sol\":15587:15588  0 */\n      0x00\n        /* \"erc721a/contracts/ERC721A.sol\":15562:15589  nextSlot.addr == address(0) */\n      0xffffffffffffffffffffffffffffffffffffffff\n      and\n        /* \"erc721a/contracts/ERC721A.sol\":15562:15570  nextSlot */\n      dup2\n        /* \"erc721a/contracts/ERC721A.sol\":15562:15575  nextSlot.addr */\n      0x00\n      add\n      0x00\n      swap1\n      sload\n      swap1\n      0x0100\n      exp\n      swap1\n      div\n      0xffffffffffffffffffffffffffffffffffffffff\n      and\n        /* \"erc721a/contracts/ERC721A.sol\":15562:15589  nextSlot.addr == address(0) */\n      0xffffffffffffffffffffffffffffffffffffffff\n      and\n      sub\n        /* \"erc721a/contracts/ERC721A.sol\":15558:15935  if (nextSlot.addr == address(0)) {... */\n      tag_248\n      jumpi\n        /* \"erc721a/contracts/ERC721A.sol\":15769:15782  _currentIndex */\n      sload(0x01)\n        /* \"erc721a/contracts/ERC721A.sol\":15754:15765  nextTokenId */\n      dup3\n        /* \"erc721a/contracts/ERC721A.sol\":15754:15782  nextTokenId != _currentIndex */\n      eq\n        /* \"erc721a/contracts/ERC721A.sol\":15750:15921  if (nextTokenId != _currentIndex) {... */\n      tag_249\n      jumpi\n        /* \"erc721a/contracts/ERC721A.sol\":15822:15826  from */\n      dup8\n        /* \"erc721a/contracts/ERC721A.sol\":15806:15814  nextSlot */\n      dup2\n        /* \"erc721a/contracts/ERC721A.sol\":15806:15819  nextSlot.addr */\n      0x00\n      add\n      0x00\n        /* \"erc721a/contracts/ERC721A.sol\":15806:15826  nextSlot.addr = from */\n      0x0100\n      exp\n      dup2\n      sload\n      dup2\n      0xffffffffffffffffffffffffffffffffffffffff\n      mul\n      not\n      and\n      swap1\n      dup4\n      0xffffffffffffffffffffffffffffffffffffffff\n      and\n      mul\n      or\n      swap1\n      sstore\n      pop\n        /* \"erc721a/contracts/ERC721A.sol\":15874:15887  prevOwnership */\n      dup5\n        /* \"erc721a/contracts/ERC721A.sol\":15874:15902  prevOwnership.startTimestamp */\n      0x20\n      add\n      mload\n        /* \"erc721a/contracts/ERC721A.sol\":15848:15856  nextSlot */\n      dup2\n        /* \"erc721a/contracts/ERC721A.sol\":15848:15871  nextSlot.startTimestamp */\n      0x00\n      add\n      0x14\n        /* \"erc721a/contracts/ERC721A.sol\":15848:15902  nextSlot.startTimestamp = prevOwnership.startTimestamp */\n      0x0100\n      exp\n      dup2\n      sload\n      dup2\n      0xffffffffffffffff\n      mul\n      not\n      and\n      swap1\n      dup4\n      0xffffffffffffffff\n      and\n      mul\n      or\n      swap1\n      sstore\n      pop\n        /* \"erc721a/contracts/ERC721A.sol\":15750:15921  if (nextTokenId != _currentIndex) {... */\n    tag_249:\n        /* \"erc721a/contracts/ERC721A.sol\":15558:15935  if (nextSlot.addr == address(0)) {... */\n    tag_248:\n        /* \"erc721a/contracts/ERC721A.sol\":14929:15945  unchecked {... */\n      pop\n      pop\n      pop\n        /* \"erc721a/contracts/ERC721A.sol\":15979:15986  tokenId */\n      dup3\n        /* \"erc721a/contracts/ERC721A.sol\":15975:15977  to */\n      dup5\n        /* \"erc721a/contracts/ERC721A.sol\":15960:15987  Transfer(from, to, tokenId) */\n      0xffffffffffffffffffffffffffffffffffffffff\n      and\n        /* \"erc721a/contracts/ERC721A.sol\":15969:15973  from */\n      dup7\n        /* \"erc721a/contracts/ERC721A.sol\":15960:15987  Transfer(from, to, tokenId) */\n      0xffffffffffffffffffffffffffffffffffffffff\n      and\n      0xddf252ad1be2c89b69c2b068fc378daa952ba7f163c4a11628f55a4df523b3ef\n      mload(0x40)\n      mload(0x40)\n      dup1\n      swap2\n      sub\n      swap1\n      log4\n        /* \"erc721a/contracts/ERC721A.sol\":15997:16039  _afterTokenTransfers(from, to, tokenId, 1) */\n      tag_250\n        /* \"erc721a/contracts/ERC721A.sol\":16018:16022  from */\n      dup6\n        /* \"erc721a/contracts/ERC721A.sol\":16024:16026  to */\n      dup6\n        /* \"erc721a/contracts/ERC721A.sol\":16028:16035  tokenId */\n      dup6\n        /* \"erc721a/contracts/ERC721A.sol\":16037:16038  1 */\n      0x01\n        /* \"erc721a/contracts/ERC721A.sol\":15997:16017  _afterTokenTransfers */\n      tag_251\n        /* \"erc721a/contracts/ERC721A.sol\":15997:16039  _afterTokenTransfers(from, to, tokenId, 1) */\n      jump\t// in\n    tag_250:\n        /* \"erc721a/contracts/ERC721A.sol\":14064:16046  {... */\n      pop\n      pop\n        /* \"erc721a/contracts/ERC721A.sol\":13964:16046  function _transfer(... */\n      pop\n      pop\n      pop\n      jump\t// out\n        /* \"erc721a/contracts/ERC721A.sol\":6253:7337  function _ownershipOf(uint256 tokenId) internal view returns (TokenOwnership memory) {... */\n    tag_164:\n        /* \"erc721a/contracts/ERC721A.sol\":6315:6336  TokenOwnership memory */\n      tag_252\n      tag_253\n      jump\t// in\n    tag_252:\n        /* \"erc721a/contracts/ERC721A.sol\":6348:6360  uint256 curr */\n      0x00\n        /* \"erc721a/contracts/ERC721A.sol\":6363:6370  tokenId */\n      dup3\n        /* \"erc721a/contracts/ERC721A.sol\":6348:6370  uint256 curr = tokenId */\n      swap1\n      pop\n        /* \"erc721a/contracts/ERC721A.sol\":6428:6432  curr */\n      dup1\n        /* \"erc721a/contracts/ERC721A.sol\":6409:6424  _startTokenId() */\n      tag_255\n        /* \"erc721a/contracts/ERC721A.sol\":6409:6422  _startTokenId */\n      tag_147\n        /* \"erc721a/contracts/ERC721A.sol\":6409:6424  _startTokenId() */\n      jump\t// in\n    tag_255:\n        /* \"erc721a/contracts/ERC721A.sol\":6409:6432  _startTokenId() <= curr */\n      gt\n      iszero\n        /* \"erc721a/contracts/ERC721A.sol\":6409:6456  _startTokenId() <= curr && curr < _currentIndex */\n      dup1\n      iszero\n      tag_256\n      jumpi\n      pop\n        /* \"erc721a/contracts/ERC721A.sol\":6443:6456  _currentIndex */\n      sload(0x01)\n        /* \"erc721a/contracts/ERC721A.sol\":6436:6440  curr */\n      dup2\n        /* \"erc721a/contracts/ERC721A.sol\":6436:6456  curr < _currentIndex */\n      lt\n        /* \"erc721a/contracts/ERC721A.sol\":6409:6456  _startTokenId() <= curr && curr < _currentIndex */\n    tag_256:\n        /* \"erc721a/contracts/ERC721A.sol\":6405:7273  if (_startTokenId() <= curr && curr < _currentIndex) {... */\n      iszero\n      tag_257\n      jumpi\n        /* \"erc721a/contracts/ERC721A.sol\":6476:6507  TokenOwnership memory ownership */\n      0x00\n        /* \"erc721a/contracts/ERC721A.sol\":6510:6521  _ownerships */\n      0x05\n        /* \"erc721a/contracts/ERC721A.sol\":6510:6527  _ownerships[curr] */\n      0x00\n        /* \"erc721a/contracts/ERC721A.sol\":6522:6526  curr */\n      dup4\n        /* \"erc721a/contracts/ERC721A.sol\":6510:6527  _ownerships[curr] */\n      dup2\n      mstore\n      0x20\n      add\n      swap1\n      dup2\n      mstore\n      0x20\n      add\n      0x00\n      keccak256\n        /* \"erc721a/contracts/ERC721A.sol\":6476:6527  TokenOwnership memory ownership = _ownerships[curr] */\n      mload(0x40)\n      dup1\n      0x60\n      add\n      0x40\n      mstore\n      swap1\n      dup2\n      0x00\n      dup3\n      add\n      0x00\n      swap1\n      sload\n      swap1\n      0x0100\n      exp\n      swap1\n      div\n      0xffffffffffffffffffffffffffffffffffffffff\n      and\n      0xffffffffffffffffffffffffffffffffffffffff\n      and\n      0xffffffffffffffffffffffffffffffffffffffff\n      and\n      dup2\n      mstore\n      0x20\n      add\n      0x00\n      dup3\n      add\n      0x14\n      swap1\n      sload\n      swap1\n      0x0100\n      exp\n      swap1\n      div\n      0xffffffffffffffff\n      and\n      0xffffffffffffffff\n      and\n      0xffffffffffffffff\n      and\n      dup2\n      mstore\n      0x20\n      add\n      0x00\n      dup3\n      add\n      0x1c\n      swap1\n      sload\n      swap1\n      0x0100\n      exp\n      swap1\n      div\n      0xff\n      and\n      iszero\n      iszero\n      iszero\n      iszero\n      dup2\n      mstore\n      pop\n      pop\n      swap1\n      pop\n        /* \"erc721a/contracts/ERC721A.sol\":6550:6559  ownership */\n      dup1\n        /* \"erc721a/contracts/ERC721A.sol\":6550:6566  ownership.burned */\n      0x40\n      add\n      mload\n        /* \"erc721a/contracts/ERC721A.sol\":6545:7259  if (!ownership.burned) {... */\n      tag_258\n      jumpi\n        /* \"erc721a/contracts/ERC721A.sol\":6620:6621  0 */\n      0x00\n        /* \"erc721a/contracts/ERC721A.sol\":6594:6622  ownership.addr != address(0) */\n      0xffffffffffffffffffffffffffffffffffffffff\n      and\n        /* \"erc721a/contracts/ERC721A.sol\":6594:6603  ownership */\n      dup2\n        /* \"erc721a/contracts/ERC721A.sol\":6594:6608  ownership.addr */\n      0x00\n      add\n      mload\n        /* \"erc721a/contracts/ERC721A.sol\":6594:6622  ownership.addr != address(0) */\n      0xffffffffffffffffffffffffffffffffffffffff\n      and\n      eq\n        /* \"erc721a/contracts/ERC721A.sol\":6590:6689  if (ownership.addr != address(0)) {... */\n      tag_259\n      jumpi\n        /* \"erc721a/contracts/ERC721A.sol\":6657:6666  ownership */\n      dup1\n        /* \"erc721a/contracts/ERC721A.sol\":6650:6666  return ownership */\n      swap3\n      pop\n      pop\n      pop\n      jump(tag_254)\n        /* \"erc721a/contracts/ERC721A.sol\":6590:6689  if (ownership.addr != address(0)) {... */\n    tag_259:\n        /* \"erc721a/contracts/ERC721A.sol\":6986:7241  while (true) {... */\n    tag_260:\n        /* \"erc721a/contracts/ERC721A.sol\":6993:6997  true */\n      0x01\n        /* \"erc721a/contracts/ERC721A.sol\":6986:7241  while (true) {... */\n      iszero\n      tag_261\n      jumpi\n        /* \"erc721a/contracts/ERC721A.sol\":7025:7031  curr-- */\n      dup2\n      dup1\n      0x01\n      swap1\n      sub\n      swap3\n      pop\n      pop\n        /* \"erc721a/contracts/ERC721A.sol\":7069:7080  _ownerships */\n      0x05\n        /* \"erc721a/contracts/ERC721A.sol\":7069:7086  _ownerships[curr] */\n      0x00\n        /* \"erc721a/contracts/ERC721A.sol\":7081:7085  curr */\n      dup4\n        /* \"erc721a/contracts/ERC721A.sol\":7069:7086  _ownerships[curr] */\n      dup2\n      mstore\n      0x20\n      add\n      swap1\n      dup2\n      mstore\n      0x20\n      add\n      0x00\n      keccak256\n        /* \"erc721a/contracts/ERC721A.sol\":7057:7086  ownership = _ownerships[curr] */\n      mload(0x40)\n      dup1\n      0x60\n      add\n      0x40\n      mstore\n      swap1\n      dup2\n      0x00\n      dup3\n      add\n      0x00\n      swap1\n      sload\n      swap1\n      0x0100\n      exp\n      swap1\n      div\n      0xffffffffffffffffffffffffffffffffffffffff\n      and\n      0xffffffffffffffffffffffffffffffffffffffff\n      and\n      0xffffffffffffffffffffffffffffffffffffffff\n      and\n      dup2\n      mstore\n      0x20\n      add\n      0x00\n      dup3\n      add\n      0x14\n      swap1\n      sload\n      swap1\n      0x0100\n      exp\n      swap1\n      div\n      0xffffffffffffffff\n      and\n      0xffffffffffffffff\n      and\n      0xffffffffffffffff\n      and\n      dup2\n      mstore\n      0x20\n      add\n      0x00\n      dup3\n      add\n      0x1c\n      swap1\n      sload\n      swap1\n      0x0100\n      exp\n      swap1\n      div\n      0xff\n      and\n      iszero\n      iszero\n      iszero\n      iszero\n      dup2\n      mstore\n      pop\n      pop\n      swap1\n      pop\n        /* \"erc721a/contracts/ERC721A.sol\":7142:7143  0 */\n      0x00\n        /* \"erc721a/contracts/ERC721A.sol\":7116:7144  ownership.addr != address(0) */\n      0xffffffffffffffffffffffffffffffffffffffff\n      and\n        /* \"erc721a/contracts/ERC721A.sol\":7116:7125  ownership */\n      dup2\n        /* \"erc721a/contracts/ERC721A.sol\":7116:7130  ownership.addr */\n      0x00\n      add\n      mload\n        /* \"erc721a/contracts/ERC721A.sol\":7116:7144  ownership.addr != address(0) */\n      0xffffffffffffffffffffffffffffffffffffffff\n      and\n      eq\n        /* \"erc721a/contracts/ERC721A.sol\":7112:7219  if (ownership.addr != address(0)) {... */\n      tag_262\n      jumpi\n        /* \"erc721a/contracts/ERC721A.sol\":7183:7192  ownership */\n      dup1\n        /* \"erc721a/contracts/ERC721A.sol\":7176:7192  return ownership */\n      swap3\n      pop\n      pop\n      pop\n      jump(tag_254)\n        /* \"erc721a/contracts/ERC721A.sol\":7112:7219  if (ownership.addr != address(0)) {... */\n    tag_262:\n        /* \"erc721a/contracts/ERC721A.sol\":6986:7241  while (true) {... */\n      jump(tag_260)\n    tag_261:\n        /* \"erc721a/contracts/ERC721A.sol\":6545:7259  if (!ownership.burned) {... */\n    tag_258:\n        /* \"erc721a/contracts/ERC721A.sol\":6458:7273  {... */\n      pop\n        /* \"erc721a/contracts/ERC721A.sol\":6405:7273  if (_startTokenId() <= curr && curr < _currentIndex) {... */\n    tag_257:\n        /* \"erc721a/contracts/ERC721A.sol\":7299:7330  OwnerQueryForNonexistentToken() */\n      mload(0x40)\n      0xdf2d9b4200000000000000000000000000000000000000000000000000000000\n      dup2\n      mstore\n      0x04\n      add\n      mload(0x40)\n      dup1\n      swap2\n      sub\n      swap1\n      revert\n        /* \"erc721a/contracts/ERC721A.sol\":6253:7337  function _ownershipOf(uint256 tokenId) internal view returns (TokenOwnership memory) {... */\n    tag_254:\n      swap2\n      swap1\n      pop\n      jump\t// out\n        /* \"@openzeppelin/contracts/access/Ownable.sol\":2270:2457  function _transferOwnership(address newOwner) internal virtual {... */\n    tag_174:\n        /* \"@openzeppelin/contracts/access/Ownable.sol\":2343:2359  address oldOwner */\n      0x00\n        /* \"@openzeppelin/contracts/access/Ownable.sol\":2362:2368  _owner */\n      dup1\n      0x00\n      swap1\n      sload\n      swap1\n      0x0100\n      exp\n      swap1\n      div\n      0xffffffffffffffffffffffffffffffffffffffff\n      and\n        /* \"@openzeppelin/contracts/access/Ownable.sol\":2343:2368  address oldOwner = _owner */\n      swap1\n      pop\n        /* \"@openzeppelin/contracts/access/Ownable.sol\":2387:2395  newOwner */\n      dup2\n        /* \"@openzeppelin/contracts/access/Ownable.sol\":2378:2384  _owner */\n      0x00\n      dup1\n        /* \"@openzeppelin/contracts/access/Ownable.sol\":2378:2395  _owner = newOwner */\n      0x0100\n      exp\n      dup2\n      sload\n      dup2\n      0xffffffffffffffffffffffffffffffffffffffff\n      mul\n      not\n      and\n      swap1\n      dup4\n      0xffffffffffffffffffffffffffffffffffffffff\n      and\n      mul\n      or\n      swap1\n      sstore\n      pop\n        /* \"@openzeppelin/contracts/access/Ownable.sol\":2441:2449  newOwner */\n      dup2\n        /* \"@openzeppelin/contracts/access/Ownable.sol\":2410:2450  OwnershipTransferred(oldOwner, newOwner) */\n      0xffffffffffffffffffffffffffffffffffffffff\n      and\n        /* \"@openzeppelin/contracts/access/Ownable.sol\":2431:2439  oldOwner */\n      dup2\n        /* \"@openzeppelin/contracts/access/Ownable.sol\":2410:2450  OwnershipTransferred(oldOwner, newOwner) */\n      0xffffffffffffffffffffffffffffffffffffffff\n      and\n      0x8be0079c531659141344cd1fd0a4f28419497f9722a3daafe3b4186f6b6457e0\n      mload(0x40)\n      mload(0x40)\n      dup1\n      swap2\n      sub\n      swap1\n      log3\n        /* \"@openzeppelin/contracts/access/Ownable.sol\":2333:2457  {... */\n      pop\n        /* \"@openzeppelin/contracts/access/Ownable.sol\":2270:2457  function _transferOwnership(address newOwner) internal virtual {... */\n      pop\n      jump\t// out\n        /* \"erc721a/contracts/ERC721A.sol\":11132:11234  function _safeMint(address to, uint256 quantity) internal {... */\n    tag_184:\n        /* \"erc721a/contracts/ERC721A.sol\":11200:11227  _safeMint(to, quantity, '') */\n      tag_265\n        /* \"erc721a/contracts/ERC721A.sol\":11210:11212  to */\n      dup3\n        /* \"erc721a/contracts/ERC721A.sol\":11214:11222  quantity */\n      dup3\n        /* \"erc721a/contracts/ERC721A.sol\":11200:11227  _safeMint(to, quantity, '') */\n      mload(0x40)\n      dup1\n      0x20\n      add\n      0x40\n      mstore\n      dup1\n      0x00\n      dup2\n      mstore\n      pop\n        /* \"erc721a/contracts/ERC721A.sol\":11200:11209  _safeMint */\n      tag_266\n        /* \"erc721a/contracts/ERC721A.sol\":11200:11227  _safeMint(to, quantity, '') */\n      jump\t// in\n    tag_265:\n        /* \"erc721a/contracts/ERC721A.sol\":11132:11234  function _safeMint(address to, uint256 quantity) internal {... */\n      pop\n      pop\n      jump\t// out\n        /* \"@openzeppelin/contracts/utils/Address.sol\":1175:1495  function isContract(address account) internal view returns (bool) {... */\n    tag_194:\n        /* \"@openzeppelin/contracts/utils/Address.sol\":1235:1239  bool */\n      0x00\n        /* \"@openzeppelin/contracts/utils/Address.sol\":1487:1488  0 */\n      dup1\n        /* \"@openzeppelin/contracts/utils/Address.sol\":1465:1472  account */\n      dup3\n        /* \"@openzeppelin/contracts/utils/Address.sol\":1465:1484  account.code.length */\n      0xffffffffffffffffffffffffffffffffffffffff\n      and\n      extcodesize\n        /* \"@openzeppelin/contracts/utils/Address.sol\":1465:1488  account.code.length > 0 */\n      gt\n        /* \"@openzeppelin/contracts/utils/Address.sol\":1458:1488  return account.code.length > 0 */\n      swap1\n      pop\n        /* \"@openzeppelin/contracts/utils/Address.sol\":1175:1495  function isContract(address account) internal view returns (bool) {... */\n      swap2\n      swap1\n      pop\n      jump\t// out\n        /* \"erc721a/contracts/ERC721A.sol\":19564:20214  function _checkContractOnERC721Received(... */\n    tag_197:\n        /* \"erc721a/contracts/ERC721A.sol\":19722:19726  bool */\n      0x00\n        /* \"erc721a/contracts/ERC721A.sol\":19758:19760  to */\n      dup4\n        /* \"erc721a/contracts/ERC721A.sol\":19742:19778  IERC721Receiver(to).onERC721Received */\n      0xffffffffffffffffffffffffffffffffffffffff\n      and\n      0x150b7a02\n        /* \"erc721a/contracts/ERC721A.sol\":19779:19791  _msgSender() */\n      tag_269\n        /* \"erc721a/contracts/ERC721A.sol\":19779:19789  _msgSender */\n      tag_138\n        /* \"erc721a/contracts/ERC721A.sol\":19779:19791  _msgSender() */\n      jump\t// in\n    tag_269:\n        /* \"erc721a/contracts/ERC721A.sol\":19793:19797  from */\n      dup8\n        /* \"erc721a/contracts/ERC721A.sol\":19799:19806  tokenId */\n      dup7\n        /* \"erc721a/contracts/ERC721A.sol\":19808:19813  _data */\n      dup7\n        /* \"erc721a/contracts/ERC721A.sol\":19742:19814  IERC721Receiver(to).onERC721Received(_msgSender(), from, tokenId, _data) */\n      mload(0x40)\n      dup6\n      0xffffffff\n      and\n      0xe0\n      shl\n      dup2\n      mstore\n      0x04\n      add\n      tag_270\n      swap5\n      swap4\n      swap3\n      swap2\n      swap1\n      tag_271\n      jump\t// in\n    tag_270:\n      0x20\n      mload(0x40)\n      dup1\n      dup4\n      sub\n      dup2\n      0x00\n      dup8\n      gas\n      call\n      swap3\n      pop\n      pop\n      pop\n      dup1\n      iszero\n      tag_272\n      jumpi\n      pop\n      mload(0x40)\n      returndatasize\n      not(0x1f)\n      0x1f\n      dup3\n      add\n      and\n      dup3\n      add\n      dup1\n      0x40\n      mstore\n      pop\n      dup2\n      add\n      swap1\n      tag_273\n      swap2\n      swap1\n      tag_274\n      jump\t// in\n    tag_273:\n      0x01\n    tag_272:\n        /* \"erc721a/contracts/ERC721A.sol\":19738:20208  try IERC721Receiver(to).onERC721Received(_msgSender(), from, tokenId, _data) returns (bytes4 retval) {... */\n      tag_275\n      jumpi\n      returndatasize\n      dup1\n      0x00\n      dup2\n      eq\n      tag_280\n      jumpi\n      mload(0x40)\n      swap2\n      pop\n      and(add(returndatasize, 0x3f), not(0x1f))\n      dup3\n      add\n      0x40\n      mstore\n      returndatasize\n      dup3\n      mstore\n      returndatasize\n      0x00\n      0x20\n      dup5\n      add\n      returndatacopy\n      jump(tag_279)\n    tag_280:\n      0x60\n      swap2\n      pop\n    tag_279:\n      pop\n        /* \"erc721a/contracts/ERC721A.sol\":19990:19991  0 */\n      0x00\n        /* \"erc721a/contracts/ERC721A.sol\":19973:19979  reason */\n      dup2\n        /* \"erc721a/contracts/ERC721A.sol\":19973:19986  reason.length */\n      mload\n        /* \"erc721a/contracts/ERC721A.sol\":19973:19991  reason.length == 0 */\n      sub\n        /* \"erc721a/contracts/ERC721A.sol\":19969:20198  if (reason.length == 0) {... */\n      tag_281\n      jumpi\n        /* \"erc721a/contracts/ERC721A.sol\":20018:20058  TransferToNonERC721ReceiverImplementer() */\n      mload(0x40)\n      0xd1a57ed600000000000000000000000000000000000000000000000000000000\n      dup2\n      mstore\n      0x04\n      add\n      mload(0x40)\n      dup1\n      swap2\n      sub\n      swap1\n      revert\n        /* \"erc721a/contracts/ERC721A.sol\":19969:20198  if (reason.length == 0) {... */\n    tag_281:\n        /* \"erc721a/contracts/ERC721A.sol\":20158:20164  reason */\n      dup1\n        /* \"erc721a/contracts/ERC721A.sol\":20152:20165  mload(reason) */\n      mload\n        /* \"erc721a/contracts/ERC721A.sol\":20143:20149  reason */\n      dup2\n        /* \"erc721a/contracts/ERC721A.sol\":20139:20141  32 */\n      0x20\n        /* \"erc721a/contracts/ERC721A.sol\":20135:20150  add(32, reason) */\n      add\n        /* \"erc721a/contracts/ERC721A.sol\":20128:20166  revert(add(32, reason), mload(reason)) */\n      revert\n        /* \"erc721a/contracts/ERC721A.sol\":19738:20208  try IERC721Receiver(to).onERC721Received(_msgSender(), from, tokenId, _data) returns (bytes4 retval) {... */\n    tag_275:\n        /* \"erc721a/contracts/ERC721A.sol\":19870:19915  IERC721Receiver(to).onERC721Received.selector */\n      shl(0xe0, 0x150b7a02)\n        /* \"erc721a/contracts/ERC721A.sol\":19860:19915  retval == IERC721Receiver(to).onERC721Received.selector */\n      not(0xffffffffffffffffffffffffffffffffffffffffffffffffffffffff)\n      and\n        /* \"erc721a/contracts/ERC721A.sol\":19860:19866  retval */\n      dup2\n        /* \"erc721a/contracts/ERC721A.sol\":19860:19915  retval == IERC721Receiver(to).onERC721Received.selector */\n      not(0xffffffffffffffffffffffffffffffffffffffffffffffffffffffff)\n      and\n      eq\n        /* \"erc721a/contracts/ERC721A.sol\":19853:19915  return retval == IERC721Receiver(to).onERC721Received.selector */\n      swap2\n      pop\n      pop\n        /* \"erc721a/contracts/ERC721A.sol\":19564:20214  function _checkContractOnERC721Received(... */\n      swap5\n      swap4\n      pop\n      pop\n      pop\n      pop\n      jump\t// out\n        /* \"rotatingcube.sol\":520:626  function _baseURI() internal view virtual override returns (string memory) {... */\n    tag_203:\n        /* \"rotatingcube.sol\":580:593  string memory */\n      0x60\n        /* \"rotatingcube.sol\":608:621  _baseTokenURI */\n      0x09\n        /* \"rotatingcube.sol\":601:621  return _baseTokenURI */\n      dup1\n      sload\n      tag_285\n      swap1\n      tag_125\n      jump\t// in\n    tag_285:\n      dup1\n      0x1f\n      add\n      0x20\n      dup1\n      swap2\n      div\n      mul\n      0x20\n      add\n      mload(0x40)\n      swap1\n      dup2\n      add\n      0x40\n      mstore\n      dup1\n      swap3\n      swap2\n      swap1\n      dup2\n      dup2\n      mstore\n      0x20\n      add\n      dup3\n      dup1\n      sload\n      tag_286\n      swap1\n      tag_125\n      jump\t// in\n    tag_286:\n      dup1\n      iszero\n      tag_287\n      jumpi\n      dup1\n      0x1f\n      lt\n      tag_288\n      jumpi\n      0x0100\n      dup1\n      dup4\n      sload\n      div\n      mul\n      dup4\n      mstore\n      swap2\n      0x20\n      add\n      swap2\n      jump(tag_287)\n    tag_288:\n      dup3\n      add\n      swap2\n      swap1\n      0x00\n      mstore\n      keccak256(0x00, 0x20)\n      swap1\n    tag_289:\n      dup2\n      sload\n      dup2\n      mstore\n      swap1\n      0x01\n      add\n      swap1\n      0x20\n      add\n      dup1\n      dup4\n      gt\n      tag_289\n      jumpi\n      dup3\n      swap1\n      sub\n      0x1f\n      and\n      dup3\n      add\n      swap2\n    tag_287:\n      pop\n      pop\n      pop\n      pop\n      pop\n      swap1\n      pop\n        /* \"rotatingcube.sol\":520:626  function _baseURI() internal view virtual override returns (string memory) {... */\n      swap1\n      jump\t// out\n        /* \"@openzeppelin/contracts/utils/Strings.sol\":328:1031  function toString(uint256 value) internal pure returns (string memory) {... */\n    tag_207:\n        /* \"@openzeppelin/contracts/utils/Strings.sol\":384:397  string memory */\n      0x60\n        /* \"@openzeppelin/contracts/utils/Strings.sol\":610:611  0 */\n      0x00\n        /* \"@openzeppelin/contracts/utils/Strings.sol\":601:606  value */\n      dup3\n        /* \"@openzeppelin/contracts/utils/Strings.sol\":601:611  value == 0 */\n      sub\n        /* \"@openzeppelin/contracts/utils/Strings.sol\":597:648  if (value == 0) {... */\n      tag_291\n      jumpi\n        /* \"@openzeppelin/contracts/utils/Strings.sol\":627:637  return \"0\" */\n      mload(0x40)\n      dup1\n      0x40\n      add\n      0x40\n      mstore\n      dup1\n      0x01\n      dup2\n      mstore\n      0x20\n      add\n      0x3000000000000000000000000000000000000000000000000000000000000000\n      dup2\n      mstore\n      pop\n      swap1\n      pop\n      jump(tag_290)\n        /* \"@openzeppelin/contracts/utils/Strings.sol\":597:648  if (value == 0) {... */\n    tag_291:\n        /* \"@openzeppelin/contracts/utils/Strings.sol\":657:669  uint256 temp */\n      0x00\n        /* \"@openzeppelin/contracts/utils/Strings.sol\":672:677  value */\n      dup3\n        /* \"@openzeppelin/contracts/utils/Strings.sol\":657:677  uint256 temp = value */\n      swap1\n      pop\n        /* \"@openzeppelin/contracts/utils/Strings.sol\":687:701  uint256 digits */\n      0x00\n        /* \"@openzeppelin/contracts/utils/Strings.sol\":711:786  while (temp != 0) {... */\n    tag_292:\n        /* \"@openzeppelin/contracts/utils/Strings.sol\":726:727  0 */\n      0x00\n        /* \"@openzeppelin/contracts/utils/Strings.sol\":718:722  temp */\n      dup3\n        /* \"@openzeppelin/contracts/utils/Strings.sol\":718:727  temp != 0 */\n      eq\n        /* \"@openzeppelin/contracts/utils/Strings.sol\":711:786  while (temp != 0) {... */\n      tag_293\n      jumpi\n        /* \"@openzeppelin/contracts/utils/Strings.sol\":743:751  digits++ */\n      dup1\n      dup1\n      tag_294\n      swap1\n      tag_295\n      jump\t// in\n    tag_294:\n      swap2\n      pop\n      pop\n        /* \"@openzeppelin/contracts/utils/Strings.sol\":773:775  10 */\n      0x0a\n        /* \"@openzeppelin/contracts/utils/Strings.sol\":765:775  temp /= 10 */\n      dup3\n      tag_296\n      swap2\n      swap1\n      tag_297\n      jump\t// in\n    tag_296:\n      swap2\n      pop\n        /* \"@openzeppelin/contracts/utils/Strings.sol\":711:786  while (temp != 0) {... */\n      jump(tag_292)\n    tag_293:\n        /* \"@openzeppelin/contracts/utils/Strings.sol\":795:814  bytes memory buffer */\n      0x00\n        /* \"@openzeppelin/contracts/utils/Strings.sol\":827:833  digits */\n      dup2\n        /* \"@openzeppelin/contracts/utils/Strings.sol\":817:834  new bytes(digits) */\n      0xffffffffffffffff\n      dup2\n      gt\n      iszero\n      tag_298\n      jumpi\n      tag_299\n      tag_300\n      jump\t// in\n    tag_299:\n    tag_298:\n      mload(0x40)\n      swap1\n      dup1\n      dup3\n      mstore\n      dup1\n      0x1f\n      add\n      not(0x1f)\n      and\n      0x20\n      add\n      dup3\n      add\n      0x40\n      mstore\n      dup1\n      iszero\n      tag_301\n      jumpi\n      dup2\n      0x20\n      add\n      0x01\n      dup3\n      mul\n      dup1\n      calldatasize\n      dup4\n      calldatacopy\n      dup1\n      dup3\n      add\n      swap2\n      pop\n      pop\n      swap1\n      pop\n    tag_301:\n      pop\n        /* \"@openzeppelin/contracts/utils/Strings.sol\":795:834  bytes memory buffer = new bytes(digits) */\n      swap1\n      pop\n        /* \"@openzeppelin/contracts/utils/Strings.sol\":844:994  while (value != 0) {... */\n    tag_302:\n        /* \"@openzeppelin/contracts/utils/Strings.sol\":860:861  0 */\n      0x00\n        /* \"@openzeppelin/contracts/utils/Strings.sol\":851:856  value */\n      dup6\n        /* \"@openzeppelin/contracts/utils/Strings.sol\":851:861  value != 0 */\n      eq\n        /* \"@openzeppelin/contracts/utils/Strings.sol\":844:994  while (value != 0) {... */\n      tag_303\n      jumpi\n        /* \"@openzeppelin/contracts/utils/Strings.sol\":887:888  1 */\n      0x01\n        /* \"@openzeppelin/contracts/utils/Strings.sol\":877:888  digits -= 1 */\n      dup3\n      tag_304\n      swap2\n      swap1\n      tag_305\n      jump\t// in\n    tag_304:\n      swap2\n      pop\n        /* \"@openzeppelin/contracts/utils/Strings.sol\":953:955  10 */\n      0x0a\n        /* \"@openzeppelin/contracts/utils/Strings.sol\":945:950  value */\n      dup6\n        /* \"@openzeppelin/contracts/utils/Strings.sol\":945:955  value % 10 */\n      tag_306\n      swap2\n      swap1\n      tag_307\n      jump\t// in\n    tag_306:\n        /* \"@openzeppelin/contracts/utils/Strings.sol\":932:934  48 */\n      0x30\n        /* \"@openzeppelin/contracts/utils/Strings.sol\":932:956  48 + uint256(value % 10) */\n      tag_308\n      swap2\n      swap1\n      tag_309\n      jump\t// in\n    tag_308:\n        /* \"@openzeppelin/contracts/utils/Strings.sol\":919:958  bytes1(uint8(48 + uint256(value % 10))) */\n      0xf8\n      shl\n        /* \"@openzeppelin/contracts/utils/Strings.sol\":902:908  buffer */\n      dup2\n        /* \"@openzeppelin/contracts/utils/Strings.sol\":909:915  digits */\n      dup4\n        /* \"@openzeppelin/contracts/utils/Strings.sol\":902:916  buffer[digits] */\n      dup2\n      mload\n      dup2\n      lt\n      tag_310\n      jumpi\n      tag_311\n      tag_312\n      jump\t// in\n    tag_311:\n    tag_310:\n      0x20\n      add\n      add\n        /* \"@openzeppelin/contracts/utils/Strings.sol\":902:958  buffer[digits] = bytes1(uint8(48 + uint256(value % 10))) */\n      swap1\n      not(0xffffffffffffffffffffffffffffffffffffffffffffffffffffffffffffff)\n      and\n      swap1\n      dup2\n      0x00\n      byte\n      swap1\n      mstore8\n      pop\n        /* \"@openzeppelin/contracts/utils/Strings.sol\":981:983  10 */\n      0x0a\n        /* \"@openzeppelin/contracts/utils/Strings.sol\":972:983  value /= 10 */\n      dup6\n      tag_313\n      swap2\n      swap1\n      tag_297\n      jump\t// in\n    tag_313:\n      swap5\n      pop\n        /* \"@openzeppelin/contracts/utils/Strings.sol\":844:994  while (value != 0) {... */\n      jump(tag_302)\n    tag_303:\n        /* \"@openzeppelin/contracts/utils/Strings.sol\":1017:1023  buffer */\n      dup1\n        /* \"@openzeppelin/contracts/utils/Strings.sol\":1003:1024  return string(buffer) */\n      swap4\n      pop\n      pop\n      pop\n      pop\n        /* \"@openzeppelin/contracts/utils/Strings.sol\":328:1031  function toString(uint256 value) internal pure returns (string memory) {... */\n    tag_290:\n      swap2\n      swap1\n      pop\n      jump\t// out\n        /* \"@openzeppelin/contracts/utils/introspection/ERC165.sol\":829:984  function supportsInterface(bytes4 interfaceId) public view virtual override returns (bool) {... */\n    tag_225:\n        /* \"@openzeppelin/contracts/utils/introspection/ERC165.sol\":914:918  bool */\n      0x00\n        /* \"@openzeppelin/contracts/utils/introspection/ERC165.sol\":952:977  type(IERC165).interfaceId */\n      0x01ffc9a700000000000000000000000000000000000000000000000000000000\n        /* \"@openzeppelin/contracts/utils/introspection/ERC165.sol\":937:977  interfaceId == type(IERC165).interfaceId */\n      not(0xffffffffffffffffffffffffffffffffffffffffffffffffffffffff)\n      and\n        /* \"@openzeppelin/contracts/utils/introspection/ERC165.sol\":937:948  interfaceId */\n      dup3\n        /* \"@openzeppelin/contracts/utils/introspection/ERC165.sol\":937:977  interfaceId == type(IERC165).interfaceId */\n      not(0xffffffffffffffffffffffffffffffffffffffffffffffffffffffff)\n      and\n      eq\n        /* \"@openzeppelin/contracts/utils/introspection/ERC165.sol\":930:977  return interfaceId == type(IERC165).interfaceId */\n      swap1\n      pop\n        /* \"@openzeppelin/contracts/utils/introspection/ERC165.sol\":829:984  function supportsInterface(bytes4 interfaceId) public view virtual override returns (bool) {... */\n      swap2\n      swap1\n      pop\n      jump\t// out\n        /* \"erc721a/contracts/ERC721A.sol\":20845:20999  function _beforeTokenTransfers(... */\n    tag_246:\n      pop\n      pop\n      pop\n      pop\n      jump\t// out\n        /* \"erc721a/contracts/ERC721A.sol\":21640:21793  function _afterTokenTransfers(... */\n    tag_251:\n      pop\n      pop\n      pop\n      pop\n      jump\t// out\n        /* \"erc721a/contracts/ERC721A.sol\":11585:11742  function _safeMint(... */\n    tag_266:\n        /* \"erc721a/contracts/ERC721A.sol\":11703:11735  _mint(to, quantity, _data, true) */\n      tag_318\n        /* \"erc721a/contracts/ERC721A.sol\":11709:11711  to */\n      dup4\n        /* \"erc721a/contracts/ERC721A.sol\":11713:11721  quantity */\n      dup4\n        /* \"erc721a/contracts/ERC721A.sol\":11723:11728  _data */\n      dup4\n        /* \"erc721a/contracts/ERC721A.sol\":11730:11734  true */\n      0x01\n        /* \"erc721a/contracts/ERC721A.sol\":11703:11708  _mint */\n      tag_319\n        /* \"erc721a/contracts/ERC721A.sol\":11703:11735  _mint(to, quantity, _data, true) */\n      jump\t// in\n    tag_318:\n        /* \"erc721a/contracts/ERC721A.sol\":11585:11742  function _safeMint(... */\n      pop\n      pop\n      pop\n      jump\t// out\n        /* \"erc721a/contracts/ERC721A.sol\":11989:13722  function _mint(... */\n    tag_319:\n        /* \"erc721a/contracts/ERC721A.sol\":12122:12142  uint256 startTokenId */\n      0x00\n        /* \"erc721a/contracts/ERC721A.sol\":12145:12158  _currentIndex */\n      sload(0x01)\n        /* \"erc721a/contracts/ERC721A.sol\":12122:12158  uint256 startTokenId = _currentIndex */\n      swap1\n      pop\n        /* \"erc721a/contracts/ERC721A.sol\":12186:12187  0 */\n      0x00\n        /* \"erc721a/contracts/ERC721A.sol\":12172:12188  to == address(0) */\n      0xffffffffffffffffffffffffffffffffffffffff\n      and\n        /* \"erc721a/contracts/ERC721A.sol\":12172:12174  to */\n      dup6\n        /* \"erc721a/contracts/ERC721A.sol\":12172:12188  to == address(0) */\n      0xffffffffffffffffffffffffffffffffffffffff\n      and\n      sub\n        /* \"erc721a/contracts/ERC721A.sol\":12168:12216  if (to == address(0)) revert MintToZeroAddress() */\n      tag_321\n      jumpi\n        /* \"erc721a/contracts/ERC721A.sol\":12197:12216  MintToZeroAddress() */\n      mload(0x40)\n      0x2e07630000000000000000000000000000000000000000000000000000000000\n      dup2\n      mstore\n      0x04\n      add\n      mload(0x40)\n      dup1\n      swap2\n      sub\n      swap1\n      revert\n        /* \"erc721a/contracts/ERC721A.sol\":12168:12216  if (to == address(0)) revert MintToZeroAddress() */\n    tag_321:\n        /* \"erc721a/contracts/ERC721A.sol\":12242:12243  0 */\n      0x00\n        /* \"erc721a/contracts/ERC721A.sol\":12230:12238  quantity */\n      dup5\n        /* \"erc721a/contracts/ERC721A.sol\":12230:12243  quantity == 0 */\n      sub\n        /* \"erc721a/contracts/ERC721A.sol\":12226:12270  if (quantity == 0) revert MintZeroQuantity() */\n      tag_322\n      jumpi\n        /* \"erc721a/contracts/ERC721A.sol\":12252:12270  MintZeroQuantity() */\n      mload(0x40)\n      0xb562e8dd00000000000000000000000000000000000000000000000000000000\n      dup2\n      mstore\n      0x04\n      add\n      mload(0x40)\n      dup1\n      swap2\n      sub\n      swap1\n      revert\n        /* \"erc721a/contracts/ERC721A.sol\":12226:12270  if (quantity == 0) revert MintZeroQuantity() */\n    tag_322:\n        /* \"erc721a/contracts/ERC721A.sol\":12281:12342  _beforeTokenTransfers(address(0), to, startTokenId, quantity) */\n      tag_323\n        /* \"erc721a/contracts/ERC721A.sol\":12311:12312  0 */\n      0x00\n        /* \"erc721a/contracts/ERC721A.sol\":12315:12317  to */\n      dup7\n        /* \"erc721a/contracts/ERC721A.sol\":12319:12331  startTokenId */\n      dup4\n        /* \"erc721a/contracts/ERC721A.sol\":12333:12341  quantity */\n      dup8\n        /* \"erc721a/contracts/ERC721A.sol\":12281:12302  _beforeTokenTransfers */\n      tag_246\n        /* \"erc721a/contracts/ERC721A.sol\":12281:12342  _beforeTokenTransfers(address(0), to, startTokenId, quantity) */\n      jump\t// in\n    tag_323:\n        /* \"erc721a/contracts/ERC721A.sol\":12648:12656  quantity */\n      dup4\n        /* \"erc721a/contracts/ERC721A.sol\":12613:12625  _addressData */\n      0x06\n        /* \"erc721a/contracts/ERC721A.sol\":12613:12629  _addressData[to] */\n      0x00\n        /* \"erc721a/contracts/ERC721A.sol\":12626:12628  to */\n      dup8\n        /* \"erc721a/contracts/ERC721A.sol\":12613:12629  _addressData[to] */\n      0xffffffffffffffffffffffffffffffffffffffff\n      and\n      0xffffffffffffffffffffffffffffffffffffffff\n      and\n      dup2\n      mstore\n      0x20\n      add\n      swap1\n      dup2\n      mstore\n      0x20\n      add\n      0x00\n      keccak256\n        /* \"erc721a/contracts/ERC721A.sol\":12613:12637  _addressData[to].balance */\n      0x00\n      add\n      0x00\n        /* \"erc721a/contracts/ERC721A.sol\":12613:12657  _addressData[to].balance += uint64(quantity) */\n      dup3\n      dup3\n      dup3\n      swap1\n      sload\n      swap1\n      0x0100\n      exp\n      swap1\n      div\n      0xffffffffffffffff\n      and\n      add\n      swap3\n      pop\n      0x0100\n      exp\n      dup2\n      sload\n      dup2\n      0xffffffffffffffff\n      mul\n      not\n      and\n      swap1\n      dup4\n      0xffffffffffffffff\n      and\n      mul\n      or\n      swap1\n      sstore\n      pop\n        /* \"erc721a/contracts/ERC721A.sol\":12711:12719  quantity */\n      dup4\n        /* \"erc721a/contracts/ERC721A.sol\":12671:12683  _addressData */\n      0x06\n        /* \"erc721a/contracts/ERC721A.sol\":12671:12687  _addressData[to] */\n      0x00\n        /* \"erc721a/contracts/ERC721A.sol\":12684:12686  to */\n      dup8\n        /* \"erc721a/contracts/ERC721A.sol\":12671:12687  _addressData[to] */\n      0xffffffffffffffffffffffffffffffffffffffff\n      and\n      0xffffffffffffffffffffffffffffffffffffffff\n      and\n      dup2\n      mstore\n      0x20\n      add\n      swap1\n      dup2\n      mstore\n      0x20\n      add\n      0x00\n      keccak256\n        /* \"erc721a/contracts/ERC721A.sol\":12671:12700  _addressData[to].numberMinted */\n      0x00\n      add\n      0x08\n        /* \"erc721a/contracts/ERC721A.sol\":12671:12720  _addressData[to].numberMinted += uint64(quantity) */\n      dup3\n      dup3\n      dup3\n      swap1\n      sload\n      swap1\n      0x0100\n      exp\n      swap1\n      div\n      0xffffffffffffffff\n      and\n      add\n      swap3\n      pop\n      0x0100\n      exp\n      dup2\n      sload\n      dup2\n      0xffffffffffffffff\n      mul\n      not\n      and\n      swap1\n      dup4\n      0xffffffffffffffff\n      and\n      mul\n      or\n      swap1\n      sstore\n      pop\n        /* \"erc721a/contracts/ERC721A.sol\":12768:12770  to */\n      dup5\n        /* \"erc721a/contracts/ERC721A.sol\":12735:12746  _ownerships */\n      0x05\n        /* \"erc721a/contracts/ERC721A.sol\":12735:12760  _ownerships[startTokenId] */\n      0x00\n        /* \"erc721a/contracts/ERC721A.sol\":12747:12759  startTokenId */\n      dup4\n        /* \"erc721a/contracts/ERC721A.sol\":12735:12760  _ownerships[startTokenId] */\n      dup2\n      mstore\n      0x20\n      add\n      swap1\n      dup2\n      mstore\n      0x20\n      add\n      0x00\n      keccak256\n        /* \"erc721a/contracts/ERC721A.sol\":12735:12765  _ownerships[startTokenId].addr */\n      0x00\n      add\n      0x00\n        /* \"erc721a/contracts/ERC721A.sol\":12735:12770  _ownerships[startTokenId].addr = to */\n      0x0100\n      exp\n      dup2\n      sload\n      dup2\n      0xffffffffffffffffffffffffffffffffffffffff\n      mul\n      not\n      and\n      swap1\n      dup4\n      0xffffffffffffffffffffffffffffffffffffffff\n      and\n      mul\n      or\n      swap1\n      sstore\n      pop\n        /* \"erc721a/contracts/ERC721A.sol\":12834:12849  block.timestamp */\n      timestamp\n        /* \"erc721a/contracts/ERC721A.sol\":12784:12795  _ownerships */\n      0x05\n        /* \"erc721a/contracts/ERC721A.sol\":12784:12809  _ownerships[startTokenId] */\n      0x00\n        /* \"erc721a/contracts/ERC721A.sol\":12796:12808  startTokenId */\n      dup4\n        /* \"erc721a/contracts/ERC721A.sol\":12784:12809  _ownerships[startTokenId] */\n      dup2\n      mstore\n      0x20\n      add\n      swap1\n      dup2\n      mstore\n      0x20\n      add\n      0x00\n      keccak256\n        /* \"erc721a/contracts/ERC721A.sol\":12784:12824  _ownerships[startTokenId].startTimestamp */\n      0x00\n      add\n      0x14\n        /* \"erc721a/contracts/ERC721A.sol\":12784:12850  _ownerships[startTokenId].startTimestamp = uint64(block.timestamp) */\n      0x0100\n      exp\n      dup2\n      sload\n      dup2\n      0xffffffffffffffff\n      mul\n      not\n      and\n      swap1\n      dup4\n      0xffffffffffffffff\n      and\n      mul\n      or\n      swap1\n      sstore\n      pop\n        /* \"erc721a/contracts/ERC721A.sol\":12865:12885  uint256 updatedIndex */\n      0x00\n        /* \"erc721a/contracts/ERC721A.sol\":12888:12900  startTokenId */\n      dup2\n        /* \"erc721a/contracts/ERC721A.sol\":12865:12900  uint256 updatedIndex = startTokenId */\n      swap1\n      pop\n        /* \"erc721a/contracts/ERC721A.sol\":12914:12925  uint256 end */\n      0x00\n        /* \"erc721a/contracts/ERC721A.sol\":12943:12951  quantity */\n      dup6\n        /* \"erc721a/contracts/ERC721A.sol\":12928:12940  updatedIndex */\n      dup3\n        /* \"erc721a/contracts/ERC721A.sol\":12928:12951  updatedIndex + quantity */\n      add\n        /* \"erc721a/contracts/ERC721A.sol\":12914:12951  uint256 end = updatedIndex + quantity */\n      swap1\n      pop\n        /* \"erc721a/contracts/ERC721A.sol\":12970:12974  safe */\n      dup4\n        /* \"erc721a/contracts/ERC721A.sol\":12970:12993  safe && to.isContract() */\n      dup1\n      iszero\n      tag_324\n      jumpi\n      pop\n        /* \"erc721a/contracts/ERC721A.sol\":12978:12993  to.isContract() */\n      tag_325\n        /* \"erc721a/contracts/ERC721A.sol\":12978:12980  to */\n      dup8\n        /* \"erc721a/contracts/ERC721A.sol\":12978:12991  to.isContract */\n      0xffffffffffffffffffffffffffffffffffffffff\n      and\n      tag_194\n        /* \"erc721a/contracts/ERC721A.sol\":12978:12993  to.isContract() */\n      jump\t// in\n    tag_325:\n        /* \"erc721a/contracts/ERC721A.sol\":12970:12993  safe && to.isContract() */\n    tag_324:\n        /* \"erc721a/contracts/ERC721A.sol\":12966:13594  if (safe && to.isContract()) {... */\n      iszero\n      tag_326\n      jumpi\n        /* \"erc721a/contracts/ERC721A.sol\":13013:13322  do {... */\n    tag_327:\n        /* \"erc721a/contracts/ERC721A.sol\":13068:13080  updatedIndex */\n      dup2\n        /* \"erc721a/contracts/ERC721A.sol\":13064:13066  to */\n      dup8\n        /* \"erc721a/contracts/ERC721A.sol\":13043:13081  Transfer(address(0), to, updatedIndex) */\n      0xffffffffffffffffffffffffffffffffffffffff\n      and\n        /* \"erc721a/contracts/ERC721A.sol\":13060:13061  0 */\n      0x00\n        /* \"erc721a/contracts/ERC721A.sol\":13043:13081  Transfer(address(0), to, updatedIndex) */\n      0xffffffffffffffffffffffffffffffffffffffff\n      and\n      0xddf252ad1be2c89b69c2b068fc378daa952ba7f163c4a11628f55a4df523b3ef\n      mload(0x40)\n      mload(0x40)\n      dup1\n      swap2\n      sub\n      swap1\n      log4\n        /* \"erc721a/contracts/ERC721A.sol\":13108:13177  _checkContractOnERC721Received(address(0), to, updatedIndex++, _data) */\n      tag_330\n        /* \"erc721a/contracts/ERC721A.sol\":13147:13148  0 */\n      0x00\n        /* \"erc721a/contracts/ERC721A.sol\":13151:13153  to */\n      dup9\n        /* \"erc721a/contracts/ERC721A.sol\":13155:13169  updatedIndex++ */\n      dup5\n      dup1\n      0x01\n      add\n      swap6\n      pop\n        /* \"erc721a/contracts/ERC721A.sol\":13171:13176  _data */\n      dup9\n        /* \"erc721a/contracts/ERC721A.sol\":13108:13138  _checkContractOnERC721Received */\n      tag_197\n        /* \"erc721a/contracts/ERC721A.sol\":13108:13177  _checkContractOnERC721Received(address(0), to, updatedIndex++, _data) */\n      jump\t// in\n    tag_330:\n        /* \"erc721a/contracts/ERC721A.sol\":13103:13275  if (!_checkContractOnERC721Received(address(0), to, updatedIndex++, _data)) {... */\n      tag_331\n      jumpi\n        /* \"erc721a/contracts/ERC721A.sol\":13212:13252  TransferToNonERC721ReceiverImplementer() */\n      mload(0x40)\n      0xd1a57ed600000000000000000000000000000000000000000000000000000000\n      dup2\n      mstore\n      0x04\n      add\n      mload(0x40)\n      dup1\n      swap2\n      sub\n      swap1\n      revert\n        /* \"erc721a/contracts/ERC721A.sol\":13103:13275  if (!_checkContractOnERC721Received(address(0), to, updatedIndex++, _data)) {... */\n    tag_331:\n        /* \"erc721a/contracts/ERC721A.sol\":13317:13320  end */\n      dup1\n        /* \"erc721a/contracts/ERC721A.sol\":13301:13313  updatedIndex */\n      dup3\n        /* \"erc721a/contracts/ERC721A.sol\":13301:13320  updatedIndex != end */\n      sub\n        /* \"erc721a/contracts/ERC721A.sol\":13013:13322  do {... */\n      tag_327\n      jumpi\n        /* \"erc721a/contracts/ERC721A.sol\":13401:13413  startTokenId */\n      dup3\n        /* \"erc721a/contracts/ERC721A.sol\":13384:13397  _currentIndex */\n      sload(0x01)\n        /* \"erc721a/contracts/ERC721A.sol\":13384:13413  _currentIndex != startTokenId */\n      eq\n        /* \"erc721a/contracts/ERC721A.sol\":13380:13423  if (_currentIndex != startTokenId) revert() */\n      tag_332\n      jumpi\n        /* \"erc721a/contracts/ERC721A.sol\":13415:13423  revert() */\n      0x00\n      dup1\n      revert\n        /* \"erc721a/contracts/ERC721A.sol\":13380:13423  if (_currentIndex != startTokenId) revert() */\n    tag_332:\n        /* \"erc721a/contracts/ERC721A.sol\":12966:13594  if (safe && to.isContract()) {... */\n      jump(tag_333)\n    tag_326:\n        /* \"erc721a/contracts/ERC721A.sol\":13462:13580  do {... */\n    tag_334:\n        /* \"erc721a/contracts/ERC721A.sol\":13517:13531  updatedIndex++ */\n      dup2\n      dup1\n      0x01\n      add\n      swap3\n      pop\n        /* \"erc721a/contracts/ERC721A.sol\":13513:13515  to */\n      dup8\n        /* \"erc721a/contracts/ERC721A.sol\":13492:13532  Transfer(address(0), to, updatedIndex++) */\n      0xffffffffffffffffffffffffffffffffffffffff\n      and\n        /* \"erc721a/contracts/ERC721A.sol\":13509:13510  0 */\n      0x00\n        /* \"erc721a/contracts/ERC721A.sol\":13492:13532  Transfer(address(0), to, updatedIndex++) */\n      0xffffffffffffffffffffffffffffffffffffffff\n      and\n      0xddf252ad1be2c89b69c2b068fc378daa952ba7f163c4a11628f55a4df523b3ef\n      mload(0x40)\n      mload(0x40)\n      dup1\n      swap2\n      sub\n      swap1\n      log4\n        /* \"erc721a/contracts/ERC721A.sol\":13575:13578  end */\n      dup1\n        /* \"erc721a/contracts/ERC721A.sol\":13559:13571  updatedIndex */\n      dup3\n        /* \"erc721a/contracts/ERC721A.sol\":13559:13578  updatedIndex != end */\n      sub\n        /* \"erc721a/contracts/ERC721A.sol\":13462:13580  do {... */\n      tag_334\n      jumpi\n        /* \"erc721a/contracts/ERC721A.sol\":12966:13594  if (safe && to.isContract()) {... */\n    tag_333:\n        /* \"erc721a/contracts/ERC721A.sol\":13623:13635  updatedIndex */\n      dup2\n        /* \"erc721a/contracts/ERC721A.sol\":13607:13620  _currentIndex */\n      0x01\n        /* \"erc721a/contracts/ERC721A.sol\":13607:13635  _currentIndex = updatedIndex */\n      dup2\n      swap1\n      sstore\n      pop\n        /* \"erc721a/contracts/ERC721A.sol\":12589:13646  unchecked {... */\n      pop\n      pop\n        /* \"erc721a/contracts/ERC721A.sol\":13655:13715  _afterTokenTransfers(address(0), to, startTokenId, quantity) */\n      tag_337\n        /* \"erc721a/contracts/ERC721A.sol\":13684:13685  0 */\n      0x00\n        /* \"erc721a/contracts/ERC721A.sol\":13688:13690  to */\n      dup7\n        /* \"erc721a/contracts/ERC721A.sol\":13692:13704  startTokenId */\n      dup4\n        /* \"erc721a/contracts/ERC721A.sol\":13706:13714  quantity */\n      dup8\n        /* \"erc721a/contracts/ERC721A.sol\":13655:13675  _afterTokenTransfers */\n      tag_251\n        /* \"erc721a/contracts/ERC721A.sol\":13655:13715  _afterTokenTransfers(address(0), to, startTokenId, quantity) */\n      jump\t// in\n    tag_337:\n        /* \"erc721a/contracts/ERC721A.sol\":12112:13722  {... */\n      pop\n        /* \"erc721a/contracts/ERC721A.sol\":11989:13722  function _mint(... */\n      pop\n      pop\n      pop\n      pop\n      jump\t// out\n    tag_161:\n      dup3\n      dup1\n      sload\n      tag_338\n      swap1\n      tag_125\n      jump\t// in\n    tag_338:\n      swap1\n      0x00\n      mstore\n      keccak256(0x00, 0x20)\n      swap1\n      0x1f\n      add\n      0x20\n      swap1\n      div\n      dup2\n      add\n      swap3\n      dup3\n      tag_340\n      jumpi\n      0x00\n      dup6\n      sstore\n      jump(tag_339)\n    tag_340:\n      dup3\n      0x1f\n      lt\n      tag_341\n      jumpi\n      dup1\n      calldataload\n      not(0xff)\n      and\n      dup4\n      dup1\n      add\n      or\n      dup6\n      sstore\n      jump(tag_339)\n    tag_341:\n      dup3\n      dup1\n      add\n      0x01\n      add\n      dup6\n      sstore\n      dup3\n      iszero\n      tag_339\n      jumpi\n      swap2\n      dup3\n      add\n    tag_342:\n      dup3\n      dup2\n      gt\n      iszero\n      tag_343\n      jumpi\n      dup3\n      calldataload\n      dup3\n      sstore\n      swap2\n      0x20\n      add\n      swap2\n      swap1\n      0x01\n      add\n      swap1\n      jump(tag_342)\n    tag_343:\n    tag_339:\n      pop\n      swap1\n      pop\n      tag_344\n      swap2\n      swap1\n      tag_345\n      jump\t// in\n    tag_344:\n      pop\n      swap1\n      jump\t// out\n    tag_253:\n      mload(0x40)\n      dup1\n      0x60\n      add\n      0x40\n      mstore\n      dup1\n      and(0xffffffffffffffffffffffffffffffffffffffff, 0x00)\n      dup2\n      mstore\n      0x20\n      add\n      and(0xffffffffffffffff, 0x00)\n      dup2\n      mstore\n      0x20\n      add\n      iszero(iszero(0x00))\n      dup2\n      mstore\n      pop\n      swap1\n      jump\t// out\n    tag_345:\n    tag_346:\n      dup1\n      dup3\n      gt\n      iszero\n      tag_347\n      jumpi\n      0x00\n      dup2\n      0x00\n      swap1\n      sstore\n      pop\n      0x01\n      add\n      jump(tag_346)\n    tag_347:\n      pop\n      swap1\n      jump\t// out\n        /* \"#utility.yul\":7:82   */\n    tag_348:\n        /* \"#utility.yul\":40:46   */\n      0x00\n        /* \"#utility.yul\":73:75   */\n      0x40\n        /* \"#utility.yul\":67:76   */\n      mload\n        /* \"#utility.yul\":57:76   */\n      swap1\n      pop\n        /* \"#utility.yul\":7:82   */\n      swap1\n      jump\t// out\n        /* \"#utility.yul\":88:205   */\n    tag_349:\n        /* \"#utility.yul\":197:198   */\n      0x00\n        /* \"#utility.yul\":194:195   */\n      dup1\n        /* \"#utility.yul\":187:199   */\n      revert\n        /* \"#utility.yul\":211:328   */\n    tag_350:\n        /* \"#utility.yul\":320:321   */\n      0x00\n        /* \"#utility.yul\":317:318   */\n      dup1\n        /* \"#utility.yul\":310:322   */\n      revert\n        /* \"#utility.yul\":334:483   */\n    tag_351:\n        /* \"#utility.yul\":370:377   */\n      0x00\n        /* \"#utility.yul\":410:476   */\n      0xffffffff00000000000000000000000000000000000000000000000000000000\n        /* \"#utility.yul\":403:408   */\n      dup3\n        /* \"#utility.yul\":399:477   */\n      and\n        /* \"#utility.yul\":388:477   */\n      swap1\n      pop\n        /* \"#utility.yul\":334:483   */\n      swap2\n      swap1\n      pop\n      jump\t// out\n        /* \"#utility.yul\":489:609   */\n    tag_352:\n        /* \"#utility.yul\":561:584   */\n      tag_402\n        /* \"#utility.yul\":578:583   */\n      dup2\n        /* \"#utility.yul\":561:584   */\n      tag_351\n      jump\t// in\n    tag_402:\n        /* \"#utility.yul\":554:559   */\n      dup2\n        /* \"#utility.yul\":551:585   */\n      eq\n        /* \"#utility.yul\":541:603   */\n      tag_403\n      jumpi\n        /* \"#utility.yul\":599:600   */\n      0x00\n        /* \"#utility.yul\":596:597   */\n      dup1\n        /* \"#utility.yul\":589:601   */\n      revert\n        /* \"#utility.yul\":541:603   */\n    tag_403:\n        /* \"#utility.yul\":489:609   */\n      pop\n      jump\t// out\n        /* \"#utility.yul\":615:752   */\n    tag_353:\n        /* \"#utility.yul\":660:665   */\n      0x00\n        /* \"#utility.yul\":698:704   */\n      dup2\n        /* \"#utility.yul\":685:705   */\n      calldataload\n        /* \"#utility.yul\":676:705   */\n      swap1\n      pop\n        /* \"#utility.yul\":714:746   */\n      tag_405\n        /* \"#utility.yul\":740:745   */\n      dup2\n        /* \"#utility.yul\":714:746   */\n      tag_352\n      jump\t// in\n    tag_405:\n        /* \"#utility.yul\":615:752   */\n      swap3\n      swap2\n      pop\n      pop\n      jump\t// out\n        /* \"#utility.yul\":758:1085   */\n    tag_27:\n        /* \"#utility.yul\":816:822   */\n      0x00\n        /* \"#utility.yul\":865:867   */\n      0x20\n        /* \"#utility.yul\":853:862   */\n      dup3\n        /* \"#utility.yul\":844:851   */\n      dup5\n        /* \"#utility.yul\":840:863   */\n      sub\n        /* \"#utility.yul\":836:868   */\n      slt\n        /* \"#utility.yul\":833:952   */\n      iszero\n      tag_407\n      jumpi\n        /* \"#utility.yul\":871:950   */\n      tag_408\n      tag_349\n      jump\t// in\n    tag_408:\n        /* \"#utility.yul\":833:952   */\n    tag_407:\n        /* \"#utility.yul\":991:992   */\n      0x00\n        /* \"#utility.yul\":1016:1068   */\n      tag_409\n        /* \"#utility.yul\":1060:1067   */\n      dup5\n        /* \"#utility.yul\":1051:1057   */\n      dup3\n        /* \"#utility.yul\":1040:1049   */\n      dup6\n        /* \"#utility.yul\":1036:1058   */\n      add\n        /* \"#utility.yul\":1016:1068   */\n      tag_353\n      jump\t// in\n    tag_409:\n        /* \"#utility.yul\":1006:1068   */\n      swap2\n      pop\n        /* \"#utility.yul\":962:1078   */\n      pop\n        /* \"#utility.yul\":758:1085   */\n      swap3\n      swap2\n      pop\n      pop\n      jump\t// out\n        /* \"#utility.yul\":1091:1181   */\n    tag_354:\n        /* \"#utility.yul\":1125:1132   */\n      0x00\n        /* \"#utility.yul\":1168:1173   */\n      dup2\n        /* \"#utility.yul\":1161:1174   */\n      iszero\n        /* \"#utility.yul\":1154:1175   */\n      iszero\n        /* \"#utility.yul\":1143:1175   */\n      swap1\n      pop\n        /* \"#utility.yul\":1091:1181   */\n      swap2\n      swap1\n      pop\n      jump\t// out\n        /* \"#utility.yul\":1187:1296   */\n    tag_355:\n        /* \"#utility.yul\":1268:1289   */\n      tag_412\n        /* \"#utility.yul\":1283:1288   */\n      dup2\n        /* \"#utility.yul\":1268:1289   */\n      tag_354\n      jump\t// in\n    tag_412:\n        /* \"#utility.yul\":1263:1266   */\n      dup3\n        /* \"#utility.yul\":1256:1290   */\n      mstore\n        /* \"#utility.yul\":1187:1296   */\n      pop\n      pop\n      jump\t// out\n        /* \"#utility.yul\":1302:1512   */\n    tag_30:\n        /* \"#utility.yul\":1389:1393   */\n      0x00\n        /* \"#utility.yul\":1427:1429   */\n      0x20\n        /* \"#utility.yul\":1416:1425   */\n      dup3\n        /* \"#utility.yul\":1412:1430   */\n      add\n        /* \"#utility.yul\":1404:1430   */\n      swap1\n      pop\n        /* \"#utility.yul\":1440:1505   */\n      tag_414\n        /* \"#utility.yul\":1502:1503   */\n      0x00\n        /* \"#utility.yul\":1491:1500   */\n      dup4\n        /* \"#utility.yul\":1487:1504   */\n      add\n        /* \"#utility.yul\":1478:1484   */\n      dup5\n        /* \"#utility.yul\":1440:1505   */\n      tag_355\n      jump\t// in\n    tag_414:\n        /* \"#utility.yul\":1302:1512   */\n      swap3\n      swap2\n      pop\n      pop\n      jump\t// out\n        /* \"#utility.yul\":1518:1617   */\n    tag_356:\n        /* \"#utility.yul\":1570:1576   */\n      0x00\n        /* \"#utility.yul\":1604:1609   */\n      dup2\n        /* \"#utility.yul\":1598:1610   */\n      mload\n        /* \"#utility.yul\":1588:1610   */\n      swap1\n      pop\n        /* \"#utility.yul\":1518:1617   */\n      swap2\n      swap1\n      pop\n      jump\t// out\n        /* \"#utility.yul\":1623:1792   */\n    tag_357:\n        /* \"#utility.yul\":1707:1718   */\n      0x00\n        /* \"#utility.yul\":1741:1747   */\n      dup3\n        /* \"#utility.yul\":1736:1739   */\n      dup3\n        /* \"#utility.yul\":1729:1748   */\n      mstore\n        /* \"#utility.yul\":1781:1785   */\n      0x20\n        /* \"#utility.yul\":1776:1779   */\n      dup3\n        /* \"#utility.yul\":1772:1786   */\n      add\n        /* \"#utility.yul\":1757:1786   */\n      swap1\n      pop\n        /* \"#utility.yul\":1623:1792   */\n      swap3\n      swap2\n      pop\n      pop\n      jump\t// out\n        /* \"#utility.yul\":1798:2105   */\n    tag_358:\n        /* \"#utility.yul\":1866:1867   */\n      0x00\n        /* \"#utility.yul\":1876:1989   */\n    tag_418:\n        /* \"#utility.yul\":1890:1896   */\n      dup4\n        /* \"#utility.yul\":1887:1888   */\n      dup2\n        /* \"#utility.yul\":1884:1897   */\n      lt\n        /* \"#utility.yul\":1876:1989   */\n      iszero\n      tag_420\n      jumpi\n        /* \"#utility.yul\":1975:1976   */\n      dup1\n        /* \"#utility.yul\":1970:1973   */\n      dup3\n        /* \"#utility.yul\":1966:1977   */\n      add\n        /* \"#utility.yul\":1960:1978   */\n      mload\n        /* \"#utility.yul\":1956:1957   */\n      dup2\n        /* \"#utility.yul\":1951:1954   */\n      dup5\n        /* \"#utility.yul\":1947:1958   */\n      add\n        /* \"#utility.yul\":1940:1979   */\n      mstore\n        /* \"#utility.yul\":1912:1914   */\n      0x20\n        /* \"#utility.yul\":1909:1910   */\n      dup2\n        /* \"#utility.yul\":1905:1915   */\n      add\n        /* \"#utility.yul\":1900:1915   */\n      swap1\n      pop\n        /* \"#utility.yul\":1876:1989   */\n      jump(tag_418)\n    tag_420:\n        /* \"#utility.yul\":2007:2013   */\n      dup4\n        /* \"#utility.yul\":2004:2005   */\n      dup2\n        /* \"#utility.yul\":2001:2014   */\n      gt\n        /* \"#utility.yul\":1998:2099   */\n      iszero\n      tag_421\n      jumpi\n        /* \"#utility.yul\":2087:2088   */\n      0x00\n        /* \"#utility.yul\":2078:2084   */\n      dup5\n        /* \"#utility.yul\":2073:2076   */\n      dup5\n        /* \"#utility.yul\":2069:2085   */\n      add\n        /* \"#utility.yul\":2062:2089   */\n      mstore\n        /* \"#utility.yul\":1998:2099   */\n    tag_421:\n        /* \"#utility.yul\":1847:2105   */\n      pop\n        /* \"#utility.yul\":1798:2105   */\n      pop\n      pop\n      pop\n      jump\t// out\n        /* \"#utility.yul\":2111:2213   */\n    tag_359:\n        /* \"#utility.yul\":2152:2158   */\n      0x00\n        /* \"#utility.yul\":2203:2205   */\n      0x1f\n        /* \"#utility.yul\":2199:2206   */\n      not\n        /* \"#utility.yul\":2194:2196   */\n      0x1f\n        /* \"#utility.yul\":2187:2192   */\n      dup4\n        /* \"#utility.yul\":2183:2197   */\n      add\n        /* \"#utility.yul\":2179:2207   */\n      and\n        /* \"#utility.yul\":2169:2207   */\n      swap1\n      pop\n        /* \"#utility.yul\":2111:2213   */\n      swap2\n      swap1\n      pop\n      jump\t// out\n        /* \"#utility.yul\":2219:2583   */\n    tag_360:\n        /* \"#utility.yul\":2307:2310   */\n      0x00\n        /* \"#utility.yul\":2335:2374   */\n      tag_424\n        /* \"#utility.yul\":2368:2373   */\n      dup3\n        /* \"#utility.yul\":2335:2374   */\n      tag_356\n      jump\t// in\n    tag_424:\n        /* \"#utility.yul\":2390:2461   */\n      tag_425\n        /* \"#utility.yul\":2454:2460   */\n      dup2\n        /* \"#utility.yul\":2449:2452   */\n      dup6\n        /* \"#utility.yul\":2390:2461   */\n      tag_357\n      jump\t// in\n    tag_425:\n        /* \"#utility.yul\":2383:2461   */\n      swap4\n      pop\n        /* \"#utility.yul\":2470:2522   */\n      tag_426\n        /* \"#utility.yul\":2515:2521   */\n      dup2\n        /* \"#utility.yul\":2510:2513   */\n      dup6\n        /* \"#utility.yul\":2503:2507   */\n      0x20\n        /* \"#utility.yul\":2496:2501   */\n      dup7\n        /* \"#utility.yul\":2492:2508   */\n      add\n        /* \"#utility.yul\":2470:2522   */\n      tag_358\n      jump\t// in\n    tag_426:\n        /* \"#utility.yul\":2547:2576   */\n      tag_427\n        /* \"#utility.yul\":2569:2575   */\n      dup2\n        /* \"#utility.yul\":2547:2576   */\n      tag_359\n      jump\t// in\n    tag_427:\n        /* \"#utility.yul\":2542:2545   */\n      dup5\n        /* \"#utility.yul\":2538:2577   */\n      add\n        /* \"#utility.yul\":2531:2577   */\n      swap2\n      pop\n        /* \"#utility.yul\":2311:2583   */\n      pop\n        /* \"#utility.yul\":2219:2583   */\n      swap3\n      swap2\n      pop\n      pop\n      jump\t// out\n        /* \"#utility.yul\":2589:2902   */\n    tag_35:\n        /* \"#utility.yul\":2702:2706   */\n      0x00\n        /* \"#utility.yul\":2740:2742   */\n      0x20\n        /* \"#utility.yul\":2729:2738   */\n      dup3\n        /* \"#utility.yul\":2725:2743   */\n      add\n        /* \"#utility.yul\":2717:2743   */\n      swap1\n      pop\n        /* \"#utility.yul\":2789:2798   */\n      dup2\n        /* \"#utility.yul\":2783:2787   */\n      dup2\n        /* \"#utility.yul\":2779:2799   */\n      sub\n        /* \"#utility.yul\":2775:2776   */\n      0x00\n        /* \"#utility.yul\":2764:2773   */\n      dup4\n        /* \"#utility.yul\":2760:2777   */\n      add\n        /* \"#utility.yul\":2753:2800   */\n      mstore\n        /* \"#utility.yul\":2817:2895   */\n      tag_429\n        /* \"#utility.yul\":2890:2894   */\n      dup2\n        /* \"#utility.yul\":2881:2887   */\n      dup5\n        /* \"#utility.yul\":2817:2895   */\n      tag_360\n      jump\t// in\n    tag_429:\n        /* \"#utility.yul\":2809:2895   */\n      swap1\n      pop\n        /* \"#utility.yul\":2589:2902   */\n      swap3\n      swap2\n      pop\n      pop\n      jump\t// out\n        /* \"#utility.yul\":2908:2985   */\n    tag_361:\n        /* \"#utility.yul\":2945:2952   */\n      0x00\n        /* \"#utility.yul\":2974:2979   */\n      dup2\n        /* \"#utility.yul\":2963:2979   */\n      swap1\n      pop\n        /* \"#utility.yul\":2908:2985   */\n      swap2\n      swap1\n      pop\n      jump\t// out\n        /* \"#utility.yul\":2991:3113   */\n    tag_362:\n        /* \"#utility.yul\":3064:3088   */\n      tag_432\n        /* \"#utility.yul\":3082:3087   */\n      dup2\n        /* \"#utility.yul\":3064:3088   */\n      tag_361\n      jump\t// in\n    tag_432:\n        /* \"#utility.yul\":3057:3062   */\n      dup2\n        /* \"#utility.yul\":3054:3089   */\n      eq\n        /* \"#utility.yul\":3044:3107   */\n      tag_433\n      jumpi\n        /* \"#utility.yul\":3103:3104   */\n      0x00\n        /* \"#utility.yul\":3100:3101   */\n      dup1\n        /* \"#utility.yul\":3093:3105   */\n      revert\n        /* \"#utility.yul\":3044:3107   */\n    tag_433:\n        /* \"#utility.yul\":2991:3113   */\n      pop\n      jump\t// out\n        /* \"#utility.yul\":3119:3258   */\n    tag_363:\n        /* \"#utility.yul\":3165:3170   */\n      0x00\n        /* \"#utility.yul\":3203:3209   */\n      dup2\n        /* \"#utility.yul\":3190:3210   */\n      calldataload\n        /* \"#utility.yul\":3181:3210   */\n      swap1\n      pop\n        /* \"#utility.yul\":3219:3252   */\n      tag_435\n        /* \"#utility.yul\":3246:3251   */\n      dup2\n        /* \"#utility.yul\":3219:3252   */\n      tag_362\n      jump\t// in\n    tag_435:\n        /* \"#utility.yul\":3119:3258   */\n      swap3\n      swap2\n      pop\n      pop\n      jump\t// out\n        /* \"#utility.yul\":3264:3593   */\n    tag_39:\n        /* \"#utility.yul\":3323:3329   */\n      0x00\n        /* \"#utility.yul\":3372:3374   */\n      0x20\n        /* \"#utility.yul\":3360:3369   */\n      dup3\n        /* \"#utility.yul\":3351:3358   */\n      dup5\n        /* \"#utility.yul\":3347:3370   */\n      sub\n        /* \"#utility.yul\":3343:3375   */\n      slt\n        /* \"#utility.yul\":3340:3459   */\n      iszero\n      tag_437\n      jumpi\n        /* \"#utility.yul\":3378:3457   */\n      tag_438\n      tag_349\n      jump\t// in\n    tag_438:\n        /* \"#utility.yul\":3340:3459   */\n    tag_437:\n        /* \"#utility.yul\":3498:3499   */\n      0x00\n        /* \"#utility.yul\":3523:3576   */\n      tag_439\n        /* \"#utility.yul\":3568:3575   */\n      dup5\n        /* \"#utility.yul\":3559:3565   */\n      dup3\n        /* \"#utility.yul\":3548:3557   */\n      dup6\n        /* \"#utility.yul\":3544:3566   */\n      add\n        /* \"#utility.yul\":3523:3576   */\n      tag_363\n      jump\t// in\n    tag_439:\n        /* \"#utility.yul\":3513:3576   */\n      swap2\n      pop\n        /* \"#utility.yul\":3469:3586   */\n      pop\n        /* \"#utility.yul\":3264:3593   */\n      swap3\n      swap2\n      pop\n      pop\n      jump\t// out\n        /* \"#utility.yul\":3599:3725   */\n    tag_364:\n        /* \"#utility.yul\":3636:3643   */\n      0x00\n        /* \"#utility.yul\":3676:3718   */\n      0xffffffffffffffffffffffffffffffffffffffff\n        /* \"#utility.yul\":3669:3674   */\n      dup3\n        /* \"#utility.yul\":3665:3719   */\n      and\n        /* \"#utility.yul\":3654:3719   */\n      swap1\n      pop\n        /* \"#utility.yul\":3599:3725   */\n      swap2\n      swap1\n      pop\n      jump\t// out\n        /* \"#utility.yul\":3731:3827   */\n    tag_365:\n        /* \"#utility.yul\":3768:3775   */\n      0x00\n        /* \"#utility.yul\":3797:3821   */\n      tag_442\n        /* \"#utility.yul\":3815:3820   */\n      dup3\n        /* \"#utility.yul\":3797:3821   */\n      tag_364\n      jump\t// in\n    tag_442:\n        /* \"#utility.yul\":3786:3821   */\n      swap1\n      pop\n        /* \"#utility.yul\":3731:3827   */\n      swap2\n      swap1\n      pop\n      jump\t// out\n        /* \"#utility.yul\":3833:3951   */\n    tag_366:\n        /* \"#utility.yul\":3920:3944   */\n      tag_444\n        /* \"#utility.yul\":3938:3943   */\n      dup2\n        /* \"#utility.yul\":3920:3944   */\n      tag_365\n      jump\t// in\n    tag_444:\n        /* \"#utility.yul\":3915:3918   */\n      dup3\n        /* \"#utility.yul\":3908:3945   */\n      mstore\n        /* \"#utility.yul\":3833:3951   */\n      pop\n      pop\n      jump\t// out\n        /* \"#utility.yul\":3957:4179   */\n    tag_42:\n        /* \"#utility.yul\":4050:4054   */\n      0x00\n        /* \"#utility.yul\":4088:4090   */\n      0x20\n        /* \"#utility.yul\":4077:4086   */\n      dup3\n        /* \"#utility.yul\":4073:4091   */\n      add\n        /* \"#utility.yul\":4065:4091   */\n      swap1\n      pop\n        /* \"#utility.yul\":4101:4172   */\n      tag_446\n        /* \"#utility.yul\":4169:4170   */\n      0x00\n        /* \"#utility.yul\":4158:4167   */\n      dup4\n        /* \"#utility.yul\":4154:4171   */\n      add\n        /* \"#utility.yul\":4145:4151   */\n      dup5\n        /* \"#utility.yul\":4101:4172   */\n      tag_366\n      jump\t// in\n    tag_446:\n        /* \"#utility.yul\":3957:4179   */\n      swap3\n      swap2\n      pop\n      pop\n      jump\t// out\n        /* \"#utility.yul\":4185:4307   */\n    tag_367:\n        /* \"#utility.yul\":4258:4282   */\n      tag_448\n        /* \"#utility.yul\":4276:4281   */\n      dup2\n        /* \"#utility.yul\":4258:4282   */\n      tag_365\n      jump\t// in\n    tag_448:\n        /* \"#utility.yul\":4251:4256   */\n      dup2\n        /* \"#utility.yul\":4248:4283   */\n      eq\n        /* \"#utility.yul\":4238:4301   */\n      tag_449\n      jumpi\n        /* \"#utility.yul\":4297:4298   */\n      0x00\n        /* \"#utility.yul\":4294:4295   */\n      dup1\n        /* \"#utility.yul\":4287:4299   */\n      revert\n        /* \"#utility.yul\":4238:4301   */\n    tag_449:\n        /* \"#utility.yul\":4185:4307   */\n      pop\n      jump\t// out\n        /* \"#utility.yul\":4313:4452   */\n    tag_368:\n        /* \"#utility.yul\":4359:4364   */\n      0x00\n        /* \"#utility.yul\":4397:4403   */\n      dup2\n        /* \"#utility.yul\":4384:4404   */\n      calldataload\n        /* \"#utility.yul\":4375:4404   */\n      swap1\n      pop\n        /* \"#utility.yul\":4413:4446   */\n      tag_451\n        /* \"#utility.yul\":4440:4445   */\n      dup2\n        /* \"#utility.yul\":4413:4446   */\n      tag_367\n      jump\t// in\n    tag_451:\n        /* \"#utility.yul\":4313:4452   */\n      swap3\n      swap2\n      pop\n      pop\n      jump\t// out\n        /* \"#utility.yul\":4458:4932   */\n    tag_46:\n        /* \"#utility.yul\":4526:4532   */\n      0x00\n        /* \"#utility.yul\":4534:4540   */\n      dup1\n        /* \"#utility.yul\":4583:4585   */\n      0x40\n        /* \"#utility.yul\":4571:4580   */\n      dup4\n        /* \"#utility.yul\":4562:4569   */\n      dup6\n        /* \"#utility.yul\":4558:4581   */\n      sub\n        /* \"#utility.yul\":4554:4586   */\n      slt\n        /* \"#utility.yul\":4551:4670   */\n      iszero\n      tag_453\n      jumpi\n        /* \"#utility.yul\":4589:4668   */\n      tag_454\n      tag_349\n      jump\t// in\n    tag_454:\n        /* \"#utility.yul\":4551:4670   */\n    tag_453:\n        /* \"#utility.yul\":4709:4710   */\n      0x00\n        /* \"#utility.yul\":4734:4787   */\n      tag_455\n        /* \"#utility.yul\":4779:4786   */\n      dup6\n        /* \"#utility.yul\":4770:4776   */\n      dup3\n        /* \"#utility.yul\":4759:4768   */\n      dup7\n        /* \"#utility.yul\":4755:4777   */\n      add\n        /* \"#utility.yul\":4734:4787   */\n      tag_368\n      jump\t// in\n    tag_455:\n        /* \"#utility.yul\":4724:4787   */\n      swap3\n      pop\n        /* \"#utility.yul\":4680:4797   */\n      pop\n        /* \"#utility.yul\":4836:4838   */\n      0x20\n        /* \"#utility.yul\":4862:4915   */\n      tag_456\n        /* \"#utility.yul\":4907:4914   */\n      dup6\n        /* \"#utility.yul\":4898:4904   */\n      dup3\n        /* \"#utility.yul\":4887:4896   */\n      dup7\n        /* \"#utility.yul\":4883:4905   */\n      add\n        /* \"#utility.yul\":4862:4915   */\n      tag_363\n      jump\t// in\n    tag_456:\n        /* \"#utility.yul\":4852:4915   */\n      swap2\n      pop\n        /* \"#utility.yul\":4807:4925   */\n      pop\n        /* \"#utility.yul\":4458:4932   */\n      swap3\n      pop\n      swap3\n      swap1\n      pop\n      jump\t// out\n        /* \"#utility.yul\":4938:5056   */\n    tag_369:\n        /* \"#utility.yul\":5025:5049   */\n      tag_458\n        /* \"#utility.yul\":5043:5048   */\n      dup2\n        /* \"#utility.yul\":5025:5049   */\n      tag_361\n      jump\t// in\n    tag_458:\n        /* \"#utility.yul\":5020:5023   */\n      dup3\n        /* \"#utility.yul\":5013:5050   */\n      mstore\n        /* \"#utility.yul\":4938:5056   */\n      pop\n      pop\n      jump\t// out\n        /* \"#utility.yul\":5062:5284   */\n    tag_52:\n        /* \"#utility.yul\":5155:5159   */\n      0x00\n        /* \"#utility.yul\":5193:5195   */\n      0x20\n        /* \"#utility.yul\":5182:5191   */\n      dup3\n        /* \"#utility.yul\":5178:5196   */\n      add\n        /* \"#utility.yul\":5170:5196   */\n      swap1\n      pop\n        /* \"#utility.yul\":5206:5277   */\n      tag_460\n        /* \"#utility.yul\":5274:5275   */\n      0x00\n        /* \"#utility.yul\":5263:5272   */\n      dup4\n        /* \"#utility.yul\":5259:5276   */\n      add\n        /* \"#utility.yul\":5250:5256   */\n      dup5\n        /* \"#utility.yul\":5206:5277   */\n      tag_369\n      jump\t// in\n    tag_460:\n        /* \"#utility.yul\":5062:5284   */\n      swap3\n      swap2\n      pop\n      pop\n      jump\t// out\n        /* \"#utility.yul\":5290:5909   */\n    tag_56:\n        /* \"#utility.yul\":5367:5373   */\n      0x00\n        /* \"#utility.yul\":5375:5381   */\n      dup1\n        /* \"#utility.yul\":5383:5389   */\n      0x00\n        /* \"#utility.yul\":5432:5434   */\n      0x60\n        /* \"#utility.yul\":5420:5429   */\n      dup5\n        /* \"#utility.yul\":5411:5418   */\n      dup7\n        /* \"#utility.yul\":5407:5430   */\n      sub\n        /* \"#utility.yul\":5403:5435   */\n      slt\n        /* \"#utility.yul\":5400:5519   */\n      iszero\n      tag_462\n      jumpi\n        /* \"#utility.yul\":5438:5517   */\n      tag_463\n      tag_349\n      jump\t// in\n    tag_463:\n        /* \"#utility.yul\":5400:5519   */\n    tag_462:\n        /* \"#utility.yul\":5558:5559   */\n      0x00\n        /* \"#utility.yul\":5583:5636   */\n      tag_464\n        /* \"#utility.yul\":5628:5635   */\n      dup7\n        /* \"#utility.yul\":5619:5625   */\n      dup3\n        /* \"#utility.yul\":5608:5617   */\n      dup8\n        /* \"#utility.yul\":5604:5626   */\n      add\n        /* \"#utility.yul\":5583:5636   */\n      tag_368\n      jump\t// in\n    tag_464:\n        /* \"#utility.yul\":5573:5636   */\n      swap4\n      pop\n        /* \"#utility.yul\":5529:5646   */\n      pop\n        /* \"#utility.yul\":5685:5687   */\n      0x20\n        /* \"#utility.yul\":5711:5764   */\n      tag_465\n        /* \"#utility.yul\":5756:5763   */\n      dup7\n        /* \"#utility.yul\":5747:5753   */\n      dup3\n        /* \"#utility.yul\":5736:5745   */\n      dup8\n        /* \"#utility.yul\":5732:5754   */\n      add\n        /* \"#utility.yul\":5711:5764   */\n      tag_368\n      jump\t// in\n    tag_465:\n        /* \"#utility.yul\":5701:5764   */\n      swap3\n      pop\n        /* \"#utility.yul\":5656:5774   */\n      pop\n        /* \"#utility.yul\":5813:5815   */\n      0x40\n        /* \"#utility.yul\":5839:5892   */\n      tag_466\n        /* \"#utility.yul\":5884:5891   */\n      dup7\n        /* \"#utility.yul\":5875:5881   */\n      dup3\n        /* \"#utility.yul\":5864:5873   */\n      dup8\n        /* \"#utility.yul\":5860:5882   */\n      add\n        /* \"#utility.yul\":5839:5892   */\n      tag_363\n      jump\t// in\n    tag_466:\n        /* \"#utility.yul\":5829:5892   */\n      swap2\n      pop\n        /* \"#utility.yul\":5784:5902   */\n      pop\n        /* \"#utility.yul\":5290:5909   */\n      swap3\n      pop\n      swap3\n      pop\n      swap3\n      jump\t// out\n        /* \"#utility.yul\":5915:6032   */\n    tag_370:\n        /* \"#utility.yul\":6024:6025   */\n      0x00\n        /* \"#utility.yul\":6021:6022   */\n      dup1\n        /* \"#utility.yul\":6014:6026   */\n      revert\n        /* \"#utility.yul\":6038:6155   */\n    tag_371:\n        /* \"#utility.yul\":6147:6148   */\n      0x00\n        /* \"#utility.yul\":6144:6145   */\n      dup1\n        /* \"#utility.yul\":6137:6149   */\n      revert\n        /* \"#utility.yul\":6161:6278   */\n    tag_372:\n        /* \"#utility.yul\":6270:6271   */\n      0x00\n        /* \"#utility.yul\":6267:6268   */\n      dup1\n        /* \"#utility.yul\":6260:6272   */\n      revert\n        /* \"#utility.yul\":6298:6851   */\n    tag_373:\n        /* \"#utility.yul\":6356:6364   */\n      0x00\n        /* \"#utility.yul\":6366:6372   */\n      dup1\n        /* \"#utility.yul\":6416:6419   */\n      dup4\n        /* \"#utility.yul\":6409:6413   */\n      0x1f\n        /* \"#utility.yul\":6401:6407   */\n      dup5\n        /* \"#utility.yul\":6397:6414   */\n      add\n        /* \"#utility.yul\":6393:6420   */\n      slt\n        /* \"#utility.yul\":6383:6505   */\n      tag_471\n      jumpi\n        /* \"#utility.yul\":6424:6503   */\n      tag_472\n      tag_370\n      jump\t// in\n    tag_472:\n        /* \"#utility.yul\":6383:6505   */\n    tag_471:\n        /* \"#utility.yul\":6537:6543   */\n      dup3\n        /* \"#utility.yul\":6524:6544   */\n      calldataload\n        /* \"#utility.yul\":6514:6544   */\n      swap1\n      pop\n        /* \"#utility.yul\":6567:6585   */\n      0xffffffffffffffff\n        /* \"#utility.yul\":6559:6565   */\n      dup2\n        /* \"#utility.yul\":6556:6586   */\n      gt\n        /* \"#utility.yul\":6553:6670   */\n      iszero\n      tag_473\n      jumpi\n        /* \"#utility.yul\":6589:6668   */\n      tag_474\n      tag_371\n      jump\t// in\n    tag_474:\n        /* \"#utility.yul\":6553:6670   */\n    tag_473:\n        /* \"#utility.yul\":6703:6707   */\n      0x20\n        /* \"#utility.yul\":6695:6701   */\n      dup4\n        /* \"#utility.yul\":6691:6708   */\n      add\n        /* \"#utility.yul\":6679:6708   */\n      swap2\n      pop\n        /* \"#utility.yul\":6757:6760   */\n      dup4\n        /* \"#utility.yul\":6749:6753   */\n      0x01\n        /* \"#utility.yul\":6741:6747   */\n      dup3\n        /* \"#utility.yul\":6737:6754   */\n      mul\n        /* \"#utility.yul\":6727:6735   */\n      dup4\n        /* \"#utility.yul\":6723:6755   */\n      add\n        /* \"#utility.yul\":6720:6761   */\n      gt\n        /* \"#utility.yul\":6717:6845   */\n      iszero\n      tag_475\n      jumpi\n        /* \"#utility.yul\":6764:6843   */\n      tag_476\n      tag_372\n      jump\t// in\n    tag_476:\n        /* \"#utility.yul\":6717:6845   */\n    tag_475:\n        /* \"#utility.yul\":6298:6851   */\n      swap3\n      pop\n      swap3\n      swap1\n      pop\n      jump\t// out\n        /* \"#utility.yul\":6857:7386   */\n    tag_65:\n        /* \"#utility.yul\":6928:6934   */\n      0x00\n        /* \"#utility.yul\":6936:6942   */\n      dup1\n        /* \"#utility.yul\":6985:6987   */\n      0x20\n        /* \"#utility.yul\":6973:6982   */\n      dup4\n        /* \"#utility.yul\":6964:6971   */\n      dup6\n        /* \"#utility.yul\":6960:6983   */\n      sub\n        /* \"#utility.yul\":6956:6988   */\n      slt\n        /* \"#utility.yul\":6953:7072   */\n      iszero\n      tag_478\n      jumpi\n        /* \"#utility.yul\":6991:7070   */\n      tag_479\n      tag_349\n      jump\t// in\n    tag_479:\n        /* \"#utility.yul\":6953:7072   */\n    tag_478:\n        /* \"#utility.yul\":7139:7140   */\n      0x00\n        /* \"#utility.yul\":7128:7137   */\n      dup4\n        /* \"#utility.yul\":7124:7141   */\n      add\n        /* \"#utility.yul\":7111:7142   */\n      calldataload\n        /* \"#utility.yul\":7169:7187   */\n      0xffffffffffffffff\n        /* \"#utility.yul\":7161:7167   */\n      dup2\n        /* \"#utility.yul\":7158:7188   */\n      gt\n        /* \"#utility.yul\":7155:7272   */\n      iszero\n      tag_480\n      jumpi\n        /* \"#utility.yul\":7191:7270   */\n      tag_481\n      tag_350\n      jump\t// in\n    tag_481:\n        /* \"#utility.yul\":7155:7272   */\n    tag_480:\n        /* \"#utility.yul\":7304:7369   */\n      tag_482\n        /* \"#utility.yul\":7361:7368   */\n      dup6\n        /* \"#utility.yul\":7352:7358   */\n      dup3\n        /* \"#utility.yul\":7341:7350   */\n      dup7\n        /* \"#utility.yul\":7337:7359   */\n      add\n        /* \"#utility.yul\":7304:7369   */\n      tag_373\n      jump\t// in\n    tag_482:\n        /* \"#utility.yul\":7286:7369   */\n      swap3\n      pop\n      swap3\n      pop\n        /* \"#utility.yul\":7082:7379   */\n      pop\n        /* \"#utility.yul\":6857:7386   */\n      swap3\n      pop\n      swap3\n      swap1\n      pop\n      jump\t// out\n        /* \"#utility.yul\":7392:7721   */\n    tag_75:\n        /* \"#utility.yul\":7451:7457   */\n      0x00\n        /* \"#utility.yul\":7500:7502   */\n      0x20\n        /* \"#utility.yul\":7488:7497   */\n      dup3\n        /* \"#utility.yul\":7479:7486   */\n      dup5\n        /* \"#utility.yul\":7475:7498   */\n      sub\n        /* \"#utility.yul\":7471:7503   */\n      slt\n        /* \"#utility.yul\":7468:7587   */\n      iszero\n      tag_484\n      jumpi\n        /* \"#utility.yul\":7506:7585   */\n      tag_485\n      tag_349\n      jump\t// in\n    tag_485:\n        /* \"#utility.yul\":7468:7587   */\n    tag_484:\n        /* \"#utility.yul\":7626:7627   */\n      0x00\n        /* \"#utility.yul\":7651:7704   */\n      tag_486\n        /* \"#utility.yul\":7696:7703   */\n      dup5\n        /* \"#utility.yul\":7687:7693   */\n      dup3\n        /* \"#utility.yul\":7676:7685   */\n      dup6\n        /* \"#utility.yul\":7672:7694   */\n      add\n        /* \"#utility.yul\":7651:7704   */\n      tag_368\n      jump\t// in\n    tag_486:\n        /* \"#utility.yul\":7641:7704   */\n      swap2\n      pop\n        /* \"#utility.yul\":7597:7714   */\n      pop\n        /* \"#utility.yul\":7392:7721   */\n      swap3\n      swap2\n      pop\n      pop\n      jump\t// out\n        /* \"#utility.yul\":7727:7843   */\n    tag_374:\n        /* \"#utility.yul\":7797:7818   */\n      tag_488\n        /* \"#utility.yul\":7812:7817   */\n      dup2\n        /* \"#utility.yul\":7797:7818   */\n      tag_354\n      jump\t// in\n    tag_488:\n        /* \"#utility.yul\":7790:7795   */\n      dup2\n        /* \"#utility.yul\":7787:7819   */\n      eq\n        /* \"#utility.yul\":7777:7837   */\n      tag_489\n      jumpi\n        /* \"#utility.yul\":7833:7834   */\n      0x00\n        /* \"#utility.yul\":7830:7831   */\n      dup1\n        /* \"#utility.yul\":7823:7835   */\n      revert\n        /* \"#utility.yul\":7777:7837   */\n    tag_489:\n        /* \"#utility.yul\":7727:7843   */\n      pop\n      jump\t// out\n        /* \"#utility.yul\":7849:7982   */\n    tag_375:\n        /* \"#utility.yul\":7892:7897   */\n      0x00\n        /* \"#utility.yul\":7930:7936   */\n      dup2\n        /* \"#utility.yul\":7917:7937   */\n      calldataload\n        /* \"#utility.yul\":7908:7937   */\n      swap1\n      pop\n        /* \"#utility.yul\":7946:7976   */\n      tag_491\n        /* \"#utility.yul\":7970:7975   */\n      dup2\n        /* \"#utility.yul\":7946:7976   */\n      tag_374\n      jump\t// in\n    tag_491:\n        /* \"#utility.yul\":7849:7982   */\n      swap3\n      swap2\n      pop\n      pop\n      jump\t// out\n        /* \"#utility.yul\":7988:8456   */\n    tag_95:\n        /* \"#utility.yul\":8053:8059   */\n      0x00\n        /* \"#utility.yul\":8061:8067   */\n      dup1\n        /* \"#utility.yul\":8110:8112   */\n      0x40\n        /* \"#utility.yul\":8098:8107   */\n      dup4\n        /* \"#utility.yul\":8089:8096   */\n      dup6\n        /* \"#utility.yul\":8085:8108   */\n      sub\n        /* \"#utility.yul\":8081:8113   */\n      slt\n        /* \"#utility.yul\":8078:8197   */\n      iszero\n      tag_493\n      jumpi\n        /* \"#utility.yul\":8116:8195   */\n      tag_494\n      tag_349\n      jump\t// in\n    tag_494:\n        /* \"#utility.yul\":8078:8197   */\n    tag_493:\n        /* \"#utility.yul\":8236:8237   */\n      0x00\n        /* \"#utility.yul\":8261:8314   */\n      tag_495\n        /* \"#utility.yul\":8306:8313   */\n      dup6\n        /* \"#utility.yul\":8297:8303   */\n      dup3\n        /* \"#utility.yul\":8286:8295   */\n      dup7\n        /* \"#utility.yul\":8282:8304   */\n      add\n        /* \"#utility.yul\":8261:8314   */\n      tag_368\n      jump\t// in\n    tag_495:\n        /* \"#utility.yul\":8251:8314   */\n      swap3\n      pop\n        /* \"#utility.yul\":8207:8324   */\n      pop\n        /* \"#utility.yul\":8363:8365   */\n      0x20\n        /* \"#utility.yul\":8389:8439   */\n      tag_496\n        /* \"#utility.yul\":8431:8438   */\n      dup6\n        /* \"#utility.yul\":8422:8428   */\n      dup3\n        /* \"#utility.yul\":8411:8420   */\n      dup7\n        /* \"#utility.yul\":8407:8429   */\n      add\n        /* \"#utility.yul\":8389:8439   */\n      tag_375\n      jump\t// in\n    tag_496:\n        /* \"#utility.yul\":8379:8439   */\n      swap2\n      pop\n        /* \"#utility.yul\":8334:8449   */\n      pop\n        /* \"#utility.yul\":7988:8456   */\n      swap3\n      pop\n      swap3\n      swap1\n      pop\n      jump\t// out\n        /* \"#utility.yul\":8462:8579   */\n    tag_376:\n        /* \"#utility.yul\":8571:8572   */\n      0x00\n        /* \"#utility.yul\":8568:8569   */\n      dup1\n        /* \"#utility.yul\":8561:8573   */\n      revert\n        /* \"#utility.yul\":8585:8765   */\n    tag_300:\n        /* \"#utility.yul\":8633:8710   */\n      0x4e487b7100000000000000000000000000000000000000000000000000000000\n        /* \"#utility.yul\":8630:8631   */\n      0x00\n        /* \"#utility.yul\":8623:8711   */\n      mstore\n        /* \"#utility.yul\":8730:8734   */\n      0x41\n        /* \"#utility.yul\":8727:8728   */\n      0x04\n        /* \"#utility.yul\":8720:8735   */\n      mstore\n        /* \"#utility.yul\":8754:8758   */\n      0x24\n        /* \"#utility.yul\":8751:8752   */\n      0x00\n        /* \"#utility.yul\":8744:8759   */\n      revert\n        /* \"#utility.yul\":8771:9052   */\n    tag_377:\n        /* \"#utility.yul\":8854:8881   */\n      tag_500\n        /* \"#utility.yul\":8876:8880   */\n      dup3\n        /* \"#utility.yul\":8854:8881   */\n      tag_359\n      jump\t// in\n    tag_500:\n        /* \"#utility.yul\":8846:8852   */\n      dup2\n        /* \"#utility.yul\":8842:8882   */\n      add\n        /* \"#utility.yul\":8984:8990   */\n      dup2\n        /* \"#utility.yul\":8972:8982   */\n      dup2\n        /* \"#utility.yul\":8969:8991   */\n      lt\n        /* \"#utility.yul\":8948:8966   */\n      0xffffffffffffffff\n        /* \"#utility.yul\":8936:8946   */\n      dup3\n        /* \"#utility.yul\":8933:8967   */\n      gt\n        /* \"#utility.yul\":8930:8992   */\n      or\n        /* \"#utility.yul\":8927:9015   */\n      iszero\n      tag_501\n      jumpi\n        /* \"#utility.yul\":8995:9013   */\n      tag_502\n      tag_300\n      jump\t// in\n    tag_502:\n        /* \"#utility.yul\":8927:9015   */\n    tag_501:\n        /* \"#utility.yul\":9035:9045   */\n      dup1\n        /* \"#utility.yul\":9031:9033   */\n      0x40\n        /* \"#utility.yul\":9024:9046   */\n      mstore\n        /* \"#utility.yul\":8814:9052   */\n      pop\n        /* \"#utility.yul\":8771:9052   */\n      pop\n      pop\n      jump\t// out\n        /* \"#utility.yul\":9058:9187   */\n    tag_378:\n        /* \"#utility.yul\":9092:9098   */\n      0x00\n        /* \"#utility.yul\":9119:9139   */\n      tag_504\n      tag_348\n      jump\t// in\n    tag_504:\n        /* \"#utility.yul\":9109:9139   */\n      swap1\n      pop\n        /* \"#utility.yul\":9148:9181   */\n      tag_505\n        /* \"#utility.yul\":9176:9180   */\n      dup3\n        /* \"#utility.yul\":9168:9174   */\n      dup3\n        /* \"#utility.yul\":9148:9181   */\n      tag_377\n      jump\t// in\n    tag_505:\n        /* \"#utility.yul\":9058:9187   */\n      swap2\n      swap1\n      pop\n      jump\t// out\n        /* \"#utility.yul\":9193:9500   */\n    tag_379:\n        /* \"#utility.yul\":9254:9258   */\n      0x00\n        /* \"#utility.yul\":9344:9362   */\n      0xffffffffffffffff\n        /* \"#utility.yul\":9336:9342   */\n      dup3\n        /* \"#utility.yul\":9333:9363   */\n      gt\n        /* \"#utility.yul\":9330:9386   */\n      iszero\n      tag_507\n      jumpi\n        /* \"#utility.yul\":9366:9384   */\n      tag_508\n      tag_300\n      jump\t// in\n    tag_508:\n        /* \"#utility.yul\":9330:9386   */\n    tag_507:\n        /* \"#utility.yul\":9404:9433   */\n      tag_509\n        /* \"#utility.yul\":9426:9432   */\n      dup3\n        /* \"#utility.yul\":9404:9433   */\n      tag_359\n      jump\t// in\n    tag_509:\n        /* \"#utility.yul\":9396:9433   */\n      swap1\n      pop\n        /* \"#utility.yul\":9488:9492   */\n      0x20\n        /* \"#utility.yul\":9482:9486   */\n      dup2\n        /* \"#utility.yul\":9478:9493   */\n      add\n        /* \"#utility.yul\":9470:9493   */\n      swap1\n      pop\n        /* \"#utility.yul\":9193:9500   */\n      swap2\n      swap1\n      pop\n      jump\t// out\n        /* \"#utility.yul\":9506:9660   */\n    tag_380:\n        /* \"#utility.yul\":9590:9596   */\n      dup3\n        /* \"#utility.yul\":9585:9588   */\n      dup2\n        /* \"#utility.yul\":9580:9583   */\n      dup4\n        /* \"#utility.yul\":9567:9597   */\n      calldatacopy\n        /* \"#utility.yul\":9652:9653   */\n      0x00\n        /* \"#utility.yul\":9643:9649   */\n      dup4\n        /* \"#utility.yul\":9638:9641   */\n      dup4\n        /* \"#utility.yul\":9634:9650   */\n      add\n        /* \"#utility.yul\":9627:9654   */\n      mstore\n        /* \"#utility.yul\":9506:9660   */\n      pop\n      pop\n      pop\n      jump\t// out\n        /* \"#utility.yul\":9666:10076   */\n    tag_381:\n        /* \"#utility.yul\":9743:9748   */\n      0x00\n        /* \"#utility.yul\":9768:9833   */\n      tag_512\n        /* \"#utility.yul\":9784:9832   */\n      tag_513\n        /* \"#utility.yul\":9825:9831   */\n      dup5\n        /* \"#utility.yul\":9784:9832   */\n      tag_379\n      jump\t// in\n    tag_513:\n        /* \"#utility.yul\":9768:9833   */\n      tag_378\n      jump\t// in\n    tag_512:\n        /* \"#utility.yul\":9759:9833   */\n      swap1\n      pop\n        /* \"#utility.yul\":9856:9862   */\n      dup3\n        /* \"#utility.yul\":9849:9854   */\n      dup2\n        /* \"#utility.yul\":9842:9863   */\n      mstore\n        /* \"#utility.yul\":9894:9898   */\n      0x20\n        /* \"#utility.yul\":9887:9892   */\n      dup2\n        /* \"#utility.yul\":9883:9899   */\n      add\n        /* \"#utility.yul\":9932:9935   */\n      dup5\n        /* \"#utility.yul\":9923:9929   */\n      dup5\n        /* \"#utility.yul\":9918:9921   */\n      dup5\n        /* \"#utility.yul\":9914:9930   */\n      add\n        /* \"#utility.yul\":9911:9936   */\n      gt\n        /* \"#utility.yul\":9908:10020   */\n      iszero\n      tag_514\n      jumpi\n        /* \"#utility.yul\":9939:10018   */\n      tag_515\n      tag_376\n      jump\t// in\n    tag_515:\n        /* \"#utility.yul\":9908:10020   */\n    tag_514:\n        /* \"#utility.yul\":10029:10070   */\n      tag_516\n        /* \"#utility.yul\":10063:10069   */\n      dup5\n        /* \"#utility.yul\":10058:10061   */\n      dup3\n        /* \"#utility.yul\":10053:10056   */\n      dup6\n        /* \"#utility.yul\":10029:10070   */\n      tag_380\n      jump\t// in\n    tag_516:\n        /* \"#utility.yul\":9749:10076   */\n      pop\n        /* \"#utility.yul\":9666:10076   */\n      swap4\n      swap3\n      pop\n      pop\n      pop\n      jump\t// out\n        /* \"#utility.yul\":10095:10433   */\n    tag_382:\n        /* \"#utility.yul\":10150:10155   */\n      0x00\n        /* \"#utility.yul\":10199:10202   */\n      dup3\n        /* \"#utility.yul\":10192:10196   */\n      0x1f\n        /* \"#utility.yul\":10184:10190   */\n      dup4\n        /* \"#utility.yul\":10180:10197   */\n      add\n        /* \"#utility.yul\":10176:10203   */\n      slt\n        /* \"#utility.yul\":10166:10288   */\n      tag_518\n      jumpi\n        /* \"#utility.yul\":10207:10286   */\n      tag_519\n      tag_370\n      jump\t// in\n    tag_519:\n        /* \"#utility.yul\":10166:10288   */\n    tag_518:\n        /* \"#utility.yul\":10324:10330   */\n      dup2\n        /* \"#utility.yul\":10311:10331   */\n      calldataload\n        /* \"#utility.yul\":10349:10427   */\n      tag_520\n        /* \"#utility.yul\":10423:10426   */\n      dup5\n        /* \"#utility.yul\":10415:10421   */\n      dup3\n        /* \"#utility.yul\":10408:10412   */\n      0x20\n        /* \"#utility.yul\":10400:10406   */\n      dup7\n        /* \"#utility.yul\":10396:10413   */\n      add\n        /* \"#utility.yul\":10349:10427   */\n      tag_381\n      jump\t// in\n    tag_520:\n        /* \"#utility.yul\":10340:10427   */\n      swap2\n      pop\n        /* \"#utility.yul\":10156:10433   */\n      pop\n        /* \"#utility.yul\":10095:10433   */\n      swap3\n      swap2\n      pop\n      pop\n      jump\t// out\n        /* \"#utility.yul\":10439:11382   */\n    tag_100:\n        /* \"#utility.yul\":10534:10540   */\n      0x00\n        /* \"#utility.yul\":10542:10548   */\n      dup1\n        /* \"#utility.yul\":10550:10556   */\n      0x00\n        /* \"#utility.yul\":10558:10564   */\n      dup1\n        /* \"#utility.yul\":10607:10610   */\n      0x80\n        /* \"#utility.yul\":10595:10604   */\n      dup6\n        /* \"#utility.yul\":10586:10593   */\n      dup8\n        /* \"#utility.yul\":10582:10605   */\n      sub\n        /* \"#utility.yul\":10578:10611   */\n      slt\n        /* \"#utility.yul\":10575:10695   */\n      iszero\n      tag_522\n      jumpi\n        /* \"#utility.yul\":10614:10693   */\n      tag_523\n      tag_349\n      jump\t// in\n    tag_523:\n        /* \"#utility.yul\":10575:10695   */\n    tag_522:\n        /* \"#utility.yul\":10734:10735   */\n      0x00\n        /* \"#utility.yul\":10759:10812   */\n      tag_524\n        /* \"#utility.yul\":10804:10811   */\n      dup8\n        /* \"#utility.yul\":10795:10801   */\n      dup3\n        /* \"#utility.yul\":10784:10793   */\n      dup9\n        /* \"#utility.yul\":10780:10802   */\n      add\n        /* \"#utility.yul\":10759:10812   */\n      tag_368\n      jump\t// in\n    tag_524:\n        /* \"#utility.yul\":10749:10812   */\n      swap5\n      pop\n        /* \"#utility.yul\":10705:10822   */\n      pop\n        /* \"#utility.yul\":10861:10863   */\n      0x20\n        /* \"#utility.yul\":10887:10940   */\n      tag_525\n        /* \"#utility.yul\":10932:10939   */\n      dup8\n        /* \"#utility.yul\":10923:10929   */\n      dup3\n        /* \"#utility.yul\":10912:10921   */\n      dup9\n        /* \"#utility.yul\":10908:10930   */\n      add\n        /* \"#utility.yul\":10887:10940   */\n      tag_368\n      jump\t// in\n    tag_525:\n        /* \"#utility.yul\":10877:10940   */\n      swap4\n      pop\n        /* \"#utility.yul\":10832:10950   */\n      pop\n        /* \"#utility.yul\":10989:10991   */\n      0x40\n        /* \"#utility.yul\":11015:11068   */\n      tag_526\n        /* \"#utility.yul\":11060:11067   */\n      dup8\n        /* \"#utility.yul\":11051:11057   */\n      dup3\n        /* \"#utility.yul\":11040:11049   */\n      dup9\n        /* \"#utility.yul\":11036:11058   */\n      add\n        /* \"#utility.yul\":11015:11068   */\n      tag_363\n      jump\t// in\n    tag_526:\n        /* \"#utility.yul\":11005:11068   */\n      swap3\n      pop\n        /* \"#utility.yul\":10960:11078   */\n      pop\n        /* \"#utility.yul\":11145:11147   */\n      0x60\n        /* \"#utility.yul\":11134:11143   */\n      dup6\n        /* \"#utility.yul\":11130:11148   */\n      add\n        /* \"#utility.yul\":11117:11149   */\n      calldataload\n        /* \"#utility.yul\":11176:11194   */\n      0xffffffffffffffff\n        /* \"#utility.yul\":11168:11174   */\n      dup2\n        /* \"#utility.yul\":11165:11195   */\n      gt\n        /* \"#utility.yul\":11162:11279   */\n      iszero\n      tag_527\n      jumpi\n        /* \"#utility.yul\":11198:11277   */\n      tag_528\n      tag_350\n      jump\t// in\n    tag_528:\n        /* \"#utility.yul\":11162:11279   */\n    tag_527:\n        /* \"#utility.yul\":11303:11365   */\n      tag_529\n        /* \"#utility.yul\":11357:11364   */\n      dup8\n        /* \"#utility.yul\":11348:11354   */\n      dup3\n        /* \"#utility.yul\":11337:11346   */\n      dup9\n        /* \"#utility.yul\":11333:11355   */\n      add\n        /* \"#utility.yul\":11303:11365   */\n      tag_382\n      jump\t// in\n    tag_529:\n        /* \"#utility.yul\":11293:11365   */\n      swap2\n      pop\n        /* \"#utility.yul\":11088:11375   */\n      pop\n        /* \"#utility.yul\":10439:11382   */\n      swap3\n      swap6\n      swap2\n      swap5\n      pop\n      swap3\n      pop\n      jump\t// out\n        /* \"#utility.yul\":11388:11862   */\n    tag_110:\n        /* \"#utility.yul\":11456:11462   */\n      0x00\n        /* \"#utility.yul\":11464:11470   */\n      dup1\n        /* \"#utility.yul\":11513:11515   */\n      0x40\n        /* \"#utility.yul\":11501:11510   */\n      dup4\n        /* \"#utility.yul\":11492:11499   */\n      dup6\n        /* \"#utility.yul\":11488:11511   */\n      sub\n        /* \"#utility.yul\":11484:11516   */\n      slt\n        /* \"#utility.yul\":11481:11600   */\n      iszero\n      tag_531\n      jumpi\n        /* \"#utility.yul\":11519:11598   */\n      tag_532\n      tag_349\n      jump\t// in\n    tag_532:\n        /* \"#utility.yul\":11481:11600   */\n    tag_531:\n        /* \"#utility.yul\":11639:11640   */\n      0x00\n        /* \"#utility.yul\":11664:11717   */\n      tag_533\n        /* \"#utility.yul\":11709:11716   */\n      dup6\n        /* \"#utility.yul\":11700:11706   */\n      dup3\n        /* \"#utility.yul\":11689:11698   */\n      dup7\n        /* \"#utility.yul\":11685:11707   */\n      add\n        /* \"#utility.yul\":11664:11717   */\n      tag_368\n      jump\t// in\n    tag_533:\n        /* \"#utility.yul\":11654:11717   */\n      swap3\n      pop\n        /* \"#utility.yul\":11610:11727   */\n      pop\n        /* \"#utility.yul\":11766:11768   */\n      0x20\n        /* \"#utility.yul\":11792:11845   */\n      tag_534\n        /* \"#utility.yul\":11837:11844   */\n      dup6\n        /* \"#utility.yul\":11828:11834   */\n      dup3\n        /* \"#utility.yul\":11817:11826   */\n      dup7\n        /* \"#utility.yul\":11813:11835   */\n      add\n        /* \"#utility.yul\":11792:11845   */\n      tag_368\n      jump\t// in\n    tag_534:\n        /* \"#utility.yul\":11782:11845   */\n      swap2\n      pop\n        /* \"#utility.yul\":11737:11855   */\n      pop\n        /* \"#utility.yul\":11388:11862   */\n      swap3\n      pop\n      swap3\n      swap1\n      pop\n      jump\t// out\n        /* \"#utility.yul\":11868:12048   */\n    tag_383:\n        /* \"#utility.yul\":11916:11993   */\n      0x4e487b7100000000000000000000000000000000000000000000000000000000\n        /* \"#utility.yul\":11913:11914   */\n      0x00\n        /* \"#utility.yul\":11906:11994   */\n      mstore\n        /* \"#utility.yul\":12013:12017   */\n      0x22\n        /* \"#utility.yul\":12010:12011   */\n      0x04\n        /* \"#utility.yul\":12003:12018   */\n      mstore\n        /* \"#utility.yul\":12037:12041   */\n      0x24\n        /* \"#utility.yul\":12034:12035   */\n      0x00\n        /* \"#utility.yul\":12027:12042   */\n      revert\n        /* \"#utility.yul\":12054:12374   */\n    tag_125:\n        /* \"#utility.yul\":12098:12104   */\n      0x00\n        /* \"#utility.yul\":12135:12136   */\n      0x02\n        /* \"#utility.yul\":12129:12133   */\n      dup3\n        /* \"#utility.yul\":12125:12137   */\n      div\n        /* \"#utility.yul\":12115:12137   */\n      swap1\n      pop\n        /* \"#utility.yul\":12182:12183   */\n      0x01\n        /* \"#utility.yul\":12176:12180   */\n      dup3\n        /* \"#utility.yul\":12172:12184   */\n      and\n        /* \"#utility.yul\":12203:12221   */\n      dup1\n        /* \"#utility.yul\":12193:12274   */\n      tag_537\n      jumpi\n        /* \"#utility.yul\":12259:12263   */\n      0x7f\n        /* \"#utility.yul\":12251:12257   */\n      dup3\n        /* \"#utility.yul\":12247:12264   */\n      and\n        /* \"#utility.yul\":12237:12264   */\n      swap2\n      pop\n        /* \"#utility.yul\":12193:12274   */\n    tag_537:\n        /* \"#utility.yul\":12321:12323   */\n      0x20\n        /* \"#utility.yul\":12313:12319   */\n      dup3\n        /* \"#utility.yul\":12310:12324   */\n      lt\n        /* \"#utility.yul\":12290:12308   */\n      dup2\n        /* \"#utility.yul\":12287:12325   */\n      sub\n        /* \"#utility.yul\":12284:12368   */\n      tag_538\n      jumpi\n        /* \"#utility.yul\":12340:12358   */\n      tag_539\n      tag_383\n      jump\t// in\n    tag_539:\n        /* \"#utility.yul\":12284:12368   */\n    tag_538:\n        /* \"#utility.yul\":12105:12374   */\n      pop\n        /* \"#utility.yul\":12054:12374   */\n      swap2\n      swap1\n      pop\n      jump\t// out\n        /* \"#utility.yul\":12380:12562   */\n    tag_384:\n        /* \"#utility.yul\":12520:12554   */\n      0x4f776e61626c653a2063616c6c6572206973206e6f7420746865206f776e6572\n        /* \"#utility.yul\":12516:12517   */\n      0x00\n        /* \"#utility.yul\":12508:12514   */\n      dup3\n        /* \"#utility.yul\":12504:12518   */\n      add\n        /* \"#utility.yul\":12497:12555   */\n      mstore\n        /* \"#utility.yul\":12380:12562   */\n      pop\n      jump\t// out\n        /* \"#utility.yul\":12568:12934   */\n    tag_385:\n        /* \"#utility.yul\":12710:12713   */\n      0x00\n        /* \"#utility.yul\":12731:12798   */\n      tag_542\n        /* \"#utility.yul\":12795:12797   */\n      0x20\n        /* \"#utility.yul\":12790:12793   */\n      dup4\n        /* \"#utility.yul\":12731:12798   */\n      tag_357\n      jump\t// in\n    tag_542:\n        /* \"#utility.yul\":12724:12798   */\n      swap2\n      pop\n        /* \"#utility.yul\":12807:12900   */\n      tag_543\n        /* \"#utility.yul\":12896:12899   */\n      dup3\n        /* \"#utility.yul\":12807:12900   */\n      tag_384\n      jump\t// in\n    tag_543:\n        /* \"#utility.yul\":12925:12927   */\n      0x20\n        /* \"#utility.yul\":12920:12923   */\n      dup3\n        /* \"#utility.yul\":12916:12928   */\n      add\n        /* \"#utility.yul\":12909:12928   */\n      swap1\n      pop\n        /* \"#utility.yul\":12568:12934   */\n      swap2\n      swap1\n      pop\n      jump\t// out\n        /* \"#utility.yul\":12940:13359   */\n    tag_158:\n        /* \"#utility.yul\":13106:13110   */\n      0x00\n        /* \"#utility.yul\":13144:13146   */\n      0x20\n        /* \"#utility.yul\":13133:13142   */\n      dup3\n        /* \"#utility.yul\":13129:13147   */\n      add\n        /* \"#utility.yul\":13121:13147   */\n      swap1\n      pop\n        /* \"#utility.yul\":13193:13202   */\n      dup2\n        /* \"#utility.yul\":13187:13191   */\n      dup2\n        /* \"#utility.yul\":13183:13203   */\n      sub\n        /* \"#utility.yul\":13179:13180   */\n      0x00\n        /* \"#utility.yul\":13168:13177   */\n      dup4\n        /* \"#utility.yul\":13164:13181   */\n      add\n        /* \"#utility.yul\":13157:13204   */\n      mstore\n        /* \"#utility.yul\":13221:13352   */\n      tag_545\n        /* \"#utility.yul\":13347:13351   */\n      dup2\n        /* \"#utility.yul\":13221:13352   */\n      tag_385\n      jump\t// in\n    tag_545:\n        /* \"#utility.yul\":13213:13352   */\n      swap1\n      pop\n        /* \"#utility.yul\":12940:13359   */\n      swap2\n      swap1\n      pop\n      jump\t// out\n        /* \"#utility.yul\":13365:13513   */\n    tag_386:\n        /* \"#utility.yul\":13467:13478   */\n      0x00\n        /* \"#utility.yul\":13504:13507   */\n      dup2\n        /* \"#utility.yul\":13489:13507   */\n      swap1\n      pop\n        /* \"#utility.yul\":13365:13513   */\n      swap3\n      swap2\n      pop\n      pop\n      jump\t// out\n        /* \"#utility.yul\":13519:13896   */\n    tag_387:\n        /* \"#utility.yul\":13625:13628   */\n      0x00\n        /* \"#utility.yul\":13653:13692   */\n      tag_548\n        /* \"#utility.yul\":13686:13691   */\n      dup3\n        /* \"#utility.yul\":13653:13692   */\n      tag_356\n      jump\t// in\n    tag_548:\n        /* \"#utility.yul\":13708:13797   */\n      tag_549\n        /* \"#utility.yul\":13790:13796   */\n      dup2\n        /* \"#utility.yul\":13785:13788   */\n      dup6\n        /* \"#utility.yul\":13708:13797   */\n      tag_386\n      jump\t// in\n    tag_549:\n        /* \"#utility.yul\":13701:13797   */\n      swap4\n      pop\n        /* \"#utility.yul\":13806:13858   */\n      tag_550\n        /* \"#utility.yul\":13851:13857   */\n      dup2\n        /* \"#utility.yul\":13846:13849   */\n      dup6\n        /* \"#utility.yul\":13839:13843   */\n      0x20\n        /* \"#utility.yul\":13832:13837   */\n      dup7\n        /* \"#utility.yul\":13828:13844   */\n      add\n        /* \"#utility.yul\":13806:13858   */\n      tag_358\n      jump\t// in\n    tag_550:\n        /* \"#utility.yul\":13883:13889   */\n      dup1\n        /* \"#utility.yul\":13878:13881   */\n      dup5\n        /* \"#utility.yul\":13874:13890   */\n      add\n        /* \"#utility.yul\":13867:13890   */\n      swap2\n      pop\n        /* \"#utility.yul\":13629:13896   */\n      pop\n        /* \"#utility.yul\":13519:13896   */\n      swap3\n      swap2\n      pop\n      pop\n      jump\t// out\n        /* \"#utility.yul\":13902:14337   */\n    tag_209:\n        /* \"#utility.yul\":14082:14085   */\n      0x00\n        /* \"#utility.yul\":14104:14199   */\n      tag_552\n        /* \"#utility.yul\":14195:14198   */\n      dup3\n        /* \"#utility.yul\":14186:14192   */\n      dup6\n        /* \"#utility.yul\":14104:14199   */\n      tag_387\n      jump\t// in\n    tag_552:\n        /* \"#utility.yul\":14097:14199   */\n      swap2\n      pop\n        /* \"#utility.yul\":14216:14311   */\n      tag_553\n        /* \"#utility.yul\":14307:14310   */\n      dup3\n        /* \"#utility.yul\":14298:14304   */\n      dup5\n        /* \"#utility.yul\":14216:14311   */\n      tag_387\n      jump\t// in\n    tag_553:\n        /* \"#utility.yul\":14209:14311   */\n      swap2\n      pop\n        /* \"#utility.yul\":14328:14331   */\n      dup2\n        /* \"#utility.yul\":14321:14331   */\n      swap1\n      pop\n        /* \"#utility.yul\":13902:14337   */\n      swap4\n      swap3\n      pop\n      pop\n      pop\n      jump\t// out\n        /* \"#utility.yul\":14343:14568   */\n    tag_388:\n        /* \"#utility.yul\":14483:14517   */\n      0x4f776e61626c653a206e6577206f776e657220697320746865207a65726f2061\n        /* \"#utility.yul\":14479:14480   */\n      0x00\n        /* \"#utility.yul\":14471:14477   */\n      dup3\n        /* \"#utility.yul\":14467:14481   */\n      add\n        /* \"#utility.yul\":14460:14518   */\n      mstore\n        /* \"#utility.yul\":14552:14560   */\n      0x6464726573730000000000000000000000000000000000000000000000000000\n        /* \"#utility.yul\":14547:14549   */\n      0x20\n        /* \"#utility.yul\":14539:14545   */\n      dup3\n        /* \"#utility.yul\":14535:14550   */\n      add\n        /* \"#utility.yul\":14528:14561   */\n      mstore\n        /* \"#utility.yul\":14343:14568   */\n      pop\n      jump\t// out\n        /* \"#utility.yul\":14574:14940   */\n    tag_389:\n        /* \"#utility.yul\":14716:14719   */\n      0x00\n        /* \"#utility.yul\":14737:14804   */\n      tag_556\n        /* \"#utility.yul\":14801:14803   */\n      0x26\n        /* \"#utility.yul\":14796:14799   */\n      dup4\n        /* \"#utility.yul\":14737:14804   */\n      tag_357\n      jump\t// in\n    tag_556:\n        /* \"#utility.yul\":14730:14804   */\n      swap2\n      pop\n        /* \"#utility.yul\":14813:14906   */\n      tag_557\n        /* \"#utility.yul\":14902:14905   */\n      dup3\n        /* \"#utility.yul\":14813:14906   */\n      tag_388\n      jump\t// in\n    tag_557:\n        /* \"#utility.yul\":14931:14933   */\n      0x40\n        /* \"#utility.yul\":14926:14929   */\n      dup3\n        /* \"#utility.yul\":14922:14934   */\n      add\n        /* \"#utility.yul\":14915:14934   */\n      swap1\n      pop\n        /* \"#utility.yul\":14574:14940   */\n      swap2\n      swap1\n      pop\n      jump\t// out\n        /* \"#utility.yul\":14946:15365   */\n    tag_219:\n        /* \"#utility.yul\":15112:15116   */\n      0x00\n        /* \"#utility.yul\":15150:15152   */\n      0x20\n        /* \"#utility.yul\":15139:15148   */\n      dup3\n        /* \"#utility.yul\":15135:15153   */\n      add\n        /* \"#utility.yul\":15127:15153   */\n      swap1\n      pop\n        /* \"#utility.yul\":15199:15208   */\n      dup2\n        /* \"#utility.yul\":15193:15197   */\n      dup2\n        /* \"#utility.yul\":15189:15209   */\n      sub\n        /* \"#utility.yul\":15185:15186   */\n      0x00\n        /* \"#utility.yul\":15174:15183   */\n      dup4\n        /* \"#utility.yul\":15170:15187   */\n      add\n        /* \"#utility.yul\":15163:15210   */\n      mstore\n        /* \"#utility.yul\":15227:15358   */\n      tag_559\n        /* \"#utility.yul\":15353:15357   */\n      dup2\n        /* \"#utility.yul\":15227:15358   */\n      tag_389\n      jump\t// in\n    tag_559:\n        /* \"#utility.yul\":15219:15358   */\n      swap1\n      pop\n        /* \"#utility.yul\":14946:15365   */\n      swap2\n      swap1\n      pop\n      jump\t// out\n        /* \"#utility.yul\":15371:15469   */\n    tag_390:\n        /* \"#utility.yul\":15422:15428   */\n      0x00\n        /* \"#utility.yul\":15456:15461   */\n      dup2\n        /* \"#utility.yul\":15450:15462   */\n      mload\n        /* \"#utility.yul\":15440:15462   */\n      swap1\n      pop\n        /* \"#utility.yul\":15371:15469   */\n      swap2\n      swap1\n      pop\n      jump\t// out\n        /* \"#utility.yul\":15475:15643   */\n    tag_391:\n        /* \"#utility.yul\":15558:15569   */\n      0x00\n        /* \"#utility.yul\":15592:15598   */\n      dup3\n        /* \"#utility.yul\":15587:15590   */\n      dup3\n        /* \"#utility.yul\":15580:15599   */\n      mstore\n        /* \"#utility.yul\":15632:15636   */\n      0x20\n        /* \"#utility.yul\":15627:15630   */\n      dup3\n        /* \"#utility.yul\":15623:15637   */\n      add\n        /* \"#utility.yul\":15608:15637   */\n      swap1\n      pop\n        /* \"#utility.yul\":15475:15643   */\n      swap3\n      swap2\n      pop\n      pop\n      jump\t// out\n        /* \"#utility.yul\":15649:16009   */\n    tag_392:\n        /* \"#utility.yul\":15735:15738   */\n      0x00\n        /* \"#utility.yul\":15763:15801   */\n      tag_563\n        /* \"#utility.yul\":15795:15800   */\n      dup3\n        /* \"#utility.yul\":15763:15801   */\n      tag_390\n      jump\t// in\n    tag_563:\n        /* \"#utility.yul\":15817:15887   */\n      tag_564\n        /* \"#utility.yul\":15880:15886   */\n      dup2\n        /* \"#utility.yul\":15875:15878   */\n      dup6\n        /* \"#utility.yul\":15817:15887   */\n      tag_391\n      jump\t// in\n    tag_564:\n        /* \"#utility.yul\":15810:15887   */\n      swap4\n      pop\n        /* \"#utility.yul\":15896:15948   */\n      tag_565\n        /* \"#utility.yul\":15941:15947   */\n      dup2\n        /* \"#utility.yul\":15936:15939   */\n      dup6\n        /* \"#utility.yul\":15929:15933   */\n      0x20\n        /* \"#utility.yul\":15922:15927   */\n      dup7\n        /* \"#utility.yul\":15918:15934   */\n      add\n        /* \"#utility.yul\":15896:15948   */\n      tag_358\n      jump\t// in\n    tag_565:\n        /* \"#utility.yul\":15973:16002   */\n      tag_566\n        /* \"#utility.yul\":15995:16001   */\n      dup2\n        /* \"#utility.yul\":15973:16002   */\n      tag_359\n      jump\t// in\n    tag_566:\n        /* \"#utility.yul\":15968:15971   */\n      dup5\n        /* \"#utility.yul\":15964:16003   */\n      add\n        /* \"#utility.yul\":15957:16003   */\n      swap2\n      pop\n        /* \"#utility.yul\":15739:16009   */\n      pop\n        /* \"#utility.yul\":15649:16009   */\n      swap3\n      swap2\n      pop\n      pop\n      jump\t// out\n        /* \"#utility.yul\":16015:16655   */\n    tag_271:\n        /* \"#utility.yul\":16210:16214   */\n      0x00\n        /* \"#utility.yul\":16248:16251   */\n      0x80\n        /* \"#utility.yul\":16237:16246   */\n      dup3\n        /* \"#utility.yul\":16233:16252   */\n      add\n        /* \"#utility.yul\":16225:16252   */\n      swap1\n      pop\n        /* \"#utility.yul\":16262:16333   */\n      tag_568\n        /* \"#utility.yul\":16330:16331   */\n      0x00\n        /* \"#utility.yul\":16319:16328   */\n      dup4\n        /* \"#utility.yul\":16315:16332   */\n      add\n        /* \"#utility.yul\":16306:16312   */\n      dup8\n        /* \"#utility.yul\":16262:16333   */\n      tag_366\n      jump\t// in\n    tag_568:\n        /* \"#utility.yul\":16343:16415   */\n      tag_569\n        /* \"#utility.yul\":16411:16413   */\n      0x20\n        /* \"#utility.yul\":16400:16409   */\n      dup4\n        /* \"#utility.yul\":16396:16414   */\n      add\n        /* \"#utility.yul\":16387:16393   */\n      dup7\n        /* \"#utility.yul\":16343:16415   */\n      tag_366\n      jump\t// in\n    tag_569:\n        /* \"#utility.yul\":16425:16497   */\n      tag_570\n        /* \"#utility.yul\":16493:16495   */\n      0x40\n        /* \"#utility.yul\":16482:16491   */\n      dup4\n        /* \"#utility.yul\":16478:16496   */\n      add\n        /* \"#utility.yul\":16469:16475   */\n      dup6\n        /* \"#utility.yul\":16425:16497   */\n      tag_369\n      jump\t// in\n    tag_570:\n        /* \"#utility.yul\":16544:16553   */\n      dup2\n        /* \"#utility.yul\":16538:16542   */\n      dup2\n        /* \"#utility.yul\":16534:16554   */\n      sub\n        /* \"#utility.yul\":16529:16531   */\n      0x60\n        /* \"#utility.yul\":16518:16527   */\n      dup4\n        /* \"#utility.yul\":16514:16532   */\n      add\n        /* \"#utility.yul\":16507:16555   */\n      mstore\n        /* \"#utility.yul\":16572:16648   */\n      tag_571\n        /* \"#utility.yul\":16643:16647   */\n      dup2\n        /* \"#utility.yul\":16634:16640   */\n      dup5\n        /* \"#utility.yul\":16572:16648   */\n      tag_392\n      jump\t// in\n    tag_571:\n        /* \"#utility.yul\":16564:16648   */\n      swap1\n      pop\n        /* \"#utility.yul\":16015:16655   */\n      swap6\n      swap5\n      pop\n      pop\n      pop\n      pop\n      pop\n      jump\t// out\n        /* \"#utility.yul\":16661:16802   */\n    tag_393:\n        /* \"#utility.yul\":16717:16722   */\n      0x00\n        /* \"#utility.yul\":16748:16754   */\n      dup2\n        /* \"#utility.yul\":16742:16755   */\n      mload\n        /* \"#utility.yul\":16733:16755   */\n      swap1\n      pop\n        /* \"#utility.yul\":16764:16796   */\n      tag_573\n        /* \"#utility.yul\":16790:16795   */\n      dup2\n        /* \"#utility.yul\":16764:16796   */\n      tag_352\n      jump\t// in\n    tag_573:\n        /* \"#utility.yul\":16661:16802   */\n      swap3\n      swap2\n      pop\n      pop\n      jump\t// out\n        /* \"#utility.yul\":16808:17157   */\n    tag_274:\n        /* \"#utility.yul\":16877:16883   */\n      0x00\n        /* \"#utility.yul\":16926:16928   */\n      0x20\n        /* \"#utility.yul\":16914:16923   */\n      dup3\n        /* \"#utility.yul\":16905:16912   */\n      dup5\n        /* \"#utility.yul\":16901:16924   */\n      sub\n        /* \"#utility.yul\":16897:16929   */\n      slt\n        /* \"#utility.yul\":16894:17013   */\n      iszero\n      tag_575\n      jumpi\n        /* \"#utility.yul\":16932:17011   */\n      tag_576\n      tag_349\n      jump\t// in\n    tag_576:\n        /* \"#utility.yul\":16894:17013   */\n    tag_575:\n        /* \"#utility.yul\":17052:17053   */\n      0x00\n        /* \"#utility.yul\":17077:17140   */\n      tag_577\n        /* \"#utility.yul\":17132:17139   */\n      dup5\n        /* \"#utility.yul\":17123:17129   */\n      dup3\n        /* \"#utility.yul\":17112:17121   */\n      dup6\n        /* \"#utility.yul\":17108:17130   */\n      add\n        /* \"#utility.yul\":17077:17140   */\n      tag_393\n      jump\t// in\n    tag_577:\n        /* \"#utility.yul\":17067:17140   */\n      swap2\n      pop\n        /* \"#utility.yul\":17023:17150   */\n      pop\n        /* \"#utility.yul\":16808:17157   */\n      swap3\n      swap2\n      pop\n      pop\n      jump\t// out\n        /* \"#utility.yul\":17163:17343   */\n    tag_394:\n        /* \"#utility.yul\":17211:17288   */\n      0x4e487b7100000000000000000000000000000000000000000000000000000000\n        /* \"#utility.yul\":17208:17209   */\n      0x00\n        /* \"#utility.yul\":17201:17289   */\n      mstore\n        /* \"#utility.yul\":17308:17312   */\n      0x11\n        /* \"#utility.yul\":17305:17306   */\n      0x04\n        /* \"#utility.yul\":17298:17313   */\n      mstore\n        /* \"#utility.yul\":17332:17336   */\n      0x24\n        /* \"#utility.yul\":17329:17330   */\n      0x00\n        /* \"#utility.yul\":17322:17337   */\n      revert\n        /* \"#utility.yul\":17349:17582   */\n    tag_295:\n        /* \"#utility.yul\":17388:17391   */\n      0x00\n        /* \"#utility.yul\":17411:17435   */\n      tag_580\n        /* \"#utility.yul\":17429:17434   */\n      dup3\n        /* \"#utility.yul\":17411:17435   */\n      tag_361\n      jump\t// in\n    tag_580:\n        /* \"#utility.yul\":17402:17435   */\n      swap2\n      pop\n        /* \"#utility.yul\":17457:17523   */\n      0xffffffffffffffffffffffffffffffffffffffffffffffffffffffffffffffff\n        /* \"#utility.yul\":17450:17455   */\n      dup3\n        /* \"#utility.yul\":17447:17524   */\n      sub\n        /* \"#utility.yul\":17444:17547   */\n      tag_581\n      jumpi\n        /* \"#utility.yul\":17527:17545   */\n      tag_582\n      tag_394\n      jump\t// in\n    tag_582:\n        /* \"#utility.yul\":17444:17547   */\n    tag_581:\n        /* \"#utility.yul\":17574:17575   */\n      0x01\n        /* \"#utility.yul\":17567:17572   */\n      dup3\n        /* \"#utility.yul\":17563:17576   */\n      add\n        /* \"#utility.yul\":17556:17576   */\n      swap1\n      pop\n        /* \"#utility.yul\":17349:17582   */\n      swap2\n      swap1\n      pop\n      jump\t// out\n        /* \"#utility.yul\":17588:17768   */\n    tag_395:\n        /* \"#utility.yul\":17636:17713   */\n      0x4e487b7100000000000000000000000000000000000000000000000000000000\n        /* \"#utility.yul\":17633:17634   */\n      0x00\n        /* \"#utility.yul\":17626:17714   */\n      mstore\n        /* \"#utility.yul\":17733:17737   */\n      0x12\n        /* \"#utility.yul\":17730:17731   */\n      0x04\n        /* \"#utility.yul\":17723:17738   */\n      mstore\n        /* \"#utility.yul\":17757:17761   */\n      0x24\n        /* \"#utility.yul\":17754:17755   */\n      0x00\n        /* \"#utility.yul\":17747:17762   */\n      revert\n        /* \"#utility.yul\":17774:17959   */\n    tag_297:\n        /* \"#utility.yul\":17814:17815   */\n      0x00\n        /* \"#utility.yul\":17831:17851   */\n      tag_585\n        /* \"#utility.yul\":17849:17850   */\n      dup3\n        /* \"#utility.yul\":17831:17851   */\n      tag_361\n      jump\t// in\n    tag_585:\n        /* \"#utility.yul\":17826:17851   */\n      swap2\n      pop\n        /* \"#utility.yul\":17865:17885   */\n      tag_586\n        /* \"#utility.yul\":17883:17884   */\n      dup4\n        /* \"#utility.yul\":17865:17885   */\n      tag_361\n      jump\t// in\n    tag_586:\n        /* \"#utility.yul\":17860:17885   */\n      swap3\n      pop\n        /* \"#utility.yul\":17904:17905   */\n      dup3\n        /* \"#utility.yul\":17894:17929   */\n      tag_587\n      jumpi\n        /* \"#utility.yul\":17909:17927   */\n      tag_588\n      tag_395\n      jump\t// in\n    tag_588:\n        /* \"#utility.yul\":17894:17929   */\n    tag_587:\n        /* \"#utility.yul\":17951:17952   */\n      dup3\n        /* \"#utility.yul\":17948:17949   */\n      dup3\n        /* \"#utility.yul\":17944:17953   */\n      div\n        /* \"#utility.yul\":17939:17953   */\n      swap1\n      pop\n        /* \"#utility.yul\":17774:17959   */\n      swap3\n      swap2\n      pop\n      pop\n      jump\t// out\n        /* \"#utility.yul\":17965:18156   */\n    tag_305:\n        /* \"#utility.yul\":18005:18009   */\n      0x00\n        /* \"#utility.yul\":18025:18045   */\n      tag_590\n        /* \"#utility.yul\":18043:18044   */\n      dup3\n        /* \"#utility.yul\":18025:18045   */\n      tag_361\n      jump\t// in\n    tag_590:\n        /* \"#utility.yul\":18020:18045   */\n      swap2\n      pop\n        /* \"#utility.yul\":18059:18079   */\n      tag_591\n        /* \"#utility.yul\":18077:18078   */\n      dup4\n        /* \"#utility.yul\":18059:18079   */\n      tag_361\n      jump\t// in\n    tag_591:\n        /* \"#utility.yul\":18054:18079   */\n      swap3\n      pop\n        /* \"#utility.yul\":18098:18099   */\n      dup3\n        /* \"#utility.yul\":18095:18096   */\n      dup3\n        /* \"#utility.yul\":18092:18100   */\n      lt\n        /* \"#utility.yul\":18089:18123   */\n      iszero\n      tag_592\n      jumpi\n        /* \"#utility.yul\":18103:18121   */\n      tag_593\n      tag_394\n      jump\t// in\n    tag_593:\n        /* \"#utility.yul\":18089:18123   */\n    tag_592:\n        /* \"#utility.yul\":18148:18149   */\n      dup3\n        /* \"#utility.yul\":18145:18146   */\n      dup3\n        /* \"#utility.yul\":18141:18150   */\n      sub\n        /* \"#utility.yul\":18133:18150   */\n      swap1\n      pop\n        /* \"#utility.yul\":17965:18156   */\n      swap3\n      swap2\n      pop\n      pop\n      jump\t// out\n        /* \"#utility.yul\":18162:18338   */\n    tag_307:\n        /* \"#utility.yul\":18194:18195   */\n      0x00\n        /* \"#utility.yul\":18211:18231   */\n      tag_595\n        /* \"#utility.yul\":18229:18230   */\n      dup3\n        /* \"#utility.yul\":18211:18231   */\n      tag_361\n      jump\t// in\n    tag_595:\n        /* \"#utility.yul\":18206:18231   */\n      swap2\n      pop\n        /* \"#utility.yul\":18245:18265   */\n      tag_596\n        /* \"#utility.yul\":18263:18264   */\n      dup4\n        /* \"#utility.yul\":18245:18265   */\n      tag_361\n      jump\t// in\n    tag_596:\n        /* \"#utility.yul\":18240:18265   */\n      swap3\n      pop\n        /* \"#utility.yul\":18284:18285   */\n      dup3\n        /* \"#utility.yul\":18274:18309   */\n      tag_597\n      jumpi\n        /* \"#utility.yul\":18289:18307   */\n      tag_598\n      tag_395\n      jump\t// in\n    tag_598:\n        /* \"#utility.yul\":18274:18309   */\n    tag_597:\n        /* \"#utility.yul\":18330:18331   */\n      dup3\n        /* \"#utility.yul\":18327:18328   */\n      dup3\n        /* \"#utility.yul\":18323:18332   */\n      mod\n        /* \"#utility.yul\":18318:18332   */\n      swap1\n      pop\n        /* \"#utility.yul\":18162:18338   */\n      swap3\n      swap2\n      pop\n      pop\n      jump\t// out\n        /* \"#utility.yul\":18344:18649   */\n    tag_309:\n        /* \"#utility.yul\":18384:18387   */\n      0x00\n        /* \"#utility.yul\":18403:18423   */\n      tag_600\n        /* \"#utility.yul\":18421:18422   */\n      dup3\n        /* \"#utility.yul\":18403:18423   */\n      tag_361\n      jump\t// in\n    tag_600:\n        /* \"#utility.yul\":18398:18423   */\n      swap2\n      pop\n        /* \"#utility.yul\":18437:18457   */\n      tag_601\n        /* \"#utility.yul\":18455:18456   */\n      dup4\n        /* \"#utility.yul\":18437:18457   */\n      tag_361\n      jump\t// in\n    tag_601:\n        /* \"#utility.yul\":18432:18457   */\n      swap3\n      pop\n        /* \"#utility.yul\":18591:18592   */\n      dup3\n        /* \"#utility.yul\":18523:18589   */\n      0xffffffffffffffffffffffffffffffffffffffffffffffffffffffffffffffff\n        /* \"#utility.yul\":18519:18593   */\n      sub\n        /* \"#utility.yul\":18516:18517   */\n      dup3\n        /* \"#utility.yul\":18513:18594   */\n      gt\n        /* \"#utility.yul\":18510:18617   */\n      iszero\n      tag_602\n      jumpi\n        /* \"#utility.yul\":18597:18615   */\n      tag_603\n      tag_394\n      jump\t// in\n    tag_603:\n        /* \"#utility.yul\":18510:18617   */\n    tag_602:\n        /* \"#utility.yul\":18641:18642   */\n      dup3\n        /* \"#utility.yul\":18638:18639   */\n      dup3\n        /* \"#utility.yul\":18634:18643   */\n      add\n        /* \"#utility.yul\":18627:18643   */\n      swap1\n      pop\n        /* \"#utility.yul\":18344:18649   */\n      swap3\n      swap2\n      pop\n      pop\n      jump\t// out\n        /* \"#utility.yul\":18655:18835   */\n    tag_312:\n        /* \"#utility.yul\":18703:18780   */\n      0x4e487b7100000000000000000000000000000000000000000000000000000000\n        /* \"#utility.yul\":18700:18701   */\n      0x00\n        /* \"#utility.yul\":18693:18781   */\n      mstore\n        /* \"#utility.yul\":18800:18804   */\n      0x32\n        /* \"#utility.yul\":18797:18798   */\n      0x04\n        /* \"#utility.yul\":18790:18805   */\n      mstore\n        /* \"#utility.yul\":18824:18828   */\n      0x24\n        /* \"#utility.yul\":18821:18822   */\n      0x00\n        /* \"#utility.yul\":18814:18829   */\n      revert\n\n    auxdata: 0xa264697066735822122097d7108bf7df08f849799d6b41a70238df5a6d8624a642920c24b4947f0f75d264736f6c634300080d0033\n}\n",
				"bytecode": {
					"linkReferences": {},
					"object": "60806040523480156200001157600080fd5b506040518060400160405280600c81526020017f526f746174696e674375626500000000000000000000000000000000000000008152506040518060400160405280600481526020017f43554245000000000000000000000000000000000000000000000000000000008152506200009e62000092620000ee60201b60201c565b620000f660201b60201c565b8160039080519060200190620000b6929190620001bf565b508060049080519060200190620000cf929190620001bf565b50620000e0620001ba60201b60201c565b6001819055505050620002d3565b600033905090565b60008060009054906101000a900473ffffffffffffffffffffffffffffffffffffffff169050816000806101000a81548173ffffffffffffffffffffffffffffffffffffffff021916908373ffffffffffffffffffffffffffffffffffffffff1602179055508173ffffffffffffffffffffffffffffffffffffffff168173ffffffffffffffffffffffffffffffffffffffff167f8be0079c531659141344cd1fd0a4f28419497f9722a3daafe3b4186f6b6457e060405160405180910390a35050565b600090565b828054620001cd906200029e565b90600052602060002090601f016020900481019282620001f157600085556200023d565b82601f106200020c57805160ff19168380011785556200023d565b828001600101855582156200023d579182015b828111156200023c5782518255916020019190600101906200021f565b5b5090506200024c919062000250565b5090565b5b808211156200026b57600081600090555060010162000251565b5090565b7f4e487b7100000000000000000000000000000000000000000000000000000000600052602260045260246000fd5b60006002820490506001821680620002b757607f821691505b602082108103620002cd57620002cc6200026f565b5b50919050565b612ccb80620002e36000396000f3fe6080604052600436106101145760003560e01c806370a08231116100a0578063a22cb46511610064578063a22cb46514610390578063b88d4fde146103b9578063c87b56dd146103e2578063e985e9c51461041f578063f2fde38b1461045c57610114565b806370a08231146102ca578063715018a6146103075780638da5cb5b1461031e57806395d89b4114610349578063a0712d681461037457610114565b806318160ddd116100e757806318160ddd146101e757806323b872dd1461021257806342842e0e1461023b57806355f804b3146102645780636352211e1461028d57610114565b806301ffc9a71461011957806306fdde0314610156578063081812fc14610181578063095ea7b3146101be575b600080fd5b34801561012557600080fd5b50610140600480360381019061013b919061222f565b610485565b60405161014d9190612277565b60405180910390f35b34801561016257600080fd5b5061016b6105cf565b604051610178919061232b565b60405180910390f35b34801561018d57600080fd5b506101a860048036038101906101a39190612383565b610661565b6040516101b591906123f1565b60405180910390f35b3480156101ca57600080fd5b506101e560048036038101906101e09190612438565b6106dd565b005b3480156101f357600080fd5b506101fc6107e7565b6040516102099190612487565b60405180910390f35b34801561021e57600080fd5b50610239600480360381019061023491906124a2565b6107fe565b005b34801561024757600080fd5b50610262600480360381019061025d91906124a2565b61080e565b005b34801561027057600080fd5b5061028b6004803603810190610286919061255a565b61082e565b005b34801561029957600080fd5b506102b460048036038101906102af9190612383565b6108c0565b6040516102c191906123f1565b60405180910390f35b3480156102d657600080fd5b506102f160048036038101906102ec91906125a7565b6108d6565b6040516102fe9190612487565b60405180910390f35b34801561031357600080fd5b5061031c6109a5565b005b34801561032a57600080fd5b50610333610a2d565b60405161034091906123f1565b60405180910390f35b34801561035557600080fd5b5061035e610a56565b60405161036b919061232b565b60405180910390f35b61038e60048036038101906103899190612383565b610ae8565b005b34801561039c57600080fd5b506103b760048036038101906103b29190612600565b610af5565b005b3480156103c557600080fd5b506103e060048036038101906103db9190612770565b610c6c565b005b3480156103ee57600080fd5b5061040960048036038101906104049190612383565b610ce8565b604051610416919061232b565b60405180910390f35b34801561042b57600080fd5b50610446600480360381019061044191906127f3565b610d86565b6040516104539190612277565b60405180910390f35b34801561046857600080fd5b50610483600480360381019061047e91906125a7565b610e1a565b005b60007f80ac58cd000000000000000000000000000000000000000000000000000000007bffffffffffffffffffffffffffffffffffffffffffffffffffffffff1916827bffffffffffffffffffffffffffffffffffffffffffffffffffffffff1916148061055057507f5b5e139f000000000000000000000000000000000000000000000000000000007bffffffffffffffffffffffffffffffffffffffffffffffffffffffff1916827bffffffffffffffffffffffffffffffffffffffffffffffffffffffff1916145b806105b857507f780e9d63000000000000000000000000000000000000000000000000000000007bffffffffffffffffffffffffffffffffffffffffffffffffffffffff1916827bffffffffffffffffffffffffffffffffffffffffffffffffffffffff1916145b806105c857506105c782610f11565b5b9050919050565b6060600380546105de90612862565b80601f016020809104026020016040519081016040528092919081815260200182805461060a90612862565b80156106575780601f1061062c57610100808354040283529160200191610657565b820191906000526020600020905b81548152906001019060200180831161063a57829003601f168201915b5050505050905090565b600061066c82610ff3565b6106a2576040517fcf4700e400000000000000000000000000000000000000000000000000000000815260040160405180910390fd5b6007600083815260200190815260200160002060009054906101000a900473ffffffffffffffffffffffffffffffffffffffff169050919050565b60006106e8826108c0565b90508073ffffffffffffffffffffffffffffffffffffffff168373ffffffffffffffffffffffffffffffffffffffff160361074f576040517f943f7b8c00000000000000000000000000000000000000000000000000000000815260040160405180910390fd5b8073ffffffffffffffffffffffffffffffffffffffff1661076e611041565b73ffffffffffffffffffffffffffffffffffffffff16141580156107a0575061079e81610799611041565b610d86565b155b156107d7576040517fcfb3b94200000000000000000000000000000000000000000000000000000000815260040160405180910390fd5b6107e2838383611049565b505050565b60006107f16110fb565b6002546001540303905090565b610809838383611100565b505050565b61082983838360405180602001604052806000815250610c6c565b505050565b610836611041565b73ffffffffffffffffffffffffffffffffffffffff16610854610a2d565b73ffffffffffffffffffffffffffffffffffffffff16146108aa576040517f08c379a00000000000000000000000000000000000000000000000000000000081526004016108a1906128df565b60405180910390fd5b8181600991906108bb9291906120dd565b505050565b60006108cb826115b4565b600001519050919050565b60008073ffffffffffffffffffffffffffffffffffffffff168273ffffffffffffffffffffffffffffffffffffffff160361093d576040517f8f4eb60400000000000000000000000000000000000000000000000000000000815260040160405180910390fd5b600660008373ffffffffffffffffffffffffffffffffffffffff1673ffffffffffffffffffffffffffffffffffffffff16815260200190815260200160002060000160009054906101000a900467ffffffffffffffff1667ffffffffffffffff169050919050565b6109ad611041565b73ffffffffffffffffffffffffffffffffffffffff166109cb610a2d565b73ffffffffffffffffffffffffffffffffffffffff1614610a21576040517f08c379a0000000000000000000000000000000000000000000000000000000008152600401610a18906128df565b60405180910390fd5b610a2b6000611843565b565b60008060009054906101000a900473ffffffffffffffffffffffffffffffffffffffff16905090565b606060048054610a6590612862565b80601f0160208091040260200160405190810160405280929190818152602001828054610a9190612862565b8015610ade5780601f10610ab357610100808354040283529160200191610ade565b820191906000526020600020905b815481529060010190602001808311610ac157829003601f168201915b5050505050905090565b610af23382611907565b50565b610afd611041565b73ffffffffffffffffffffffffffffffffffffffff168273ffffffffffffffffffffffffffffffffffffffff1603610b61576040517fb06307db00000000000000000000000000000000000000000000000000000000815260040160405180910390fd5b8060086000610b6e611041565b73ffffffffffffffffffffffffffffffffffffffff1673ffffffffffffffffffffffffffffffffffffffff16815260200190815260200160002060008473ffffffffffffffffffffffffffffffffffffffff1673ffffffffffffffffffffffffffffffffffffffff16815260200190815260200160002060006101000a81548160ff0219169083151502179055508173ffffffffffffffffffffffffffffffffffffffff16610c1b611041565b73ffffffffffffffffffffffffffffffffffffffff167f17307eab39ab6107e8899845ad3d59bd9653f200f220920489ca2b5937696c3183604051610c609190612277565b60405180910390a35050565b610c77848484611100565b610c968373ffffffffffffffffffffffffffffffffffffffff16611925565b8015610cab5750610ca984848484611948565b155b15610ce2576040517fd1a57ed600000000000000000000000000000000000000000000000000000000815260040160405180910390fd5b50505050565b6060610cf382610ff3565b610d29576040517fa14c4b5000000000000000000000000000000000000000000000000000000000815260040160405180910390fd5b6000610d33611a98565b90506000815103610d535760405180602001604052806000815250610d7e565b80610d5d84611b2a565b604051602001610d6e92919061293b565b6040516020818303038152906040525b915050919050565b6000600860008473ffffffffffffffffffffffffffffffffffffffff1673ffffffffffffffffffffffffffffffffffffffff16815260200190815260200160002060008373ffffffffffffffffffffffffffffffffffffffff1673ffffffffffffffffffffffffffffffffffffffff16815260200190815260200160002060009054906101000a900460ff16905092915050565b610e22611041565b73ffffffffffffffffffffffffffffffffffffffff16610e40610a2d565b73ffffffffffffffffffffffffffffffffffffffff1614610e96576040517f08c379a0000000000000000000000000000000000000000000000000000000008152600401610e8d906128df565b60405180910390fd5b600073ffffffffffffffffffffffffffffffffffffffff168173ffffffffffffffffffffffffffffffffffffffff1603610f05576040517f08c379a0000000000000000000000000000000000000000000000000000000008152600401610efc906129d1565b60405180910390fd5b610f0e81611843565b50565b60007f80ac58cd000000000000000000000000000000000000000000000000000000007bffffffffffffffffffffffffffffffffffffffffffffffffffffffff1916827bffffffffffffffffffffffffffffffffffffffffffffffffffffffff19161480610fdc57507f5b5e139f000000000000000000000000000000000000000000000000000000007bffffffffffffffffffffffffffffffffffffffffffffffffffffffff1916827bffffffffffffffffffffffffffffffffffffffffffffffffffffffff1916145b80610fec5750610feb82611c8a565b5b9050919050565b600081610ffe6110fb565b1115801561100d575060015482105b801561103a575060056000838152602001908152602001600020600001601c9054906101000a900460ff16155b9050919050565b600033905090565b826007600084815260200190815260200160002060006101000a81548173ffffffffffffffffffffffffffffffffffffffff021916908373ffffffffffffffffffffffffffffffffffffffff160217905550818373ffffffffffffffffffffffffffffffffffffffff168273ffffffffffffffffffffffffffffffffffffffff167f8c5be1e5ebec7d5bd14f71427d1e84f3dd0314c0f7b2291e5b200ac8c7c3b92560405160405180910390a4505050565b600090565b600061110b826115b4565b90508373ffffffffffffffffffffffffffffffffffffffff16816000015173ffffffffffffffffffffffffffffffffffffffff1614611176576040517fa114810000000000000000000000000000000000000000000000000000000000815260040160405180910390fd5b60008473ffffffffffffffffffffffffffffffffffffffff16611197611041565b73ffffffffffffffffffffffffffffffffffffffff1614806111c657506111c5856111c0611041565b610d86565b5b8061120b57506111d4611041565b73ffffffffffffffffffffffffffffffffffffffff166111f384610661565b73ffffffffffffffffffffffffffffffffffffffff16145b905080611244576040517f59c896be00000000000000000000000000000000000000000000000000000000815260040160405180910390fd5b600073ffffffffffffffffffffffffffffffffffffffff168473ffffffffffffffffffffffffffffffffffffffff16036112aa576040517fea553b3400000000000000000000000000000000000000000000000000000000815260040160405180910390fd5b6112b78585856001611cf4565b6112c360008487611049565b6001600660008773ffffffffffffffffffffffffffffffffffffffff1673ffffffffffffffffffffffffffffffffffffffff16815260200190815260200160002060000160008282829054906101000a900467ffffffffffffffff160392506101000a81548167ffffffffffffffff021916908367ffffffffffffffff1602179055506001600660008673ffffffffffffffffffffffffffffffffffffffff1673ffffffffffffffffffffffffffffffffffffffff16815260200190815260200160002060000160008282829054906101000a900467ffffffffffffffff160192506101000a81548167ffffffffffffffff021916908367ffffffffffffffff1602179055506000600560008581526020019081526020016000209050848160000160006101000a81548173ffffffffffffffffffffffffffffffffffffffff021916908373ffffffffffffffffffffffffffffffffffffffff160217905550428160000160146101000a81548167ffffffffffffffff021916908367ffffffffffffffff16021790555060006001850190506000600560008381526020019081526020016000209050600073ffffffffffffffffffffffffffffffffffffffff168160000160009054906101000a900473ffffffffffffffffffffffffffffffffffffffff1673ffffffffffffffffffffffffffffffffffffffff160361154257600154821461154157878160000160006101000a81548173ffffffffffffffffffffffffffffffffffffffff021916908373ffffffffffffffffffffffffffffffffffffffff16021790555084602001518160000160146101000a81548167ffffffffffffffff021916908367ffffffffffffffff1602179055505b5b505050828473ffffffffffffffffffffffffffffffffffffffff168673ffffffffffffffffffffffffffffffffffffffff167fddf252ad1be2c89b69c2b068fc378daa952ba7f163c4a11628f55a4df523b3ef60405160405180910390a46115ad8585856001611cfa565b5050505050565b6115bc612163565b6000829050806115ca6110fb565b111580156115d9575060015481105b1561180c576000600560008381526020019081526020016000206040518060600160405290816000820160009054906101000a900473ffffffffffffffffffffffffffffffffffffffff1673ffffffffffffffffffffffffffffffffffffffff1673ffffffffffffffffffffffffffffffffffffffff1681526020016000820160149054906101000a900467ffffffffffffffff1667ffffffffffffffff1667ffffffffffffffff16815260200160008201601c9054906101000a900460ff1615151515815250509050806040015161180a57600073ffffffffffffffffffffffffffffffffffffffff16816000015173ffffffffffffffffffffffffffffffffffffffff16146116ee57809250505061183e565b5b60011561180957818060019003925050600560008381526020019081526020016000206040518060600160405290816000820160009054906101000a900473ffffffffffffffffffffffffffffffffffffffff1673ffffffffffffffffffffffffffffffffffffffff1673ffffffffffffffffffffffffffffffffffffffff1681526020016000820160149054906101000a900467ffffffffffffffff1667ffffffffffffffff1667ffffffffffffffff16815260200160008201601c9054906101000a900460ff1615151515815250509050600073ffffffffffffffffffffffffffffffffffffffff16816000015173ffffffffffffffffffffffffffffffffffffffff161461180457809250505061183e565b6116ef565b5b505b6040517fdf2d9b4200000000000000000000000000000000000000000000000000000000815260040160405180910390fd5b919050565b60008060009054906101000a900473ffffffffffffffffffffffffffffffffffffffff169050816000806101000a81548173ffffffffffffffffffffffffffffffffffffffff021916908373ffffffffffffffffffffffffffffffffffffffff1602179055508173ffffffffffffffffffffffffffffffffffffffff168173ffffffffffffffffffffffffffffffffffffffff167f8be0079c531659141344cd1fd0a4f28419497f9722a3daafe3b4186f6b6457e060405160405180910390a35050565b611921828260405180602001604052806000815250611d00565b5050565b6000808273ffffffffffffffffffffffffffffffffffffffff163b119050919050565b60008373ffffffffffffffffffffffffffffffffffffffff1663150b7a0261196e611041565b8786866040518563ffffffff1660e01b81526004016119909493929190612a46565b6020604051808303816000875af19250505080156119cc57506040513d601f19601f820116820180604052508101906119c99190612aa7565b60015b611a45573d80600081146119fc576040519150601f19603f3d011682016040523d82523d6000602084013e611a01565b606091505b506000815103611a3d576040517fd1a57ed600000000000000000000000000000000000000000000000000000000815260040160405180910390fd5b805181602001fd5b63150b7a0260e01b7bffffffffffffffffffffffffffffffffffffffffffffffffffffffff1916817bffffffffffffffffffffffffffffffffffffffffffffffffffffffff191614915050949350505050565b606060098054611aa790612862565b80601f0160208091040260200160405190810160405280929190818152602001828054611ad390612862565b8015611b205780601f10611af557610100808354040283529160200191611b20565b820191906000526020600020905b815481529060010190602001808311611b0357829003601f168201915b5050505050905090565b606060008203611b71576040518060400160405280600181526020017f30000000000000000000000000000000000000000000000000000000000000008152509050611c85565b600082905060005b60008214611ba3578080611b8c90612b03565b915050600a82611b9c9190612b7a565b9150611b79565b60008167ffffffffffffffff811115611bbf57611bbe612645565b5b6040519080825280601f01601f191660200182016040528015611bf15781602001600182028036833780820191505090505b5090505b60008514611c7e57600182611c0a9190612bab565b9150600a85611c199190612bdf565b6030611c259190612c10565b60f81b818381518110611c3b57611c3a612c66565b5b60200101907effffffffffffffffffffffffffffffffffffffffffffffffffffffffffffff1916908160001a905350600a85611c779190612b7a565b9450611bf5565b8093505050505b919050565b60007f01ffc9a7000000000000000000000000000000000000000000000000000000007bffffffffffffffffffffffffffffffffffffffffffffffffffffffff1916827bffffffffffffffffffffffffffffffffffffffffffffffffffffffff1916149050919050565b50505050565b50505050565b611d0d8383836001611d12565b505050565b60006001549050600073ffffffffffffffffffffffffffffffffffffffff168573ffffffffffffffffffffffffffffffffffffffff1603611d7f576040517f2e07630000000000000000000000000000000000000000000000000000000000815260040160405180910390fd5b60008403611db9576040517fb562e8dd00000000000000000000000000000000000000000000000000000000815260040160405180910390fd5b611dc66000868387611cf4565b83600660008773ffffffffffffffffffffffffffffffffffffffff1673ffffffffffffffffffffffffffffffffffffffff16815260200190815260200160002060000160008282829054906101000a900467ffffffffffffffff160192506101000a81548167ffffffffffffffff021916908367ffffffffffffffff16021790555083600660008773ffffffffffffffffffffffffffffffffffffffff1673ffffffffffffffffffffffffffffffffffffffff16815260200190815260200160002060000160088282829054906101000a900467ffffffffffffffff160192506101000a81548167ffffffffffffffff021916908367ffffffffffffffff160217905550846005600083815260200190815260200160002060000160006101000a81548173ffffffffffffffffffffffffffffffffffffffff021916908373ffffffffffffffffffffffffffffffffffffffff160217905550426005600083815260200190815260200160002060000160146101000a81548167ffffffffffffffff021916908367ffffffffffffffff160217905550600081905060008582019050838015611f905750611f8f8773ffffffffffffffffffffffffffffffffffffffff16611925565b5b15612055575b818773ffffffffffffffffffffffffffffffffffffffff16600073ffffffffffffffffffffffffffffffffffffffff167fddf252ad1be2c89b69c2b068fc378daa952ba7f163c4a11628f55a4df523b3ef60405160405180910390a46120056000888480600101955088611948565b61203b576040517fd1a57ed600000000000000000000000000000000000000000000000000000000815260040160405180910390fd5b808203611f9657826001541461205057600080fd5b6120c0565b5b818060010192508773ffffffffffffffffffffffffffffffffffffffff16600073ffffffffffffffffffffffffffffffffffffffff167fddf252ad1be2c89b69c2b068fc378daa952ba7f163c4a11628f55a4df523b3ef60405160405180910390a4808203612056575b8160018190555050506120d66000868387611cfa565b5050505050565b8280546120e990612862565b90600052602060002090601f01602090048101928261210b5760008555612152565b82601f1061212457803560ff1916838001178555612152565b82800160010185558215612152579182015b82811115612151578235825591602001919060010190612136565b5b50905061215f91906121a6565b5090565b6040518060600160405280600073ffffffffffffffffffffffffffffffffffffffff168152602001600067ffffffffffffffff1681526020016000151581525090565b5b808211156121bf5760008160009055506001016121a7565b5090565b6000604051905090565b600080fd5b600080fd5b60007fffffffff0000000000000000000000000000000000000000000000000000000082169050919050565b61220c816121d7565b811461221757600080fd5b50565b60008135905061222981612203565b92915050565b600060208284031215612245576122446121cd565b5b60006122538482850161221a565b91505092915050565b60008115159050919050565b6122718161225c565b82525050565b600060208201905061228c6000830184612268565b92915050565b600081519050919050565b600082825260208201905092915050565b60005b838110156122cc5780820151818401526020810190506122b1565b838111156122db576000848401525b50505050565b6000601f19601f8301169050919050565b60006122fd82612292565b612307818561229d565b93506123178185602086016122ae565b612320816122e1565b840191505092915050565b6000602082019050818103600083015261234581846122f2565b905092915050565b6000819050919050565b6123608161234d565b811461236b57600080fd5b50565b60008135905061237d81612357565b92915050565b600060208284031215612399576123986121cd565b5b60006123a78482850161236e565b91505092915050565b600073ffffffffffffffffffffffffffffffffffffffff82169050919050565b60006123db826123b0565b9050919050565b6123eb816123d0565b82525050565b600060208201905061240660008301846123e2565b92915050565b612415816123d0565b811461242057600080fd5b50565b6000813590506124328161240c565b92915050565b6000806040838503121561244f5761244e6121cd565b5b600061245d85828601612423565b925050602061246e8582860161236e565b9150509250929050565b6124818161234d565b82525050565b600060208201905061249c6000830184612478565b92915050565b6000806000606084860312156124bb576124ba6121cd565b5b60006124c986828701612423565b93505060206124da86828701612423565b92505060406124eb8682870161236e565b9150509250925092565b600080fd5b600080fd5b600080fd5b60008083601f84011261251a576125196124f5565b5b8235905067ffffffffffffffff811115612537576125366124fa565b5b602083019150836001820283011115612553576125526124ff565b5b9250929050565b60008060208385031215612571576125706121cd565b5b600083013567ffffffffffffffff81111561258f5761258e6121d2565b5b61259b85828601612504565b92509250509250929050565b6000602082840312156125bd576125bc6121cd565b5b60006125cb84828501612423565b91505092915050565b6125dd8161225c565b81146125e857600080fd5b50565b6000813590506125fa816125d4565b92915050565b60008060408385031215612617576126166121cd565b5b600061262585828601612423565b9250506020612636858286016125eb565b9150509250929050565b600080fd5b7f4e487b7100000000000000000000000000000000000000000000000000000000600052604160045260246000fd5b61267d826122e1565b810181811067ffffffffffffffff8211171561269c5761269b612645565b5b80604052505050565b60006126af6121c3565b90506126bb8282612674565b919050565b600067ffffffffffffffff8211156126db576126da612645565b5b6126e4826122e1565b9050602081019050919050565b82818337600083830152505050565b600061271361270e846126c0565b6126a5565b90508281526020810184848401111561272f5761272e612640565b5b61273a8482856126f1565b509392505050565b600082601f830112612757576127566124f5565b5b8135612767848260208601612700565b91505092915050565b6000806000806080858703121561278a576127896121cd565b5b600061279887828801612423565b94505060206127a987828801612423565b93505060406127ba8782880161236e565b925050606085013567ffffffffffffffff8111156127db576127da6121d2565b5b6127e787828801612742565b91505092959194509250565b6000806040838503121561280a576128096121cd565b5b600061281885828601612423565b925050602061282985828601612423565b9150509250929050565b7f4e487b7100000000000000000000000000000000000000000000000000000000600052602260045260246000fd5b6000600282049050600182168061287a57607f821691505b60208210810361288d5761288c612833565b5b50919050565b7f4f776e61626c653a2063616c6c6572206973206e6f7420746865206f776e6572600082015250565b60006128c960208361229d565b91506128d482612893565b602082019050919050565b600060208201905081810360008301526128f8816128bc565b9050919050565b600081905092915050565b600061291582612292565b61291f81856128ff565b935061292f8185602086016122ae565b80840191505092915050565b6000612947828561290a565b9150612953828461290a565b91508190509392505050565b7f4f776e61626c653a206e6577206f776e657220697320746865207a65726f206160008201527f6464726573730000000000000000000000000000000000000000000000000000602082015250565b60006129bb60268361229d565b91506129c68261295f565b604082019050919050565b600060208201905081810360008301526129ea816129ae565b9050919050565b600081519050919050565b600082825260208201905092915050565b6000612a18826129f1565b612a2281856129fc565b9350612a328185602086016122ae565b612a3b816122e1565b840191505092915050565b6000608082019050612a5b60008301876123e2565b612a6860208301866123e2565b612a756040830185612478565b8181036060830152612a878184612a0d565b905095945050505050565b600081519050612aa181612203565b92915050565b600060208284031215612abd57612abc6121cd565b5b6000612acb84828501612a92565b91505092915050565b7f4e487b7100000000000000000000000000000000000000000000000000000000600052601160045260246000fd5b6000612b0e8261234d565b91507fffffffffffffffffffffffffffffffffffffffffffffffffffffffffffffffff8203612b4057612b3f612ad4565b5b600182019050919050565b7f4e487b7100000000000000000000000000000000000000000000000000000000600052601260045260246000fd5b6000612b858261234d565b9150612b908361234d565b925082612ba057612b9f612b4b565b5b828204905092915050565b6000612bb68261234d565b9150612bc18361234d565b925082821015612bd457612bd3612ad4565b5b828203905092915050565b6000612bea8261234d565b9150612bf58361234d565b925082612c0557612c04612b4b565b5b828206905092915050565b6000612c1b8261234d565b9150612c268361234d565b9250827fffffffffffffffffffffffffffffffffffffffffffffffffffffffffffffffff03821115612c5b57612c5a612ad4565b5b828201905092915050565b7f4e487b7100000000000000000000000000000000000000000000000000000000600052603260045260246000fdfea264697066735822122097d7108bf7df08f849799d6b41a70238df5a6d8624a642920c24b4947f0f75d264736f6c634300080d0033",
					"opcodes": "PUSH1 0x80 PUSH1 0x40 MSTORE CALLVALUE DUP1 ISZERO PUSH3 0x11 JUMPI PUSH1 0x0 DUP1 REVERT JUMPDEST POP PUSH1 0x40 MLOAD DUP1 PUSH1 0x40 ADD PUSH1 0x40 MSTORE DUP1 PUSH1 0xC DUP2 MSTORE PUSH1 0x20 ADD PUSH32 0x526F746174696E67437562650000000000000000000000000000000000000000 DUP2 MSTORE POP PUSH1 0x40 MLOAD DUP1 PUSH1 0x40 ADD PUSH1 0x40 MSTORE DUP1 PUSH1 0x4 DUP2 MSTORE PUSH1 0x20 ADD PUSH32 0x4355424500000000000000000000000000000000000000000000000000000000 DUP2 MSTORE POP PUSH3 0x9E PUSH3 0x92 PUSH3 0xEE PUSH1 0x20 SHL PUSH1 0x20 SHR JUMP JUMPDEST PUSH3 0xF6 PUSH1 0x20 SHL PUSH1 0x20 SHR JUMP JUMPDEST DUP2 PUSH1 0x3 SWAP1 DUP1 MLOAD SWAP1 PUSH1 0x20 ADD SWAP1 PUSH3 0xB6 SWAP3 SWAP2 SWAP1 PUSH3 0x1BF JUMP JUMPDEST POP DUP1 PUSH1 0x4 SWAP1 DUP1 MLOAD SWAP1 PUSH1 0x20 ADD SWAP1 PUSH3 0xCF SWAP3 SWAP2 SWAP1 PUSH3 0x1BF JUMP JUMPDEST POP PUSH3 0xE0 PUSH3 0x1BA PUSH1 0x20 SHL PUSH1 0x20 SHR JUMP JUMPDEST PUSH1 0x1 DUP2 SWAP1 SSTORE POP POP POP PUSH3 0x2D3 JUMP JUMPDEST PUSH1 0x0 CALLER SWAP1 POP SWAP1 JUMP JUMPDEST PUSH1 0x0 DUP1 PUSH1 0x0 SWAP1 SLOAD SWAP1 PUSH2 0x100 EXP SWAP1 DIV PUSH20 0xFFFFFFFFFFFFFFFFFFFFFFFFFFFFFFFFFFFFFFFF AND SWAP1 POP DUP2 PUSH1 0x0 DUP1 PUSH2 0x100 EXP DUP2 SLOAD DUP2 PUSH20 0xFFFFFFFFFFFFFFFFFFFFFFFFFFFFFFFFFFFFFFFF MUL NOT AND SWAP1 DUP4 PUSH20 0xFFFFFFFFFFFFFFFFFFFFFFFFFFFFFFFFFFFFFFFF AND MUL OR SWAP1 SSTORE POP DUP2 PUSH20 0xFFFFFFFFFFFFFFFFFFFFFFFFFFFFFFFFFFFFFFFF AND DUP2 PUSH20 0xFFFFFFFFFFFFFFFFFFFFFFFFFFFFFFFFFFFFFFFF AND PUSH32 0x8BE0079C531659141344CD1FD0A4F28419497F9722A3DAAFE3B4186F6B6457E0 PUSH1 0x40 MLOAD PUSH1 0x40 MLOAD DUP1 SWAP2 SUB SWAP1 LOG3 POP POP JUMP JUMPDEST PUSH1 0x0 SWAP1 JUMP JUMPDEST DUP3 DUP1 SLOAD PUSH3 0x1CD SWAP1 PUSH3 0x29E JUMP JUMPDEST SWAP1 PUSH1 0x0 MSTORE PUSH1 0x20 PUSH1 0x0 KECCAK256 SWAP1 PUSH1 0x1F ADD PUSH1 0x20 SWAP1 DIV DUP2 ADD SWAP3 DUP3 PUSH3 0x1F1 JUMPI PUSH1 0x0 DUP6 SSTORE PUSH3 0x23D JUMP JUMPDEST DUP3 PUSH1 0x1F LT PUSH3 0x20C JUMPI DUP1 MLOAD PUSH1 0xFF NOT AND DUP4 DUP1 ADD OR DUP6 SSTORE PUSH3 0x23D JUMP JUMPDEST DUP3 DUP1 ADD PUSH1 0x1 ADD DUP6 SSTORE DUP3 ISZERO PUSH3 0x23D JUMPI SWAP2 DUP3 ADD JUMPDEST DUP3 DUP2 GT ISZERO PUSH3 0x23C JUMPI DUP3 MLOAD DUP3 SSTORE SWAP2 PUSH1 0x20 ADD SWAP2 SWAP1 PUSH1 0x1 ADD SWAP1 PUSH3 0x21F JUMP JUMPDEST JUMPDEST POP SWAP1 POP PUSH3 0x24C SWAP2 SWAP1 PUSH3 0x250 JUMP JUMPDEST POP SWAP1 JUMP JUMPDEST JUMPDEST DUP1 DUP3 GT ISZERO PUSH3 0x26B JUMPI PUSH1 0x0 DUP2 PUSH1 0x0 SWAP1 SSTORE POP PUSH1 0x1 ADD PUSH3 0x251 JUMP JUMPDEST POP SWAP1 JUMP JUMPDEST PUSH32 0x4E487B7100000000000000000000000000000000000000000000000000000000 PUSH1 0x0 MSTORE PUSH1 0x22 PUSH1 0x4 MSTORE PUSH1 0x24 PUSH1 0x0 REVERT JUMPDEST PUSH1 0x0 PUSH1 0x2 DUP3 DIV SWAP1 POP PUSH1 0x1 DUP3 AND DUP1 PUSH3 0x2B7 JUMPI PUSH1 0x7F DUP3 AND SWAP2 POP JUMPDEST PUSH1 0x20 DUP3 LT DUP2 SUB PUSH3 0x2CD JUMPI PUSH3 0x2CC PUSH3 0x26F JUMP JUMPDEST JUMPDEST POP SWAP2 SWAP1 POP JUMP JUMPDEST PUSH2 0x2CCB DUP1 PUSH3 0x2E3 PUSH1 0x0 CODECOPY PUSH1 0x0 RETURN INVALID PUSH1 0x80 PUSH1 0x40 MSTORE PUSH1 0x4 CALLDATASIZE LT PUSH2 0x114 JUMPI PUSH1 0x0 CALLDATALOAD PUSH1 0xE0 SHR DUP1 PUSH4 0x70A08231 GT PUSH2 0xA0 JUMPI DUP1 PUSH4 0xA22CB465 GT PUSH2 0x64 JUMPI DUP1 PUSH4 0xA22CB465 EQ PUSH2 0x390 JUMPI DUP1 PUSH4 0xB88D4FDE EQ PUSH2 0x3B9 JUMPI DUP1 PUSH4 0xC87B56DD EQ PUSH2 0x3E2 JUMPI DUP1 PUSH4 0xE985E9C5 EQ PUSH2 0x41F JUMPI DUP1 PUSH4 0xF2FDE38B EQ PUSH2 0x45C JUMPI PUSH2 0x114 JUMP JUMPDEST DUP1 PUSH4 0x70A08231 EQ PUSH2 0x2CA JUMPI DUP1 PUSH4 0x715018A6 EQ PUSH2 0x307 JUMPI DUP1 PUSH4 0x8DA5CB5B EQ PUSH2 0x31E JUMPI DUP1 PUSH4 0x95D89B41 EQ PUSH2 0x349 JUMPI DUP1 PUSH4 0xA0712D68 EQ PUSH2 0x374 JUMPI PUSH2 0x114 JUMP JUMPDEST DUP1 PUSH4 0x18160DDD GT PUSH2 0xE7 JUMPI DUP1 PUSH4 0x18160DDD EQ PUSH2 0x1E7 JUMPI DUP1 PUSH4 0x23B872DD EQ PUSH2 0x212 JUMPI DUP1 PUSH4 0x42842E0E EQ PUSH2 0x23B JUMPI DUP1 PUSH4 0x55F804B3 EQ PUSH2 0x264 JUMPI DUP1 PUSH4 0x6352211E EQ PUSH2 0x28D JUMPI PUSH2 0x114 JUMP JUMPDEST DUP1 PUSH4 0x1FFC9A7 EQ PUSH2 0x119 JUMPI DUP1 PUSH4 0x6FDDE03 EQ PUSH2 0x156 JUMPI DUP1 PUSH4 0x81812FC EQ PUSH2 0x181 JUMPI DUP1 PUSH4 0x95EA7B3 EQ PUSH2 0x1BE JUMPI JUMPDEST PUSH1 0x0 DUP1 REVERT JUMPDEST CALLVALUE DUP1 ISZERO PUSH2 0x125 JUMPI PUSH1 0x0 DUP1 REVERT JUMPDEST POP PUSH2 0x140 PUSH1 0x4 DUP1 CALLDATASIZE SUB DUP2 ADD SWAP1 PUSH2 0x13B SWAP2 SWAP1 PUSH2 0x222F JUMP JUMPDEST PUSH2 0x485 JUMP JUMPDEST PUSH1 0x40 MLOAD PUSH2 0x14D SWAP2 SWAP1 PUSH2 0x2277 JUMP JUMPDEST PUSH1 0x40 MLOAD DUP1 SWAP2 SUB SWAP1 RETURN JUMPDEST CALLVALUE DUP1 ISZERO PUSH2 0x162 JUMPI PUSH1 0x0 DUP1 REVERT JUMPDEST POP PUSH2 0x16B PUSH2 0x5CF JUMP JUMPDEST PUSH1 0x40 MLOAD PUSH2 0x178 SWAP2 SWAP1 PUSH2 0x232B JUMP JUMPDEST PUSH1 0x40 MLOAD DUP1 SWAP2 SUB SWAP1 RETURN JUMPDEST CALLVALUE DUP1 ISZERO PUSH2 0x18D JUMPI PUSH1 0x0 DUP1 REVERT JUMPDEST POP PUSH2 0x1A8 PUSH1 0x4 DUP1 CALLDATASIZE SUB DUP2 ADD SWAP1 PUSH2 0x1A3 SWAP2 SWAP1 PUSH2 0x2383 JUMP JUMPDEST PUSH2 0x661 JUMP JUMPDEST PUSH1 0x40 MLOAD PUSH2 0x1B5 SWAP2 SWAP1 PUSH2 0x23F1 JUMP JUMPDEST PUSH1 0x40 MLOAD DUP1 SWAP2 SUB SWAP1 RETURN JUMPDEST CALLVALUE DUP1 ISZERO PUSH2 0x1CA JUMPI PUSH1 0x0 DUP1 REVERT JUMPDEST POP PUSH2 0x1E5 PUSH1 0x4 DUP1 CALLDATASIZE SUB DUP2 ADD SWAP1 PUSH2 0x1E0 SWAP2 SWAP1 PUSH2 0x2438 JUMP JUMPDEST PUSH2 0x6DD JUMP JUMPDEST STOP JUMPDEST CALLVALUE DUP1 ISZERO PUSH2 0x1F3 JUMPI PUSH1 0x0 DUP1 REVERT JUMPDEST POP PUSH2 0x1FC PUSH2 0x7E7 JUMP JUMPDEST PUSH1 0x40 MLOAD PUSH2 0x209 SWAP2 SWAP1 PUSH2 0x2487 JUMP JUMPDEST PUSH1 0x40 MLOAD DUP1 SWAP2 SUB SWAP1 RETURN JUMPDEST CALLVALUE DUP1 ISZERO PUSH2 0x21E JUMPI PUSH1 0x0 DUP1 REVERT JUMPDEST POP PUSH2 0x239 PUSH1 0x4 DUP1 CALLDATASIZE SUB DUP2 ADD SWAP1 PUSH2 0x234 SWAP2 SWAP1 PUSH2 0x24A2 JUMP JUMPDEST PUSH2 0x7FE JUMP JUMPDEST STOP JUMPDEST CALLVALUE DUP1 ISZERO PUSH2 0x247 JUMPI PUSH1 0x0 DUP1 REVERT JUMPDEST POP PUSH2 0x262 PUSH1 0x4 DUP1 CALLDATASIZE SUB DUP2 ADD SWAP1 PUSH2 0x25D SWAP2 SWAP1 PUSH2 0x24A2 JUMP JUMPDEST PUSH2 0x80E JUMP JUMPDEST STOP JUMPDEST CALLVALUE DUP1 ISZERO PUSH2 0x270 JUMPI PUSH1 0x0 DUP1 REVERT JUMPDEST POP PUSH2 0x28B PUSH1 0x4 DUP1 CALLDATASIZE SUB DUP2 ADD SWAP1 PUSH2 0x286 SWAP2 SWAP1 PUSH2 0x255A JUMP JUMPDEST PUSH2 0x82E JUMP JUMPDEST STOP JUMPDEST CALLVALUE DUP1 ISZERO PUSH2 0x299 JUMPI PUSH1 0x0 DUP1 REVERT JUMPDEST POP PUSH2 0x2B4 PUSH1 0x4 DUP1 CALLDATASIZE SUB DUP2 ADD SWAP1 PUSH2 0x2AF SWAP2 SWAP1 PUSH2 0x2383 JUMP JUMPDEST PUSH2 0x8C0 JUMP JUMPDEST PUSH1 0x40 MLOAD PUSH2 0x2C1 SWAP2 SWAP1 PUSH2 0x23F1 JUMP JUMPDEST PUSH1 0x40 MLOAD DUP1 SWAP2 SUB SWAP1 RETURN JUMPDEST CALLVALUE DUP1 ISZERO PUSH2 0x2D6 JUMPI PUSH1 0x0 DUP1 REVERT JUMPDEST POP PUSH2 0x2F1 PUSH1 0x4 DUP1 CALLDATASIZE SUB DUP2 ADD SWAP1 PUSH2 0x2EC SWAP2 SWAP1 PUSH2 0x25A7 JUMP JUMPDEST PUSH2 0x8D6 JUMP JUMPDEST PUSH1 0x40 MLOAD PUSH2 0x2FE SWAP2 SWAP1 PUSH2 0x2487 JUMP JUMPDEST PUSH1 0x40 MLOAD DUP1 SWAP2 SUB SWAP1 RETURN JUMPDEST CALLVALUE DUP1 ISZERO PUSH2 0x313 JUMPI PUSH1 0x0 DUP1 REVERT JUMPDEST POP PUSH2 0x31C PUSH2 0x9A5 JUMP JUMPDEST STOP JUMPDEST CALLVALUE DUP1 ISZERO PUSH2 0x32A JUMPI PUSH1 0x0 DUP1 REVERT JUMPDEST POP PUSH2 0x333 PUSH2 0xA2D JUMP JUMPDEST PUSH1 0x40 MLOAD PUSH2 0x340 SWAP2 SWAP1 PUSH2 0x23F1 JUMP JUMPDEST PUSH1 0x40 MLOAD DUP1 SWAP2 SUB SWAP1 RETURN JUMPDEST CALLVALUE DUP1 ISZERO PUSH2 0x355 JUMPI PUSH1 0x0 DUP1 REVERT JUMPDEST POP PUSH2 0x35E PUSH2 0xA56 JUMP JUMPDEST PUSH1 0x40 MLOAD PUSH2 0x36B SWAP2 SWAP1 PUSH2 0x232B JUMP JUMPDEST PUSH1 0x40 MLOAD DUP1 SWAP2 SUB SWAP1 RETURN JUMPDEST PUSH2 0x38E PUSH1 0x4 DUP1 CALLDATASIZE SUB DUP2 ADD SWAP1 PUSH2 0x389 SWAP2 SWAP1 PUSH2 0x2383 JUMP JUMPDEST PUSH2 0xAE8 JUMP JUMPDEST STOP JUMPDEST CALLVALUE DUP1 ISZERO PUSH2 0x39C JUMPI PUSH1 0x0 DUP1 REVERT JUMPDEST POP PUSH2 0x3B7 PUSH1 0x4 DUP1 CALLDATASIZE SUB DUP2 ADD SWAP1 PUSH2 0x3B2 SWAP2 SWAP1 PUSH2 0x2600 JUMP JUMPDEST PUSH2 0xAF5 JUMP JUMPDEST STOP JUMPDEST CALLVALUE DUP1 ISZERO PUSH2 0x3C5 JUMPI PUSH1 0x0 DUP1 REVERT JUMPDEST POP PUSH2 0x3E0 PUSH1 0x4 DUP1 CALLDATASIZE SUB DUP2 ADD SWAP1 PUSH2 0x3DB SWAP2 SWAP1 PUSH2 0x2770 JUMP JUMPDEST PUSH2 0xC6C JUMP JUMPDEST STOP JUMPDEST CALLVALUE DUP1 ISZERO PUSH2 0x3EE JUMPI PUSH1 0x0 DUP1 REVERT JUMPDEST POP PUSH2 0x409 PUSH1 0x4 DUP1 CALLDATASIZE SUB DUP2 ADD SWAP1 PUSH2 0x404 SWAP2 SWAP1 PUSH2 0x2383 JUMP JUMPDEST PUSH2 0xCE8 JUMP JUMPDEST PUSH1 0x40 MLOAD PUSH2 0x416 SWAP2 SWAP1 PUSH2 0x232B JUMP JUMPDEST PUSH1 0x40 MLOAD DUP1 SWAP2 SUB SWAP1 RETURN JUMPDEST CALLVALUE DUP1 ISZERO PUSH2 0x42B JUMPI PUSH1 0x0 DUP1 REVERT JUMPDEST POP PUSH2 0x446 PUSH1 0x4 DUP1 CALLDATASIZE SUB DUP2 ADD SWAP1 PUSH2 0x441 SWAP2 SWAP1 PUSH2 0x27F3 JUMP JUMPDEST PUSH2 0xD86 JUMP JUMPDEST PUSH1 0x40 MLOAD PUSH2 0x453 SWAP2 SWAP1 PUSH2 0x2277 JUMP JUMPDEST PUSH1 0x40 MLOAD DUP1 SWAP2 SUB SWAP1 RETURN JUMPDEST CALLVALUE DUP1 ISZERO PUSH2 0x468 JUMPI PUSH1 0x0 DUP1 REVERT JUMPDEST POP PUSH2 0x483 PUSH1 0x4 DUP1 CALLDATASIZE SUB DUP2 ADD SWAP1 PUSH2 0x47E SWAP2 SWAP1 PUSH2 0x25A7 JUMP JUMPDEST PUSH2 0xE1A JUMP JUMPDEST STOP JUMPDEST PUSH1 0x0 PUSH32 0x80AC58CD00000000000000000000000000000000000000000000000000000000 PUSH28 0xFFFFFFFFFFFFFFFFFFFFFFFFFFFFFFFFFFFFFFFFFFFFFFFFFFFFFFFF NOT AND DUP3 PUSH28 0xFFFFFFFFFFFFFFFFFFFFFFFFFFFFFFFFFFFFFFFFFFFFFFFFFFFFFFFF NOT AND EQ DUP1 PUSH2 0x550 JUMPI POP PUSH32 0x5B5E139F00000000000000000000000000000000000000000000000000000000 PUSH28 0xFFFFFFFFFFFFFFFFFFFFFFFFFFFFFFFFFFFFFFFFFFFFFFFFFFFFFFFF NOT AND DUP3 PUSH28 0xFFFFFFFFFFFFFFFFFFFFFFFFFFFFFFFFFFFFFFFFFFFFFFFFFFFFFFFF NOT AND EQ JUMPDEST DUP1 PUSH2 0x5B8 JUMPI POP PUSH32 0x780E9D6300000000000000000000000000000000000000000000000000000000 PUSH28 0xFFFFFFFFFFFFFFFFFFFFFFFFFFFFFFFFFFFFFFFFFFFFFFFFFFFFFFFF NOT AND DUP3 PUSH28 0xFFFFFFFFFFFFFFFFFFFFFFFFFFFFFFFFFFFFFFFFFFFFFFFFFFFFFFFF NOT AND EQ JUMPDEST DUP1 PUSH2 0x5C8 JUMPI POP PUSH2 0x5C7 DUP3 PUSH2 0xF11 JUMP JUMPDEST JUMPDEST SWAP1 POP SWAP2 SWAP1 POP JUMP JUMPDEST PUSH1 0x60 PUSH1 0x3 DUP1 SLOAD PUSH2 0x5DE SWAP1 PUSH2 0x2862 JUMP JUMPDEST DUP1 PUSH1 0x1F ADD PUSH1 0x20 DUP1 SWAP2 DIV MUL PUSH1 0x20 ADD PUSH1 0x40 MLOAD SWAP1 DUP2 ADD PUSH1 0x40 MSTORE DUP1 SWAP3 SWAP2 SWAP1 DUP2 DUP2 MSTORE PUSH1 0x20 ADD DUP3 DUP1 SLOAD PUSH2 0x60A SWAP1 PUSH2 0x2862 JUMP JUMPDEST DUP1 ISZERO PUSH2 0x657 JUMPI DUP1 PUSH1 0x1F LT PUSH2 0x62C JUMPI PUSH2 0x100 DUP1 DUP4 SLOAD DIV MUL DUP4 MSTORE SWAP2 PUSH1 0x20 ADD SWAP2 PUSH2 0x657 JUMP JUMPDEST DUP3 ADD SWAP2 SWAP1 PUSH1 0x0 MSTORE PUSH1 0x20 PUSH1 0x0 KECCAK256 SWAP1 JUMPDEST DUP2 SLOAD DUP2 MSTORE SWAP1 PUSH1 0x1 ADD SWAP1 PUSH1 0x20 ADD DUP1 DUP4 GT PUSH2 0x63A JUMPI DUP3 SWAP1 SUB PUSH1 0x1F AND DUP3 ADD SWAP2 JUMPDEST POP POP POP POP POP SWAP1 POP SWAP1 JUMP JUMPDEST PUSH1 0x0 PUSH2 0x66C DUP3 PUSH2 0xFF3 JUMP JUMPDEST PUSH2 0x6A2 JUMPI PUSH1 0x40 MLOAD PUSH32 0xCF4700E400000000000000000000000000000000000000000000000000000000 DUP2 MSTORE PUSH1 0x4 ADD PUSH1 0x40 MLOAD DUP1 SWAP2 SUB SWAP1 REVERT JUMPDEST PUSH1 0x7 PUSH1 0x0 DUP4 DUP2 MSTORE PUSH1 0x20 ADD SWAP1 DUP2 MSTORE PUSH1 0x20 ADD PUSH1 0x0 KECCAK256 PUSH1 0x0 SWAP1 SLOAD SWAP1 PUSH2 0x100 EXP SWAP1 DIV PUSH20 0xFFFFFFFFFFFFFFFFFFFFFFFFFFFFFFFFFFFFFFFF AND SWAP1 POP SWAP2 SWAP1 POP JUMP JUMPDEST PUSH1 0x0 PUSH2 0x6E8 DUP3 PUSH2 0x8C0 JUMP JUMPDEST SWAP1 POP DUP1 PUSH20 0xFFFFFFFFFFFFFFFFFFFFFFFFFFFFFFFFFFFFFFFF AND DUP4 PUSH20 0xFFFFFFFFFFFFFFFFFFFFFFFFFFFFFFFFFFFFFFFF AND SUB PUSH2 0x74F JUMPI PUSH1 0x40 MLOAD PUSH32 0x943F7B8C00000000000000000000000000000000000000000000000000000000 DUP2 MSTORE PUSH1 0x4 ADD PUSH1 0x40 MLOAD DUP1 SWAP2 SUB SWAP1 REVERT JUMPDEST DUP1 PUSH20 0xFFFFFFFFFFFFFFFFFFFFFFFFFFFFFFFFFFFFFFFF AND PUSH2 0x76E PUSH2 0x1041 JUMP JUMPDEST PUSH20 0xFFFFFFFFFFFFFFFFFFFFFFFFFFFFFFFFFFFFFFFF AND EQ ISZERO DUP1 ISZERO PUSH2 0x7A0 JUMPI POP PUSH2 0x79E DUP2 PUSH2 0x799 PUSH2 0x1041 JUMP JUMPDEST PUSH2 0xD86 JUMP JUMPDEST ISZERO JUMPDEST ISZERO PUSH2 0x7D7 JUMPI PUSH1 0x40 MLOAD PUSH32 0xCFB3B94200000000000000000000000000000000000000000000000000000000 DUP2 MSTORE PUSH1 0x4 ADD PUSH1 0x40 MLOAD DUP1 SWAP2 SUB SWAP1 REVERT JUMPDEST PUSH2 0x7E2 DUP4 DUP4 DUP4 PUSH2 0x1049 JUMP JUMPDEST POP POP POP JUMP JUMPDEST PUSH1 0x0 PUSH2 0x7F1 PUSH2 0x10FB JUMP JUMPDEST PUSH1 0x2 SLOAD PUSH1 0x1 SLOAD SUB SUB SWAP1 POP SWAP1 JUMP JUMPDEST PUSH2 0x809 DUP4 DUP4 DUP4 PUSH2 0x1100 JUMP JUMPDEST POP POP POP JUMP JUMPDEST PUSH2 0x829 DUP4 DUP4 DUP4 PUSH1 0x40 MLOAD DUP1 PUSH1 0x20 ADD PUSH1 0x40 MSTORE DUP1 PUSH1 0x0 DUP2 MSTORE POP PUSH2 0xC6C JUMP JUMPDEST POP POP POP JUMP JUMPDEST PUSH2 0x836 PUSH2 0x1041 JUMP JUMPDEST PUSH20 0xFFFFFFFFFFFFFFFFFFFFFFFFFFFFFFFFFFFFFFFF AND PUSH2 0x854 PUSH2 0xA2D JUMP JUMPDEST PUSH20 0xFFFFFFFFFFFFFFFFFFFFFFFFFFFFFFFFFFFFFFFF AND EQ PUSH2 0x8AA JUMPI PUSH1 0x40 MLOAD PUSH32 0x8C379A000000000000000000000000000000000000000000000000000000000 DUP2 MSTORE PUSH1 0x4 ADD PUSH2 0x8A1 SWAP1 PUSH2 0x28DF JUMP JUMPDEST PUSH1 0x40 MLOAD DUP1 SWAP2 SUB SWAP1 REVERT JUMPDEST DUP2 DUP2 PUSH1 0x9 SWAP2 SWAP1 PUSH2 0x8BB SWAP3 SWAP2 SWAP1 PUSH2 0x20DD JUMP JUMPDEST POP POP POP JUMP JUMPDEST PUSH1 0x0 PUSH2 0x8CB DUP3 PUSH2 0x15B4 JUMP JUMPDEST PUSH1 0x0 ADD MLOAD SWAP1 POP SWAP2 SWAP1 POP JUMP JUMPDEST PUSH1 0x0 DUP1 PUSH20 0xFFFFFFFFFFFFFFFFFFFFFFFFFFFFFFFFFFFFFFFF AND DUP3 PUSH20 0xFFFFFFFFFFFFFFFFFFFFFFFFFFFFFFFFFFFFFFFF AND SUB PUSH2 0x93D JUMPI PUSH1 0x40 MLOAD PUSH32 0x8F4EB60400000000000000000000000000000000000000000000000000000000 DUP2 MSTORE PUSH1 0x4 ADD PUSH1 0x40 MLOAD DUP1 SWAP2 SUB SWAP1 REVERT JUMPDEST PUSH1 0x6 PUSH1 0x0 DUP4 PUSH20 0xFFFFFFFFFFFFFFFFFFFFFFFFFFFFFFFFFFFFFFFF AND PUSH20 0xFFFFFFFFFFFFFFFFFFFFFFFFFFFFFFFFFFFFFFFF AND DUP2 MSTORE PUSH1 0x20 ADD SWAP1 DUP2 MSTORE PUSH1 0x20 ADD PUSH1 0x0 KECCAK256 PUSH1 0x0 ADD PUSH1 0x0 SWAP1 SLOAD SWAP1 PUSH2 0x100 EXP SWAP1 DIV PUSH8 0xFFFFFFFFFFFFFFFF AND PUSH8 0xFFFFFFFFFFFFFFFF AND SWAP1 POP SWAP2 SWAP1 POP JUMP JUMPDEST PUSH2 0x9AD PUSH2 0x1041 JUMP JUMPDEST PUSH20 0xFFFFFFFFFFFFFFFFFFFFFFFFFFFFFFFFFFFFFFFF AND PUSH2 0x9CB PUSH2 0xA2D JUMP JUMPDEST PUSH20 0xFFFFFFFFFFFFFFFFFFFFFFFFFFFFFFFFFFFFFFFF AND EQ PUSH2 0xA21 JUMPI PUSH1 0x40 MLOAD PUSH32 0x8C379A000000000000000000000000000000000000000000000000000000000 DUP2 MSTORE PUSH1 0x4 ADD PUSH2 0xA18 SWAP1 PUSH2 0x28DF JUMP JUMPDEST PUSH1 0x40 MLOAD DUP1 SWAP2 SUB SWAP1 REVERT JUMPDEST PUSH2 0xA2B PUSH1 0x0 PUSH2 0x1843 JUMP JUMPDEST JUMP JUMPDEST PUSH1 0x0 DUP1 PUSH1 0x0 SWAP1 SLOAD SWAP1 PUSH2 0x100 EXP SWAP1 DIV PUSH20 0xFFFFFFFFFFFFFFFFFFFFFFFFFFFFFFFFFFFFFFFF AND SWAP1 POP SWAP1 JUMP JUMPDEST PUSH1 0x60 PUSH1 0x4 DUP1 SLOAD PUSH2 0xA65 SWAP1 PUSH2 0x2862 JUMP JUMPDEST DUP1 PUSH1 0x1F ADD PUSH1 0x20 DUP1 SWAP2 DIV MUL PUSH1 0x20 ADD PUSH1 0x40 MLOAD SWAP1 DUP2 ADD PUSH1 0x40 MSTORE DUP1 SWAP3 SWAP2 SWAP1 DUP2 DUP2 MSTORE PUSH1 0x20 ADD DUP3 DUP1 SLOAD PUSH2 0xA91 SWAP1 PUSH2 0x2862 JUMP JUMPDEST DUP1 ISZERO PUSH2 0xADE JUMPI DUP1 PUSH1 0x1F LT PUSH2 0xAB3 JUMPI PUSH2 0x100 DUP1 DUP4 SLOAD DIV MUL DUP4 MSTORE SWAP2 PUSH1 0x20 ADD SWAP2 PUSH2 0xADE JUMP JUMPDEST DUP3 ADD SWAP2 SWAP1 PUSH1 0x0 MSTORE PUSH1 0x20 PUSH1 0x0 KECCAK256 SWAP1 JUMPDEST DUP2 SLOAD DUP2 MSTORE SWAP1 PUSH1 0x1 ADD SWAP1 PUSH1 0x20 ADD DUP1 DUP4 GT PUSH2 0xAC1 JUMPI DUP3 SWAP1 SUB PUSH1 0x1F AND DUP3 ADD SWAP2 JUMPDEST POP POP POP POP POP SWAP1 POP SWAP1 JUMP JUMPDEST PUSH2 0xAF2 CALLER DUP3 PUSH2 0x1907 JUMP JUMPDEST POP JUMP JUMPDEST PUSH2 0xAFD PUSH2 0x1041 JUMP JUMPDEST PUSH20 0xFFFFFFFFFFFFFFFFFFFFFFFFFFFFFFFFFFFFFFFF AND DUP3 PUSH20 0xFFFFFFFFFFFFFFFFFFFFFFFFFFFFFFFFFFFFFFFF AND SUB PUSH2 0xB61 JUMPI PUSH1 0x40 MLOAD PUSH32 0xB06307DB00000000000000000000000000000000000000000000000000000000 DUP2 MSTORE PUSH1 0x4 ADD PUSH1 0x40 MLOAD DUP1 SWAP2 SUB SWAP1 REVERT JUMPDEST DUP1 PUSH1 0x8 PUSH1 0x0 PUSH2 0xB6E PUSH2 0x1041 JUMP JUMPDEST PUSH20 0xFFFFFFFFFFFFFFFFFFFFFFFFFFFFFFFFFFFFFFFF AND PUSH20 0xFFFFFFFFFFFFFFFFFFFFFFFFFFFFFFFFFFFFFFFF AND DUP2 MSTORE PUSH1 0x20 ADD SWAP1 DUP2 MSTORE PUSH1 0x20 ADD PUSH1 0x0 KECCAK256 PUSH1 0x0 DUP5 PUSH20 0xFFFFFFFFFFFFFFFFFFFFFFFFFFFFFFFFFFFFFFFF AND PUSH20 0xFFFFFFFFFFFFFFFFFFFFFFFFFFFFFFFFFFFFFFFF AND DUP2 MSTORE PUSH1 0x20 ADD SWAP1 DUP2 MSTORE PUSH1 0x20 ADD PUSH1 0x0 KECCAK256 PUSH1 0x0 PUSH2 0x100 EXP DUP2 SLOAD DUP2 PUSH1 0xFF MUL NOT AND SWAP1 DUP4 ISZERO ISZERO MUL OR SWAP1 SSTORE POP DUP2 PUSH20 0xFFFFFFFFFFFFFFFFFFFFFFFFFFFFFFFFFFFFFFFF AND PUSH2 0xC1B PUSH2 0x1041 JUMP JUMPDEST PUSH20 0xFFFFFFFFFFFFFFFFFFFFFFFFFFFFFFFFFFFFFFFF AND PUSH32 0x17307EAB39AB6107E8899845AD3D59BD9653F200F220920489CA2B5937696C31 DUP4 PUSH1 0x40 MLOAD PUSH2 0xC60 SWAP2 SWAP1 PUSH2 0x2277 JUMP JUMPDEST PUSH1 0x40 MLOAD DUP1 SWAP2 SUB SWAP1 LOG3 POP POP JUMP JUMPDEST PUSH2 0xC77 DUP5 DUP5 DUP5 PUSH2 0x1100 JUMP JUMPDEST PUSH2 0xC96 DUP4 PUSH20 0xFFFFFFFFFFFFFFFFFFFFFFFFFFFFFFFFFFFFFFFF AND PUSH2 0x1925 JUMP JUMPDEST DUP1 ISZERO PUSH2 0xCAB JUMPI POP PUSH2 0xCA9 DUP5 DUP5 DUP5 DUP5 PUSH2 0x1948 JUMP JUMPDEST ISZERO JUMPDEST ISZERO PUSH2 0xCE2 JUMPI PUSH1 0x40 MLOAD PUSH32 0xD1A57ED600000000000000000000000000000000000000000000000000000000 DUP2 MSTORE PUSH1 0x4 ADD PUSH1 0x40 MLOAD DUP1 SWAP2 SUB SWAP1 REVERT JUMPDEST POP POP POP POP JUMP JUMPDEST PUSH1 0x60 PUSH2 0xCF3 DUP3 PUSH2 0xFF3 JUMP JUMPDEST PUSH2 0xD29 JUMPI PUSH1 0x40 MLOAD PUSH32 0xA14C4B5000000000000000000000000000000000000000000000000000000000 DUP2 MSTORE PUSH1 0x4 ADD PUSH1 0x40 MLOAD DUP1 SWAP2 SUB SWAP1 REVERT JUMPDEST PUSH1 0x0 PUSH2 0xD33 PUSH2 0x1A98 JUMP JUMPDEST SWAP1 POP PUSH1 0x0 DUP2 MLOAD SUB PUSH2 0xD53 JUMPI PUSH1 0x40 MLOAD DUP1 PUSH1 0x20 ADD PUSH1 0x40 MSTORE DUP1 PUSH1 0x0 DUP2 MSTORE POP PUSH2 0xD7E JUMP JUMPDEST DUP1 PUSH2 0xD5D DUP5 PUSH2 0x1B2A JUMP JUMPDEST PUSH1 0x40 MLOAD PUSH1 0x20 ADD PUSH2 0xD6E SWAP3 SWAP2 SWAP1 PUSH2 0x293B JUMP JUMPDEST PUSH1 0x40 MLOAD PUSH1 0x20 DUP2 DUP4 SUB SUB DUP2 MSTORE SWAP1 PUSH1 0x40 MSTORE JUMPDEST SWAP2 POP POP SWAP2 SWAP1 POP JUMP JUMPDEST PUSH1 0x0 PUSH1 0x8 PUSH1 0x0 DUP5 PUSH20 0xFFFFFFFFFFFFFFFFFFFFFFFFFFFFFFFFFFFFFFFF AND PUSH20 0xFFFFFFFFFFFFFFFFFFFFFFFFFFFFFFFFFFFFFFFF AND DUP2 MSTORE PUSH1 0x20 ADD SWAP1 DUP2 MSTORE PUSH1 0x20 ADD PUSH1 0x0 KECCAK256 PUSH1 0x0 DUP4 PUSH20 0xFFFFFFFFFFFFFFFFFFFFFFFFFFFFFFFFFFFFFFFF AND PUSH20 0xFFFFFFFFFFFFFFFFFFFFFFFFFFFFFFFFFFFFFFFF AND DUP2 MSTORE PUSH1 0x20 ADD SWAP1 DUP2 MSTORE PUSH1 0x20 ADD PUSH1 0x0 KECCAK256 PUSH1 0x0 SWAP1 SLOAD SWAP1 PUSH2 0x100 EXP SWAP1 DIV PUSH1 0xFF AND SWAP1 POP SWAP3 SWAP2 POP POP JUMP JUMPDEST PUSH2 0xE22 PUSH2 0x1041 JUMP JUMPDEST PUSH20 0xFFFFFFFFFFFFFFFFFFFFFFFFFFFFFFFFFFFFFFFF AND PUSH2 0xE40 PUSH2 0xA2D JUMP JUMPDEST PUSH20 0xFFFFFFFFFFFFFFFFFFFFFFFFFFFFFFFFFFFFFFFF AND EQ PUSH2 0xE96 JUMPI PUSH1 0x40 MLOAD PUSH32 0x8C379A000000000000000000000000000000000000000000000000000000000 DUP2 MSTORE PUSH1 0x4 ADD PUSH2 0xE8D SWAP1 PUSH2 0x28DF JUMP JUMPDEST PUSH1 0x40 MLOAD DUP1 SWAP2 SUB SWAP1 REVERT JUMPDEST PUSH1 0x0 PUSH20 0xFFFFFFFFFFFFFFFFFFFFFFFFFFFFFFFFFFFFFFFF AND DUP2 PUSH20 0xFFFFFFFFFFFFFFFFFFFFFFFFFFFFFFFFFFFFFFFF AND SUB PUSH2 0xF05 JUMPI PUSH1 0x40 MLOAD PUSH32 0x8C379A000000000000000000000000000000000000000000000000000000000 DUP2 MSTORE PUSH1 0x4 ADD PUSH2 0xEFC SWAP1 PUSH2 0x29D1 JUMP JUMPDEST PUSH1 0x40 MLOAD DUP1 SWAP2 SUB SWAP1 REVERT JUMPDEST PUSH2 0xF0E DUP2 PUSH2 0x1843 JUMP JUMPDEST POP JUMP JUMPDEST PUSH1 0x0 PUSH32 0x80AC58CD00000000000000000000000000000000000000000000000000000000 PUSH28 0xFFFFFFFFFFFFFFFFFFFFFFFFFFFFFFFFFFFFFFFFFFFFFFFFFFFFFFFF NOT AND DUP3 PUSH28 0xFFFFFFFFFFFFFFFFFFFFFFFFFFFFFFFFFFFFFFFFFFFFFFFFFFFFFFFF NOT AND EQ DUP1 PUSH2 0xFDC JUMPI POP PUSH32 0x5B5E139F00000000000000000000000000000000000000000000000000000000 PUSH28 0xFFFFFFFFFFFFFFFFFFFFFFFFFFFFFFFFFFFFFFFFFFFFFFFFFFFFFFFF NOT AND DUP3 PUSH28 0xFFFFFFFFFFFFFFFFFFFFFFFFFFFFFFFFFFFFFFFFFFFFFFFFFFFFFFFF NOT AND EQ JUMPDEST DUP1 PUSH2 0xFEC JUMPI POP PUSH2 0xFEB DUP3 PUSH2 0x1C8A JUMP JUMPDEST JUMPDEST SWAP1 POP SWAP2 SWAP1 POP JUMP JUMPDEST PUSH1 0x0 DUP2 PUSH2 0xFFE PUSH2 0x10FB JUMP JUMPDEST GT ISZERO DUP1 ISZERO PUSH2 0x100D JUMPI POP PUSH1 0x1 SLOAD DUP3 LT JUMPDEST DUP1 ISZERO PUSH2 0x103A JUMPI POP PUSH1 0x5 PUSH1 0x0 DUP4 DUP2 MSTORE PUSH1 0x20 ADD SWAP1 DUP2 MSTORE PUSH1 0x20 ADD PUSH1 0x0 KECCAK256 PUSH1 0x0 ADD PUSH1 0x1C SWAP1 SLOAD SWAP1 PUSH2 0x100 EXP SWAP1 DIV PUSH1 0xFF AND ISZERO JUMPDEST SWAP1 POP SWAP2 SWAP1 POP JUMP JUMPDEST PUSH1 0x0 CALLER SWAP1 POP SWAP1 JUMP JUMPDEST DUP3 PUSH1 0x7 PUSH1 0x0 DUP5 DUP2 MSTORE PUSH1 0x20 ADD SWAP1 DUP2 MSTORE PUSH1 0x20 ADD PUSH1 0x0 KECCAK256 PUSH1 0x0 PUSH2 0x100 EXP DUP2 SLOAD DUP2 PUSH20 0xFFFFFFFFFFFFFFFFFFFFFFFFFFFFFFFFFFFFFFFF MUL NOT AND SWAP1 DUP4 PUSH20 0xFFFFFFFFFFFFFFFFFFFFFFFFFFFFFFFFFFFFFFFF AND MUL OR SWAP1 SSTORE POP DUP2 DUP4 PUSH20 0xFFFFFFFFFFFFFFFFFFFFFFFFFFFFFFFFFFFFFFFF AND DUP3 PUSH20 0xFFFFFFFFFFFFFFFFFFFFFFFFFFFFFFFFFFFFFFFF AND PUSH32 0x8C5BE1E5EBEC7D5BD14F71427D1E84F3DD0314C0F7B2291E5B200AC8C7C3B925 PUSH1 0x40 MLOAD PUSH1 0x40 MLOAD DUP1 SWAP2 SUB SWAP1 LOG4 POP POP POP JUMP JUMPDEST PUSH1 0x0 SWAP1 JUMP JUMPDEST PUSH1 0x0 PUSH2 0x110B DUP3 PUSH2 0x15B4 JUMP JUMPDEST SWAP1 POP DUP4 PUSH20 0xFFFFFFFFFFFFFFFFFFFFFFFFFFFFFFFFFFFFFFFF AND DUP2 PUSH1 0x0 ADD MLOAD PUSH20 0xFFFFFFFFFFFFFFFFFFFFFFFFFFFFFFFFFFFFFFFF AND EQ PUSH2 0x1176 JUMPI PUSH1 0x40 MLOAD PUSH32 0xA114810000000000000000000000000000000000000000000000000000000000 DUP2 MSTORE PUSH1 0x4 ADD PUSH1 0x40 MLOAD DUP1 SWAP2 SUB SWAP1 REVERT JUMPDEST PUSH1 0x0 DUP5 PUSH20 0xFFFFFFFFFFFFFFFFFFFFFFFFFFFFFFFFFFFFFFFF AND PUSH2 0x1197 PUSH2 0x1041 JUMP JUMPDEST PUSH20 0xFFFFFFFFFFFFFFFFFFFFFFFFFFFFFFFFFFFFFFFF AND EQ DUP1 PUSH2 0x11C6 JUMPI POP PUSH2 0x11C5 DUP6 PUSH2 0x11C0 PUSH2 0x1041 JUMP JUMPDEST PUSH2 0xD86 JUMP JUMPDEST JUMPDEST DUP1 PUSH2 0x120B JUMPI POP PUSH2 0x11D4 PUSH2 0x1041 JUMP JUMPDEST PUSH20 0xFFFFFFFFFFFFFFFFFFFFFFFFFFFFFFFFFFFFFFFF AND PUSH2 0x11F3 DUP5 PUSH2 0x661 JUMP JUMPDEST PUSH20 0xFFFFFFFFFFFFFFFFFFFFFFFFFFFFFFFFFFFFFFFF AND EQ JUMPDEST SWAP1 POP DUP1 PUSH2 0x1244 JUMPI PUSH1 0x40 MLOAD PUSH32 0x59C896BE00000000000000000000000000000000000000000000000000000000 DUP2 MSTORE PUSH1 0x4 ADD PUSH1 0x40 MLOAD DUP1 SWAP2 SUB SWAP1 REVERT JUMPDEST PUSH1 0x0 PUSH20 0xFFFFFFFFFFFFFFFFFFFFFFFFFFFFFFFFFFFFFFFF AND DUP5 PUSH20 0xFFFFFFFFFFFFFFFFFFFFFFFFFFFFFFFFFFFFFFFF AND SUB PUSH2 0x12AA JUMPI PUSH1 0x40 MLOAD PUSH32 0xEA553B3400000000000000000000000000000000000000000000000000000000 DUP2 MSTORE PUSH1 0x4 ADD PUSH1 0x40 MLOAD DUP1 SWAP2 SUB SWAP1 REVERT JUMPDEST PUSH2 0x12B7 DUP6 DUP6 DUP6 PUSH1 0x1 PUSH2 0x1CF4 JUMP JUMPDEST PUSH2 0x12C3 PUSH1 0x0 DUP5 DUP8 PUSH2 0x1049 JUMP JUMPDEST PUSH1 0x1 PUSH1 0x6 PUSH1 0x0 DUP8 PUSH20 0xFFFFFFFFFFFFFFFFFFFFFFFFFFFFFFFFFFFFFFFF AND PUSH20 0xFFFFFFFFFFFFFFFFFFFFFFFFFFFFFFFFFFFFFFFF AND DUP2 MSTORE PUSH1 0x20 ADD SWAP1 DUP2 MSTORE PUSH1 0x20 ADD PUSH1 0x0 KECCAK256 PUSH1 0x0 ADD PUSH1 0x0 DUP3 DUP3 DUP3 SWAP1 SLOAD SWAP1 PUSH2 0x100 EXP SWAP1 DIV PUSH8 0xFFFFFFFFFFFFFFFF AND SUB SWAP3 POP PUSH2 0x100 EXP DUP2 SLOAD DUP2 PUSH8 0xFFFFFFFFFFFFFFFF MUL NOT AND SWAP1 DUP4 PUSH8 0xFFFFFFFFFFFFFFFF AND MUL OR SWAP1 SSTORE POP PUSH1 0x1 PUSH1 0x6 PUSH1 0x0 DUP7 PUSH20 0xFFFFFFFFFFFFFFFFFFFFFFFFFFFFFFFFFFFFFFFF AND PUSH20 0xFFFFFFFFFFFFFFFFFFFFFFFFFFFFFFFFFFFFFFFF AND DUP2 MSTORE PUSH1 0x20 ADD SWAP1 DUP2 MSTORE PUSH1 0x20 ADD PUSH1 0x0 KECCAK256 PUSH1 0x0 ADD PUSH1 0x0 DUP3 DUP3 DUP3 SWAP1 SLOAD SWAP1 PUSH2 0x100 EXP SWAP1 DIV PUSH8 0xFFFFFFFFFFFFFFFF AND ADD SWAP3 POP PUSH2 0x100 EXP DUP2 SLOAD DUP2 PUSH8 0xFFFFFFFFFFFFFFFF MUL NOT AND SWAP1 DUP4 PUSH8 0xFFFFFFFFFFFFFFFF AND MUL OR SWAP1 SSTORE POP PUSH1 0x0 PUSH1 0x5 PUSH1 0x0 DUP6 DUP2 MSTORE PUSH1 0x20 ADD SWAP1 DUP2 MSTORE PUSH1 0x20 ADD PUSH1 0x0 KECCAK256 SWAP1 POP DUP5 DUP2 PUSH1 0x0 ADD PUSH1 0x0 PUSH2 0x100 EXP DUP2 SLOAD DUP2 PUSH20 0xFFFFFFFFFFFFFFFFFFFFFFFFFFFFFFFFFFFFFFFF MUL NOT AND SWAP1 DUP4 PUSH20 0xFFFFFFFFFFFFFFFFFFFFFFFFFFFFFFFFFFFFFFFF AND MUL OR SWAP1 SSTORE POP TIMESTAMP DUP2 PUSH1 0x0 ADD PUSH1 0x14 PUSH2 0x100 EXP DUP2 SLOAD DUP2 PUSH8 0xFFFFFFFFFFFFFFFF MUL NOT AND SWAP1 DUP4 PUSH8 0xFFFFFFFFFFFFFFFF AND MUL OR SWAP1 SSTORE POP PUSH1 0x0 PUSH1 0x1 DUP6 ADD SWAP1 POP PUSH1 0x0 PUSH1 0x5 PUSH1 0x0 DUP4 DUP2 MSTORE PUSH1 0x20 ADD SWAP1 DUP2 MSTORE PUSH1 0x20 ADD PUSH1 0x0 KECCAK256 SWAP1 POP PUSH1 0x0 PUSH20 0xFFFFFFFFFFFFFFFFFFFFFFFFFFFFFFFFFFFFFFFF AND DUP2 PUSH1 0x0 ADD PUSH1 0x0 SWAP1 SLOAD SWAP1 PUSH2 0x100 EXP SWAP1 DIV PUSH20 0xFFFFFFFFFFFFFFFFFFFFFFFFFFFFFFFFFFFFFFFF AND PUSH20 0xFFFFFFFFFFFFFFFFFFFFFFFFFFFFFFFFFFFFFFFF AND SUB PUSH2 0x1542 JUMPI PUSH1 0x1 SLOAD DUP3 EQ PUSH2 0x1541 JUMPI DUP8 DUP2 PUSH1 0x0 ADD PUSH1 0x0 PUSH2 0x100 EXP DUP2 SLOAD DUP2 PUSH20 0xFFFFFFFFFFFFFFFFFFFFFFFFFFFFFFFFFFFFFFFF MUL NOT AND SWAP1 DUP4 PUSH20 0xFFFFFFFFFFFFFFFFFFFFFFFFFFFFFFFFFFFFFFFF AND MUL OR SWAP1 SSTORE POP DUP5 PUSH1 0x20 ADD MLOAD DUP2 PUSH1 0x0 ADD PUSH1 0x14 PUSH2 0x100 EXP DUP2 SLOAD DUP2 PUSH8 0xFFFFFFFFFFFFFFFF MUL NOT AND SWAP1 DUP4 PUSH8 0xFFFFFFFFFFFFFFFF AND MUL OR SWAP1 SSTORE POP JUMPDEST JUMPDEST POP POP POP DUP3 DUP5 PUSH20 0xFFFFFFFFFFFFFFFFFFFFFFFFFFFFFFFFFFFFFFFF AND DUP7 PUSH20 0xFFFFFFFFFFFFFFFFFFFFFFFFFFFFFFFFFFFFFFFF AND PUSH32 0xDDF252AD1BE2C89B69C2B068FC378DAA952BA7F163C4A11628F55A4DF523B3EF PUSH1 0x40 MLOAD PUSH1 0x40 MLOAD DUP1 SWAP2 SUB SWAP1 LOG4 PUSH2 0x15AD DUP6 DUP6 DUP6 PUSH1 0x1 PUSH2 0x1CFA JUMP JUMPDEST POP POP POP POP POP JUMP JUMPDEST PUSH2 0x15BC PUSH2 0x2163 JUMP JUMPDEST PUSH1 0x0 DUP3 SWAP1 POP DUP1 PUSH2 0x15CA PUSH2 0x10FB JUMP JUMPDEST GT ISZERO DUP1 ISZERO PUSH2 0x15D9 JUMPI POP PUSH1 0x1 SLOAD DUP2 LT JUMPDEST ISZERO PUSH2 0x180C JUMPI PUSH1 0x0 PUSH1 0x5 PUSH1 0x0 DUP4 DUP2 MSTORE PUSH1 0x20 ADD SWAP1 DUP2 MSTORE PUSH1 0x20 ADD PUSH1 0x0 KECCAK256 PUSH1 0x40 MLOAD DUP1 PUSH1 0x60 ADD PUSH1 0x40 MSTORE SWAP1 DUP2 PUSH1 0x0 DUP3 ADD PUSH1 0x0 SWAP1 SLOAD SWAP1 PUSH2 0x100 EXP SWAP1 DIV PUSH20 0xFFFFFFFFFFFFFFFFFFFFFFFFFFFFFFFFFFFFFFFF AND PUSH20 0xFFFFFFFFFFFFFFFFFFFFFFFFFFFFFFFFFFFFFFFF AND PUSH20 0xFFFFFFFFFFFFFFFFFFFFFFFFFFFFFFFFFFFFFFFF AND DUP2 MSTORE PUSH1 0x20 ADD PUSH1 0x0 DUP3 ADD PUSH1 0x14 SWAP1 SLOAD SWAP1 PUSH2 0x100 EXP SWAP1 DIV PUSH8 0xFFFFFFFFFFFFFFFF AND PUSH8 0xFFFFFFFFFFFFFFFF AND PUSH8 0xFFFFFFFFFFFFFFFF AND DUP2 MSTORE PUSH1 0x20 ADD PUSH1 0x0 DUP3 ADD PUSH1 0x1C SWAP1 SLOAD SWAP1 PUSH2 0x100 EXP SWAP1 DIV PUSH1 0xFF AND ISZERO ISZERO ISZERO ISZERO DUP2 MSTORE POP POP SWAP1 POP DUP1 PUSH1 0x40 ADD MLOAD PUSH2 0x180A JUMPI PUSH1 0x0 PUSH20 0xFFFFFFFFFFFFFFFFFFFFFFFFFFFFFFFFFFFFFFFF AND DUP2 PUSH1 0x0 ADD MLOAD PUSH20 0xFFFFFFFFFFFFFFFFFFFFFFFFFFFFFFFFFFFFFFFF AND EQ PUSH2 0x16EE JUMPI DUP1 SWAP3 POP POP POP PUSH2 0x183E JUMP JUMPDEST JUMPDEST PUSH1 0x1 ISZERO PUSH2 0x1809 JUMPI DUP2 DUP1 PUSH1 0x1 SWAP1 SUB SWAP3 POP POP PUSH1 0x5 PUSH1 0x0 DUP4 DUP2 MSTORE PUSH1 0x20 ADD SWAP1 DUP2 MSTORE PUSH1 0x20 ADD PUSH1 0x0 KECCAK256 PUSH1 0x40 MLOAD DUP1 PUSH1 0x60 ADD PUSH1 0x40 MSTORE SWAP1 DUP2 PUSH1 0x0 DUP3 ADD PUSH1 0x0 SWAP1 SLOAD SWAP1 PUSH2 0x100 EXP SWAP1 DIV PUSH20 0xFFFFFFFFFFFFFFFFFFFFFFFFFFFFFFFFFFFFFFFF AND PUSH20 0xFFFFFFFFFFFFFFFFFFFFFFFFFFFFFFFFFFFFFFFF AND PUSH20 0xFFFFFFFFFFFFFFFFFFFFFFFFFFFFFFFFFFFFFFFF AND DUP2 MSTORE PUSH1 0x20 ADD PUSH1 0x0 DUP3 ADD PUSH1 0x14 SWAP1 SLOAD SWAP1 PUSH2 0x100 EXP SWAP1 DIV PUSH8 0xFFFFFFFFFFFFFFFF AND PUSH8 0xFFFFFFFFFFFFFFFF AND PUSH8 0xFFFFFFFFFFFFFFFF AND DUP2 MSTORE PUSH1 0x20 ADD PUSH1 0x0 DUP3 ADD PUSH1 0x1C SWAP1 SLOAD SWAP1 PUSH2 0x100 EXP SWAP1 DIV PUSH1 0xFF AND ISZERO ISZERO ISZERO ISZERO DUP2 MSTORE POP POP SWAP1 POP PUSH1 0x0 PUSH20 0xFFFFFFFFFFFFFFFFFFFFFFFFFFFFFFFFFFFFFFFF AND DUP2 PUSH1 0x0 ADD MLOAD PUSH20 0xFFFFFFFFFFFFFFFFFFFFFFFFFFFFFFFFFFFFFFFF AND EQ PUSH2 0x1804 JUMPI DUP1 SWAP3 POP POP POP PUSH2 0x183E JUMP JUMPDEST PUSH2 0x16EF JUMP JUMPDEST JUMPDEST POP JUMPDEST PUSH1 0x40 MLOAD PUSH32 0xDF2D9B4200000000000000000000000000000000000000000000000000000000 DUP2 MSTORE PUSH1 0x4 ADD PUSH1 0x40 MLOAD DUP1 SWAP2 SUB SWAP1 REVERT JUMPDEST SWAP2 SWAP1 POP JUMP JUMPDEST PUSH1 0x0 DUP1 PUSH1 0x0 SWAP1 SLOAD SWAP1 PUSH2 0x100 EXP SWAP1 DIV PUSH20 0xFFFFFFFFFFFFFFFFFFFFFFFFFFFFFFFFFFFFFFFF AND SWAP1 POP DUP2 PUSH1 0x0 DUP1 PUSH2 0x100 EXP DUP2 SLOAD DUP2 PUSH20 0xFFFFFFFFFFFFFFFFFFFFFFFFFFFFFFFFFFFFFFFF MUL NOT AND SWAP1 DUP4 PUSH20 0xFFFFFFFFFFFFFFFFFFFFFFFFFFFFFFFFFFFFFFFF AND MUL OR SWAP1 SSTORE POP DUP2 PUSH20 0xFFFFFFFFFFFFFFFFFFFFFFFFFFFFFFFFFFFFFFFF AND DUP2 PUSH20 0xFFFFFFFFFFFFFFFFFFFFFFFFFFFFFFFFFFFFFFFF AND PUSH32 0x8BE0079C531659141344CD1FD0A4F28419497F9722A3DAAFE3B4186F6B6457E0 PUSH1 0x40 MLOAD PUSH1 0x40 MLOAD DUP1 SWAP2 SUB SWAP1 LOG3 POP POP JUMP JUMPDEST PUSH2 0x1921 DUP3 DUP3 PUSH1 0x40 MLOAD DUP1 PUSH1 0x20 ADD PUSH1 0x40 MSTORE DUP1 PUSH1 0x0 DUP2 MSTORE POP PUSH2 0x1D00 JUMP JUMPDEST POP POP JUMP JUMPDEST PUSH1 0x0 DUP1 DUP3 PUSH20 0xFFFFFFFFFFFFFFFFFFFFFFFFFFFFFFFFFFFFFFFF AND EXTCODESIZE GT SWAP1 POP SWAP2 SWAP1 POP JUMP JUMPDEST PUSH1 0x0 DUP4 PUSH20 0xFFFFFFFFFFFFFFFFFFFFFFFFFFFFFFFFFFFFFFFF AND PUSH4 0x150B7A02 PUSH2 0x196E PUSH2 0x1041 JUMP JUMPDEST DUP8 DUP7 DUP7 PUSH1 0x40 MLOAD DUP6 PUSH4 0xFFFFFFFF AND PUSH1 0xE0 SHL DUP2 MSTORE PUSH1 0x4 ADD PUSH2 0x1990 SWAP5 SWAP4 SWAP3 SWAP2 SWAP1 PUSH2 0x2A46 JUMP JUMPDEST PUSH1 0x20 PUSH1 0x40 MLOAD DUP1 DUP4 SUB DUP2 PUSH1 0x0 DUP8 GAS CALL SWAP3 POP POP POP DUP1 ISZERO PUSH2 0x19CC JUMPI POP PUSH1 0x40 MLOAD RETURNDATASIZE PUSH1 0x1F NOT PUSH1 0x1F DUP3 ADD AND DUP3 ADD DUP1 PUSH1 0x40 MSTORE POP DUP2 ADD SWAP1 PUSH2 0x19C9 SWAP2 SWAP1 PUSH2 0x2AA7 JUMP JUMPDEST PUSH1 0x1 JUMPDEST PUSH2 0x1A45 JUMPI RETURNDATASIZE DUP1 PUSH1 0x0 DUP2 EQ PUSH2 0x19FC JUMPI PUSH1 0x40 MLOAD SWAP2 POP PUSH1 0x1F NOT PUSH1 0x3F RETURNDATASIZE ADD AND DUP3 ADD PUSH1 0x40 MSTORE RETURNDATASIZE DUP3 MSTORE RETURNDATASIZE PUSH1 0x0 PUSH1 0x20 DUP5 ADD RETURNDATACOPY PUSH2 0x1A01 JUMP JUMPDEST PUSH1 0x60 SWAP2 POP JUMPDEST POP PUSH1 0x0 DUP2 MLOAD SUB PUSH2 0x1A3D JUMPI PUSH1 0x40 MLOAD PUSH32 0xD1A57ED600000000000000000000000000000000000000000000000000000000 DUP2 MSTORE PUSH1 0x4 ADD PUSH1 0x40 MLOAD DUP1 SWAP2 SUB SWAP1 REVERT JUMPDEST DUP1 MLOAD DUP2 PUSH1 0x20 ADD REVERT JUMPDEST PUSH4 0x150B7A02 PUSH1 0xE0 SHL PUSH28 0xFFFFFFFFFFFFFFFFFFFFFFFFFFFFFFFFFFFFFFFFFFFFFFFFFFFFFFFF NOT AND DUP2 PUSH28 0xFFFFFFFFFFFFFFFFFFFFFFFFFFFFFFFFFFFFFFFFFFFFFFFFFFFFFFFF NOT AND EQ SWAP2 POP POP SWAP5 SWAP4 POP POP POP POP JUMP JUMPDEST PUSH1 0x60 PUSH1 0x9 DUP1 SLOAD PUSH2 0x1AA7 SWAP1 PUSH2 0x2862 JUMP JUMPDEST DUP1 PUSH1 0x1F ADD PUSH1 0x20 DUP1 SWAP2 DIV MUL PUSH1 0x20 ADD PUSH1 0x40 MLOAD SWAP1 DUP2 ADD PUSH1 0x40 MSTORE DUP1 SWAP3 SWAP2 SWAP1 DUP2 DUP2 MSTORE PUSH1 0x20 ADD DUP3 DUP1 SLOAD PUSH2 0x1AD3 SWAP1 PUSH2 0x2862 JUMP JUMPDEST DUP1 ISZERO PUSH2 0x1B20 JUMPI DUP1 PUSH1 0x1F LT PUSH2 0x1AF5 JUMPI PUSH2 0x100 DUP1 DUP4 SLOAD DIV MUL DUP4 MSTORE SWAP2 PUSH1 0x20 ADD SWAP2 PUSH2 0x1B20 JUMP JUMPDEST DUP3 ADD SWAP2 SWAP1 PUSH1 0x0 MSTORE PUSH1 0x20 PUSH1 0x0 KECCAK256 SWAP1 JUMPDEST DUP2 SLOAD DUP2 MSTORE SWAP1 PUSH1 0x1 ADD SWAP1 PUSH1 0x20 ADD DUP1 DUP4 GT PUSH2 0x1B03 JUMPI DUP3 SWAP1 SUB PUSH1 0x1F AND DUP3 ADD SWAP2 JUMPDEST POP POP POP POP POP SWAP1 POP SWAP1 JUMP JUMPDEST PUSH1 0x60 PUSH1 0x0 DUP3 SUB PUSH2 0x1B71 JUMPI PUSH1 0x40 MLOAD DUP1 PUSH1 0x40 ADD PUSH1 0x40 MSTORE DUP1 PUSH1 0x1 DUP2 MSTORE PUSH1 0x20 ADD PUSH32 0x3000000000000000000000000000000000000000000000000000000000000000 DUP2 MSTORE POP SWAP1 POP PUSH2 0x1C85 JUMP JUMPDEST PUSH1 0x0 DUP3 SWAP1 POP PUSH1 0x0 JUMPDEST PUSH1 0x0 DUP3 EQ PUSH2 0x1BA3 JUMPI DUP1 DUP1 PUSH2 0x1B8C SWAP1 PUSH2 0x2B03 JUMP JUMPDEST SWAP2 POP POP PUSH1 0xA DUP3 PUSH2 0x1B9C SWAP2 SWAP1 PUSH2 0x2B7A JUMP JUMPDEST SWAP2 POP PUSH2 0x1B79 JUMP JUMPDEST PUSH1 0x0 DUP2 PUSH8 0xFFFFFFFFFFFFFFFF DUP2 GT ISZERO PUSH2 0x1BBF JUMPI PUSH2 0x1BBE PUSH2 0x2645 JUMP JUMPDEST JUMPDEST PUSH1 0x40 MLOAD SWAP1 DUP1 DUP3 MSTORE DUP1 PUSH1 0x1F ADD PUSH1 0x1F NOT AND PUSH1 0x20 ADD DUP3 ADD PUSH1 0x40 MSTORE DUP1 ISZERO PUSH2 0x1BF1 JUMPI DUP2 PUSH1 0x20 ADD PUSH1 0x1 DUP3 MUL DUP1 CALLDATASIZE DUP4 CALLDATACOPY DUP1 DUP3 ADD SWAP2 POP POP SWAP1 POP JUMPDEST POP SWAP1 POP JUMPDEST PUSH1 0x0 DUP6 EQ PUSH2 0x1C7E JUMPI PUSH1 0x1 DUP3 PUSH2 0x1C0A SWAP2 SWAP1 PUSH2 0x2BAB JUMP JUMPDEST SWAP2 POP PUSH1 0xA DUP6 PUSH2 0x1C19 SWAP2 SWAP1 PUSH2 0x2BDF JUMP JUMPDEST PUSH1 0x30 PUSH2 0x1C25 SWAP2 SWAP1 PUSH2 0x2C10 JUMP JUMPDEST PUSH1 0xF8 SHL DUP2 DUP4 DUP2 MLOAD DUP2 LT PUSH2 0x1C3B JUMPI PUSH2 0x1C3A PUSH2 0x2C66 JUMP JUMPDEST JUMPDEST PUSH1 0x20 ADD ADD SWAP1 PUSH31 0xFFFFFFFFFFFFFFFFFFFFFFFFFFFFFFFFFFFFFFFFFFFFFFFFFFFFFFFFFFFFFF NOT AND SWAP1 DUP2 PUSH1 0x0 BYTE SWAP1 MSTORE8 POP PUSH1 0xA DUP6 PUSH2 0x1C77 SWAP2 SWAP1 PUSH2 0x2B7A JUMP JUMPDEST SWAP5 POP PUSH2 0x1BF5 JUMP JUMPDEST DUP1 SWAP4 POP POP POP POP JUMPDEST SWAP2 SWAP1 POP JUMP JUMPDEST PUSH1 0x0 PUSH32 0x1FFC9A700000000000000000000000000000000000000000000000000000000 PUSH28 0xFFFFFFFFFFFFFFFFFFFFFFFFFFFFFFFFFFFFFFFFFFFFFFFFFFFFFFFF NOT AND DUP3 PUSH28 0xFFFFFFFFFFFFFFFFFFFFFFFFFFFFFFFFFFFFFFFFFFFFFFFFFFFFFFFF NOT AND EQ SWAP1 POP SWAP2 SWAP1 POP JUMP JUMPDEST POP POP POP POP JUMP JUMPDEST POP POP POP POP JUMP JUMPDEST PUSH2 0x1D0D DUP4 DUP4 DUP4 PUSH1 0x1 PUSH2 0x1D12 JUMP JUMPDEST POP POP POP JUMP JUMPDEST PUSH1 0x0 PUSH1 0x1 SLOAD SWAP1 POP PUSH1 0x0 PUSH20 0xFFFFFFFFFFFFFFFFFFFFFFFFFFFFFFFFFFFFFFFF AND DUP6 PUSH20 0xFFFFFFFFFFFFFFFFFFFFFFFFFFFFFFFFFFFFFFFF AND SUB PUSH2 0x1D7F JUMPI PUSH1 0x40 MLOAD PUSH32 0x2E07630000000000000000000000000000000000000000000000000000000000 DUP2 MSTORE PUSH1 0x4 ADD PUSH1 0x40 MLOAD DUP1 SWAP2 SUB SWAP1 REVERT JUMPDEST PUSH1 0x0 DUP5 SUB PUSH2 0x1DB9 JUMPI PUSH1 0x40 MLOAD PUSH32 0xB562E8DD00000000000000000000000000000000000000000000000000000000 DUP2 MSTORE PUSH1 0x4 ADD PUSH1 0x40 MLOAD DUP1 SWAP2 SUB SWAP1 REVERT JUMPDEST PUSH2 0x1DC6 PUSH1 0x0 DUP7 DUP4 DUP8 PUSH2 0x1CF4 JUMP JUMPDEST DUP4 PUSH1 0x6 PUSH1 0x0 DUP8 PUSH20 0xFFFFFFFFFFFFFFFFFFFFFFFFFFFFFFFFFFFFFFFF AND PUSH20 0xFFFFFFFFFFFFFFFFFFFFFFFFFFFFFFFFFFFFFFFF AND DUP2 MSTORE PUSH1 0x20 ADD SWAP1 DUP2 MSTORE PUSH1 0x20 ADD PUSH1 0x0 KECCAK256 PUSH1 0x0 ADD PUSH1 0x0 DUP3 DUP3 DUP3 SWAP1 SLOAD SWAP1 PUSH2 0x100 EXP SWAP1 DIV PUSH8 0xFFFFFFFFFFFFFFFF AND ADD SWAP3 POP PUSH2 0x100 EXP DUP2 SLOAD DUP2 PUSH8 0xFFFFFFFFFFFFFFFF MUL NOT AND SWAP1 DUP4 PUSH8 0xFFFFFFFFFFFFFFFF AND MUL OR SWAP1 SSTORE POP DUP4 PUSH1 0x6 PUSH1 0x0 DUP8 PUSH20 0xFFFFFFFFFFFFFFFFFFFFFFFFFFFFFFFFFFFFFFFF AND PUSH20 0xFFFFFFFFFFFFFFFFFFFFFFFFFFFFFFFFFFFFFFFF AND DUP2 MSTORE PUSH1 0x20 ADD SWAP1 DUP2 MSTORE PUSH1 0x20 ADD PUSH1 0x0 KECCAK256 PUSH1 0x0 ADD PUSH1 0x8 DUP3 DUP3 DUP3 SWAP1 SLOAD SWAP1 PUSH2 0x100 EXP SWAP1 DIV PUSH8 0xFFFFFFFFFFFFFFFF AND ADD SWAP3 POP PUSH2 0x100 EXP DUP2 SLOAD DUP2 PUSH8 0xFFFFFFFFFFFFFFFF MUL NOT AND SWAP1 DUP4 PUSH8 0xFFFFFFFFFFFFFFFF AND MUL OR SWAP1 SSTORE POP DUP5 PUSH1 0x5 PUSH1 0x0 DUP4 DUP2 MSTORE PUSH1 0x20 ADD SWAP1 DUP2 MSTORE PUSH1 0x20 ADD PUSH1 0x0 KECCAK256 PUSH1 0x0 ADD PUSH1 0x0 PUSH2 0x100 EXP DUP2 SLOAD DUP2 PUSH20 0xFFFFFFFFFFFFFFFFFFFFFFFFFFFFFFFFFFFFFFFF MUL NOT AND SWAP1 DUP4 PUSH20 0xFFFFFFFFFFFFFFFFFFFFFFFFFFFFFFFFFFFFFFFF AND MUL OR SWAP1 SSTORE POP TIMESTAMP PUSH1 0x5 PUSH1 0x0 DUP4 DUP2 MSTORE PUSH1 0x20 ADD SWAP1 DUP2 MSTORE PUSH1 0x20 ADD PUSH1 0x0 KECCAK256 PUSH1 0x0 ADD PUSH1 0x14 PUSH2 0x100 EXP DUP2 SLOAD DUP2 PUSH8 0xFFFFFFFFFFFFFFFF MUL NOT AND SWAP1 DUP4 PUSH8 0xFFFFFFFFFFFFFFFF AND MUL OR SWAP1 SSTORE POP PUSH1 0x0 DUP2 SWAP1 POP PUSH1 0x0 DUP6 DUP3 ADD SWAP1 POP DUP4 DUP1 ISZERO PUSH2 0x1F90 JUMPI POP PUSH2 0x1F8F DUP8 PUSH20 0xFFFFFFFFFFFFFFFFFFFFFFFFFFFFFFFFFFFFFFFF AND PUSH2 0x1925 JUMP JUMPDEST JUMPDEST ISZERO PUSH2 0x2055 JUMPI JUMPDEST DUP2 DUP8 PUSH20 0xFFFFFFFFFFFFFFFFFFFFFFFFFFFFFFFFFFFFFFFF AND PUSH1 0x0 PUSH20 0xFFFFFFFFFFFFFFFFFFFFFFFFFFFFFFFFFFFFFFFF AND PUSH32 0xDDF252AD1BE2C89B69C2B068FC378DAA952BA7F163C4A11628F55A4DF523B3EF PUSH1 0x40 MLOAD PUSH1 0x40 MLOAD DUP1 SWAP2 SUB SWAP1 LOG4 PUSH2 0x2005 PUSH1 0x0 DUP9 DUP5 DUP1 PUSH1 0x1 ADD SWAP6 POP DUP9 PUSH2 0x1948 JUMP JUMPDEST PUSH2 0x203B JUMPI PUSH1 0x40 MLOAD PUSH32 0xD1A57ED600000000000000000000000000000000000000000000000000000000 DUP2 MSTORE PUSH1 0x4 ADD PUSH1 0x40 MLOAD DUP1 SWAP2 SUB SWAP1 REVERT JUMPDEST DUP1 DUP3 SUB PUSH2 0x1F96 JUMPI DUP3 PUSH1 0x1 SLOAD EQ PUSH2 0x2050 JUMPI PUSH1 0x0 DUP1 REVERT JUMPDEST PUSH2 0x20C0 JUMP JUMPDEST JUMPDEST DUP2 DUP1 PUSH1 0x1 ADD SWAP3 POP DUP8 PUSH20 0xFFFFFFFFFFFFFFFFFFFFFFFFFFFFFFFFFFFFFFFF AND PUSH1 0x0 PUSH20 0xFFFFFFFFFFFFFFFFFFFFFFFFFFFFFFFFFFFFFFFF AND PUSH32 0xDDF252AD1BE2C89B69C2B068FC378DAA952BA7F163C4A11628F55A4DF523B3EF PUSH1 0x40 MLOAD PUSH1 0x40 MLOAD DUP1 SWAP2 SUB SWAP1 LOG4 DUP1 DUP3 SUB PUSH2 0x2056 JUMPI JUMPDEST DUP2 PUSH1 0x1 DUP2 SWAP1 SSTORE POP POP POP PUSH2 0x20D6 PUSH1 0x0 DUP7 DUP4 DUP8 PUSH2 0x1CFA JUMP JUMPDEST POP POP POP POP POP JUMP JUMPDEST DUP3 DUP1 SLOAD PUSH2 0x20E9 SWAP1 PUSH2 0x2862 JUMP JUMPDEST SWAP1 PUSH1 0x0 MSTORE PUSH1 0x20 PUSH1 0x0 KECCAK256 SWAP1 PUSH1 0x1F ADD PUSH1 0x20 SWAP1 DIV DUP2 ADD SWAP3 DUP3 PUSH2 0x210B JUMPI PUSH1 0x0 DUP6 SSTORE PUSH2 0x2152 JUMP JUMPDEST DUP3 PUSH1 0x1F LT PUSH2 0x2124 JUMPI DUP1 CALLDATALOAD PUSH1 0xFF NOT AND DUP4 DUP1 ADD OR DUP6 SSTORE PUSH2 0x2152 JUMP JUMPDEST DUP3 DUP1 ADD PUSH1 0x1 ADD DUP6 SSTORE DUP3 ISZERO PUSH2 0x2152 JUMPI SWAP2 DUP3 ADD JUMPDEST DUP3 DUP2 GT ISZERO PUSH2 0x2151 JUMPI DUP3 CALLDATALOAD DUP3 SSTORE SWAP2 PUSH1 0x20 ADD SWAP2 SWAP1 PUSH1 0x1 ADD SWAP1 PUSH2 0x2136 JUMP JUMPDEST JUMPDEST POP SWAP1 POP PUSH2 0x215F SWAP2 SWAP1 PUSH2 0x21A6 JUMP JUMPDEST POP SWAP1 JUMP JUMPDEST PUSH1 0x40 MLOAD DUP1 PUSH1 0x60 ADD PUSH1 0x40 MSTORE DUP1 PUSH1 0x0 PUSH20 0xFFFFFFFFFFFFFFFFFFFFFFFFFFFFFFFFFFFFFFFF AND DUP2 MSTORE PUSH1 0x20 ADD PUSH1 0x0 PUSH8 0xFFFFFFFFFFFFFFFF AND DUP2 MSTORE PUSH1 0x20 ADD PUSH1 0x0 ISZERO ISZERO DUP2 MSTORE POP SWAP1 JUMP JUMPDEST JUMPDEST DUP1 DUP3 GT ISZERO PUSH2 0x21BF JUMPI PUSH1 0x0 DUP2 PUSH1 0x0 SWAP1 SSTORE POP PUSH1 0x1 ADD PUSH2 0x21A7 JUMP JUMPDEST POP SWAP1 JUMP JUMPDEST PUSH1 0x0 PUSH1 0x40 MLOAD SWAP1 POP SWAP1 JUMP JUMPDEST PUSH1 0x0 DUP1 REVERT JUMPDEST PUSH1 0x0 DUP1 REVERT JUMPDEST PUSH1 0x0 PUSH32 0xFFFFFFFF00000000000000000000000000000000000000000000000000000000 DUP3 AND SWAP1 POP SWAP2 SWAP1 POP JUMP JUMPDEST PUSH2 0x220C DUP2 PUSH2 0x21D7 JUMP JUMPDEST DUP2 EQ PUSH2 0x2217 JUMPI PUSH1 0x0 DUP1 REVERT JUMPDEST POP JUMP JUMPDEST PUSH1 0x0 DUP2 CALLDATALOAD SWAP1 POP PUSH2 0x2229 DUP2 PUSH2 0x2203 JUMP JUMPDEST SWAP3 SWAP2 POP POP JUMP JUMPDEST PUSH1 0x0 PUSH1 0x20 DUP3 DUP5 SUB SLT ISZERO PUSH2 0x2245 JUMPI PUSH2 0x2244 PUSH2 0x21CD JUMP JUMPDEST JUMPDEST PUSH1 0x0 PUSH2 0x2253 DUP5 DUP3 DUP6 ADD PUSH2 0x221A JUMP JUMPDEST SWAP2 POP POP SWAP3 SWAP2 POP POP JUMP JUMPDEST PUSH1 0x0 DUP2 ISZERO ISZERO SWAP1 POP SWAP2 SWAP1 POP JUMP JUMPDEST PUSH2 0x2271 DUP2 PUSH2 0x225C JUMP JUMPDEST DUP3 MSTORE POP POP JUMP JUMPDEST PUSH1 0x0 PUSH1 0x20 DUP3 ADD SWAP1 POP PUSH2 0x228C PUSH1 0x0 DUP4 ADD DUP5 PUSH2 0x2268 JUMP JUMPDEST SWAP3 SWAP2 POP POP JUMP JUMPDEST PUSH1 0x0 DUP2 MLOAD SWAP1 POP SWAP2 SWAP1 POP JUMP JUMPDEST PUSH1 0x0 DUP3 DUP3 MSTORE PUSH1 0x20 DUP3 ADD SWAP1 POP SWAP3 SWAP2 POP POP JUMP JUMPDEST PUSH1 0x0 JUMPDEST DUP4 DUP2 LT ISZERO PUSH2 0x22CC JUMPI DUP1 DUP3 ADD MLOAD DUP2 DUP5 ADD MSTORE PUSH1 0x20 DUP2 ADD SWAP1 POP PUSH2 0x22B1 JUMP JUMPDEST DUP4 DUP2 GT ISZERO PUSH2 0x22DB JUMPI PUSH1 0x0 DUP5 DUP5 ADD MSTORE JUMPDEST POP POP POP POP JUMP JUMPDEST PUSH1 0x0 PUSH1 0x1F NOT PUSH1 0x1F DUP4 ADD AND SWAP1 POP SWAP2 SWAP1 POP JUMP JUMPDEST PUSH1 0x0 PUSH2 0x22FD DUP3 PUSH2 0x2292 JUMP JUMPDEST PUSH2 0x2307 DUP2 DUP6 PUSH2 0x229D JUMP JUMPDEST SWAP4 POP PUSH2 0x2317 DUP2 DUP6 PUSH1 0x20 DUP7 ADD PUSH2 0x22AE JUMP JUMPDEST PUSH2 0x2320 DUP2 PUSH2 0x22E1 JUMP JUMPDEST DUP5 ADD SWAP2 POP POP SWAP3 SWAP2 POP POP JUMP JUMPDEST PUSH1 0x0 PUSH1 0x20 DUP3 ADD SWAP1 POP DUP2 DUP2 SUB PUSH1 0x0 DUP4 ADD MSTORE PUSH2 0x2345 DUP2 DUP5 PUSH2 0x22F2 JUMP JUMPDEST SWAP1 POP SWAP3 SWAP2 POP POP JUMP JUMPDEST PUSH1 0x0 DUP2 SWAP1 POP SWAP2 SWAP1 POP JUMP JUMPDEST PUSH2 0x2360 DUP2 PUSH2 0x234D JUMP JUMPDEST DUP2 EQ PUSH2 0x236B JUMPI PUSH1 0x0 DUP1 REVERT JUMPDEST POP JUMP JUMPDEST PUSH1 0x0 DUP2 CALLDATALOAD SWAP1 POP PUSH2 0x237D DUP2 PUSH2 0x2357 JUMP JUMPDEST SWAP3 SWAP2 POP POP JUMP JUMPDEST PUSH1 0x0 PUSH1 0x20 DUP3 DUP5 SUB SLT ISZERO PUSH2 0x2399 JUMPI PUSH2 0x2398 PUSH2 0x21CD JUMP JUMPDEST JUMPDEST PUSH1 0x0 PUSH2 0x23A7 DUP5 DUP3 DUP6 ADD PUSH2 0x236E JUMP JUMPDEST SWAP2 POP POP SWAP3 SWAP2 POP POP JUMP JUMPDEST PUSH1 0x0 PUSH20 0xFFFFFFFFFFFFFFFFFFFFFFFFFFFFFFFFFFFFFFFF DUP3 AND SWAP1 POP SWAP2 SWAP1 POP JUMP JUMPDEST PUSH1 0x0 PUSH2 0x23DB DUP3 PUSH2 0x23B0 JUMP JUMPDEST SWAP1 POP SWAP2 SWAP1 POP JUMP JUMPDEST PUSH2 0x23EB DUP2 PUSH2 0x23D0 JUMP JUMPDEST DUP3 MSTORE POP POP JUMP JUMPDEST PUSH1 0x0 PUSH1 0x20 DUP3 ADD SWAP1 POP PUSH2 0x2406 PUSH1 0x0 DUP4 ADD DUP5 PUSH2 0x23E2 JUMP JUMPDEST SWAP3 SWAP2 POP POP JUMP JUMPDEST PUSH2 0x2415 DUP2 PUSH2 0x23D0 JUMP JUMPDEST DUP2 EQ PUSH2 0x2420 JUMPI PUSH1 0x0 DUP1 REVERT JUMPDEST POP JUMP JUMPDEST PUSH1 0x0 DUP2 CALLDATALOAD SWAP1 POP PUSH2 0x2432 DUP2 PUSH2 0x240C JUMP JUMPDEST SWAP3 SWAP2 POP POP JUMP JUMPDEST PUSH1 0x0 DUP1 PUSH1 0x40 DUP4 DUP6 SUB SLT ISZERO PUSH2 0x244F JUMPI PUSH2 0x244E PUSH2 0x21CD JUMP JUMPDEST JUMPDEST PUSH1 0x0 PUSH2 0x245D DUP6 DUP3 DUP7 ADD PUSH2 0x2423 JUMP JUMPDEST SWAP3 POP POP PUSH1 0x20 PUSH2 0x246E DUP6 DUP3 DUP7 ADD PUSH2 0x236E JUMP JUMPDEST SWAP2 POP POP SWAP3 POP SWAP3 SWAP1 POP JUMP JUMPDEST PUSH2 0x2481 DUP2 PUSH2 0x234D JUMP JUMPDEST DUP3 MSTORE POP POP JUMP JUMPDEST PUSH1 0x0 PUSH1 0x20 DUP3 ADD SWAP1 POP PUSH2 0x249C PUSH1 0x0 DUP4 ADD DUP5 PUSH2 0x2478 JUMP JUMPDEST SWAP3 SWAP2 POP POP JUMP JUMPDEST PUSH1 0x0 DUP1 PUSH1 0x0 PUSH1 0x60 DUP5 DUP7 SUB SLT ISZERO PUSH2 0x24BB JUMPI PUSH2 0x24BA PUSH2 0x21CD JUMP JUMPDEST JUMPDEST PUSH1 0x0 PUSH2 0x24C9 DUP7 DUP3 DUP8 ADD PUSH2 0x2423 JUMP JUMPDEST SWAP4 POP POP PUSH1 0x20 PUSH2 0x24DA DUP7 DUP3 DUP8 ADD PUSH2 0x2423 JUMP JUMPDEST SWAP3 POP POP PUSH1 0x40 PUSH2 0x24EB DUP7 DUP3 DUP8 ADD PUSH2 0x236E JUMP JUMPDEST SWAP2 POP POP SWAP3 POP SWAP3 POP SWAP3 JUMP JUMPDEST PUSH1 0x0 DUP1 REVERT JUMPDEST PUSH1 0x0 DUP1 REVERT JUMPDEST PUSH1 0x0 DUP1 REVERT JUMPDEST PUSH1 0x0 DUP1 DUP4 PUSH1 0x1F DUP5 ADD SLT PUSH2 0x251A JUMPI PUSH2 0x2519 PUSH2 0x24F5 JUMP JUMPDEST JUMPDEST DUP3 CALLDATALOAD SWAP1 POP PUSH8 0xFFFFFFFFFFFFFFFF DUP2 GT ISZERO PUSH2 0x2537 JUMPI PUSH2 0x2536 PUSH2 0x24FA JUMP JUMPDEST JUMPDEST PUSH1 0x20 DUP4 ADD SWAP2 POP DUP4 PUSH1 0x1 DUP3 MUL DUP4 ADD GT ISZERO PUSH2 0x2553 JUMPI PUSH2 0x2552 PUSH2 0x24FF JUMP JUMPDEST JUMPDEST SWAP3 POP SWAP3 SWAP1 POP JUMP JUMPDEST PUSH1 0x0 DUP1 PUSH1 0x20 DUP4 DUP6 SUB SLT ISZERO PUSH2 0x2571 JUMPI PUSH2 0x2570 PUSH2 0x21CD JUMP JUMPDEST JUMPDEST PUSH1 0x0 DUP4 ADD CALLDATALOAD PUSH8 0xFFFFFFFFFFFFFFFF DUP2 GT ISZERO PUSH2 0x258F JUMPI PUSH2 0x258E PUSH2 0x21D2 JUMP JUMPDEST JUMPDEST PUSH2 0x259B DUP6 DUP3 DUP7 ADD PUSH2 0x2504 JUMP JUMPDEST SWAP3 POP SWAP3 POP POP SWAP3 POP SWAP3 SWAP1 POP JUMP JUMPDEST PUSH1 0x0 PUSH1 0x20 DUP3 DUP5 SUB SLT ISZERO PUSH2 0x25BD JUMPI PUSH2 0x25BC PUSH2 0x21CD JUMP JUMPDEST JUMPDEST PUSH1 0x0 PUSH2 0x25CB DUP5 DUP3 DUP6 ADD PUSH2 0x2423 JUMP JUMPDEST SWAP2 POP POP SWAP3 SWAP2 POP POP JUMP JUMPDEST PUSH2 0x25DD DUP2 PUSH2 0x225C JUMP JUMPDEST DUP2 EQ PUSH2 0x25E8 JUMPI PUSH1 0x0 DUP1 REVERT JUMPDEST POP JUMP JUMPDEST PUSH1 0x0 DUP2 CALLDATALOAD SWAP1 POP PUSH2 0x25FA DUP2 PUSH2 0x25D4 JUMP JUMPDEST SWAP3 SWAP2 POP POP JUMP JUMPDEST PUSH1 0x0 DUP1 PUSH1 0x40 DUP4 DUP6 SUB SLT ISZERO PUSH2 0x2617 JUMPI PUSH2 0x2616 PUSH2 0x21CD JUMP JUMPDEST JUMPDEST PUSH1 0x0 PUSH2 0x2625 DUP6 DUP3 DUP7 ADD PUSH2 0x2423 JUMP JUMPDEST SWAP3 POP POP PUSH1 0x20 PUSH2 0x2636 DUP6 DUP3 DUP7 ADD PUSH2 0x25EB JUMP JUMPDEST SWAP2 POP POP SWAP3 POP SWAP3 SWAP1 POP JUMP JUMPDEST PUSH1 0x0 DUP1 REVERT JUMPDEST PUSH32 0x4E487B7100000000000000000000000000000000000000000000000000000000 PUSH1 0x0 MSTORE PUSH1 0x41 PUSH1 0x4 MSTORE PUSH1 0x24 PUSH1 0x0 REVERT JUMPDEST PUSH2 0x267D DUP3 PUSH2 0x22E1 JUMP JUMPDEST DUP2 ADD DUP2 DUP2 LT PUSH8 0xFFFFFFFFFFFFFFFF DUP3 GT OR ISZERO PUSH2 0x269C JUMPI PUSH2 0x269B PUSH2 0x2645 JUMP JUMPDEST JUMPDEST DUP1 PUSH1 0x40 MSTORE POP POP POP JUMP JUMPDEST PUSH1 0x0 PUSH2 0x26AF PUSH2 0x21C3 JUMP JUMPDEST SWAP1 POP PUSH2 0x26BB DUP3 DUP3 PUSH2 0x2674 JUMP JUMPDEST SWAP2 SWAP1 POP JUMP JUMPDEST PUSH1 0x0 PUSH8 0xFFFFFFFFFFFFFFFF DUP3 GT ISZERO PUSH2 0x26DB JUMPI PUSH2 0x26DA PUSH2 0x2645 JUMP JUMPDEST JUMPDEST PUSH2 0x26E4 DUP3 PUSH2 0x22E1 JUMP JUMPDEST SWAP1 POP PUSH1 0x20 DUP2 ADD SWAP1 POP SWAP2 SWAP1 POP JUMP JUMPDEST DUP3 DUP2 DUP4 CALLDATACOPY PUSH1 0x0 DUP4 DUP4 ADD MSTORE POP POP POP JUMP JUMPDEST PUSH1 0x0 PUSH2 0x2713 PUSH2 0x270E DUP5 PUSH2 0x26C0 JUMP JUMPDEST PUSH2 0x26A5 JUMP JUMPDEST SWAP1 POP DUP3 DUP2 MSTORE PUSH1 0x20 DUP2 ADD DUP5 DUP5 DUP5 ADD GT ISZERO PUSH2 0x272F JUMPI PUSH2 0x272E PUSH2 0x2640 JUMP JUMPDEST JUMPDEST PUSH2 0x273A DUP5 DUP3 DUP6 PUSH2 0x26F1 JUMP JUMPDEST POP SWAP4 SWAP3 POP POP POP JUMP JUMPDEST PUSH1 0x0 DUP3 PUSH1 0x1F DUP4 ADD SLT PUSH2 0x2757 JUMPI PUSH2 0x2756 PUSH2 0x24F5 JUMP JUMPDEST JUMPDEST DUP2 CALLDATALOAD PUSH2 0x2767 DUP5 DUP3 PUSH1 0x20 DUP7 ADD PUSH2 0x2700 JUMP JUMPDEST SWAP2 POP POP SWAP3 SWAP2 POP POP JUMP JUMPDEST PUSH1 0x0 DUP1 PUSH1 0x0 DUP1 PUSH1 0x80 DUP6 DUP8 SUB SLT ISZERO PUSH2 0x278A JUMPI PUSH2 0x2789 PUSH2 0x21CD JUMP JUMPDEST JUMPDEST PUSH1 0x0 PUSH2 0x2798 DUP8 DUP3 DUP9 ADD PUSH2 0x2423 JUMP JUMPDEST SWAP5 POP POP PUSH1 0x20 PUSH2 0x27A9 DUP8 DUP3 DUP9 ADD PUSH2 0x2423 JUMP JUMPDEST SWAP4 POP POP PUSH1 0x40 PUSH2 0x27BA DUP8 DUP3 DUP9 ADD PUSH2 0x236E JUMP JUMPDEST SWAP3 POP POP PUSH1 0x60 DUP6 ADD CALLDATALOAD PUSH8 0xFFFFFFFFFFFFFFFF DUP2 GT ISZERO PUSH2 0x27DB JUMPI PUSH2 0x27DA PUSH2 0x21D2 JUMP JUMPDEST JUMPDEST PUSH2 0x27E7 DUP8 DUP3 DUP9 ADD PUSH2 0x2742 JUMP JUMPDEST SWAP2 POP POP SWAP3 SWAP6 SWAP2 SWAP5 POP SWAP3 POP JUMP JUMPDEST PUSH1 0x0 DUP1 PUSH1 0x40 DUP4 DUP6 SUB SLT ISZERO PUSH2 0x280A JUMPI PUSH2 0x2809 PUSH2 0x21CD JUMP JUMPDEST JUMPDEST PUSH1 0x0 PUSH2 0x2818 DUP6 DUP3 DUP7 ADD PUSH2 0x2423 JUMP JUMPDEST SWAP3 POP POP PUSH1 0x20 PUSH2 0x2829 DUP6 DUP3 DUP7 ADD PUSH2 0x2423 JUMP JUMPDEST SWAP2 POP POP SWAP3 POP SWAP3 SWAP1 POP JUMP JUMPDEST PUSH32 0x4E487B7100000000000000000000000000000000000000000000000000000000 PUSH1 0x0 MSTORE PUSH1 0x22 PUSH1 0x4 MSTORE PUSH1 0x24 PUSH1 0x0 REVERT JUMPDEST PUSH1 0x0 PUSH1 0x2 DUP3 DIV SWAP1 POP PUSH1 0x1 DUP3 AND DUP1 PUSH2 0x287A JUMPI PUSH1 0x7F DUP3 AND SWAP2 POP JUMPDEST PUSH1 0x20 DUP3 LT DUP2 SUB PUSH2 0x288D JUMPI PUSH2 0x288C PUSH2 0x2833 JUMP JUMPDEST JUMPDEST POP SWAP2 SWAP1 POP JUMP JUMPDEST PUSH32 0x4F776E61626C653A2063616C6C6572206973206E6F7420746865206F776E6572 PUSH1 0x0 DUP3 ADD MSTORE POP JUMP JUMPDEST PUSH1 0x0 PUSH2 0x28C9 PUSH1 0x20 DUP4 PUSH2 0x229D JUMP JUMPDEST SWAP2 POP PUSH2 0x28D4 DUP3 PUSH2 0x2893 JUMP JUMPDEST PUSH1 0x20 DUP3 ADD SWAP1 POP SWAP2 SWAP1 POP JUMP JUMPDEST PUSH1 0x0 PUSH1 0x20 DUP3 ADD SWAP1 POP DUP2 DUP2 SUB PUSH1 0x0 DUP4 ADD MSTORE PUSH2 0x28F8 DUP2 PUSH2 0x28BC JUMP JUMPDEST SWAP1 POP SWAP2 SWAP1 POP JUMP JUMPDEST PUSH1 0x0 DUP2 SWAP1 POP SWAP3 SWAP2 POP POP JUMP JUMPDEST PUSH1 0x0 PUSH2 0x2915 DUP3 PUSH2 0x2292 JUMP JUMPDEST PUSH2 0x291F DUP2 DUP6 PUSH2 0x28FF JUMP JUMPDEST SWAP4 POP PUSH2 0x292F DUP2 DUP6 PUSH1 0x20 DUP7 ADD PUSH2 0x22AE JUMP JUMPDEST DUP1 DUP5 ADD SWAP2 POP POP SWAP3 SWAP2 POP POP JUMP JUMPDEST PUSH1 0x0 PUSH2 0x2947 DUP3 DUP6 PUSH2 0x290A JUMP JUMPDEST SWAP2 POP PUSH2 0x2953 DUP3 DUP5 PUSH2 0x290A JUMP JUMPDEST SWAP2 POP DUP2 SWAP1 POP SWAP4 SWAP3 POP POP POP JUMP JUMPDEST PUSH32 0x4F776E61626C653A206E6577206F776E657220697320746865207A65726F2061 PUSH1 0x0 DUP3 ADD MSTORE PUSH32 0x6464726573730000000000000000000000000000000000000000000000000000 PUSH1 0x20 DUP3 ADD MSTORE POP JUMP JUMPDEST PUSH1 0x0 PUSH2 0x29BB PUSH1 0x26 DUP4 PUSH2 0x229D JUMP JUMPDEST SWAP2 POP PUSH2 0x29C6 DUP3 PUSH2 0x295F JUMP JUMPDEST PUSH1 0x40 DUP3 ADD SWAP1 POP SWAP2 SWAP1 POP JUMP JUMPDEST PUSH1 0x0 PUSH1 0x20 DUP3 ADD SWAP1 POP DUP2 DUP2 SUB PUSH1 0x0 DUP4 ADD MSTORE PUSH2 0x29EA DUP2 PUSH2 0x29AE JUMP JUMPDEST SWAP1 POP SWAP2 SWAP1 POP JUMP JUMPDEST PUSH1 0x0 DUP2 MLOAD SWAP1 POP SWAP2 SWAP1 POP JUMP JUMPDEST PUSH1 0x0 DUP3 DUP3 MSTORE PUSH1 0x20 DUP3 ADD SWAP1 POP SWAP3 SWAP2 POP POP JUMP JUMPDEST PUSH1 0x0 PUSH2 0x2A18 DUP3 PUSH2 0x29F1 JUMP JUMPDEST PUSH2 0x2A22 DUP2 DUP6 PUSH2 0x29FC JUMP JUMPDEST SWAP4 POP PUSH2 0x2A32 DUP2 DUP6 PUSH1 0x20 DUP7 ADD PUSH2 0x22AE JUMP JUMPDEST PUSH2 0x2A3B DUP2 PUSH2 0x22E1 JUMP JUMPDEST DUP5 ADD SWAP2 POP POP SWAP3 SWAP2 POP POP JUMP JUMPDEST PUSH1 0x0 PUSH1 0x80 DUP3 ADD SWAP1 POP PUSH2 0x2A5B PUSH1 0x0 DUP4 ADD DUP8 PUSH2 0x23E2 JUMP JUMPDEST PUSH2 0x2A68 PUSH1 0x20 DUP4 ADD DUP7 PUSH2 0x23E2 JUMP JUMPDEST PUSH2 0x2A75 PUSH1 0x40 DUP4 ADD DUP6 PUSH2 0x2478 JUMP JUMPDEST DUP2 DUP2 SUB PUSH1 0x60 DUP4 ADD MSTORE PUSH2 0x2A87 DUP2 DUP5 PUSH2 0x2A0D JUMP JUMPDEST SWAP1 POP SWAP6 SWAP5 POP POP POP POP POP JUMP JUMPDEST PUSH1 0x0 DUP2 MLOAD SWAP1 POP PUSH2 0x2AA1 DUP2 PUSH2 0x2203 JUMP JUMPDEST SWAP3 SWAP2 POP POP JUMP JUMPDEST PUSH1 0x0 PUSH1 0x20 DUP3 DUP5 SUB SLT ISZERO PUSH2 0x2ABD JUMPI PUSH2 0x2ABC PUSH2 0x21CD JUMP JUMPDEST JUMPDEST PUSH1 0x0 PUSH2 0x2ACB DUP5 DUP3 DUP6 ADD PUSH2 0x2A92 JUMP JUMPDEST SWAP2 POP POP SWAP3 SWAP2 POP POP JUMP JUMPDEST PUSH32 0x4E487B7100000000000000000000000000000000000000000000000000000000 PUSH1 0x0 MSTORE PUSH1 0x11 PUSH1 0x4 MSTORE PUSH1 0x24 PUSH1 0x0 REVERT JUMPDEST PUSH1 0x0 PUSH2 0x2B0E DUP3 PUSH2 0x234D JUMP JUMPDEST SWAP2 POP PUSH32 0xFFFFFFFFFFFFFFFFFFFFFFFFFFFFFFFFFFFFFFFFFFFFFFFFFFFFFFFFFFFFFFFF DUP3 SUB PUSH2 0x2B40 JUMPI PUSH2 0x2B3F PUSH2 0x2AD4 JUMP JUMPDEST JUMPDEST PUSH1 0x1 DUP3 ADD SWAP1 POP SWAP2 SWAP1 POP JUMP JUMPDEST PUSH32 0x4E487B7100000000000000000000000000000000000000000000000000000000 PUSH1 0x0 MSTORE PUSH1 0x12 PUSH1 0x4 MSTORE PUSH1 0x24 PUSH1 0x0 REVERT JUMPDEST PUSH1 0x0 PUSH2 0x2B85 DUP3 PUSH2 0x234D JUMP JUMPDEST SWAP2 POP PUSH2 0x2B90 DUP4 PUSH2 0x234D JUMP JUMPDEST SWAP3 POP DUP3 PUSH2 0x2BA0 JUMPI PUSH2 0x2B9F PUSH2 0x2B4B JUMP JUMPDEST JUMPDEST DUP3 DUP3 DIV SWAP1 POP SWAP3 SWAP2 POP POP JUMP JUMPDEST PUSH1 0x0 PUSH2 0x2BB6 DUP3 PUSH2 0x234D JUMP JUMPDEST SWAP2 POP PUSH2 0x2BC1 DUP4 PUSH2 0x234D JUMP JUMPDEST SWAP3 POP DUP3 DUP3 LT ISZERO PUSH2 0x2BD4 JUMPI PUSH2 0x2BD3 PUSH2 0x2AD4 JUMP JUMPDEST JUMPDEST DUP3 DUP3 SUB SWAP1 POP SWAP3 SWAP2 POP POP JUMP JUMPDEST PUSH1 0x0 PUSH2 0x2BEA DUP3 PUSH2 0x234D JUMP JUMPDEST SWAP2 POP PUSH2 0x2BF5 DUP4 PUSH2 0x234D JUMP JUMPDEST SWAP3 POP DUP3 PUSH2 0x2C05 JUMPI PUSH2 0x2C04 PUSH2 0x2B4B JUMP JUMPDEST JUMPDEST DUP3 DUP3 MOD SWAP1 POP SWAP3 SWAP2 POP POP JUMP JUMPDEST PUSH1 0x0 PUSH2 0x2C1B DUP3 PUSH2 0x234D JUMP JUMPDEST SWAP2 POP PUSH2 0x2C26 DUP4 PUSH2 0x234D JUMP JUMPDEST SWAP3 POP DUP3 PUSH32 0xFFFFFFFFFFFFFFFFFFFFFFFFFFFFFFFFFFFFFFFFFFFFFFFFFFFFFFFFFFFFFFFF SUB DUP3 GT ISZERO PUSH2 0x2C5B JUMPI PUSH2 0x2C5A PUSH2 0x2AD4 JUMP JUMPDEST JUMPDEST DUP3 DUP3 ADD SWAP1 POP SWAP3 SWAP2 POP POP JUMP JUMPDEST PUSH32 0x4E487B7100000000000000000000000000000000000000000000000000000000 PUSH1 0x0 MSTORE PUSH1 0x32 PUSH1 0x4 MSTORE PUSH1 0x24 PUSH1 0x0 REVERT INVALID LOG2 PUSH5 0x6970667358 0x22 SLT KECCAK256 SWAP8 0xD7 LT DUP12 0xF7 0xDF ADDMOD 0xF8 0x49 PUSH26 0x9D6B41A70238DF5A6D8624A642920C24B4947F0F75D264736F6C PUSH4 0x4300080D STOP CALLER "
				},
				"gasEstimates": {
					"creation": {
						"codeDepositCost": "2293400",
						"executionCost": "infinite",
						"totalCost": "infinite"
					},
					"external": {
						"approve(address,uint256)": "infinite",
						"balanceOf(address)": "2947",
						"getApproved(uint256)": "7458",
						"isApprovedForAll(address,address)": "infinite",
						"mint(uint256)": "infinite",
						"name()": "infinite",
						"owner()": "2589",
						"ownerOf(uint256)": "infinite",
						"renounceOwnership()": "30419",
						"safeTransferFrom(address,address,uint256)": "infinite",
						"safeTransferFrom(address,address,uint256,bytes)": "infinite",
						"setApprovalForAll(address,bool)": "infinite",
						"setBaseURI(string)": "infinite",
						"supportsInterface(bytes4)": "978",
						"symbol()": "infinite",
						"tokenURI(uint256)": "infinite",
						"totalSupply()": "4599",
						"transferFrom(address,address,uint256)": "infinite",
						"transferOwnership(address)": "30830"
					},
					"internal": {
						"_baseURI()": "infinite"
					}
				},
				"methodIdentifiers": {
					"approve(address,uint256)": "095ea7b3",
					"balanceOf(address)": "70a08231",
					"getApproved(uint256)": "081812fc",
					"isApprovedForAll(address,address)": "e985e9c5",
					"mint(uint256)": "a0712d68",
					"name()": "06fdde03",
					"owner()": "8da5cb5b",
					"ownerOf(uint256)": "6352211e",
					"renounceOwnership()": "715018a6",
					"safeTransferFrom(address,address,uint256)": "42842e0e",
					"safeTransferFrom(address,address,uint256,bytes)": "b88d4fde",
					"setApprovalForAll(address,bool)": "a22cb465",
					"setBaseURI(string)": "55f804b3",
					"supportsInterface(bytes4)": "01ffc9a7",
					"symbol()": "95d89b41",
					"tokenURI(uint256)": "c87b56dd",
					"totalSupply()": "18160ddd",
					"transferFrom(address,address,uint256)": "23b872dd",
					"transferOwnership(address)": "f2fde38b"
				}
			},
			"userdoc": {
				"kind": "user",
				"methods": {},
				"version": 1
			}
		}
	}
}