{
	"rotatingcube.sol": {
		"RotatingCube": {
			"abi": [
				{
					"inputs": [],
					"stateMutability": "nonpayable",
					"type": "constructor"
				},
				{
					"inputs": [],
					"name": "ApprovalCallerNotOwnerNorApproved",
					"type": "error"
				},
				{
					"inputs": [],
					"name": "ApprovalQueryForNonexistentToken",
					"type": "error"
				},
				{
					"inputs": [],
					"name": "ApprovalToCurrentOwner",
					"type": "error"
				},
				{
					"inputs": [],
					"name": "ApproveToCaller",
					"type": "error"
				},
				{
					"inputs": [],
					"name": "BalanceQueryForZeroAddress",
					"type": "error"
				},
				{
					"inputs": [],
					"name": "MintToZeroAddress",
					"type": "error"
				},
				{
					"inputs": [],
					"name": "MintZeroQuantity",
					"type": "error"
				},
				{
					"inputs": [],
					"name": "OwnerQueryForNonexistentToken",
					"type": "error"
				},
				{
					"inputs": [],
					"name": "TransferCallerNotOwnerNorApproved",
					"type": "error"
				},
				{
					"inputs": [],
					"name": "TransferFromIncorrectOwner",
					"type": "error"
				},
				{
					"inputs": [],
					"name": "TransferToNonERC721ReceiverImplementer",
					"type": "error"
				},
				{
					"inputs": [],
					"name": "TransferToZeroAddress",
					"type": "error"
				},
				{
					"inputs": [],
					"name": "URIQueryForNonexistentToken",
					"type": "error"
				},
				{
					"anonymous": false,
					"inputs": [
						{
							"indexed": true,
							"internalType": "address",
							"name": "owner",
							"type": "address"
						},
						{
							"indexed": true,
							"internalType": "address",
							"name": "approved",
							"type": "address"
						},
						{
							"indexed": true,
							"internalType": "uint256",
							"name": "tokenId",
							"type": "uint256"
						}
					],
					"name": "Approval",
					"type": "event"
				},
				{
					"anonymous": false,
					"inputs": [
						{
							"indexed": true,
							"internalType": "address",
							"name": "owner",
							"type": "address"
						},
						{
							"indexed": true,
							"internalType": "address",
							"name": "operator",
							"type": "address"
						},
						{
							"indexed": false,
							"internalType": "bool",
							"name": "approved",
							"type": "bool"
						}
					],
					"name": "ApprovalForAll",
					"type": "event"
				},
				{
					"anonymous": false,
					"inputs": [
						{
							"indexed": true,
							"internalType": "address",
							"name": "previousOwner",
							"type": "address"
						},
						{
							"indexed": true,
							"internalType": "address",
							"name": "newOwner",
							"type": "address"
						}
					],
					"name": "OwnershipTransferred",
					"type": "event"
				},
				{
					"anonymous": false,
					"inputs": [
						{
							"indexed": true,
							"internalType": "address",
							"name": "from",
							"type": "address"
						},
						{
							"indexed": true,
							"internalType": "address",
							"name": "to",
							"type": "address"
						},
						{
							"indexed": true,
							"internalType": "uint256",
							"name": "tokenId",
							"type": "uint256"
						}
					],
					"name": "Transfer",
					"type": "event"
				},
				{
					"inputs": [
						{
							"internalType": "address",
							"name": "to",
							"type": "address"
						},
						{
							"internalType": "uint256",
							"name": "tokenId",
							"type": "uint256"
						}
					],
					"name": "approve",
					"outputs": [],
					"stateMutability": "nonpayable",
					"type": "function"
				},
				{
					"inputs": [
						{
							"internalType": "address",
							"name": "owner",
							"type": "address"
						}
					],
					"name": "balanceOf",
					"outputs": [
						{
							"internalType": "uint256",
							"name": "",
							"type": "uint256"
						}
					],
					"stateMutability": "view",
					"type": "function"
				},
				{
					"inputs": [
						{
							"internalType": "uint256",
							"name": "tokenId",
							"type": "uint256"
						}
					],
					"name": "getApproved",
					"outputs": [
						{
							"internalType": "address",
							"name": "",
							"type": "address"
						}
					],
					"stateMutability": "view",
					"type": "function"
				},
				{
					"inputs": [
						{
							"internalType": "address",
							"name": "owner",
							"type": "address"
						},
						{
							"internalType": "address",
							"name": "operator",
							"type": "address"
						}
					],
					"name": "isApprovedForAll",
					"outputs": [
						{
							"internalType": "bool",
							"name": "",
							"type": "bool"
						}
					],
					"stateMutability": "view",
					"type": "function"
				},
				{
					"inputs": [
						{
							"internalType": "uint256",
							"name": "quantity",
							"type": "uint256"
						}
					],
					"name": "mint",
					"outputs": [],
					"stateMutability": "payable",
					"type": "function"
				},
				{
					"inputs": [],
					"name": "name",
					"outputs": [
						{
							"internalType": "string",
							"name": "",
							"type": "string"
						}
					],
					"stateMutability": "view",
					"type": "function"
				},
				{
					"inputs": [],
					"name": "owner",
					"outputs": [
						{
							"internalType": "address",
							"name": "",
							"type": "address"
						}
					],
					"stateMutability": "view",
					"type": "function"
				},
				{
					"inputs": [
						{
							"internalType": "uint256",
							"name": "tokenId",
							"type": "uint256"
						}
					],
					"name": "ownerOf",
					"outputs": [
						{
							"internalType": "address",
							"name": "",
							"type": "address"
						}
					],
					"stateMutability": "view",
					"type": "function"
				},
				{
					"inputs": [],
					"name": "renounceOwnership",
					"outputs": [],
					"stateMutability": "nonpayable",
					"type": "function"
				},
				{
					"inputs": [
						{
							"internalType": "address",
							"name": "from",
							"type": "address"
						},
						{
							"internalType": "address",
							"name": "to",
							"type": "address"
						},
						{
							"internalType": "uint256",
							"name": "tokenId",
							"type": "uint256"
						}
					],
					"name": "safeTransferFrom",
					"outputs": [],
					"stateMutability": "nonpayable",
					"type": "function"
				},
				{
					"inputs": [
						{
							"internalType": "address",
							"name": "from",
							"type": "address"
						},
						{
							"internalType": "address",
							"name": "to",
							"type": "address"
						},
						{
							"internalType": "uint256",
							"name": "tokenId",
							"type": "uint256"
						},
						{
							"internalType": "bytes",
							"name": "_data",
							"type": "bytes"
						}
					],
					"name": "safeTransferFrom",
					"outputs": [],
					"stateMutability": "nonpayable",
					"type": "function"
				},
				{
					"inputs": [
						{
							"internalType": "address",
							"name": "operator",
							"type": "address"
						},
						{
							"internalType": "bool",
							"name": "approved",
							"type": "bool"
						}
					],
					"name": "setApprovalForAll",
					"outputs": [],
					"stateMutability": "nonpayable",
					"type": "function"
				},
				{
					"inputs": [
						{
							"internalType": "string",
							"name": "baseURI",
							"type": "string"
						}
					],
					"name": "setBaseURI",
					"outputs": [],
					"stateMutability": "nonpayable",
					"type": "function"
				},
				{
					"inputs": [
						{
							"internalType": "bytes4",
							"name": "interfaceId",
							"type": "bytes4"
						}
					],
					"name": "supportsInterface",
					"outputs": [
						{
							"internalType": "bool",
							"name": "",
							"type": "bool"
						}
					],
					"stateMutability": "view",
					"type": "function"
				},
				{
					"inputs": [],
					"name": "symbol",
					"outputs": [
						{
							"internalType": "string",
							"name": "",
							"type": "string"
						}
					],
					"stateMutability": "view",
					"type": "function"
				},
				{
					"inputs": [
						{
							"internalType": "uint256",
							"name": "tokenId",
							"type": "uint256"
						}
					],
					"name": "tokenURI",
					"outputs": [
						{
							"internalType": "string",
							"name": "",
							"type": "string"
						}
					],
					"stateMutability": "view",
					"type": "function"
				},
				{
					"inputs": [],
					"name": "totalSupply",
					"outputs": [
						{
							"internalType": "uint256",
							"name": "",
							"type": "uint256"
						}
					],
					"stateMutability": "view",
					"type": "function"
				},
				{
					"inputs": [
						{
							"internalType": "address",
							"name": "from",
							"type": "address"
						},
						{
							"internalType": "address",
							"name": "to",
							"type": "address"
						},
						{
							"internalType": "uint256",
							"name": "tokenId",
							"type": "uint256"
						}
					],
					"name": "transferFrom",
					"outputs": [],
					"stateMutability": "nonpayable",
					"type": "function"
				},
				{
					"inputs": [
						{
							"internalType": "address",
							"name": "newOwner",
							"type": "address"
						}
					],
					"name": "transferOwnership",
					"outputs": [],
					"stateMutability": "nonpayable",
					"type": "function"
				}
			],
			"devdoc": {
				"kind": "dev",
				"methods": {
					"approve(address,uint256)": {
						"details": "See {IERC721-approve}."
					},
					"balanceOf(address)": {
						"details": "See {IERC721-balanceOf}."
					},
					"getApproved(uint256)": {
						"details": "See {IERC721-getApproved}."
					},
					"isApprovedForAll(address,address)": {
						"details": "See {IERC721-isApprovedForAll}."
					},
					"name()": {
						"details": "See {IERC721Metadata-name}."
					},
					"owner()": {
						"details": "Returns the address of the current owner."
					},
					"ownerOf(uint256)": {
						"details": "See {IERC721-ownerOf}."
					},
					"renounceOwnership()": {
						"details": "Leaves the contract without owner. It will not be possible to call `onlyOwner` functions anymore. Can only be called by the current owner. NOTE: Renouncing ownership will leave the contract without an owner, thereby removing any functionality that is only available to the owner."
					},
					"safeTransferFrom(address,address,uint256)": {
						"details": "See {IERC721-safeTransferFrom}."
					},
					"safeTransferFrom(address,address,uint256,bytes)": {
						"details": "See {IERC721-safeTransferFrom}."
					},
					"setApprovalForAll(address,bool)": {
						"details": "See {IERC721-setApprovalForAll}."
					},
					"supportsInterface(bytes4)": {
						"details": "See {IERC165-supportsInterface}."
					},
					"symbol()": {
						"details": "See {IERC721Metadata-symbol}."
					},
					"tokenURI(uint256)": {
						"details": "See {IERC721Metadata-tokenURI}."
					},
					"totalSupply()": {
						"details": "Burned tokens are calculated here, use _totalMinted() if you want to count just minted tokens."
					},
					"transferFrom(address,address,uint256)": {
						"details": "See {IERC721-transferFrom}."
					},
					"transferOwnership(address)": {
						"details": "Transfers ownership of the contract to a new account (`newOwner`). Can only be called by the current owner."
					}
				},
				"version": 1
			},
			"evm": {
				"assembly": "    /* \"rotatingcube.sol\":443:1383  contract RotatingCube is Ownable, ERC721A {... */\n  mstore(0x40, 0x80)\n    /* \"rotatingcube.sol\":540:588  constructor() ERC721A(\"RotatingCube\", \"CUBE\") {} */\n  callvalue\n  dup1\n  iszero\n  tag_1\n  jumpi\n  0x00\n  dup1\n  revert\ntag_1:\n  pop\n    /* \"erc721a/contracts/ERC721A.sol\":3357:3511  constructor(string memory name_, string memory symbol_) {... */\n  mload(0x40)\n  dup1\n  0x40\n  add\n  0x40\n  mstore\n  dup1\n  0x0c\n  dup2\n  mstore\n  0x20\n  add\n  shl(0xa0, 0x526f746174696e6743756265)\n  dup2\n  mstore\n  pop\n  mload(0x40)\n  dup1\n  0x40\n  add\n  0x40\n  mstore\n  dup1\n  0x04\n  dup2\n  mstore\n  0x20\n  add\n  shl(0xe0, 0x43554245)\n  dup2\n  mstore\n  pop\n    /* \"@openzeppelin/contracts/access/Ownable.sol\":921:953  _transferOwnership(_msgSender()) */\n  tag_6\n    /* \"@openzeppelin/contracts/access/Ownable.sol\":940:952  _msgSender() */\n  tag_7\n    /* \"@openzeppelin/contracts/access/Ownable.sol\":940:950  _msgSender */\n  shl(0x20, tag_8)\n    /* \"@openzeppelin/contracts/access/Ownable.sol\":940:952  _msgSender() */\n  0x20\n  shr\n  jump\t// in\ntag_7:\n    /* \"@openzeppelin/contracts/access/Ownable.sol\":921:939  _transferOwnership */\n  tag_9\n    /* \"@openzeppelin/contracts/access/Ownable.sol\":921:953  _transferOwnership(_msgSender()) */\n  jump\t// in\ntag_6:\n    /* \"erc721a/contracts/ERC721A.sol\":3423:3436  _name = name_ */\n  dup2\n  mload\n  tag_11\n  swap1\n    /* \"erc721a/contracts/ERC721A.sol\":3423:3428  _name */\n  0x03\n  swap1\n    /* \"erc721a/contracts/ERC721A.sol\":3423:3436  _name = name_ */\n  0x20\n  dup6\n  add\n  swap1\n  tag_12\n  jump\t// in\ntag_11:\n  pop\n    /* \"erc721a/contracts/ERC721A.sol\":3446:3463  _symbol = symbol_ */\n  dup1\n  mload\n  tag_13\n  swap1\n    /* \"erc721a/contracts/ERC721A.sol\":3446:3453  _symbol */\n  0x04\n  swap1\n    /* \"erc721a/contracts/ERC721A.sol\":3446:3463  _symbol = symbol_ */\n  0x20\n  dup5\n  add\n  swap1\n  tag_12\n  jump\t// in\ntag_13:\n  pop\n  pop\n    /* \"erc721a/contracts/ERC721A.sol\":3659:3666  uint256 */\n  0x00\n    /* \"erc721a/contracts/ERC721A.sol\":3473:3486  _currentIndex */\n  0x01\n    /* \"erc721a/contracts/ERC721A.sol\":3473:3504  _currentIndex = _startTokenId() */\n  sstore\n  pop\n    /* \"rotatingcube.sol\":443:1383  contract RotatingCube is Ownable, ERC721A {... */\n  jump(tag_32)\n    /* \"@openzeppelin/contracts/utils/Context.sol\":640:736  function _msgSender() internal view virtual returns (address) {... */\ntag_8:\n    /* \"@openzeppelin/contracts/utils/Context.sol\":719:729  msg.sender */\n  caller\n  swap1\n    /* \"@openzeppelin/contracts/utils/Context.sol\":640:736  function _msgSender() internal view virtual returns (address) {... */\n  jump\t// out\n    /* \"@openzeppelin/contracts/access/Ownable.sol\":2270:2457  function _transferOwnership(address newOwner) internal virtual {... */\ntag_9:\n    /* \"@openzeppelin/contracts/access/Ownable.sol\":2343:2359  address oldOwner */\n  0x00\n    /* \"@openzeppelin/contracts/access/Ownable.sol\":2362:2368  _owner */\n  dup1\n  sload\n  sub(shl(0xa0, 0x01), 0x01)\n    /* \"@openzeppelin/contracts/access/Ownable.sol\":2378:2395  _owner = newOwner */\n  dup4\n  dup2\n  and\n  not(sub(shl(0xa0, 0x01), 0x01))\n  dup4\n  and\n  dup2\n  or\n  dup5\n  sstore\n    /* \"@openzeppelin/contracts/access/Ownable.sol\":2410:2450  OwnershipTransferred(oldOwner, newOwner) */\n  mload(0x40)\n    /* \"@openzeppelin/contracts/access/Ownable.sol\":2362:2368  _owner */\n  swap2\n  swap1\n  swap3\n  and\n  swap3\n  dup4\n  swap2\n    /* \"@openzeppelin/contracts/access/Ownable.sol\":2410:2450  OwnershipTransferred(oldOwner, newOwner) */\n  0x8be0079c531659141344cd1fd0a4f28419497f9722a3daafe3b4186f6b6457e0\n  swap2\n    /* \"@openzeppelin/contracts/access/Ownable.sol\":2343:2359  address oldOwner */\n  swap1\n    /* \"@openzeppelin/contracts/access/Ownable.sol\":2410:2450  OwnershipTransferred(oldOwner, newOwner) */\n  log3\n    /* \"@openzeppelin/contracts/access/Ownable.sol\":2333:2457  {... */\n  pop\n    /* \"@openzeppelin/contracts/access/Ownable.sol\":2270:2457  function _transferOwnership(address newOwner) internal virtual {... */\n  pop\n  jump\t// out\n    /* \"rotatingcube.sol\":443:1383  contract RotatingCube is Ownable, ERC721A {... */\ntag_12:\n  dup3\n  dup1\n  sload\n  tag_21\n  swap1\n  tag_22\n  jump\t// in\ntag_21:\n  swap1\n  0x00\n  mstore\n  keccak256(0x00, 0x20)\n  swap1\n  0x1f\n  add\n  0x20\n  swap1\n  div\n  dup2\n  add\n  swap3\n  dup3\n  tag_24\n  jumpi\n  0x00\n  dup6\n  sstore\n  jump(tag_27)\ntag_24:\n  dup3\n  0x1f\n  lt\n  tag_25\n  jumpi\n  dup1\n  mload\n  not(0xff)\n  and\n  dup4\n  dup1\n  add\n  or\n  dup6\n  sstore\n  jump(tag_27)\ntag_25:\n  dup3\n  dup1\n  add\n  0x01\n  add\n  dup6\n  sstore\n  dup3\n  iszero\n  tag_27\n  jumpi\n  swap2\n  dup3\n  add\ntag_26:\n  dup3\n  dup2\n  gt\n  iszero\n  tag_27\n  jumpi\n  dup3\n  mload\n  dup3\n  sstore\n  swap2\n  0x20\n  add\n  swap2\n  swap1\n  0x01\n  add\n  swap1\n  jump(tag_26)\ntag_27:\n  pop\n  tag_28\n  swap3\n  swap2\n  pop\n  tag_29\n  jump\t// in\ntag_28:\n  pop\n  swap1\n  jump\t// out\ntag_29:\ntag_30:\n  dup1\n  dup3\n  gt\n  iszero\n  tag_28\n  jumpi\n  0x00\n  dup2\n  sstore\n  0x01\n  add\n  jump(tag_30)\n    /* \"#utility.yul\":14:394   */\ntag_22:\n    /* \"#utility.yul\":93:94   */\n  0x01\n    /* \"#utility.yul\":89:101   */\n  dup2\n  dup2\n  shr\n  swap1\n    /* \"#utility.yul\":136:148   */\n  dup3\n  and\n  dup1\n    /* \"#utility.yul\":157:218   */\n  tag_34\n  jumpi\n    /* \"#utility.yul\":211:215   */\n  0x7f\n    /* \"#utility.yul\":203:209   */\n  dup3\n    /* \"#utility.yul\":199:216   */\n  and\n    /* \"#utility.yul\":189:216   */\n  swap2\n  pop\n    /* \"#utility.yul\":157:218   */\ntag_34:\n    /* \"#utility.yul\":264:266   */\n  0x20\n    /* \"#utility.yul\":256:262   */\n  dup3\n    /* \"#utility.yul\":253:267   */\n  lt\n    /* \"#utility.yul\":233:251   */\n  dup2\n    /* \"#utility.yul\":230:268   */\n  eq\n    /* \"#utility.yul\":227:388   */\n  iszero\n  tag_35\n  jumpi\n    /* \"#utility.yul\":310:320   */\n  0x4e487b71\n    /* \"#utility.yul\":305:308   */\n  0xe0\n    /* \"#utility.yul\":301:321   */\n  shl\n    /* \"#utility.yul\":298:299   */\n  0x00\n    /* \"#utility.yul\":291:322   */\n  mstore\n    /* \"#utility.yul\":345:349   */\n  0x22\n    /* \"#utility.yul\":342:343   */\n  0x04\n    /* \"#utility.yul\":335:350   */\n  mstore\n    /* \"#utility.yul\":373:377   */\n  0x24\n    /* \"#utility.yul\":370:371   */\n  0x00\n    /* \"#utility.yul\":363:378   */\n  revert\n    /* \"#utility.yul\":227:388   */\ntag_35:\n  pop\n    /* \"#utility.yul\":14:394   */\n  swap2\n  swap1\n  pop\n  jump\t// out\ntag_32:\n    /* \"rotatingcube.sol\":443:1383  contract RotatingCube is Ownable, ERC721A {... */\n  dataSize(sub_0)\n  dup1\n  dataOffset(sub_0)\n  0x00\n  codecopy\n  0x00\n  return\nstop\n\nsub_0: assembly {\n        /* \"rotatingcube.sol\":443:1383  contract RotatingCube is Ownable, ERC721A {... */\n      mstore(0x40, 0x80)\n      jumpi(tag_1, lt(calldatasize, 0x04))\n      shr(0xe0, calldataload(0x00))\n      dup1\n      0x70a08231\n      gt\n      tag_21\n      jumpi\n      dup1\n      0xa22cb465\n      gt\n      tag_22\n      jumpi\n      dup1\n      0xa22cb465\n      eq\n      tag_16\n      jumpi\n      dup1\n      0xb88d4fde\n      eq\n      tag_17\n      jumpi\n      dup1\n      0xc87b56dd\n      eq\n      tag_18\n      jumpi\n      dup1\n      0xe985e9c5\n      eq\n      tag_19\n      jumpi\n      dup1\n      0xf2fde38b\n      eq\n      tag_20\n      jumpi\n      0x00\n      dup1\n      revert\n    tag_22:\n      dup1\n      0x70a08231\n      eq\n      tag_11\n      jumpi\n      dup1\n      0x715018a6\n      eq\n      tag_12\n      jumpi\n      dup1\n      0x8da5cb5b\n      eq\n      tag_13\n      jumpi\n      dup1\n      0x95d89b41\n      eq\n      tag_14\n      jumpi\n      dup1\n      0xa0712d68\n      eq\n      tag_15\n      jumpi\n      0x00\n      dup1\n      revert\n    tag_21:\n      dup1\n      0x18160ddd\n      gt\n      tag_23\n      jumpi\n      dup1\n      0x18160ddd\n      eq\n      tag_6\n      jumpi\n      dup1\n      0x23b872dd\n      eq\n      tag_7\n      jumpi\n      dup1\n      0x42842e0e\n      eq\n      tag_8\n      jumpi\n      dup1\n      0x55f804b3\n      eq\n      tag_9\n      jumpi\n      dup1\n      0x6352211e\n      eq\n      tag_10\n      jumpi\n      0x00\n      dup1\n      revert\n    tag_23:\n      dup1\n      0x01ffc9a7\n      eq\n      tag_2\n      jumpi\n      dup1\n      0x06fdde03\n      eq\n      tag_3\n      jumpi\n      dup1\n      0x081812fc\n      eq\n      tag_4\n      jumpi\n      dup1\n      0x095ea7b3\n      eq\n      tag_5\n      jumpi\n    tag_1:\n      0x00\n      dup1\n      revert\n        /* \"rotatingcube.sol\":1031:1381  function supportsInterface(bytes4 interfaceId)... */\n    tag_2:\n      callvalue\n      dup1\n      iszero\n      tag_24\n      jumpi\n      0x00\n      dup1\n      revert\n    tag_24:\n      pop\n      tag_25\n      tag_26\n      calldatasize\n      0x04\n      tag_27\n      jump\t// in\n    tag_26:\n      tag_28\n      jump\t// in\n    tag_25:\n      mload(0x40)\n        /* \"#utility.yul\":5624:5638   */\n      swap1\n      iszero\n        /* \"#utility.yul\":5617:5639   */\n      iszero\n        /* \"#utility.yul\":5599:5640   */\n      dup2\n      mstore\n        /* \"#utility.yul\":5587:5589   */\n      0x20\n        /* \"#utility.yul\":5572:5590   */\n      add\n        /* \"rotatingcube.sol\":1031:1381  function supportsInterface(bytes4 interfaceId)... */\n    tag_29:\n      mload(0x40)\n      dup1\n      swap2\n      sub\n      swap1\n      return\n        /* \"erc721a/contracts/ERC721A.sol\":7579:7677  function name() public view virtual override returns (string memory) {... */\n    tag_3:\n      callvalue\n      dup1\n      iszero\n      tag_31\n      jumpi\n      0x00\n      dup1\n      revert\n    tag_31:\n      pop\n      tag_32\n      tag_33\n      jump\t// in\n    tag_32:\n      mload(0x40)\n      tag_29\n      swap2\n      swap1\n      tag_35\n      jump\t// in\n        /* \"erc721a/contracts/ERC721A.sol\":9035:9235  function getApproved(uint256 tokenId) public view override returns (address) {... */\n    tag_4:\n      callvalue\n      dup1\n      iszero\n      tag_36\n      jumpi\n      0x00\n      dup1\n      revert\n    tag_36:\n      pop\n      tag_37\n      tag_38\n      calldatasize\n      0x04\n      tag_39\n      jump\t// in\n    tag_38:\n      tag_40\n      jump\t// in\n    tag_37:\n      mload(0x40)\n      sub(shl(0xa0, 0x01), 0x01)\n        /* \"#utility.yul\":4922:4954   */\n      swap1\n      swap2\n      and\n        /* \"#utility.yul\":4904:4955   */\n      dup2\n      mstore\n        /* \"#utility.yul\":4892:4894   */\n      0x20\n        /* \"#utility.yul\":4877:4895   */\n      add\n        /* \"erc721a/contracts/ERC721A.sol\":9035:9235  function getApproved(uint256 tokenId) public view override returns (address) {... */\n      tag_29\n        /* \"#utility.yul\":4758:4961   */\n      jump\n        /* \"erc721a/contracts/ERC721A.sol\":8612:8974  function approve(address to, uint256 tokenId) public override {... */\n    tag_5:\n      callvalue\n      dup1\n      iszero\n      tag_43\n      jumpi\n      0x00\n      dup1\n      revert\n    tag_43:\n      pop\n      tag_44\n      tag_45\n      calldatasize\n      0x04\n      tag_46\n      jump\t// in\n    tag_45:\n      tag_47\n      jump\t// in\n    tag_44:\n      stop\n        /* \"erc721a/contracts/ERC721A.sol\":3822:4119  function totalSupply() public view returns (uint256) {... */\n    tag_6:\n      callvalue\n      dup1\n      iszero\n      tag_48\n      jumpi\n      0x00\n      dup1\n      revert\n    tag_48:\n      pop\n        /* \"erc721a/contracts/ERC721A.sol\":4072:4084  _burnCounter */\n      sload(0x02)\n        /* \"erc721a/contracts/ERC721A.sol\":4056:4069  _currentIndex */\n      sload(0x01)\n        /* \"erc721a/contracts/ERC721A.sol\":4056:4084  _currentIndex - _burnCounter */\n      sub\n        /* \"erc721a/contracts/ERC721A.sol\":3822:4119  function totalSupply() public view returns (uint256) {... */\n    tag_49:\n      mload(0x40)\n        /* \"#utility.yul\":6789:6814   */\n      swap1\n      dup2\n      mstore\n        /* \"#utility.yul\":6777:6779   */\n      0x20\n        /* \"#utility.yul\":6762:6780   */\n      add\n        /* \"erc721a/contracts/ERC721A.sol\":3822:4119  function totalSupply() public view returns (uint256) {... */\n      tag_29\n        /* \"#utility.yul\":6643:6820   */\n      jump\n        /* \"erc721a/contracts/ERC721A.sol\":9874:10038  function transferFrom(... */\n    tag_7:\n      callvalue\n      dup1\n      iszero\n      tag_53\n      jumpi\n      0x00\n      dup1\n      revert\n    tag_53:\n      pop\n      tag_44\n      tag_55\n      calldatasize\n      0x04\n      tag_56\n      jump\t// in\n    tag_55:\n      tag_57\n      jump\t// in\n        /* \"erc721a/contracts/ERC721A.sol\":10104:10283  function safeTransferFrom(... */\n    tag_8:\n      callvalue\n      dup1\n      iszero\n      tag_58\n      jumpi\n      0x00\n      dup1\n      revert\n    tag_58:\n      pop\n      tag_44\n      tag_60\n      calldatasize\n      0x04\n      tag_56\n      jump\t// in\n    tag_60:\n      tag_61\n      jump\t// in\n        /* \"rotatingcube.sol\":704:802  function setBaseURI(string calldata baseURI) external onlyOwner {... */\n    tag_9:\n      callvalue\n      dup1\n      iszero\n      tag_62\n      jumpi\n      0x00\n      dup1\n      revert\n    tag_62:\n      pop\n      tag_44\n      tag_64\n      calldatasize\n      0x04\n      tag_65\n      jump\t// in\n    tag_64:\n      tag_66\n      jump\t// in\n        /* \"erc721a/contracts/ERC721A.sol\":7394:7517  function ownerOf(uint256 tokenId) public view override returns (address) {... */\n    tag_10:\n      callvalue\n      dup1\n      iszero\n      tag_67\n      jumpi\n      0x00\n      dup1\n      revert\n    tag_67:\n      pop\n      tag_37\n      tag_69\n      calldatasize\n      0x04\n      tag_39\n      jump\t// in\n    tag_69:\n      tag_70\n      jump\t// in\n        /* \"erc721a/contracts/ERC721A.sol\":4910:5113  function balanceOf(address owner) public view override returns (uint256) {... */\n    tag_11:\n      callvalue\n      dup1\n      iszero\n      tag_72\n      jumpi\n      0x00\n      dup1\n      revert\n    tag_72:\n      pop\n      tag_49\n      tag_74\n      calldatasize\n      0x04\n      tag_75\n      jump\t// in\n    tag_74:\n      tag_76\n      jump\t// in\n        /* \"@openzeppelin/contracts/access/Ownable.sol\":1668:1769  function renounceOwnership() public virtual onlyOwner {... */\n    tag_12:\n      callvalue\n      dup1\n      iszero\n      tag_78\n      jumpi\n      0x00\n      dup1\n      revert\n    tag_78:\n      pop\n      tag_44\n      tag_80\n      jump\t// in\n        /* \"@openzeppelin/contracts/access/Ownable.sol\":1036:1121  function owner() public view virtual returns (address) {... */\n    tag_13:\n      callvalue\n      dup1\n      iszero\n      tag_81\n      jumpi\n      0x00\n      dup1\n      revert\n    tag_81:\n      pop\n        /* \"@openzeppelin/contracts/access/Ownable.sol\":1082:1089  address */\n      0x00\n        /* \"@openzeppelin/contracts/access/Ownable.sol\":1108:1114  _owner */\n      sload\n      sub(shl(0xa0, 0x01), 0x01)\n      and\n        /* \"@openzeppelin/contracts/access/Ownable.sol\":1036:1121  function owner() public view virtual returns (address) {... */\n      jump(tag_37)\n        /* \"erc721a/contracts/ERC721A.sol\":7741:7843  function symbol() public view virtual override returns (string memory) {... */\n    tag_14:\n      callvalue\n      dup1\n      iszero\n      tag_85\n      jumpi\n      0x00\n      dup1\n      revert\n    tag_85:\n      pop\n      tag_32\n      tag_87\n      jump\t// in\n        /* \"rotatingcube.sol\":806:972  function mint(uint256 quantity) external payable {... */\n    tag_15:\n      tag_44\n      tag_90\n      calldatasize\n      0x04\n      tag_39\n      jump\t// in\n    tag_90:\n      tag_91\n      jump\t// in\n        /* \"erc721a/contracts/ERC721A.sol\":9302:9584  function setApprovalForAll(address operator, bool approved) public virtual override {... */\n    tag_16:\n      callvalue\n      dup1\n      iszero\n      tag_92\n      jumpi\n      0x00\n      dup1\n      revert\n    tag_92:\n      pop\n      tag_44\n      tag_94\n      calldatasize\n      0x04\n      tag_95\n      jump\t// in\n    tag_94:\n      tag_96\n      jump\t// in\n        /* \"erc721a/contracts/ERC721A.sol\":10349:10708  function safeTransferFrom(... */\n    tag_17:\n      callvalue\n      dup1\n      iszero\n      tag_97\n      jumpi\n      0x00\n      dup1\n      revert\n    tag_97:\n      pop\n      tag_44\n      tag_99\n      calldatasize\n      0x04\n      tag_100\n      jump\t// in\n    tag_99:\n      tag_101\n      jump\t// in\n        /* \"erc721a/contracts/ERC721A.sol\":7909:8222  function tokenURI(uint256 tokenId) public view virtual override returns (string memory) {... */\n    tag_18:\n      callvalue\n      dup1\n      iszero\n      tag_102\n      jumpi\n      0x00\n      dup1\n      revert\n    tag_102:\n      pop\n      tag_32\n      tag_104\n      calldatasize\n      0x04\n      tag_39\n      jump\t// in\n    tag_104:\n      tag_105\n      jump\t// in\n        /* \"erc721a/contracts/ERC721A.sol\":9650:9812  function isApprovedForAll(address owner, address operator) public view virtual override returns (bool) {... */\n    tag_19:\n      callvalue\n      dup1\n      iszero\n      tag_107\n      jumpi\n      0x00\n      dup1\n      revert\n    tag_107:\n      pop\n      tag_25\n      tag_109\n      calldatasize\n      0x04\n      tag_110\n      jump\t// in\n    tag_109:\n      sub(shl(0xa0, 0x01), 0x01)\n        /* \"erc721a/contracts/ERC721A.sol\":9770:9795  _operatorApprovals[owner] */\n      swap2\n      dup3\n      and\n        /* \"erc721a/contracts/ERC721A.sol\":9747:9751  bool */\n      0x00\n        /* \"erc721a/contracts/ERC721A.sol\":9770:9795  _operatorApprovals[owner] */\n      swap1\n      dup2\n      mstore\n        /* \"erc721a/contracts/ERC721A.sol\":9770:9788  _operatorApprovals */\n      0x08\n        /* \"erc721a/contracts/ERC721A.sol\":9770:9795  _operatorApprovals[owner] */\n      0x20\n      swap1\n      dup2\n      mstore\n      0x40\n      dup1\n      dup4\n      keccak256\n        /* \"erc721a/contracts/ERC721A.sol\":9770:9805  _operatorApprovals[owner][operator] */\n      swap4\n      swap1\n      swap5\n      and\n      dup3\n      mstore\n      swap2\n      swap1\n      swap2\n      mstore\n      keccak256\n      sload\n      0xff\n      and\n      swap1\n        /* \"erc721a/contracts/ERC721A.sol\":9650:9812  function isApprovedForAll(address owner, address operator) public view virtual override returns (bool) {... */\n      jump\n        /* \"@openzeppelin/contracts/access/Ownable.sol\":1918:2116  function transferOwnership(address newOwner) public virtual onlyOwner {... */\n    tag_20:\n      callvalue\n      dup1\n      iszero\n      tag_113\n      jumpi\n      0x00\n      dup1\n      revert\n    tag_113:\n      pop\n      tag_44\n      tag_115\n      calldatasize\n      0x04\n      tag_75\n      jump\t// in\n    tag_115:\n      tag_116\n      jump\t// in\n        /* \"rotatingcube.sol\":1031:1381  function supportsInterface(bytes4 interfaceId)... */\n    tag_28:\n        /* \"rotatingcube.sol\":1145:1149  bool */\n      0x00\n      not(sub(shl(0xe0, 0x01), 0x01))\n        /* \"rotatingcube.sol\":1172:1212  interfaceId == type(IERC721).interfaceId */\n      dup3\n      and\n      shl(0xe0, 0x80ac58cd)\n      eq\n      dup1\n        /* \"rotatingcube.sol\":1172:1270  interfaceId == type(IERC721).interfaceId ||... */\n      tag_118\n      jumpi\n      pop\n      not(sub(shl(0xe0, 0x01), 0x01))\n        /* \"rotatingcube.sol\":1222:1270  interfaceId == type(IERC721Metadata).interfaceId */\n      dup3\n      and\n      shl(0xe0, 0x5b5e139f)\n      eq\n        /* \"rotatingcube.sol\":1172:1270  interfaceId == type(IERC721).interfaceId ||... */\n    tag_118:\n        /* \"rotatingcube.sol\":1172:1330  interfaceId == type(IERC721).interfaceId ||... */\n      dup1\n      tag_119\n      jumpi\n      pop\n      not(sub(shl(0xe0, 0x01), 0x01))\n        /* \"rotatingcube.sol\":1280:1330  interfaceId == type(IERC721Enumerable).interfaceId */\n      dup3\n      and\n      shl(0xe0, 0x780e9d63)\n      eq\n        /* \"rotatingcube.sol\":1172:1330  interfaceId == type(IERC721).interfaceId ||... */\n    tag_119:\n        /* \"rotatingcube.sol\":1172:1376  interfaceId == type(IERC721).interfaceId ||... */\n      dup1\n      tag_121\n      jumpi\n      pop\n        /* \"rotatingcube.sol\":1340:1376  super.supportsInterface(interfaceId) */\n      tag_121\n        /* \"rotatingcube.sol\":1364:1375  interfaceId */\n      dup3\n        /* \"rotatingcube.sol\":1340:1363  super.supportsInterface */\n      tag_122\n        /* \"rotatingcube.sol\":1340:1376  super.supportsInterface(interfaceId) */\n      jump\t// in\n    tag_121:\n        /* \"rotatingcube.sol\":1159:1376  return... */\n      swap3\n        /* \"rotatingcube.sol\":1031:1381  function supportsInterface(bytes4 interfaceId)... */\n      swap2\n      pop\n      pop\n      jump\t// out\n        /* \"erc721a/contracts/ERC721A.sol\":7579:7677  function name() public view virtual override returns (string memory) {... */\n    tag_33:\n        /* \"erc721a/contracts/ERC721A.sol\":7633:7646  string memory */\n      0x60\n        /* \"erc721a/contracts/ERC721A.sol\":7665:7670  _name */\n      0x03\n        /* \"erc721a/contracts/ERC721A.sol\":7658:7670  return _name */\n      dup1\n      sload\n      tag_124\n      swap1\n      tag_125\n      jump\t// in\n    tag_124:\n      dup1\n      0x1f\n      add\n      0x20\n      dup1\n      swap2\n      div\n      mul\n      0x20\n      add\n      mload(0x40)\n      swap1\n      dup2\n      add\n      0x40\n      mstore\n      dup1\n      swap3\n      swap2\n      swap1\n      dup2\n      dup2\n      mstore\n      0x20\n      add\n      dup3\n      dup1\n      sload\n      tag_126\n      swap1\n      tag_125\n      jump\t// in\n    tag_126:\n      dup1\n      iszero\n      tag_127\n      jumpi\n      dup1\n      0x1f\n      lt\n      tag_128\n      jumpi\n      0x0100\n      dup1\n      dup4\n      sload\n      div\n      mul\n      dup4\n      mstore\n      swap2\n      0x20\n      add\n      swap2\n      jump(tag_127)\n    tag_128:\n      dup3\n      add\n      swap2\n      swap1\n      0x00\n      mstore\n      keccak256(0x00, 0x20)\n      swap1\n    tag_129:\n      dup2\n      sload\n      dup2\n      mstore\n      swap1\n      0x01\n      add\n      swap1\n      0x20\n      add\n      dup1\n      dup4\n      gt\n      tag_129\n      jumpi\n      dup3\n      swap1\n      sub\n      0x1f\n      and\n      dup3\n      add\n      swap2\n    tag_127:\n      pop\n      pop\n      pop\n      pop\n      pop\n      swap1\n      pop\n        /* \"erc721a/contracts/ERC721A.sol\":7579:7677  function name() public view virtual override returns (string memory) {... */\n      swap1\n      jump\t// out\n        /* \"erc721a/contracts/ERC721A.sol\":9035:9235  function getApproved(uint256 tokenId) public view override returns (address) {... */\n    tag_40:\n        /* \"erc721a/contracts/ERC721A.sol\":9103:9110  address */\n      0x00\n        /* \"erc721a/contracts/ERC721A.sol\":9127:9143  _exists(tokenId) */\n      tag_131\n        /* \"erc721a/contracts/ERC721A.sol\":9135:9142  tokenId */\n      dup3\n        /* \"erc721a/contracts/ERC721A.sol\":9127:9134  _exists */\n      tag_132\n        /* \"erc721a/contracts/ERC721A.sol\":9127:9143  _exists(tokenId) */\n      jump\t// in\n    tag_131:\n        /* \"erc721a/contracts/ERC721A.sol\":9122:9186  if (!_exists(tokenId)) revert ApprovalQueryForNonexistentToken() */\n      tag_133\n      jumpi\n        /* \"erc721a/contracts/ERC721A.sol\":9152:9186  ApprovalQueryForNonexistentToken() */\n      mload(0x40)\n      shl(0xe2, 0x33d1c039)\n      dup2\n      mstore\n      0x04\n      add\n      mload(0x40)\n      dup1\n      swap2\n      sub\n      swap1\n      revert\n        /* \"erc721a/contracts/ERC721A.sol\":9122:9186  if (!_exists(tokenId)) revert ApprovalQueryForNonexistentToken() */\n    tag_133:\n      pop\n        /* \"erc721a/contracts/ERC721A.sol\":9204:9228  _tokenApprovals[tokenId] */\n      0x00\n      swap1\n      dup2\n      mstore\n        /* \"erc721a/contracts/ERC721A.sol\":9204:9219  _tokenApprovals */\n      0x07\n        /* \"erc721a/contracts/ERC721A.sol\":9204:9228  _tokenApprovals[tokenId] */\n      0x20\n      mstore\n      0x40\n      swap1\n      keccak256\n      sload\n      sub(shl(0xa0, 0x01), 0x01)\n      and\n      swap1\n        /* \"erc721a/contracts/ERC721A.sol\":9035:9235  function getApproved(uint256 tokenId) public view override returns (address) {... */\n      jump\t// out\n        /* \"erc721a/contracts/ERC721A.sol\":8612:8974  function approve(address to, uint256 tokenId) public override {... */\n    tag_47:\n        /* \"erc721a/contracts/ERC721A.sol\":8684:8697  address owner */\n      0x00\n        /* \"erc721a/contracts/ERC721A.sol\":8700:8724  ERC721A.ownerOf(tokenId) */\n      tag_135\n        /* \"erc721a/contracts/ERC721A.sol\":8716:8723  tokenId */\n      dup3\n        /* \"erc721a/contracts/ERC721A.sol\":8700:8715  ERC721A.ownerOf */\n      tag_70\n        /* \"erc721a/contracts/ERC721A.sol\":8700:8724  ERC721A.ownerOf(tokenId) */\n      jump\t// in\n    tag_135:\n        /* \"erc721a/contracts/ERC721A.sol\":8684:8724  address owner = ERC721A.ownerOf(tokenId) */\n      swap1\n      pop\n        /* \"erc721a/contracts/ERC721A.sol\":8744:8749  owner */\n      dup1\n      sub(shl(0xa0, 0x01), 0x01)\n        /* \"erc721a/contracts/ERC721A.sol\":8738:8749  to == owner */\n      and\n        /* \"erc721a/contracts/ERC721A.sol\":8738:8740  to */\n      dup4\n      sub(shl(0xa0, 0x01), 0x01)\n        /* \"erc721a/contracts/ERC721A.sol\":8738:8749  to == owner */\n      and\n      eq\n        /* \"erc721a/contracts/ERC721A.sol\":8734:8782  if (to == owner) revert ApprovalToCurrentOwner() */\n      iszero\n      tag_136\n      jumpi\n        /* \"erc721a/contracts/ERC721A.sol\":8758:8782  ApprovalToCurrentOwner() */\n      mload(0x40)\n      shl(0xe2, 0x250fdee3)\n      dup2\n      mstore\n      0x04\n      add\n      mload(0x40)\n      dup1\n      swap2\n      sub\n      swap1\n      revert\n        /* \"erc721a/contracts/ERC721A.sol\":8734:8782  if (to == owner) revert ApprovalToCurrentOwner() */\n    tag_136:\n        /* \"@openzeppelin/contracts/utils/Context.sol\":719:729  msg.sender */\n      caller\n      sub(shl(0xa0, 0x01), 0x01)\n        /* \"erc721a/contracts/ERC721A.sol\":8797:8818  _msgSender() != owner */\n      dup3\n      and\n      eq\n      dup1\n      iszero\n      swap1\n        /* \"erc721a/contracts/ERC721A.sol\":8797:8860  _msgSender() != owner && !isApprovedForAll(owner, _msgSender()) */\n      tag_139\n      jumpi\n      pop\n        /* \"erc721a/contracts/ERC721A.sol\":8823:8860  isApprovedForAll(owner, _msgSender()) */\n      tag_140\n        /* \"erc721a/contracts/ERC721A.sol\":8840:8845  owner */\n      dup2\n        /* \"@openzeppelin/contracts/utils/Context.sol\":719:729  msg.sender */\n      caller\n        /* \"erc721a/contracts/ERC721A.sol\":9650:9812  function isApprovedForAll(address owner, address operator) public view virtual override returns (bool) {... */\n      tag_109\n      jump\t// in\n        /* \"erc721a/contracts/ERC721A.sol\":8823:8860  isApprovedForAll(owner, _msgSender()) */\n    tag_140:\n        /* \"erc721a/contracts/ERC721A.sol\":8822:8860  !isApprovedForAll(owner, _msgSender()) */\n      iszero\n        /* \"erc721a/contracts/ERC721A.sol\":8797:8860  _msgSender() != owner && !isApprovedForAll(owner, _msgSender()) */\n    tag_139:\n        /* \"erc721a/contracts/ERC721A.sol\":8793:8929  if (_msgSender() != owner && !isApprovedForAll(owner, _msgSender())) {... */\n      iszero\n      tag_142\n      jumpi\n        /* \"erc721a/contracts/ERC721A.sol\":8883:8918  ApprovalCallerNotOwnerNorApproved() */\n      mload(0x40)\n      shl(0xe1, 0x67d9dca1)\n      dup2\n      mstore\n      0x04\n      add\n      mload(0x40)\n      dup1\n      swap2\n      sub\n      swap1\n      revert\n        /* \"erc721a/contracts/ERC721A.sol\":8793:8929  if (_msgSender() != owner && !isApprovedForAll(owner, _msgSender())) {... */\n    tag_142:\n        /* \"erc721a/contracts/ERC721A.sol\":8939:8967  _approve(to, tokenId, owner) */\n      tag_143\n        /* \"erc721a/contracts/ERC721A.sol\":8948:8950  to */\n      dup4\n        /* \"erc721a/contracts/ERC721A.sol\":8952:8959  tokenId */\n      dup4\n        /* \"erc721a/contracts/ERC721A.sol\":8961:8966  owner */\n      dup4\n        /* \"erc721a/contracts/ERC721A.sol\":8939:8947  _approve */\n      tag_144\n        /* \"erc721a/contracts/ERC721A.sol\":8939:8967  _approve(to, tokenId, owner) */\n      jump\t// in\n    tag_143:\n        /* \"erc721a/contracts/ERC721A.sol\":8674:8974  {... */\n      pop\n        /* \"erc721a/contracts/ERC721A.sol\":8612:8974  function approve(address to, uint256 tokenId) public override {... */\n      pop\n      pop\n      jump\t// out\n        /* \"erc721a/contracts/ERC721A.sol\":9874:10038  function transferFrom(... */\n    tag_57:\n        /* \"erc721a/contracts/ERC721A.sol\":10003:10031  _transfer(from, to, tokenId) */\n      tag_143\n        /* \"erc721a/contracts/ERC721A.sol\":10013:10017  from */\n      dup4\n        /* \"erc721a/contracts/ERC721A.sol\":10019:10021  to */\n      dup4\n        /* \"erc721a/contracts/ERC721A.sol\":10023:10030  tokenId */\n      dup4\n        /* \"erc721a/contracts/ERC721A.sol\":10003:10012  _transfer */\n      tag_150\n        /* \"erc721a/contracts/ERC721A.sol\":10003:10031  _transfer(from, to, tokenId) */\n      jump\t// in\n        /* \"erc721a/contracts/ERC721A.sol\":10104:10283  function safeTransferFrom(... */\n    tag_61:\n        /* \"erc721a/contracts/ERC721A.sol\":10237:10276  safeTransferFrom(from, to, tokenId, '') */\n      tag_143\n        /* \"erc721a/contracts/ERC721A.sol\":10254:10258  from */\n      dup4\n        /* \"erc721a/contracts/ERC721A.sol\":10260:10262  to */\n      dup4\n        /* \"erc721a/contracts/ERC721A.sol\":10264:10271  tokenId */\n      dup4\n        /* \"erc721a/contracts/ERC721A.sol\":10237:10276  safeTransferFrom(from, to, tokenId, '') */\n      mload(0x40)\n      dup1\n      0x20\n      add\n      0x40\n      mstore\n      dup1\n      0x00\n      dup2\n      mstore\n      pop\n        /* \"erc721a/contracts/ERC721A.sol\":10237:10253  safeTransferFrom */\n      tag_101\n        /* \"erc721a/contracts/ERC721A.sol\":10237:10276  safeTransferFrom(from, to, tokenId, '') */\n      jump\t// in\n        /* \"rotatingcube.sol\":704:802  function setBaseURI(string calldata baseURI) external onlyOwner {... */\n    tag_66:\n        /* \"@openzeppelin/contracts/access/Ownable.sol\":1082:1089  address */\n      0x00\n        /* \"@openzeppelin/contracts/access/Ownable.sol\":1108:1114  _owner */\n      sload\n      sub(shl(0xa0, 0x01), 0x01)\n      and\n        /* \"@openzeppelin/contracts/utils/Context.sol\":719:729  msg.sender */\n      caller\n        /* \"@openzeppelin/contracts/access/Ownable.sol\":1248:1271  owner() == _msgSender() */\n      eq\n        /* \"@openzeppelin/contracts/access/Ownable.sol\":1240:1308  require(owner() == _msgSender(), \"Ownable: caller is not the owner\") */\n      tag_156\n      jumpi\n      mload(0x40)\n      shl(0xe5, 0x461bcd)\n      dup2\n      mstore\n      0x04\n      add\n      tag_157\n      swap1\n      tag_158\n      jump\t// in\n    tag_157:\n      mload(0x40)\n      dup1\n      swap2\n      sub\n      swap1\n      revert\n    tag_156:\n        /* \"rotatingcube.sol\":774:797  _baseTokenURI = baseURI */\n      tag_143\n        /* \"rotatingcube.sol\":774:787  _baseTokenURI */\n      0x09\n        /* \"rotatingcube.sol\":790:797  baseURI */\n      dup4\n      dup4\n        /* \"rotatingcube.sol\":774:797  _baseTokenURI = baseURI */\n      tag_161\n      jump\t// in\n        /* \"erc721a/contracts/ERC721A.sol\":7394:7517  function ownerOf(uint256 tokenId) public view override returns (address) {... */\n    tag_70:\n        /* \"erc721a/contracts/ERC721A.sol\":7458:7465  address */\n      0x00\n        /* \"erc721a/contracts/ERC721A.sol\":7484:7505  _ownershipOf(tokenId) */\n      tag_163\n        /* \"erc721a/contracts/ERC721A.sol\":7497:7504  tokenId */\n      dup3\n        /* \"erc721a/contracts/ERC721A.sol\":7484:7496  _ownershipOf */\n      tag_164\n        /* \"erc721a/contracts/ERC721A.sol\":7484:7505  _ownershipOf(tokenId) */\n      jump\t// in\n    tag_163:\n        /* \"erc721a/contracts/ERC721A.sol\":7484:7510  _ownershipOf(tokenId).addr */\n      mload\n      swap3\n        /* \"erc721a/contracts/ERC721A.sol\":7394:7517  function ownerOf(uint256 tokenId) public view override returns (address) {... */\n      swap2\n      pop\n      pop\n      jump\t// out\n        /* \"erc721a/contracts/ERC721A.sol\":4910:5113  function balanceOf(address owner) public view override returns (uint256) {... */\n    tag_76:\n        /* \"erc721a/contracts/ERC721A.sol\":4974:4981  uint256 */\n      0x00\n      sub(shl(0xa0, 0x01), 0x01)\n        /* \"erc721a/contracts/ERC721A.sol\":4997:5016  owner == address(0) */\n      dup3\n      and\n        /* \"erc721a/contracts/ERC721A.sol\":4993:5053  if (owner == address(0)) revert BalanceQueryForZeroAddress() */\n      tag_166\n      jumpi\n        /* \"erc721a/contracts/ERC721A.sol\":5025:5053  BalanceQueryForZeroAddress() */\n      mload(0x40)\n      shl(0xe2, 0x23d3ad81)\n      dup2\n      mstore\n      0x04\n      add\n      mload(0x40)\n      dup1\n      swap2\n      sub\n      swap1\n      revert\n        /* \"erc721a/contracts/ERC721A.sol\":4993:5053  if (owner == address(0)) revert BalanceQueryForZeroAddress() */\n    tag_166:\n      pop\n      sub(shl(0xa0, 0x01), 0x01)\n        /* \"erc721a/contracts/ERC721A.sol\":5078:5097  _addressData[owner] */\n      and\n      0x00\n      swap1\n      dup2\n      mstore\n        /* \"erc721a/contracts/ERC721A.sol\":5078:5090  _addressData */\n      0x06\n        /* \"erc721a/contracts/ERC721A.sol\":5078:5097  _addressData[owner] */\n      0x20\n      mstore\n      0x40\n      swap1\n      keccak256\n        /* \"erc721a/contracts/ERC721A.sol\":5078:5105  _addressData[owner].balance */\n      sload\n      0xffffffffffffffff\n      and\n      swap1\n        /* \"erc721a/contracts/ERC721A.sol\":4910:5113  function balanceOf(address owner) public view override returns (uint256) {... */\n      jump\t// out\n        /* \"@openzeppelin/contracts/access/Ownable.sol\":1668:1769  function renounceOwnership() public virtual onlyOwner {... */\n    tag_80:\n        /* \"@openzeppelin/contracts/access/Ownable.sol\":1082:1089  address */\n      0x00\n        /* \"@openzeppelin/contracts/access/Ownable.sol\":1108:1114  _owner */\n      sload\n      sub(shl(0xa0, 0x01), 0x01)\n      and\n        /* \"@openzeppelin/contracts/utils/Context.sol\":719:729  msg.sender */\n      caller\n        /* \"@openzeppelin/contracts/access/Ownable.sol\":1248:1271  owner() == _msgSender() */\n      eq\n        /* \"@openzeppelin/contracts/access/Ownable.sol\":1240:1308  require(owner() == _msgSender(), \"Ownable: caller is not the owner\") */\n      tag_170\n      jumpi\n      mload(0x40)\n      shl(0xe5, 0x461bcd)\n      dup2\n      mstore\n      0x04\n      add\n      tag_157\n      swap1\n      tag_158\n      jump\t// in\n    tag_170:\n        /* \"@openzeppelin/contracts/access/Ownable.sol\":1732:1762  _transferOwnership(address(0)) */\n      tag_173\n        /* \"@openzeppelin/contracts/access/Ownable.sol\":1759:1760  0 */\n      0x00\n        /* \"@openzeppelin/contracts/access/Ownable.sol\":1732:1750  _transferOwnership */\n      tag_174\n        /* \"@openzeppelin/contracts/access/Ownable.sol\":1732:1762  _transferOwnership(address(0)) */\n      jump\t// in\n    tag_173:\n        /* \"@openzeppelin/contracts/access/Ownable.sol\":1668:1769  function renounceOwnership() public virtual onlyOwner {... */\n      jump\t// out\n        /* \"erc721a/contracts/ERC721A.sol\":7741:7843  function symbol() public view virtual override returns (string memory) {... */\n    tag_87:\n        /* \"erc721a/contracts/ERC721A.sol\":7797:7810  string memory */\n      0x60\n        /* \"erc721a/contracts/ERC721A.sol\":7829:7836  _symbol */\n      0x04\n        /* \"erc721a/contracts/ERC721A.sol\":7822:7836  return _symbol */\n      dup1\n      sload\n      tag_124\n      swap1\n      tag_125\n      jump\t// in\n        /* \"rotatingcube.sol\":806:972  function mint(uint256 quantity) external payable {... */\n    tag_91:\n        /* \"rotatingcube.sol\":936:967  _safeMint(msg.sender, quantity) */\n      tag_183\n        /* \"rotatingcube.sol\":946:956  msg.sender */\n      caller\n        /* \"rotatingcube.sol\":958:966  quantity */\n      dup3\n        /* \"rotatingcube.sol\":936:945  _safeMint */\n      tag_184\n        /* \"rotatingcube.sol\":936:967  _safeMint(msg.sender, quantity) */\n      jump\t// in\n    tag_183:\n        /* \"rotatingcube.sol\":806:972  function mint(uint256 quantity) external payable {... */\n      pop\n      jump\t// out\n        /* \"erc721a/contracts/ERC721A.sol\":9302:9584  function setApprovalForAll(address operator, bool approved) public virtual override {... */\n    tag_96:\n      sub(shl(0xa0, 0x01), 0x01)\n        /* \"erc721a/contracts/ERC721A.sol\":9400:9424  operator == _msgSender() */\n      dup3\n      and\n        /* \"@openzeppelin/contracts/utils/Context.sol\":719:729  msg.sender */\n      caller\n        /* \"erc721a/contracts/ERC721A.sol\":9400:9424  operator == _msgSender() */\n      eq\n        /* \"erc721a/contracts/ERC721A.sol\":9396:9450  if (operator == _msgSender()) revert ApproveToCaller() */\n      iszero\n      tag_187\n      jumpi\n        /* \"erc721a/contracts/ERC721A.sol\":9433:9450  ApproveToCaller() */\n      mload(0x40)\n      shl(0xe0, 0xb06307db)\n      dup2\n      mstore\n      0x04\n      add\n      mload(0x40)\n      dup1\n      swap2\n      sub\n      swap1\n      revert\n        /* \"erc721a/contracts/ERC721A.sol\":9396:9450  if (operator == _msgSender()) revert ApproveToCaller() */\n    tag_187:\n        /* \"@openzeppelin/contracts/utils/Context.sol\":719:729  msg.sender */\n      caller\n        /* \"erc721a/contracts/ERC721A.sol\":9461:9493  _operatorApprovals[_msgSender()] */\n      0x00\n      dup2\n      dup2\n      mstore\n        /* \"erc721a/contracts/ERC721A.sol\":9461:9479  _operatorApprovals */\n      0x08\n        /* \"erc721a/contracts/ERC721A.sol\":9461:9493  _operatorApprovals[_msgSender()] */\n      0x20\n      swap1\n      dup2\n      mstore\n      0x40\n      dup1\n      dup4\n      keccak256\n      sub(shl(0xa0, 0x01), 0x01)\n        /* \"erc721a/contracts/ERC721A.sol\":9461:9503  _operatorApprovals[_msgSender()][operator] */\n      dup8\n      and\n      dup1\n      dup6\n      mstore\n      swap1\n      dup4\n      mstore\n      swap3\n      dup2\n      swap1\n      keccak256\n        /* \"erc721a/contracts/ERC721A.sol\":9461:9514  _operatorApprovals[_msgSender()][operator] = approved */\n      dup1\n      sload\n      not(0xff)\n      and\n      dup7\n      iszero\n      iszero\n      swap1\n      dup2\n      or\n      swap1\n      swap2\n      sstore\n        /* \"erc721a/contracts/ERC721A.sol\":9529:9577  ApprovalForAll(_msgSender(), operator, approved) */\n      swap1\n      mload\n        /* \"#utility.yul\":5599:5640   */\n      swap1\n      dup2\n      mstore\n        /* \"erc721a/contracts/ERC721A.sol\":9461:9503  _operatorApprovals[_msgSender()][operator] */\n      swap2\n      swap3\n        /* \"@openzeppelin/contracts/utils/Context.sol\":719:729  msg.sender */\n      swap2\n        /* \"erc721a/contracts/ERC721A.sol\":9529:9577  ApprovalForAll(_msgSender(), operator, approved) */\n      0x17307eab39ab6107e8899845ad3d59bd9653f200f220920489ca2b5937696c31\n      swap2\n        /* \"#utility.yul\":5572:5590   */\n      add\n        /* \"erc721a/contracts/ERC721A.sol\":9529:9577  ApprovalForAll(_msgSender(), operator, approved) */\n      mload(0x40)\n      dup1\n      swap2\n      sub\n      swap1\n      log3\n        /* \"erc721a/contracts/ERC721A.sol\":9302:9584  function setApprovalForAll(address operator, bool approved) public virtual override {... */\n      pop\n      pop\n      jump\t// out\n        /* \"erc721a/contracts/ERC721A.sol\":10349:10708  function safeTransferFrom(... */\n    tag_101:\n        /* \"erc721a/contracts/ERC721A.sol\":10510:10538  _transfer(from, to, tokenId) */\n      tag_192\n        /* \"erc721a/contracts/ERC721A.sol\":10520:10524  from */\n      dup5\n        /* \"erc721a/contracts/ERC721A.sol\":10526:10528  to */\n      dup5\n        /* \"erc721a/contracts/ERC721A.sol\":10530:10537  tokenId */\n      dup5\n        /* \"erc721a/contracts/ERC721A.sol\":10510:10519  _transfer */\n      tag_150\n        /* \"erc721a/contracts/ERC721A.sol\":10510:10538  _transfer(from, to, tokenId) */\n      jump\t// in\n    tag_192:\n      sub(shl(0xa0, 0x01), 0x01)\n        /* \"erc721a/contracts/ERC721A.sol\":10552:10565  to.isContract */\n      dup4\n      and\n        /* \"@openzeppelin/contracts/utils/Address.sol\":1465:1484  account.code.length */\n      extcodesize\n        /* \"@openzeppelin/contracts/utils/Address.sol\":1465:1488  account.code.length > 0 */\n      iszero\n      iszero\n        /* \"erc721a/contracts/ERC721A.sol\":10552:10628  to.isContract() && !_checkContractOnERC721Received(from, to, tokenId, _data) */\n      dup1\n      iszero\n      tag_195\n      jumpi\n      pop\n        /* \"erc721a/contracts/ERC721A.sol\":10572:10628  _checkContractOnERC721Received(from, to, tokenId, _data) */\n      tag_196\n        /* \"erc721a/contracts/ERC721A.sol\":10603:10607  from */\n      dup5\n        /* \"erc721a/contracts/ERC721A.sol\":10609:10611  to */\n      dup5\n        /* \"erc721a/contracts/ERC721A.sol\":10613:10620  tokenId */\n      dup5\n        /* \"erc721a/contracts/ERC721A.sol\":10622:10627  _data */\n      dup5\n        /* \"erc721a/contracts/ERC721A.sol\":10572:10602  _checkContractOnERC721Received */\n      tag_197\n        /* \"erc721a/contracts/ERC721A.sol\":10572:10628  _checkContractOnERC721Received(from, to, tokenId, _data) */\n      jump\t// in\n    tag_196:\n        /* \"erc721a/contracts/ERC721A.sol\":10571:10628  !_checkContractOnERC721Received(from, to, tokenId, _data) */\n      iszero\n        /* \"erc721a/contracts/ERC721A.sol\":10552:10628  to.isContract() && !_checkContractOnERC721Received(from, to, tokenId, _data) */\n    tag_195:\n        /* \"erc721a/contracts/ERC721A.sol\":10548:10702  if (to.isContract() && !_checkContractOnERC721Received(from, to, tokenId, _data)) {... */\n      iszero\n      tag_198\n      jumpi\n        /* \"erc721a/contracts/ERC721A.sol\":10651:10691  TransferToNonERC721ReceiverImplementer() */\n      mload(0x40)\n      shl(0xe1, 0x68d2bf6b)\n      dup2\n      mstore\n      0x04\n      add\n      mload(0x40)\n      dup1\n      swap2\n      sub\n      swap1\n      revert\n        /* \"erc721a/contracts/ERC721A.sol\":10548:10702  if (to.isContract() && !_checkContractOnERC721Received(from, to, tokenId, _data)) {... */\n    tag_198:\n        /* \"erc721a/contracts/ERC721A.sol\":10349:10708  function safeTransferFrom(... */\n      pop\n      pop\n      pop\n      pop\n      jump\t// out\n        /* \"erc721a/contracts/ERC721A.sol\":7909:8222  function tokenURI(uint256 tokenId) public view virtual override returns (string memory) {... */\n    tag_105:\n        /* \"erc721a/contracts/ERC721A.sol\":7982:7995  string memory */\n      0x60\n        /* \"erc721a/contracts/ERC721A.sol\":8012:8028  _exists(tokenId) */\n      tag_200\n        /* \"erc721a/contracts/ERC721A.sol\":8020:8027  tokenId */\n      dup3\n        /* \"erc721a/contracts/ERC721A.sol\":8012:8019  _exists */\n      tag_132\n        /* \"erc721a/contracts/ERC721A.sol\":8012:8028  _exists(tokenId) */\n      jump\t// in\n    tag_200:\n        /* \"erc721a/contracts/ERC721A.sol\":8007:8066  if (!_exists(tokenId)) revert URIQueryForNonexistentToken() */\n      tag_201\n      jumpi\n        /* \"erc721a/contracts/ERC721A.sol\":8037:8066  URIQueryForNonexistentToken() */\n      mload(0x40)\n      shl(0xe4, 0x0a14c4b5)\n      dup2\n      mstore\n      0x04\n      add\n      mload(0x40)\n      dup1\n      swap2\n      sub\n      swap1\n      revert\n        /* \"erc721a/contracts/ERC721A.sol\":8007:8066  if (!_exists(tokenId)) revert URIQueryForNonexistentToken() */\n    tag_201:\n        /* \"erc721a/contracts/ERC721A.sol\":8077:8098  string memory baseURI */\n      0x00\n        /* \"erc721a/contracts/ERC721A.sol\":8101:8111  _baseURI() */\n      tag_202\n        /* \"erc721a/contracts/ERC721A.sol\":8101:8109  _baseURI */\n      tag_203\n        /* \"erc721a/contracts/ERC721A.sol\":8101:8111  _baseURI() */\n      jump\t// in\n    tag_202:\n        /* \"erc721a/contracts/ERC721A.sol\":8077:8111  string memory baseURI = _baseURI() */\n      swap1\n      pop\n        /* \"erc721a/contracts/ERC721A.sol\":8134:8141  baseURI */\n      dup1\n        /* \"erc721a/contracts/ERC721A.sol\":8128:8149  bytes(baseURI).length */\n      mload\n        /* \"erc721a/contracts/ERC721A.sol\":8153:8154  0 */\n      0x00\n        /* \"erc721a/contracts/ERC721A.sol\":8128:8154  bytes(baseURI).length != 0 */\n      eq\n      iszero\n        /* \"erc721a/contracts/ERC721A.sol\":8128:8215  bytes(baseURI).length != 0 ? string(abi.encodePacked(baseURI, tokenId.toString())) : '' */\n      tag_204\n      jumpi\n      mload(0x40)\n      dup1\n      0x20\n      add\n      0x40\n      mstore\n      dup1\n      0x00\n      dup2\n      mstore\n      pop\n      jump(tag_205)\n    tag_204:\n        /* \"erc721a/contracts/ERC721A.sol\":8181:8188  baseURI */\n      dup1\n        /* \"erc721a/contracts/ERC721A.sol\":8190:8208  tokenId.toString() */\n      tag_206\n        /* \"erc721a/contracts/ERC721A.sol\":8190:8197  tokenId */\n      dup5\n        /* \"erc721a/contracts/ERC721A.sol\":8190:8206  tokenId.toString */\n      tag_207\n        /* \"erc721a/contracts/ERC721A.sol\":8190:8208  tokenId.toString() */\n      jump\t// in\n    tag_206:\n        /* \"erc721a/contracts/ERC721A.sol\":8164:8209  abi.encodePacked(baseURI, tokenId.toString()) */\n      add(0x20, mload(0x40))\n      tag_208\n      swap3\n      swap2\n      swap1\n      tag_209\n      jump\t// in\n    tag_208:\n      mload(0x40)\n      0x20\n      dup2\n      dup4\n      sub\n      sub\n      dup2\n      mstore\n      swap1\n      0x40\n      mstore\n        /* \"erc721a/contracts/ERC721A.sol\":8128:8215  bytes(baseURI).length != 0 ? string(abi.encodePacked(baseURI, tokenId.toString())) : '' */\n    tag_205:\n        /* \"erc721a/contracts/ERC721A.sol\":8121:8215  return bytes(baseURI).length != 0 ? string(abi.encodePacked(baseURI, tokenId.toString())) : '' */\n      swap4\n        /* \"erc721a/contracts/ERC721A.sol\":7909:8222  function tokenURI(uint256 tokenId) public view virtual override returns (string memory) {... */\n      swap3\n      pop\n      pop\n      pop\n      jump\t// out\n        /* \"@openzeppelin/contracts/access/Ownable.sol\":1918:2116  function transferOwnership(address newOwner) public virtual onlyOwner {... */\n    tag_116:\n        /* \"@openzeppelin/contracts/access/Ownable.sol\":1082:1089  address */\n      0x00\n        /* \"@openzeppelin/contracts/access/Ownable.sol\":1108:1114  _owner */\n      sload\n      sub(shl(0xa0, 0x01), 0x01)\n      and\n        /* \"@openzeppelin/contracts/utils/Context.sol\":719:729  msg.sender */\n      caller\n        /* \"@openzeppelin/contracts/access/Ownable.sol\":1248:1271  owner() == _msgSender() */\n      eq\n        /* \"@openzeppelin/contracts/access/Ownable.sol\":1240:1308  require(owner() == _msgSender(), \"Ownable: caller is not the owner\") */\n      tag_214\n      jumpi\n      mload(0x40)\n      shl(0xe5, 0x461bcd)\n      dup2\n      mstore\n      0x04\n      add\n      tag_157\n      swap1\n      tag_158\n      jump\t// in\n    tag_214:\n      sub(shl(0xa0, 0x01), 0x01)\n        /* \"@openzeppelin/contracts/access/Ownable.sol\":2006:2028  newOwner != address(0) */\n      dup2\n      and\n        /* \"@openzeppelin/contracts/access/Ownable.sol\":1998:2071  require(newOwner != address(0), \"Ownable: new owner is the zero address\") */\n      tag_217\n      jumpi\n      mload(0x40)\n      shl(0xe5, 0x461bcd)\n      dup2\n      mstore\n        /* \"#utility.yul\":6077:6079   */\n      0x20\n        /* \"@openzeppelin/contracts/access/Ownable.sol\":1998:2071  require(newOwner != address(0), \"Ownable: new owner is the zero address\") */\n      0x04\n      dup3\n      add\n        /* \"#utility.yul\":6059:6080   */\n      mstore\n        /* \"#utility.yul\":6116:6118   */\n      0x26\n        /* \"#utility.yul\":6096:6114   */\n      0x24\n      dup3\n      add\n        /* \"#utility.yul\":6089:6119   */\n      mstore\n        /* \"#utility.yul\":6155:6189   */\n      0x4f776e61626c653a206e6577206f776e657220697320746865207a65726f2061\n        /* \"#utility.yul\":6135:6153   */\n      0x44\n      dup3\n      add\n        /* \"#utility.yul\":6128:6190   */\n      mstore\n      shl(0xd0, 0x646472657373)\n        /* \"#utility.yul\":6206:6224   */\n      0x64\n      dup3\n      add\n        /* \"#utility.yul\":6199:6235   */\n      mstore\n        /* \"#utility.yul\":6252:6271   */\n      0x84\n      add\n        /* \"@openzeppelin/contracts/access/Ownable.sol\":1998:2071  require(newOwner != address(0), \"Ownable: new owner is the zero address\") */\n      tag_157\n        /* \"#utility.yul\":5875:6277   */\n      jump\n        /* \"@openzeppelin/contracts/access/Ownable.sol\":1998:2071  require(newOwner != address(0), \"Ownable: new owner is the zero address\") */\n    tag_217:\n        /* \"@openzeppelin/contracts/access/Ownable.sol\":2081:2109  _transferOwnership(newOwner) */\n      tag_183\n        /* \"@openzeppelin/contracts/access/Ownable.sol\":2100:2108  newOwner */\n      dup2\n        /* \"@openzeppelin/contracts/access/Ownable.sol\":2081:2099  _transferOwnership */\n      tag_174\n        /* \"@openzeppelin/contracts/access/Ownable.sol\":2081:2109  _transferOwnership(newOwner) */\n      jump\t// in\n        /* \"erc721a/contracts/ERC721A.sol\":4551:4851  function supportsInterface(bytes4 interfaceId) public view virtual override(ERC165, IERC165) returns (bool) {... */\n    tag_122:\n        /* \"erc721a/contracts/ERC721A.sol\":4653:4657  bool */\n      0x00\n      not(sub(shl(0xe0, 0x01), 0x01))\n        /* \"erc721a/contracts/ERC721A.sol\":4688:4728  interfaceId == type(IERC721).interfaceId */\n      dup3\n      and\n      shl(0xe0, 0x80ac58cd)\n      eq\n      dup1\n        /* \"erc721a/contracts/ERC721A.sol\":4688:4792  interfaceId == type(IERC721).interfaceId ||... */\n      tag_222\n      jumpi\n      pop\n      not(sub(shl(0xe0, 0x01), 0x01))\n        /* \"erc721a/contracts/ERC721A.sol\":4744:4792  interfaceId == type(IERC721Metadata).interfaceId */\n      dup3\n      and\n      shl(0xe0, 0x5b5e139f)\n      eq\n        /* \"erc721a/contracts/ERC721A.sol\":4688:4792  interfaceId == type(IERC721).interfaceId ||... */\n    tag_222:\n        /* \"erc721a/contracts/ERC721A.sol\":4688:4844  interfaceId == type(IERC721).interfaceId ||... */\n      dup1\n      tag_121\n      jumpi\n      pop\n      shl(0xe0, 0x01ffc9a7)\n      not(sub(shl(0xe0, 0x01), 0x01))\n        /* \"@openzeppelin/contracts/utils/introspection/ERC165.sol\":937:977  interfaceId == type(IERC165).interfaceId */\n      dup4\n      and\n      eq\n        /* \"erc721a/contracts/ERC721A.sol\":4808:4844  super.supportsInterface(interfaceId) */\n      tag_121\n        /* \"@openzeppelin/contracts/utils/introspection/ERC165.sol\":829:984  function supportsInterface(bytes4 interfaceId) public view virtual override returns (bool) {... */\n      jump\n        /* \"erc721a/contracts/ERC721A.sol\":10954:11126  function _exists(uint256 tokenId) internal view returns (bool) {... */\n    tag_132:\n        /* \"erc721a/contracts/ERC721A.sol\":11011:11015  bool */\n      0x00\n        /* \"erc721a/contracts/ERC721A.sol\":11074:11087  _currentIndex */\n      sload(0x01)\n        /* \"erc721a/contracts/ERC721A.sol\":11064:11071  tokenId */\n      dup3\n        /* \"erc721a/contracts/ERC721A.sol\":11064:11087  tokenId < _currentIndex */\n      lt\n        /* \"erc721a/contracts/ERC721A.sol\":11034:11119  _startTokenId() <= tokenId && tokenId < _currentIndex && !_ownerships[tokenId].burned */\n      dup1\n      iszero\n      tag_121\n      jumpi\n      pop\n      pop\n        /* \"erc721a/contracts/ERC721A.sol\":11092:11112  _ownerships[tokenId] */\n      0x00\n      swap1\n      dup2\n      mstore\n        /* \"erc721a/contracts/ERC721A.sol\":11092:11103  _ownerships */\n      0x05\n        /* \"erc721a/contracts/ERC721A.sol\":11092:11112  _ownerships[tokenId] */\n      0x20\n      mstore\n      0x40\n      swap1\n      keccak256\n        /* \"erc721a/contracts/ERC721A.sol\":11092:11119  _ownerships[tokenId].burned */\n      sload\n      shl(0xe0, 0x01)\n      swap1\n      div\n      0xff\n      and\n        /* \"erc721a/contracts/ERC721A.sol\":11091:11119  !_ownerships[tokenId].burned */\n      iszero\n      swap1\n        /* \"erc721a/contracts/ERC721A.sol\":10954:11126  function _exists(uint256 tokenId) internal view returns (bool) {... */\n      jump\t// out\n        /* \"erc721a/contracts/ERC721A.sol\":18894:19083  function _approve(... */\n    tag_144:\n        /* \"erc721a/contracts/ERC721A.sol\":19004:19028  _tokenApprovals[tokenId] */\n      0x00\n      dup3\n      dup2\n      mstore\n        /* \"erc721a/contracts/ERC721A.sol\":19004:19019  _tokenApprovals */\n      0x07\n        /* \"erc721a/contracts/ERC721A.sol\":19004:19028  _tokenApprovals[tokenId] */\n      0x20\n      mstore\n      0x40\n      dup1\n      dup3\n      keccak256\n        /* \"erc721a/contracts/ERC721A.sol\":19004:19033  _tokenApprovals[tokenId] = to */\n      dup1\n      sload\n      not(sub(shl(0xa0, 0x01), 0x01))\n      and\n      sub(shl(0xa0, 0x01), 0x01)\n      dup8\n      dup2\n      and\n      swap2\n      dup3\n      or\n      swap1\n      swap3\n      sstore\n        /* \"erc721a/contracts/ERC721A.sol\":19048:19076  Approval(owner, to, tokenId) */\n      swap2\n      mload\n        /* \"erc721a/contracts/ERC721A.sol\":19004:19028  _tokenApprovals[tokenId] */\n      dup6\n      swap4\n        /* \"erc721a/contracts/ERC721A.sol\":19048:19076  Approval(owner, to, tokenId) */\n      swap2\n      dup6\n      and\n      swap2\n      0x8c5be1e5ebec7d5bd14f71427d1e84f3dd0314c0f7b2291e5b200ac8c7c3b925\n      swap2\n      log4\n        /* \"erc721a/contracts/ERC721A.sol\":18894:19083  function _approve(... */\n      pop\n      pop\n      pop\n      jump\t// out\n        /* \"erc721a/contracts/ERC721A.sol\":13964:16046  function _transfer(... */\n    tag_150:\n        /* \"erc721a/contracts/ERC721A.sol\":14074:14109  TokenOwnership memory prevOwnership */\n      0x00\n        /* \"erc721a/contracts/ERC721A.sol\":14112:14133  _ownershipOf(tokenId) */\n      tag_234\n        /* \"erc721a/contracts/ERC721A.sol\":14125:14132  tokenId */\n      dup3\n        /* \"erc721a/contracts/ERC721A.sol\":14112:14124  _ownershipOf */\n      tag_164\n        /* \"erc721a/contracts/ERC721A.sol\":14112:14133  _ownershipOf(tokenId) */\n      jump\t// in\n    tag_234:\n        /* \"erc721a/contracts/ERC721A.sol\":14074:14133  TokenOwnership memory prevOwnership = _ownershipOf(tokenId) */\n      swap1\n      pop\n        /* \"erc721a/contracts/ERC721A.sol\":14170:14174  from */\n      dup4\n      sub(shl(0xa0, 0x01), 0x01)\n        /* \"erc721a/contracts/ERC721A.sol\":14148:14174  prevOwnership.addr != from */\n      and\n        /* \"erc721a/contracts/ERC721A.sol\":14148:14161  prevOwnership */\n      dup2\n        /* \"erc721a/contracts/ERC721A.sol\":14148:14166  prevOwnership.addr */\n      0x00\n      add\n      mload\n      sub(shl(0xa0, 0x01), 0x01)\n        /* \"erc721a/contracts/ERC721A.sol\":14148:14174  prevOwnership.addr != from */\n      and\n      eq\n        /* \"erc721a/contracts/ERC721A.sol\":14144:14211  if (prevOwnership.addr != from) revert TransferFromIncorrectOwner() */\n      tag_235\n      jumpi\n        /* \"erc721a/contracts/ERC721A.sol\":14183:14211  TransferFromIncorrectOwner() */\n      mload(0x40)\n      shl(0xe8, 0xa11481)\n      dup2\n      mstore\n      0x04\n      add\n      mload(0x40)\n      dup1\n      swap2\n      sub\n      swap1\n      revert\n        /* \"erc721a/contracts/ERC721A.sol\":14144:14211  if (prevOwnership.addr != from) revert TransferFromIncorrectOwner() */\n    tag_235:\n        /* \"erc721a/contracts/ERC721A.sol\":14222:14244  bool isApprovedOrOwner */\n      0x00\n        /* \"@openzeppelin/contracts/utils/Context.sol\":719:729  msg.sender */\n      caller\n      sub(shl(0xa0, 0x01), 0x01)\n        /* \"erc721a/contracts/ERC721A.sol\":14248:14268  _msgSender() == from */\n      dup7\n      and\n      eq\n      dup1\n        /* \"erc721a/contracts/ERC721A.sol\":14248:14320  _msgSender() == from ||... */\n      tag_238\n      jumpi\n      pop\n        /* \"erc721a/contracts/ERC721A.sol\":14284:14320  isApprovedForAll(from, _msgSender()) */\n      tag_238\n        /* \"erc721a/contracts/ERC721A.sol\":14301:14305  from */\n      dup6\n        /* \"@openzeppelin/contracts/utils/Context.sol\":719:729  msg.sender */\n      caller\n        /* \"erc721a/contracts/ERC721A.sol\":9650:9812  function isApprovedForAll(address owner, address operator) public view virtual override returns (bool) {... */\n      tag_109\n      jump\t// in\n        /* \"erc721a/contracts/ERC721A.sol\":14284:14320  isApprovedForAll(from, _msgSender()) */\n    tag_238:\n        /* \"erc721a/contracts/ERC721A.sol\":14248:14372  _msgSender() == from ||... */\n      dup1\n      tag_240\n      jumpi\n      pop\n        /* \"@openzeppelin/contracts/utils/Context.sol\":719:729  msg.sender */\n      caller\n        /* \"erc721a/contracts/ERC721A.sol\":14336:14356  getApproved(tokenId) */\n      tag_242\n        /* \"erc721a/contracts/ERC721A.sol\":14348:14355  tokenId */\n      dup5\n        /* \"erc721a/contracts/ERC721A.sol\":14336:14347  getApproved */\n      tag_40\n        /* \"erc721a/contracts/ERC721A.sol\":14336:14356  getApproved(tokenId) */\n      jump\t// in\n    tag_242:\n      sub(shl(0xa0, 0x01), 0x01)\n        /* \"erc721a/contracts/ERC721A.sol\":14336:14372  getApproved(tokenId) == _msgSender() */\n      and\n      eq\n        /* \"erc721a/contracts/ERC721A.sol\":14248:14372  _msgSender() == from ||... */\n    tag_240:\n        /* \"erc721a/contracts/ERC721A.sol\":14222:14373  bool isApprovedOrOwner = (_msgSender() == from ||... */\n      swap1\n      pop\n        /* \"erc721a/contracts/ERC721A.sol\":14389:14406  isApprovedOrOwner */\n      dup1\n        /* \"erc721a/contracts/ERC721A.sol\":14384:14450  if (!isApprovedOrOwner) revert TransferCallerNotOwnerNorApproved() */\n      tag_243\n      jumpi\n        /* \"erc721a/contracts/ERC721A.sol\":14415:14450  TransferCallerNotOwnerNorApproved() */\n      mload(0x40)\n      shl(0xe1, 0x2ce44b5f)\n      dup2\n      mstore\n      0x04\n      add\n      mload(0x40)\n      dup1\n      swap2\n      sub\n      swap1\n      revert\n        /* \"erc721a/contracts/ERC721A.sol\":14384:14450  if (!isApprovedOrOwner) revert TransferCallerNotOwnerNorApproved() */\n    tag_243:\n      sub(shl(0xa0, 0x01), 0x01)\n        /* \"erc721a/contracts/ERC721A.sol\":14464:14480  to == address(0) */\n      dup5\n      and\n        /* \"erc721a/contracts/ERC721A.sol\":14460:14512  if (to == address(0)) revert TransferToZeroAddress() */\n      tag_244\n      jumpi\n        /* \"erc721a/contracts/ERC721A.sol\":14489:14512  TransferToZeroAddress() */\n      mload(0x40)\n      shl(0xe2, 0x3a954ecd)\n      dup2\n      mstore\n      0x04\n      add\n      mload(0x40)\n      dup1\n      swap2\n      sub\n      swap1\n      revert\n        /* \"erc721a/contracts/ERC721A.sol\":14460:14512  if (to == address(0)) revert TransferToZeroAddress() */\n    tag_244:\n        /* \"erc721a/contracts/ERC721A.sol\":14628:14663  _approve(address(0), tokenId, from) */\n      tag_247\n        /* \"erc721a/contracts/ERC721A.sol\":14645:14646  0 */\n      0x00\n        /* \"erc721a/contracts/ERC721A.sol\":14649:14656  tokenId */\n      dup5\n        /* \"erc721a/contracts/ERC721A.sol\":14658:14662  from */\n      dup8\n        /* \"erc721a/contracts/ERC721A.sol\":14628:14636  _approve */\n      tag_144\n        /* \"erc721a/contracts/ERC721A.sol\":14628:14663  _approve(address(0), tokenId, from) */\n      jump\t// in\n    tag_247:\n      sub(shl(0xa0, 0x01), 0x01)\n        /* \"erc721a/contracts/ERC721A.sol\":14953:14971  _addressData[from] */\n      dup6\n      dup2\n      and\n      0x00\n      swap1\n      dup2\n      mstore\n        /* \"erc721a/contracts/ERC721A.sol\":14953:14965  _addressData */\n      0x06\n        /* \"erc721a/contracts/ERC721A.sol\":14953:14971  _addressData[from] */\n      0x20\n      swap1\n      dup2\n      mstore\n      0x40\n      dup1\n      dup4\n      keccak256\n        /* \"erc721a/contracts/ERC721A.sol\":14953:14984  _addressData[from].balance -= 1 */\n      dup1\n      sload\n      not(0xffffffffffffffff)\n      dup1\n      dup3\n      and\n      0xffffffffffffffff\n      swap3\n      dup4\n      and\n      not(0x00)\n      add\n      dup4\n      and\n      or\n      swap1\n      swap3\n      sstore\n        /* \"erc721a/contracts/ERC721A.sol\":14998:15014  _addressData[to] */\n      dup10\n      dup7\n      and\n      dup1\n      dup7\n      mstore\n      dup4\n      dup7\n      keccak256\n        /* \"erc721a/contracts/ERC721A.sol\":14998:15027  _addressData[to].balance += 1 */\n      dup1\n      sload\n      swap4\n      dup5\n      and\n      swap4\n      dup4\n      and\n      0x01\n      swap1\n      dup2\n      add\n      dup5\n      and\n      swap5\n      swap1\n      swap5\n      or\n      swap1\n      sstore\n        /* \"erc721a/contracts/ERC721A.sol\":15076:15096  _ownerships[tokenId] */\n      dup10\n      dup7\n      mstore\n        /* \"erc721a/contracts/ERC721A.sol\":15076:15087  _ownerships */\n      0x05\n        /* \"erc721a/contracts/ERC721A.sol\":15076:15096  _ownerships[tokenId] */\n      swap1\n      swap5\n      mstore\n      dup3\n      dup6\n      keccak256\n        /* \"erc721a/contracts/ERC721A.sol\":15110:15128  currSlot.addr = to */\n      dup1\n      sload\n      not(sub(shl(0xe0, 0x01), 0x01))\n        /* \"erc721a/contracts/ERC721A.sol\":15142:15191  currSlot.startTimestamp = uint64(block.timestamp) */\n      and\n      swap1\n      swap5\n      or\n      shl(0xa0, 0x01)\n        /* \"erc721a/contracts/ERC721A.sol\":15175:15190  block.timestamp */\n      timestamp\n        /* \"erc721a/contracts/ERC721A.sol\":15142:15191  currSlot.startTimestamp = uint64(block.timestamp) */\n      swap1\n      swap3\n      and\n      swap2\n      swap1\n      swap2\n      mul\n      or\n      dup4\n      sstore\n        /* \"erc721a/contracts/ERC721A.sol\":15461:15472  tokenId + 1 */\n      dup8\n      add\n        /* \"erc721a/contracts/ERC721A.sol\":15520:15544  _ownerships[nextTokenId] */\n      dup1\n      dup5\n      mstore\n      swap3\n      keccak256\n        /* \"erc721a/contracts/ERC721A.sol\":15562:15575  nextSlot.addr */\n      dup1\n      sload\n        /* \"erc721a/contracts/ERC721A.sol\":15076:15096  _ownerships[tokenId] */\n      swap2\n      swap4\n        /* \"erc721a/contracts/ERC721A.sol\":15520:15544  _ownerships[nextTokenId] */\n      swap1\n      swap2\n        /* \"erc721a/contracts/ERC721A.sol\":15562:15575  nextSlot.addr */\n      and\n        /* \"erc721a/contracts/ERC721A.sol\":15558:15935  if (nextSlot.addr == address(0)) {... */\n      tag_249\n      jumpi\n        /* \"erc721a/contracts/ERC721A.sol\":15769:15782  _currentIndex */\n      sload(0x01)\n        /* \"erc721a/contracts/ERC721A.sol\":15754:15765  nextTokenId */\n      dup3\n        /* \"erc721a/contracts/ERC721A.sol\":15754:15782  nextTokenId != _currentIndex */\n      eq\n        /* \"erc721a/contracts/ERC721A.sol\":15750:15921  if (nextTokenId != _currentIndex) {... */\n      tag_249\n      jumpi\n        /* \"erc721a/contracts/ERC721A.sol\":15806:15826  nextSlot.addr = from */\n      dup1\n      sload\n        /* \"erc721a/contracts/ERC721A.sol\":15874:15902  prevOwnership.startTimestamp */\n      0x20\n      dup7\n      add\n      mload\n        /* \"erc721a/contracts/ERC721A.sol\":15848:15902  nextSlot.startTimestamp = prevOwnership.startTimestamp */\n      0xffffffffffffffff\n      and\n      shl(0xa0, 0x01)\n      mul\n      not(sub(shl(0xe0, 0x01), 0x01))\n      swap1\n      swap2\n      and\n      sub(shl(0xa0, 0x01), 0x01)\n        /* \"erc721a/contracts/ERC721A.sol\":15806:15826  nextSlot.addr = from */\n      dup11\n      and\n        /* \"erc721a/contracts/ERC721A.sol\":15848:15902  nextSlot.startTimestamp = prevOwnership.startTimestamp */\n      or\n      or\n      dup2\n      sstore\n        /* \"erc721a/contracts/ERC721A.sol\":15750:15921  if (nextTokenId != _currentIndex) {... */\n    tag_249:\n        /* \"erc721a/contracts/ERC721A.sol\":14929:15945  unchecked {... */\n      pop\n      pop\n      pop\n        /* \"erc721a/contracts/ERC721A.sol\":15979:15986  tokenId */\n      dup3\n        /* \"erc721a/contracts/ERC721A.sol\":15975:15977  to */\n      dup5\n      sub(shl(0xa0, 0x01), 0x01)\n        /* \"erc721a/contracts/ERC721A.sol\":15960:15987  Transfer(from, to, tokenId) */\n      and\n        /* \"erc721a/contracts/ERC721A.sol\":15969:15973  from */\n      dup7\n      sub(shl(0xa0, 0x01), 0x01)\n        /* \"erc721a/contracts/ERC721A.sol\":15960:15987  Transfer(from, to, tokenId) */\n      and\n      0xddf252ad1be2c89b69c2b068fc378daa952ba7f163c4a11628f55a4df523b3ef\n      mload(0x40)\n      mload(0x40)\n      dup1\n      swap2\n      sub\n      swap1\n      log4\n        /* \"erc721a/contracts/ERC721A.sol\":15997:16039  _afterTokenTransfers(from, to, tokenId, 1) */\n    tag_250:\n        /* \"erc721a/contracts/ERC721A.sol\":14064:16046  {... */\n      pop\n      pop\n        /* \"erc721a/contracts/ERC721A.sol\":13964:16046  function _transfer(... */\n      pop\n      pop\n      pop\n      jump\t// out\n        /* \"erc721a/contracts/ERC721A.sol\":6253:7337  function _ownershipOf(uint256 tokenId) internal view returns (TokenOwnership memory) {... */\n    tag_164:\n      0x40\n      dup1\n      mload\n      0x60\n      dup2\n      add\n      dup3\n      mstore\n      0x00\n      dup1\n      dup3\n      mstore\n      0x20\n      dup3\n      add\n      dup2\n      swap1\n      mstore\n      swap2\n      dup2\n      add\n      swap2\n      swap1\n      swap2\n      mstore\n        /* \"erc721a/contracts/ERC721A.sol\":6363:6370  tokenId */\n      dup2\n        /* \"erc721a/contracts/ERC721A.sol\":6443:6456  _currentIndex */\n      sload(0x01)\n        /* \"erc721a/contracts/ERC721A.sol\":6436:6440  curr */\n      dup2\n        /* \"erc721a/contracts/ERC721A.sol\":6436:6456  curr < _currentIndex */\n      lt\n        /* \"erc721a/contracts/ERC721A.sol\":6405:7273  if (_startTokenId() <= curr && curr < _currentIndex) {... */\n      iszero\n      tag_257\n      jumpi\n        /* \"erc721a/contracts/ERC721A.sol\":6476:6507  TokenOwnership memory ownership */\n      0x00\n        /* \"erc721a/contracts/ERC721A.sol\":6510:6527  _ownerships[curr] */\n      dup2\n      dup2\n      mstore\n        /* \"erc721a/contracts/ERC721A.sol\":6510:6521  _ownerships */\n      0x05\n        /* \"erc721a/contracts/ERC721A.sol\":6510:6527  _ownerships[curr] */\n      0x20\n      swap1\n      dup2\n      mstore\n      0x40\n      swap2\n      dup3\n      swap1\n      keccak256\n        /* \"erc721a/contracts/ERC721A.sol\":6476:6527  TokenOwnership memory ownership = _ownerships[curr] */\n      dup3\n      mload\n      0x60\n      dup2\n      add\n      dup5\n      mstore\n      swap1\n      sload\n      sub(shl(0xa0, 0x01), 0x01)\n      dup2\n      and\n      dup3\n      mstore\n      shl(0xa0, 0x01)\n      dup2\n      div\n      0xffffffffffffffff\n      and\n      swap3\n      dup3\n      add\n      swap3\n      swap1\n      swap3\n      mstore\n      shl(0xe0, 0x01)\n      swap1\n      swap2\n      div\n      0xff\n      and\n      iszero\n      iszero\n      swap2\n      dup2\n      add\n      dup3\n      swap1\n      mstore\n      swap1\n        /* \"erc721a/contracts/ERC721A.sol\":6545:7259  if (!ownership.burned) {... */\n      tag_261\n      jumpi\n        /* \"erc721a/contracts/ERC721A.sol\":6594:6608  ownership.addr */\n      dup1\n      mload\n      sub(shl(0xa0, 0x01), 0x01)\n        /* \"erc721a/contracts/ERC721A.sol\":6594:6622  ownership.addr != address(0) */\n      and\n      iszero\n        /* \"erc721a/contracts/ERC721A.sol\":6590:6689  if (ownership.addr != address(0)) {... */\n      tag_259\n      jumpi\n        /* \"erc721a/contracts/ERC721A.sol\":6657:6666  ownership */\n      swap4\n        /* \"erc721a/contracts/ERC721A.sol\":6253:7337  function _ownershipOf(uint256 tokenId) internal view returns (TokenOwnership memory) {... */\n      swap3\n      pop\n      pop\n      pop\n      jump\t// out\n        /* \"erc721a/contracts/ERC721A.sol\":6590:6689  if (ownership.addr != address(0)) {... */\n    tag_259:\n      pop\n      not(0x00)\n        /* \"erc721a/contracts/ERC721A.sol\":7025:7031  curr-- */\n      add\n        /* \"erc721a/contracts/ERC721A.sol\":7069:7086  _ownerships[curr] */\n      0x00\n      dup2\n      dup2\n      mstore\n        /* \"erc721a/contracts/ERC721A.sol\":7069:7080  _ownerships */\n      0x05\n        /* \"erc721a/contracts/ERC721A.sol\":7069:7086  _ownerships[curr] */\n      0x20\n      swap1\n      dup2\n      mstore\n      0x40\n      swap2\n      dup3\n      swap1\n      keccak256\n        /* \"erc721a/contracts/ERC721A.sol\":7057:7086  ownership = _ownerships[curr] */\n      dup3\n      mload\n      0x60\n      dup2\n      add\n      dup5\n      mstore\n      swap1\n      sload\n      sub(shl(0xa0, 0x01), 0x01)\n      dup2\n      and\n      dup1\n      dup4\n      mstore\n      shl(0xa0, 0x01)\n      dup3\n      div\n      0xffffffffffffffff\n      and\n      swap4\n      dup4\n      add\n      swap4\n      swap1\n      swap4\n      mstore\n      shl(0xe0, 0x01)\n      swap1\n      div\n      0xff\n      and\n      iszero\n      iszero\n      swap3\n      dup2\n      add\n      swap3\n      swap1\n      swap3\n      mstore\n        /* \"erc721a/contracts/ERC721A.sol\":7116:7144  ownership.addr != address(0) */\n      iszero\n        /* \"erc721a/contracts/ERC721A.sol\":7112:7219  if (ownership.addr != address(0)) {... */\n      tag_262\n      jumpi\n        /* \"erc721a/contracts/ERC721A.sol\":7183:7192  ownership */\n      swap4\n        /* \"erc721a/contracts/ERC721A.sol\":6253:7337  function _ownershipOf(uint256 tokenId) internal view returns (TokenOwnership memory) {... */\n      swap3\n      pop\n      pop\n      pop\n      jump\t// out\n        /* \"erc721a/contracts/ERC721A.sol\":7112:7219  if (ownership.addr != address(0)) {... */\n    tag_262:\n        /* \"erc721a/contracts/ERC721A.sol\":6986:7241  while (true) {... */\n      jump(tag_259)\n    tag_261:\n        /* \"erc721a/contracts/ERC721A.sol\":6458:7273  {... */\n      pop\n        /* \"erc721a/contracts/ERC721A.sol\":6405:7273  if (_startTokenId() <= curr && curr < _currentIndex) {... */\n    tag_257:\n        /* \"erc721a/contracts/ERC721A.sol\":7299:7330  OwnerQueryForNonexistentToken() */\n      mload(0x40)\n      shl(0xe1, 0x6f96cda1)\n      dup2\n      mstore\n      0x04\n      add\n      mload(0x40)\n      dup1\n      swap2\n      sub\n      swap1\n      revert\n        /* \"@openzeppelin/contracts/access/Ownable.sol\":2270:2457  function _transferOwnership(address newOwner) internal virtual {... */\n    tag_174:\n        /* \"@openzeppelin/contracts/access/Ownable.sol\":2343:2359  address oldOwner */\n      0x00\n        /* \"@openzeppelin/contracts/access/Ownable.sol\":2362:2368  _owner */\n      dup1\n      sload\n      sub(shl(0xa0, 0x01), 0x01)\n        /* \"@openzeppelin/contracts/access/Ownable.sol\":2378:2395  _owner = newOwner */\n      dup4\n      dup2\n      and\n      not(sub(shl(0xa0, 0x01), 0x01))\n      dup4\n      and\n      dup2\n      or\n      dup5\n      sstore\n        /* \"@openzeppelin/contracts/access/Ownable.sol\":2410:2450  OwnershipTransferred(oldOwner, newOwner) */\n      mload(0x40)\n        /* \"@openzeppelin/contracts/access/Ownable.sol\":2362:2368  _owner */\n      swap2\n      swap1\n      swap3\n      and\n      swap3\n      dup4\n      swap2\n        /* \"@openzeppelin/contracts/access/Ownable.sol\":2410:2450  OwnershipTransferred(oldOwner, newOwner) */\n      0x8be0079c531659141344cd1fd0a4f28419497f9722a3daafe3b4186f6b6457e0\n      swap2\n        /* \"@openzeppelin/contracts/access/Ownable.sol\":2343:2359  address oldOwner */\n      swap1\n        /* \"@openzeppelin/contracts/access/Ownable.sol\":2410:2450  OwnershipTransferred(oldOwner, newOwner) */\n      log3\n        /* \"@openzeppelin/contracts/access/Ownable.sol\":2333:2457  {... */\n      pop\n        /* \"@openzeppelin/contracts/access/Ownable.sol\":2270:2457  function _transferOwnership(address newOwner) internal virtual {... */\n      pop\n      jump\t// out\n        /* \"erc721a/contracts/ERC721A.sol\":11132:11234  function _safeMint(address to, uint256 quantity) internal {... */\n    tag_184:\n        /* \"erc721a/contracts/ERC721A.sol\":11200:11227  _safeMint(to, quantity, '') */\n      tag_265\n        /* \"erc721a/contracts/ERC721A.sol\":11210:11212  to */\n      dup3\n        /* \"erc721a/contracts/ERC721A.sol\":11214:11222  quantity */\n      dup3\n        /* \"erc721a/contracts/ERC721A.sol\":11200:11227  _safeMint(to, quantity, '') */\n      mload(0x40)\n      dup1\n      0x20\n      add\n      0x40\n      mstore\n      dup1\n      0x00\n      dup2\n      mstore\n      pop\n        /* \"erc721a/contracts/ERC721A.sol\":11200:11209  _safeMint */\n      tag_266\n        /* \"erc721a/contracts/ERC721A.sol\":11200:11227  _safeMint(to, quantity, '') */\n      jump\t// in\n    tag_265:\n        /* \"erc721a/contracts/ERC721A.sol\":11132:11234  function _safeMint(address to, uint256 quantity) internal {... */\n      pop\n      pop\n      jump\t// out\n        /* \"erc721a/contracts/ERC721A.sol\":19564:20214  function _checkContractOnERC721Received(... */\n    tag_197:\n        /* \"erc721a/contracts/ERC721A.sol\":19742:19814  IERC721Receiver(to).onERC721Received(_msgSender(), from, tokenId, _data) */\n      mload(0x40)\n      shl(0xe1, 0x0a85bd01)\n      dup2\n      mstore\n        /* \"erc721a/contracts/ERC721A.sol\":19722:19726  bool */\n      0x00\n      swap1\n      sub(shl(0xa0, 0x01), 0x01)\n        /* \"erc721a/contracts/ERC721A.sol\":19742:19778  IERC721Receiver(to).onERC721Received */\n      dup6\n      and\n      swap1\n      0x150b7a02\n      swap1\n        /* \"erc721a/contracts/ERC721A.sol\":19742:19814  IERC721Receiver(to).onERC721Received(_msgSender(), from, tokenId, _data) */\n      tag_270\n      swap1\n        /* \"@openzeppelin/contracts/utils/Context.sol\":719:729  msg.sender */\n      caller\n      swap1\n        /* \"erc721a/contracts/ERC721A.sol\":19793:19797  from */\n      dup10\n      swap1\n        /* \"erc721a/contracts/ERC721A.sol\":19799:19806  tokenId */\n      dup9\n      swap1\n        /* \"erc721a/contracts/ERC721A.sol\":19808:19813  _data */\n      dup9\n      swap1\n        /* \"erc721a/contracts/ERC721A.sol\":19742:19814  IERC721Receiver(to).onERC721Received(_msgSender(), from, tokenId, _data) */\n      0x04\n      add\n      tag_271\n      jump\t// in\n    tag_270:\n      0x20\n      mload(0x40)\n      dup1\n      dup4\n      sub\n      dup2\n      0x00\n      dup8\n      dup1\n      extcodesize\n      iszero\n      dup1\n      iszero\n      tag_272\n      jumpi\n      0x00\n      dup1\n      revert\n    tag_272:\n      pop\n      gas\n      call\n      swap3\n      pop\n      pop\n      pop\n      dup1\n      iszero\n      tag_273\n      jumpi\n      pop\n      0x40\n      dup1\n      mload\n      0x1f\n      returndatasize\n      swap1\n      dup2\n      add\n      not(0x1f)\n      and\n      dup3\n      add\n      swap1\n      swap3\n      mstore\n      tag_274\n      swap2\n      dup2\n      add\n      swap1\n      tag_275\n      jump\t// in\n    tag_274:\n      0x01\n    tag_273:\n        /* \"erc721a/contracts/ERC721A.sol\":19738:20208  try IERC721Receiver(to).onERC721Received(_msgSender(), from, tokenId, _data) returns (bytes4 retval) {... */\n      tag_276\n      jumpi\n      returndatasize\n      dup1\n      dup1\n      iszero\n      tag_281\n      jumpi\n      mload(0x40)\n      swap2\n      pop\n      and(add(returndatasize, 0x3f), not(0x1f))\n      dup3\n      add\n      0x40\n      mstore\n      returndatasize\n      dup3\n      mstore\n      returndatasize\n      0x00\n      0x20\n      dup5\n      add\n      returndatacopy\n      jump(tag_280)\n    tag_281:\n      0x60\n      swap2\n      pop\n    tag_280:\n      pop\n        /* \"erc721a/contracts/ERC721A.sol\":19973:19986  reason.length */\n      dup1\n      mload\n        /* \"erc721a/contracts/ERC721A.sol\":19969:20198  if (reason.length == 0) {... */\n      tag_282\n      jumpi\n        /* \"erc721a/contracts/ERC721A.sol\":20018:20058  TransferToNonERC721ReceiverImplementer() */\n      mload(0x40)\n      shl(0xe1, 0x68d2bf6b)\n      dup2\n      mstore\n      0x04\n      add\n      mload(0x40)\n      dup1\n      swap2\n      sub\n      swap1\n      revert\n        /* \"erc721a/contracts/ERC721A.sol\":19969:20198  if (reason.length == 0) {... */\n    tag_282:\n        /* \"erc721a/contracts/ERC721A.sol\":20158:20164  reason */\n      dup1\n        /* \"erc721a/contracts/ERC721A.sol\":20152:20165  mload(reason) */\n      mload\n        /* \"erc721a/contracts/ERC721A.sol\":20143:20149  reason */\n      dup2\n        /* \"erc721a/contracts/ERC721A.sol\":20139:20141  32 */\n      0x20\n        /* \"erc721a/contracts/ERC721A.sol\":20135:20150  add(32, reason) */\n      add\n        /* \"erc721a/contracts/ERC721A.sol\":20128:20166  revert(add(32, reason), mload(reason)) */\n      revert\n        /* \"erc721a/contracts/ERC721A.sol\":19738:20208  try IERC721Receiver(to).onERC721Received(_msgSender(), from, tokenId, _data) returns (bytes4 retval) {... */\n    tag_276:\n      not(sub(shl(0xe0, 0x01), 0x01))\n        /* \"erc721a/contracts/ERC721A.sol\":19860:19915  retval == IERC721Receiver(to).onERC721Received.selector */\n      and\n      shl(0xe1, 0x0a85bd01)\n      eq\n      swap1\n      pop\n        /* \"erc721a/contracts/ERC721A.sol\":19738:20208  try IERC721Receiver(to).onERC721Received(_msgSender(), from, tokenId, _data) returns (bytes4 retval) {... */\n    tag_284:\n        /* \"erc721a/contracts/ERC721A.sol\":19564:20214  function _checkContractOnERC721Received(... */\n      swap5\n      swap4\n      pop\n      pop\n      pop\n      pop\n      jump\t// out\n        /* \"rotatingcube.sol\":594:700  function _baseURI() internal view virtual override returns (string memory) {... */\n    tag_203:\n        /* \"rotatingcube.sol\":654:667  string memory */\n      0x60\n        /* \"rotatingcube.sol\":682:695  _baseTokenURI */\n      0x09\n        /* \"rotatingcube.sol\":675:695  return _baseTokenURI */\n      dup1\n      sload\n      tag_124\n      swap1\n      tag_125\n      jump\t// in\n        /* \"@openzeppelin/contracts/utils/Strings.sol\":328:1031  function toString(uint256 value) internal pure returns (string memory) {... */\n    tag_207:\n        /* \"@openzeppelin/contracts/utils/Strings.sol\":384:397  string memory */\n      0x60\n        /* \"@openzeppelin/contracts/utils/Strings.sol\":601:611  value == 0 */\n      dup2\n        /* \"@openzeppelin/contracts/utils/Strings.sol\":597:648  if (value == 0) {... */\n      tag_292\n      jumpi\n      pop\n      pop\n        /* \"@openzeppelin/contracts/utils/Strings.sol\":627:637  return \"0\" */\n      0x40\n      dup1\n      mload\n      dup1\n      dup3\n      add\n      swap1\n      swap2\n      mstore\n      0x01\n      dup2\n      mstore\n      shl(0xfc, 0x03)\n      0x20\n      dup3\n      add\n      mstore\n      swap1\n        /* \"@openzeppelin/contracts/utils/Strings.sol\":328:1031  function toString(uint256 value) internal pure returns (string memory) {... */\n      jump\t// out\n        /* \"@openzeppelin/contracts/utils/Strings.sol\":597:648  if (value == 0) {... */\n    tag_292:\n        /* \"@openzeppelin/contracts/utils/Strings.sol\":672:677  value */\n      dup2\n        /* \"@openzeppelin/contracts/utils/Strings.sol\":657:669  uint256 temp */\n      0x00\n        /* \"@openzeppelin/contracts/utils/Strings.sol\":711:786  while (temp != 0) {... */\n    tag_293:\n        /* \"@openzeppelin/contracts/utils/Strings.sol\":718:727  temp != 0 */\n      dup2\n      iszero\n        /* \"@openzeppelin/contracts/utils/Strings.sol\":711:786  while (temp != 0) {... */\n      tag_294\n      jumpi\n        /* \"@openzeppelin/contracts/utils/Strings.sol\":743:751  digits++ */\n      dup1\n      tag_295\n      dup2\n      tag_296\n      jump\t// in\n    tag_295:\n      swap2\n      pop\n        /* \"@openzeppelin/contracts/utils/Strings.sol\":765:775  temp /= 10 */\n      tag_297\n      swap1\n      pop\n        /* \"@openzeppelin/contracts/utils/Strings.sol\":773:775  10 */\n      0x0a\n        /* \"@openzeppelin/contracts/utils/Strings.sol\":765:775  temp /= 10 */\n      dup4\n      tag_298\n      jump\t// in\n    tag_297:\n      swap2\n      pop\n        /* \"@openzeppelin/contracts/utils/Strings.sol\":711:786  while (temp != 0) {... */\n      jump(tag_293)\n    tag_294:\n        /* \"@openzeppelin/contracts/utils/Strings.sol\":795:814  bytes memory buffer */\n      0x00\n        /* \"@openzeppelin/contracts/utils/Strings.sol\":827:833  digits */\n      dup2\n        /* \"@openzeppelin/contracts/utils/Strings.sol\":817:834  new bytes(digits) */\n      0xffffffffffffffff\n      dup2\n      gt\n      iszero\n      tag_300\n      jumpi\n      tag_300\n      tag_301\n      jump\t// in\n    tag_300:\n      mload(0x40)\n      swap1\n      dup1\n      dup3\n      mstore\n      dup1\n      0x1f\n      add\n      not(0x1f)\n      and\n      0x20\n      add\n      dup3\n      add\n      0x40\n      mstore\n      dup1\n      iszero\n      tag_302\n      jumpi\n      0x20\n      dup3\n      add\n      dup2\n      dup1\n      calldatasize\n      dup4\n      calldatacopy\n      add\n      swap1\n      pop\n    tag_302:\n      pop\n        /* \"@openzeppelin/contracts/utils/Strings.sol\":795:834  bytes memory buffer = new bytes(digits) */\n      swap1\n      pop\n        /* \"@openzeppelin/contracts/utils/Strings.sol\":844:994  while (value != 0) {... */\n    tag_303:\n        /* \"@openzeppelin/contracts/utils/Strings.sol\":851:861  value != 0 */\n      dup5\n      iszero\n        /* \"@openzeppelin/contracts/utils/Strings.sol\":844:994  while (value != 0) {... */\n      tag_284\n      jumpi\n        /* \"@openzeppelin/contracts/utils/Strings.sol\":877:888  digits -= 1 */\n      tag_305\n        /* \"@openzeppelin/contracts/utils/Strings.sol\":887:888  1 */\n      0x01\n        /* \"@openzeppelin/contracts/utils/Strings.sol\":877:888  digits -= 1 */\n      dup4\n      tag_306\n      jump\t// in\n    tag_305:\n      swap2\n      pop\n        /* \"@openzeppelin/contracts/utils/Strings.sol\":945:955  value % 10 */\n      tag_307\n        /* \"@openzeppelin/contracts/utils/Strings.sol\":953:955  10 */\n      0x0a\n        /* \"@openzeppelin/contracts/utils/Strings.sol\":945:950  value */\n      dup7\n        /* \"@openzeppelin/contracts/utils/Strings.sol\":945:955  value % 10 */\n      tag_308\n      jump\t// in\n    tag_307:\n        /* \"@openzeppelin/contracts/utils/Strings.sol\":932:956  48 + uint256(value % 10) */\n      tag_309\n      swap1\n        /* \"@openzeppelin/contracts/utils/Strings.sol\":932:934  48 */\n      0x30\n        /* \"@openzeppelin/contracts/utils/Strings.sol\":932:956  48 + uint256(value % 10) */\n      tag_310\n      jump\t// in\n    tag_309:\n        /* \"@openzeppelin/contracts/utils/Strings.sol\":919:958  bytes1(uint8(48 + uint256(value % 10))) */\n      0xf8\n      shl\n        /* \"@openzeppelin/contracts/utils/Strings.sol\":902:908  buffer */\n      dup2\n        /* \"@openzeppelin/contracts/utils/Strings.sol\":909:915  digits */\n      dup4\n        /* \"@openzeppelin/contracts/utils/Strings.sol\":902:916  buffer[digits] */\n      dup2\n      mload\n      dup2\n      lt\n      tag_312\n      jumpi\n      tag_312\n      tag_313\n      jump\t// in\n    tag_312:\n      0x20\n      add\n      add\n        /* \"@openzeppelin/contracts/utils/Strings.sol\":902:958  buffer[digits] = bytes1(uint8(48 + uint256(value % 10))) */\n      swap1\n      not(sub(shl(0xf8, 0x01), 0x01))\n      and\n      swap1\n      dup2\n      0x00\n      byte\n      swap1\n      mstore8\n      pop\n        /* \"@openzeppelin/contracts/utils/Strings.sol\":972:983  value /= 10 */\n      tag_314\n        /* \"@openzeppelin/contracts/utils/Strings.sol\":981:983  10 */\n      0x0a\n        /* \"@openzeppelin/contracts/utils/Strings.sol\":972:983  value /= 10 */\n      dup7\n      tag_298\n      jump\t// in\n    tag_314:\n      swap5\n      pop\n        /* \"@openzeppelin/contracts/utils/Strings.sol\":844:994  while (value != 0) {... */\n      jump(tag_303)\n        /* \"erc721a/contracts/ERC721A.sol\":11585:11742  function _safeMint(... */\n    tag_266:\n        /* \"erc721a/contracts/ERC721A.sol\":11703:11735  _mint(to, quantity, _data, true) */\n      tag_143\n        /* \"erc721a/contracts/ERC721A.sol\":11709:11711  to */\n      dup4\n        /* \"erc721a/contracts/ERC721A.sol\":11713:11721  quantity */\n      dup4\n        /* \"erc721a/contracts/ERC721A.sol\":11723:11728  _data */\n      dup4\n        /* \"erc721a/contracts/ERC721A.sol\":11730:11734  true */\n      0x01\n        /* \"erc721a/contracts/ERC721A.sol\":12145:12158  _currentIndex */\n      dup1\n      sload\n      sub(shl(0xa0, 0x01), 0x01)\n        /* \"erc721a/contracts/ERC721A.sol\":12172:12188  to == address(0) */\n      dup6\n      and\n        /* \"erc721a/contracts/ERC721A.sol\":12168:12216  if (to == address(0)) revert MintToZeroAddress() */\n      tag_322\n      jumpi\n        /* \"erc721a/contracts/ERC721A.sol\":12197:12216  MintToZeroAddress() */\n      mload(0x40)\n      shl(0xe8, 0x2e0763)\n      dup2\n      mstore\n      0x04\n      add\n      mload(0x40)\n      dup1\n      swap2\n      sub\n      swap1\n      revert\n        /* \"erc721a/contracts/ERC721A.sol\":12168:12216  if (to == address(0)) revert MintToZeroAddress() */\n    tag_322:\n        /* \"erc721a/contracts/ERC721A.sol\":12230:12243  quantity == 0 */\n      dup4\n        /* \"erc721a/contracts/ERC721A.sol\":12226:12270  if (quantity == 0) revert MintZeroQuantity() */\n      tag_323\n      jumpi\n        /* \"erc721a/contracts/ERC721A.sol\":12252:12270  MintZeroQuantity() */\n      mload(0x40)\n      shl(0xe0, 0xb562e8dd)\n      dup2\n      mstore\n      0x04\n      add\n      mload(0x40)\n      dup1\n      swap2\n      sub\n      swap1\n      revert\n        /* \"erc721a/contracts/ERC721A.sol\":12226:12270  if (quantity == 0) revert MintZeroQuantity() */\n    tag_323:\n      sub(shl(0xa0, 0x01), 0x01)\n        /* \"erc721a/contracts/ERC721A.sol\":12613:12629  _addressData[to] */\n      dup6\n      and\n      0x00\n      dup2\n      dup2\n      mstore\n        /* \"erc721a/contracts/ERC721A.sol\":12613:12625  _addressData */\n      0x06\n        /* \"erc721a/contracts/ERC721A.sol\":12613:12629  _addressData[to] */\n      0x20\n      swap1\n      dup2\n      mstore\n      0x40\n      dup1\n      dup4\n      keccak256\n        /* \"erc721a/contracts/ERC721A.sol\":12613:12657  _addressData[to].balance += uint64(quantity) */\n      dup1\n      sload\n      not(0xffffffffffffffffffffffffffffffff)\n        /* \"erc721a/contracts/ERC721A.sol\":12671:12720  _addressData[to].numberMinted += uint64(quantity) */\n      dup2\n      and\n        /* \"erc721a/contracts/ERC721A.sol\":12613:12657  _addressData[to].balance += uint64(quantity) */\n      0xffffffffffffffff\n      dup1\n      dup4\n      and\n      dup13\n      add\n      dup2\n      and\n        /* \"erc721a/contracts/ERC721A.sol\":12671:12720  _addressData[to].numberMinted += uint64(quantity) */\n      swap2\n      dup3\n      or\n      0x010000000000000000\n      not(0xffffffffffffffff)\n        /* \"erc721a/contracts/ERC721A.sol\":12613:12657  _addressData[to].balance += uint64(quantity) */\n      swap1\n      swap5\n      and\n      swap1\n      swap3\n      or\n        /* \"erc721a/contracts/ERC721A.sol\":12671:12720  _addressData[to].numberMinted += uint64(quantity) */\n      dup4\n      swap1\n      div\n      dup2\n      and\n      dup13\n      add\n      dup2\n      and\n      swap1\n      swap3\n      mul\n      or\n      swap1\n      swap2\n      sstore\n        /* \"erc721a/contracts/ERC721A.sol\":12735:12760  _ownerships[startTokenId] */\n      dup6\n      dup5\n      mstore\n        /* \"erc721a/contracts/ERC721A.sol\":12735:12746  _ownerships */\n      0x05\n        /* \"erc721a/contracts/ERC721A.sol\":12735:12760  _ownerships[startTokenId] */\n      swap1\n      swap3\n      mstore\n      swap1\n      swap2\n      keccak256\n        /* \"erc721a/contracts/ERC721A.sol\":12735:12770  _ownerships[startTokenId].addr = to */\n      dup1\n      sload\n      not(sub(shl(0xe0, 0x01), 0x01))\n        /* \"erc721a/contracts/ERC721A.sol\":12784:12850  _ownerships[startTokenId].startTimestamp = uint64(block.timestamp) */\n      and\n      swap1\n      swap3\n      or\n      shl(0xa0, 0x01)\n        /* \"erc721a/contracts/ERC721A.sol\":12834:12849  block.timestamp */\n      timestamp\n        /* \"erc721a/contracts/ERC721A.sol\":12784:12850  _ownerships[startTokenId].startTimestamp = uint64(block.timestamp) */\n      swap1\n      swap3\n      and\n      swap2\n      swap1\n      swap2\n      mul\n      or\n      swap1\n      sstore\n        /* \"erc721a/contracts/ERC721A.sol\":12735:12760  _ownerships[startTokenId] */\n      dup1\n        /* \"erc721a/contracts/ERC721A.sol\":12928:12951  updatedIndex + quantity */\n      dup1\n      dup6\n      add\n        /* \"erc721a/contracts/ERC721A.sol\":12970:12974  safe */\n      dup4\n        /* \"erc721a/contracts/ERC721A.sol\":12970:12993  safe && to.isContract() */\n      dup1\n      iszero\n      tag_326\n      jumpi\n      pop\n      sub(shl(0xa0, 0x01), 0x01)\n        /* \"erc721a/contracts/ERC721A.sol\":12978:12991  to.isContract */\n      dup8\n      and\n        /* \"@openzeppelin/contracts/utils/Address.sol\":1465:1484  account.code.length */\n      extcodesize\n        /* \"@openzeppelin/contracts/utils/Address.sol\":1465:1488  account.code.length > 0 */\n      iszero\n      iszero\n        /* \"erc721a/contracts/ERC721A.sol\":12978:12993  to.isContract() */\n    tag_326:\n        /* \"erc721a/contracts/ERC721A.sol\":12966:13594  if (safe && to.isContract()) {... */\n      iszero\n      tag_327\n      jumpi\n        /* \"erc721a/contracts/ERC721A.sol\":13013:13322  do {... */\n    tag_328:\n        /* \"erc721a/contracts/ERC721A.sol\":13043:13081  Transfer(address(0), to, updatedIndex) */\n      mload(0x40)\n        /* \"erc721a/contracts/ERC721A.sol\":13068:13080  updatedIndex */\n      dup3\n      swap1\n      sub(shl(0xa0, 0x01), 0x01)\n        /* \"erc721a/contracts/ERC721A.sol\":13043:13081  Transfer(address(0), to, updatedIndex) */\n      dup10\n      and\n      swap1\n        /* \"erc721a/contracts/ERC721A.sol\":13060:13061  0 */\n      0x00\n      swap1\n        /* \"erc721a/contracts/ERC721A.sol\":13043:13081  Transfer(address(0), to, updatedIndex) */\n      0xddf252ad1be2c89b69c2b068fc378daa952ba7f163c4a11628f55a4df523b3ef\n      swap1\n        /* \"erc721a/contracts/ERC721A.sol\":13060:13061  0 */\n      dup3\n      swap1\n        /* \"erc721a/contracts/ERC721A.sol\":13043:13081  Transfer(address(0), to, updatedIndex) */\n      log4\n        /* \"erc721a/contracts/ERC721A.sol\":13108:13177  _checkContractOnERC721Received(address(0), to, updatedIndex++, _data) */\n      tag_331\n        /* \"erc721a/contracts/ERC721A.sol\":13147:13148  0 */\n      0x00\n        /* \"erc721a/contracts/ERC721A.sol\":13151:13153  to */\n      dup9\n        /* \"erc721a/contracts/ERC721A.sol\":13155:13169  updatedIndex++ */\n      dup5\n      dup1\n      0x01\n      add\n      swap6\n      pop\n        /* \"erc721a/contracts/ERC721A.sol\":13171:13176  _data */\n      dup9\n        /* \"erc721a/contracts/ERC721A.sol\":13108:13138  _checkContractOnERC721Received */\n      tag_197\n        /* \"erc721a/contracts/ERC721A.sol\":13108:13177  _checkContractOnERC721Received(address(0), to, updatedIndex++, _data) */\n      jump\t// in\n    tag_331:\n        /* \"erc721a/contracts/ERC721A.sol\":13103:13275  if (!_checkContractOnERC721Received(address(0), to, updatedIndex++, _data)) {... */\n      tag_332\n      jumpi\n        /* \"erc721a/contracts/ERC721A.sol\":13212:13252  TransferToNonERC721ReceiverImplementer() */\n      mload(0x40)\n      shl(0xe1, 0x68d2bf6b)\n      dup2\n      mstore\n      0x04\n      add\n      mload(0x40)\n      dup1\n      swap2\n      sub\n      swap1\n      revert\n        /* \"erc721a/contracts/ERC721A.sol\":13103:13275  if (!_checkContractOnERC721Received(address(0), to, updatedIndex++, _data)) {... */\n    tag_332:\n        /* \"erc721a/contracts/ERC721A.sol\":13317:13320  end */\n      dup1\n        /* \"erc721a/contracts/ERC721A.sol\":13301:13313  updatedIndex */\n      dup3\n        /* \"erc721a/contracts/ERC721A.sol\":13301:13320  updatedIndex != end */\n      eq\n      iszero\n        /* \"erc721a/contracts/ERC721A.sol\":13013:13322  do {... */\n      tag_328\n      jumpi\n        /* \"erc721a/contracts/ERC721A.sol\":13401:13413  startTokenId */\n      dup3\n        /* \"erc721a/contracts/ERC721A.sol\":13384:13397  _currentIndex */\n      sload(0x01)\n        /* \"erc721a/contracts/ERC721A.sol\":13384:13413  _currentIndex != startTokenId */\n      eq\n        /* \"erc721a/contracts/ERC721A.sol\":13380:13423  if (_currentIndex != startTokenId) revert() */\n      tag_333\n      jumpi\n        /* \"erc721a/contracts/ERC721A.sol\":13415:13423  revert() */\n      0x00\n      dup1\n      revert\n        /* \"erc721a/contracts/ERC721A.sol\":13380:13423  if (_currentIndex != startTokenId) revert() */\n    tag_333:\n        /* \"erc721a/contracts/ERC721A.sol\":12966:13594  if (safe && to.isContract()) {... */\n      jump(tag_334)\n    tag_327:\n        /* \"erc721a/contracts/ERC721A.sol\":13462:13580  do {... */\n    tag_335:\n        /* \"erc721a/contracts/ERC721A.sol\":13492:13532  Transfer(address(0), to, updatedIndex++) */\n      mload(0x40)\n        /* \"erc721a/contracts/ERC721A.sol\":13517:13531  updatedIndex++ */\n      0x01\n      dup4\n      add\n      swap3\n      swap1\n      sub(shl(0xa0, 0x01), 0x01)\n        /* \"erc721a/contracts/ERC721A.sol\":13492:13532  Transfer(address(0), to, updatedIndex++) */\n      dup10\n      and\n      swap1\n        /* \"erc721a/contracts/ERC721A.sol\":13509:13510  0 */\n      0x00\n      swap1\n        /* \"erc721a/contracts/ERC721A.sol\":13492:13532  Transfer(address(0), to, updatedIndex++) */\n      0xddf252ad1be2c89b69c2b068fc378daa952ba7f163c4a11628f55a4df523b3ef\n      swap1\n        /* \"erc721a/contracts/ERC721A.sol\":13509:13510  0 */\n      dup3\n      swap1\n        /* \"erc721a/contracts/ERC721A.sol\":13492:13532  Transfer(address(0), to, updatedIndex++) */\n      log4\n        /* \"erc721a/contracts/ERC721A.sol\":13575:13578  end */\n      dup1\n        /* \"erc721a/contracts/ERC721A.sol\":13559:13571  updatedIndex */\n      dup3\n        /* \"erc721a/contracts/ERC721A.sol\":13559:13578  updatedIndex != end */\n      eq\n      iszero\n        /* \"erc721a/contracts/ERC721A.sol\":13462:13580  do {... */\n      tag_335\n      jumpi\n        /* \"erc721a/contracts/ERC721A.sol\":12966:13594  if (safe && to.isContract()) {... */\n    tag_334:\n      pop\n        /* \"erc721a/contracts/ERC721A.sol\":13607:13620  _currentIndex */\n      0x01\n        /* \"erc721a/contracts/ERC721A.sol\":13607:13635  _currentIndex = updatedIndex */\n      sstore\n        /* \"erc721a/contracts/ERC721A.sol\":13655:13715  _afterTokenTransfers(address(0), to, startTokenId, quantity) */\n      tag_250\n        /* \"erc721a/contracts/ERC721A.sol\":10349:10708  function safeTransferFrom(... */\n      jump\n    tag_161:\n      dup3\n      dup1\n      sload\n      tag_339\n      swap1\n      tag_125\n      jump\t// in\n    tag_339:\n      swap1\n      0x00\n      mstore\n      keccak256(0x00, 0x20)\n      swap1\n      0x1f\n      add\n      0x20\n      swap1\n      div\n      dup2\n      add\n      swap3\n      dup3\n      tag_341\n      jumpi\n      0x00\n      dup6\n      sstore\n      jump(tag_344)\n    tag_341:\n      dup3\n      0x1f\n      lt\n      tag_342\n      jumpi\n      dup3\n      dup1\n      add\n      not(0xff)\n      dup3\n      calldataload\n      and\n      or\n      dup6\n      sstore\n      jump(tag_344)\n    tag_342:\n      dup3\n      dup1\n      add\n      0x01\n      add\n      dup6\n      sstore\n      dup3\n      iszero\n      tag_344\n      jumpi\n      swap2\n      dup3\n      add\n    tag_343:\n      dup3\n      dup2\n      gt\n      iszero\n      tag_344\n      jumpi\n      dup3\n      calldataload\n      dup3\n      sstore\n      swap2\n      0x20\n      add\n      swap2\n      swap1\n      0x01\n      add\n      swap1\n      jump(tag_343)\n    tag_344:\n      pop\n      tag_345\n      swap3\n      swap2\n      pop\n      tag_346\n      jump\t// in\n    tag_345:\n      pop\n      swap1\n      jump\t// out\n    tag_346:\n    tag_347:\n      dup1\n      dup3\n      gt\n      iszero\n      tag_345\n      jumpi\n      0x00\n      dup2\n      sstore\n      0x01\n      add\n      jump(tag_347)\n        /* \"#utility.yul\":14:187   */\n    tag_350:\n        /* \"#utility.yul\":82:102   */\n      dup1\n      calldataload\n      sub(shl(0xa0, 0x01), 0x01)\n        /* \"#utility.yul\":131:162   */\n      dup2\n      and\n        /* \"#utility.yul\":121:163   */\n      dup2\n      eq\n        /* \"#utility.yul\":111:181   */\n      tag_352\n      jumpi\n        /* \"#utility.yul\":177:178   */\n      0x00\n        /* \"#utility.yul\":174:175   */\n      dup1\n        /* \"#utility.yul\":167:179   */\n      revert\n        /* \"#utility.yul\":111:181   */\n    tag_352:\n        /* \"#utility.yul\":14:187   */\n      swap2\n      swap1\n      pop\n      jump\t// out\n        /* \"#utility.yul\":192:378   */\n    tag_75:\n        /* \"#utility.yul\":251:257   */\n      0x00\n        /* \"#utility.yul\":304:306   */\n      0x20\n        /* \"#utility.yul\":292:301   */\n      dup3\n        /* \"#utility.yul\":283:290   */\n      dup5\n        /* \"#utility.yul\":279:302   */\n      sub\n        /* \"#utility.yul\":275:307   */\n      slt\n        /* \"#utility.yul\":272:324   */\n      iszero\n      tag_354\n      jumpi\n        /* \"#utility.yul\":320:321   */\n      0x00\n        /* \"#utility.yul\":317:318   */\n      dup1\n        /* \"#utility.yul\":310:322   */\n      revert\n        /* \"#utility.yul\":272:324   */\n    tag_354:\n        /* \"#utility.yul\":343:372   */\n      tag_205\n        /* \"#utility.yul\":362:371   */\n      dup3\n        /* \"#utility.yul\":343:372   */\n      tag_350\n      jump\t// in\n        /* \"#utility.yul\":383:643   */\n    tag_110:\n        /* \"#utility.yul\":451:457   */\n      0x00\n        /* \"#utility.yul\":459:465   */\n      dup1\n        /* \"#utility.yul\":512:514   */\n      0x40\n        /* \"#utility.yul\":500:509   */\n      dup4\n        /* \"#utility.yul\":491:498   */\n      dup6\n        /* \"#utility.yul\":487:510   */\n      sub\n        /* \"#utility.yul\":483:515   */\n      slt\n        /* \"#utility.yul\":480:532   */\n      iszero\n      tag_357\n      jumpi\n        /* \"#utility.yul\":528:529   */\n      0x00\n        /* \"#utility.yul\":525:526   */\n      dup1\n        /* \"#utility.yul\":518:530   */\n      revert\n        /* \"#utility.yul\":480:532   */\n    tag_357:\n        /* \"#utility.yul\":551:580   */\n      tag_358\n        /* \"#utility.yul\":570:579   */\n      dup4\n        /* \"#utility.yul\":551:580   */\n      tag_350\n      jump\t// in\n    tag_358:\n        /* \"#utility.yul\":541:580   */\n      swap2\n      pop\n        /* \"#utility.yul\":599:637   */\n      tag_359\n        /* \"#utility.yul\":633:635   */\n      0x20\n        /* \"#utility.yul\":622:631   */\n      dup5\n        /* \"#utility.yul\":618:636   */\n      add\n        /* \"#utility.yul\":599:637   */\n      tag_350\n      jump\t// in\n    tag_359:\n        /* \"#utility.yul\":589:637   */\n      swap1\n      pop\n        /* \"#utility.yul\":383:643   */\n      swap3\n      pop\n      swap3\n      swap1\n      pop\n      jump\t// out\n        /* \"#utility.yul\":648:976   */\n    tag_56:\n        /* \"#utility.yul\":725:731   */\n      0x00\n        /* \"#utility.yul\":733:739   */\n      dup1\n        /* \"#utility.yul\":741:747   */\n      0x00\n        /* \"#utility.yul\":794:796   */\n      0x60\n        /* \"#utility.yul\":782:791   */\n      dup5\n        /* \"#utility.yul\":773:780   */\n      dup7\n        /* \"#utility.yul\":769:792   */\n      sub\n        /* \"#utility.yul\":765:797   */\n      slt\n        /* \"#utility.yul\":762:814   */\n      iszero\n      tag_361\n      jumpi\n        /* \"#utility.yul\":810:811   */\n      0x00\n        /* \"#utility.yul\":807:808   */\n      dup1\n        /* \"#utility.yul\":800:812   */\n      revert\n        /* \"#utility.yul\":762:814   */\n    tag_361:\n        /* \"#utility.yul\":833:862   */\n      tag_362\n        /* \"#utility.yul\":852:861   */\n      dup5\n        /* \"#utility.yul\":833:862   */\n      tag_350\n      jump\t// in\n    tag_362:\n        /* \"#utility.yul\":823:862   */\n      swap3\n      pop\n        /* \"#utility.yul\":881:919   */\n      tag_363\n        /* \"#utility.yul\":915:917   */\n      0x20\n        /* \"#utility.yul\":904:913   */\n      dup6\n        /* \"#utility.yul\":900:918   */\n      add\n        /* \"#utility.yul\":881:919   */\n      tag_350\n      jump\t// in\n    tag_363:\n        /* \"#utility.yul\":871:919   */\n      swap2\n      pop\n        /* \"#utility.yul\":966:968   */\n      0x40\n        /* \"#utility.yul\":955:964   */\n      dup5\n        /* \"#utility.yul\":951:969   */\n      add\n        /* \"#utility.yul\":938:970   */\n      calldataload\n        /* \"#utility.yul\":928:970   */\n      swap1\n      pop\n        /* \"#utility.yul\":648:976   */\n      swap3\n      pop\n      swap3\n      pop\n      swap3\n      jump\t// out\n        /* \"#utility.yul\":981:2119   */\n    tag_100:\n        /* \"#utility.yul\":1076:1082   */\n      0x00\n        /* \"#utility.yul\":1084:1090   */\n      dup1\n        /* \"#utility.yul\":1092:1098   */\n      0x00\n        /* \"#utility.yul\":1100:1106   */\n      dup1\n        /* \"#utility.yul\":1153:1156   */\n      0x80\n        /* \"#utility.yul\":1141:1150   */\n      dup6\n        /* \"#utility.yul\":1132:1139   */\n      dup8\n        /* \"#utility.yul\":1128:1151   */\n      sub\n        /* \"#utility.yul\":1124:1157   */\n      slt\n        /* \"#utility.yul\":1121:1174   */\n      iszero\n      tag_365\n      jumpi\n        /* \"#utility.yul\":1170:1171   */\n      0x00\n        /* \"#utility.yul\":1167:1168   */\n      dup1\n        /* \"#utility.yul\":1160:1172   */\n      revert\n        /* \"#utility.yul\":1121:1174   */\n    tag_365:\n        /* \"#utility.yul\":1193:1222   */\n      tag_366\n        /* \"#utility.yul\":1212:1221   */\n      dup6\n        /* \"#utility.yul\":1193:1222   */\n      tag_350\n      jump\t// in\n    tag_366:\n        /* \"#utility.yul\":1183:1222   */\n      swap4\n      pop\n        /* \"#utility.yul\":1241:1279   */\n      tag_367\n        /* \"#utility.yul\":1275:1277   */\n      0x20\n        /* \"#utility.yul\":1264:1273   */\n      dup7\n        /* \"#utility.yul\":1260:1278   */\n      add\n        /* \"#utility.yul\":1241:1279   */\n      tag_350\n      jump\t// in\n    tag_367:\n        /* \"#utility.yul\":1231:1279   */\n      swap3\n      pop\n        /* \"#utility.yul\":1326:1328   */\n      0x40\n        /* \"#utility.yul\":1315:1324   */\n      dup6\n        /* \"#utility.yul\":1311:1329   */\n      add\n        /* \"#utility.yul\":1298:1330   */\n      calldataload\n        /* \"#utility.yul\":1288:1330   */\n      swap2\n      pop\n        /* \"#utility.yul\":1381:1383   */\n      0x60\n        /* \"#utility.yul\":1370:1379   */\n      dup6\n        /* \"#utility.yul\":1366:1384   */\n      add\n        /* \"#utility.yul\":1353:1385   */\n      calldataload\n        /* \"#utility.yul\":1404:1422   */\n      0xffffffffffffffff\n        /* \"#utility.yul\":1445:1447   */\n      dup1\n        /* \"#utility.yul\":1437:1443   */\n      dup3\n        /* \"#utility.yul\":1434:1448   */\n      gt\n        /* \"#utility.yul\":1431:1465   */\n      iszero\n      tag_368\n      jumpi\n        /* \"#utility.yul\":1461:1462   */\n      0x00\n        /* \"#utility.yul\":1458:1459   */\n      dup1\n        /* \"#utility.yul\":1451:1463   */\n      revert\n        /* \"#utility.yul\":1431:1465   */\n    tag_368:\n        /* \"#utility.yul\":1499:1505   */\n      dup2\n        /* \"#utility.yul\":1488:1497   */\n      dup8\n        /* \"#utility.yul\":1484:1506   */\n      add\n        /* \"#utility.yul\":1474:1506   */\n      swap2\n      pop\n        /* \"#utility.yul\":1544:1551   */\n      dup8\n        /* \"#utility.yul\":1537:1541   */\n      0x1f\n        /* \"#utility.yul\":1533:1535   */\n      dup4\n        /* \"#utility.yul\":1529:1542   */\n      add\n        /* \"#utility.yul\":1525:1552   */\n      slt\n        /* \"#utility.yul\":1515:1570   */\n      tag_369\n      jumpi\n        /* \"#utility.yul\":1566:1567   */\n      0x00\n        /* \"#utility.yul\":1563:1564   */\n      dup1\n        /* \"#utility.yul\":1556:1568   */\n      revert\n        /* \"#utility.yul\":1515:1570   */\n    tag_369:\n        /* \"#utility.yul\":1602:1604   */\n      dup2\n        /* \"#utility.yul\":1589:1605   */\n      calldataload\n        /* \"#utility.yul\":1624:1626   */\n      dup2\n        /* \"#utility.yul\":1620:1622   */\n      dup2\n        /* \"#utility.yul\":1617:1627   */\n      gt\n        /* \"#utility.yul\":1614:1650   */\n      iszero\n      tag_371\n      jumpi\n        /* \"#utility.yul\":1630:1648   */\n      tag_371\n      tag_301\n      jump\t// in\n    tag_371:\n        /* \"#utility.yul\":1705:1707   */\n      0x40\n        /* \"#utility.yul\":1699:1708   */\n      mload\n        /* \"#utility.yul\":1673:1675   */\n      0x1f\n        /* \"#utility.yul\":1759:1772   */\n      dup3\n      add\n      not(0x1f)\n        /* \"#utility.yul\":1755:1777   */\n      swap1\n      dup2\n      and\n        /* \"#utility.yul\":1779:1781   */\n      0x3f\n        /* \"#utility.yul\":1751:1782   */\n      add\n        /* \"#utility.yul\":1747:1787   */\n      and\n        /* \"#utility.yul\":1735:1788   */\n      dup2\n      add\n      swap1\n        /* \"#utility.yul\":1803:1821   */\n      dup4\n      dup3\n      gt\n        /* \"#utility.yul\":1823:1845   */\n      dup2\n      dup4\n      lt\n        /* \"#utility.yul\":1800:1846   */\n      or\n        /* \"#utility.yul\":1797:1869   */\n      iszero\n      tag_373\n      jumpi\n        /* \"#utility.yul\":1849:1867   */\n      tag_373\n      tag_301\n      jump\t// in\n    tag_373:\n        /* \"#utility.yul\":1889:1899   */\n      dup2\n        /* \"#utility.yul\":1885:1887   */\n      0x40\n        /* \"#utility.yul\":1878:1900   */\n      mstore\n        /* \"#utility.yul\":1924:1926   */\n      dup3\n        /* \"#utility.yul\":1916:1922   */\n      dup2\n        /* \"#utility.yul\":1909:1927   */\n      mstore\n        /* \"#utility.yul\":1964:1971   */\n      dup11\n        /* \"#utility.yul\":1959:1961   */\n      0x20\n        /* \"#utility.yul\":1954:1956   */\n      dup5\n        /* \"#utility.yul\":1950:1952   */\n      dup8\n        /* \"#utility.yul\":1946:1957   */\n      add\n        /* \"#utility.yul\":1942:1962   */\n      add\n        /* \"#utility.yul\":1939:1972   */\n      gt\n        /* \"#utility.yul\":1936:1989   */\n      iszero\n      tag_374\n      jumpi\n        /* \"#utility.yul\":1985:1986   */\n      0x00\n        /* \"#utility.yul\":1982:1983   */\n      dup1\n        /* \"#utility.yul\":1975:1987   */\n      revert\n        /* \"#utility.yul\":1936:1989   */\n    tag_374:\n        /* \"#utility.yul\":2041:2043   */\n      dup3\n        /* \"#utility.yul\":2036:2038   */\n      0x20\n        /* \"#utility.yul\":2032:2034   */\n      dup7\n        /* \"#utility.yul\":2028:2039   */\n      add\n        /* \"#utility.yul\":2023:2025   */\n      0x20\n        /* \"#utility.yul\":2015:2021   */\n      dup4\n        /* \"#utility.yul\":2011:2026   */\n      add\n        /* \"#utility.yul\":1998:2044   */\n      calldatacopy\n        /* \"#utility.yul\":2086:2087   */\n      0x00\n        /* \"#utility.yul\":2081:2083   */\n      0x20\n        /* \"#utility.yul\":2076:2078   */\n      dup5\n        /* \"#utility.yul\":2068:2074   */\n      dup4\n        /* \"#utility.yul\":2064:2079   */\n      add\n        /* \"#utility.yul\":2060:2084   */\n      add\n        /* \"#utility.yul\":2053:2088   */\n      mstore\n        /* \"#utility.yul\":2107:2113   */\n      dup1\n        /* \"#utility.yul\":2097:2113   */\n      swap6\n      pop\n      pop\n      pop\n      pop\n      pop\n      pop\n        /* \"#utility.yul\":981:2119   */\n      swap3\n      swap6\n      swap2\n      swap5\n      pop\n      swap3\n      pop\n      jump\t// out\n        /* \"#utility.yul\":2124:2471   */\n    tag_95:\n        /* \"#utility.yul\":2189:2195   */\n      0x00\n        /* \"#utility.yul\":2197:2203   */\n      dup1\n        /* \"#utility.yul\":2250:2252   */\n      0x40\n        /* \"#utility.yul\":2238:2247   */\n      dup4\n        /* \"#utility.yul\":2229:2236   */\n      dup6\n        /* \"#utility.yul\":2225:2248   */\n      sub\n        /* \"#utility.yul\":2221:2253   */\n      slt\n        /* \"#utility.yul\":2218:2270   */\n      iszero\n      tag_376\n      jumpi\n        /* \"#utility.yul\":2266:2267   */\n      0x00\n        /* \"#utility.yul\":2263:2264   */\n      dup1\n        /* \"#utility.yul\":2256:2268   */\n      revert\n        /* \"#utility.yul\":2218:2270   */\n    tag_376:\n        /* \"#utility.yul\":2289:2318   */\n      tag_377\n        /* \"#utility.yul\":2308:2317   */\n      dup4\n        /* \"#utility.yul\":2289:2318   */\n      tag_350\n      jump\t// in\n    tag_377:\n        /* \"#utility.yul\":2279:2318   */\n      swap2\n      pop\n        /* \"#utility.yul\":2368:2370   */\n      0x20\n        /* \"#utility.yul\":2357:2366   */\n      dup4\n        /* \"#utility.yul\":2353:2371   */\n      add\n        /* \"#utility.yul\":2340:2372   */\n      calldataload\n        /* \"#utility.yul\":2415:2420   */\n      dup1\n        /* \"#utility.yul\":2408:2421   */\n      iszero\n        /* \"#utility.yul\":2401:2422   */\n      iszero\n        /* \"#utility.yul\":2394:2399   */\n      dup2\n        /* \"#utility.yul\":2391:2423   */\n      eq\n        /* \"#utility.yul\":2381:2441   */\n      tag_378\n      jumpi\n        /* \"#utility.yul\":2437:2438   */\n      0x00\n        /* \"#utility.yul\":2434:2435   */\n      dup1\n        /* \"#utility.yul\":2427:2439   */\n      revert\n        /* \"#utility.yul\":2381:2441   */\n    tag_378:\n        /* \"#utility.yul\":2460:2465   */\n      dup1\n        /* \"#utility.yul\":2450:2465   */\n      swap2\n      pop\n      pop\n        /* \"#utility.yul\":2124:2471   */\n      swap3\n      pop\n      swap3\n      swap1\n      pop\n      jump\t// out\n        /* \"#utility.yul\":2476:2730   */\n    tag_46:\n        /* \"#utility.yul\":2544:2550   */\n      0x00\n        /* \"#utility.yul\":2552:2558   */\n      dup1\n        /* \"#utility.yul\":2605:2607   */\n      0x40\n        /* \"#utility.yul\":2593:2602   */\n      dup4\n        /* \"#utility.yul\":2584:2591   */\n      dup6\n        /* \"#utility.yul\":2580:2603   */\n      sub\n        /* \"#utility.yul\":2576:2608   */\n      slt\n        /* \"#utility.yul\":2573:2625   */\n      iszero\n      tag_380\n      jumpi\n        /* \"#utility.yul\":2621:2622   */\n      0x00\n        /* \"#utility.yul\":2618:2619   */\n      dup1\n        /* \"#utility.yul\":2611:2623   */\n      revert\n        /* \"#utility.yul\":2573:2625   */\n    tag_380:\n        /* \"#utility.yul\":2644:2673   */\n      tag_381\n        /* \"#utility.yul\":2663:2672   */\n      dup4\n        /* \"#utility.yul\":2644:2673   */\n      tag_350\n      jump\t// in\n    tag_381:\n        /* \"#utility.yul\":2634:2673   */\n      swap5\n        /* \"#utility.yul\":2720:2722   */\n      0x20\n        /* \"#utility.yul\":2705:2723   */\n      swap4\n      swap1\n      swap4\n      add\n        /* \"#utility.yul\":2692:2724   */\n      calldataload\n      swap4\n      pop\n      pop\n      pop\n        /* \"#utility.yul\":2476:2730   */\n      jump\t// out\n        /* \"#utility.yul\":2735:2980   */\n    tag_27:\n        /* \"#utility.yul\":2793:2799   */\n      0x00\n        /* \"#utility.yul\":2846:2848   */\n      0x20\n        /* \"#utility.yul\":2834:2843   */\n      dup3\n        /* \"#utility.yul\":2825:2832   */\n      dup5\n        /* \"#utility.yul\":2821:2844   */\n      sub\n        /* \"#utility.yul\":2817:2849   */\n      slt\n        /* \"#utility.yul\":2814:2866   */\n      iszero\n      tag_383\n      jumpi\n        /* \"#utility.yul\":2862:2863   */\n      0x00\n        /* \"#utility.yul\":2859:2860   */\n      dup1\n        /* \"#utility.yul\":2852:2864   */\n      revert\n        /* \"#utility.yul\":2814:2866   */\n    tag_383:\n        /* \"#utility.yul\":2901:2910   */\n      dup2\n        /* \"#utility.yul\":2888:2911   */\n      calldataload\n        /* \"#utility.yul\":2920:2950   */\n      tag_205\n        /* \"#utility.yul\":2944:2949   */\n      dup2\n        /* \"#utility.yul\":2920:2950   */\n      tag_385\n      jump\t// in\n        /* \"#utility.yul\":2985:3234   */\n    tag_275:\n        /* \"#utility.yul\":3054:3060   */\n      0x00\n        /* \"#utility.yul\":3107:3109   */\n      0x20\n        /* \"#utility.yul\":3095:3104   */\n      dup3\n        /* \"#utility.yul\":3086:3093   */\n      dup5\n        /* \"#utility.yul\":3082:3105   */\n      sub\n        /* \"#utility.yul\":3078:3110   */\n      slt\n        /* \"#utility.yul\":3075:3127   */\n      iszero\n      tag_387\n      jumpi\n        /* \"#utility.yul\":3123:3124   */\n      0x00\n        /* \"#utility.yul\":3120:3121   */\n      dup1\n        /* \"#utility.yul\":3113:3125   */\n      revert\n        /* \"#utility.yul\":3075:3127   */\n    tag_387:\n        /* \"#utility.yul\":3155:3164   */\n      dup2\n        /* \"#utility.yul\":3149:3165   */\n      mload\n        /* \"#utility.yul\":3174:3204   */\n      tag_205\n        /* \"#utility.yul\":3198:3203   */\n      dup2\n        /* \"#utility.yul\":3174:3204   */\n      tag_385\n      jump\t// in\n        /* \"#utility.yul\":3239:3831   */\n    tag_65:\n        /* \"#utility.yul\":3310:3316   */\n      0x00\n        /* \"#utility.yul\":3318:3324   */\n      dup1\n        /* \"#utility.yul\":3371:3373   */\n      0x20\n        /* \"#utility.yul\":3359:3368   */\n      dup4\n        /* \"#utility.yul\":3350:3357   */\n      dup6\n        /* \"#utility.yul\":3346:3369   */\n      sub\n        /* \"#utility.yul\":3342:3374   */\n      slt\n        /* \"#utility.yul\":3339:3391   */\n      iszero\n      tag_390\n      jumpi\n        /* \"#utility.yul\":3387:3388   */\n      0x00\n        /* \"#utility.yul\":3384:3385   */\n      dup1\n        /* \"#utility.yul\":3377:3389   */\n      revert\n        /* \"#utility.yul\":3339:3391   */\n    tag_390:\n        /* \"#utility.yul\":3427:3436   */\n      dup3\n        /* \"#utility.yul\":3414:3437   */\n      calldataload\n        /* \"#utility.yul\":3456:3474   */\n      0xffffffffffffffff\n        /* \"#utility.yul\":3497:3499   */\n      dup1\n        /* \"#utility.yul\":3489:3495   */\n      dup3\n        /* \"#utility.yul\":3486:3500   */\n      gt\n        /* \"#utility.yul\":3483:3517   */\n      iszero\n      tag_391\n      jumpi\n        /* \"#utility.yul\":3513:3514   */\n      0x00\n        /* \"#utility.yul\":3510:3511   */\n      dup1\n        /* \"#utility.yul\":3503:3515   */\n      revert\n        /* \"#utility.yul\":3483:3517   */\n    tag_391:\n        /* \"#utility.yul\":3551:3557   */\n      dup2\n        /* \"#utility.yul\":3540:3549   */\n      dup6\n        /* \"#utility.yul\":3536:3558   */\n      add\n        /* \"#utility.yul\":3526:3558   */\n      swap2\n      pop\n        /* \"#utility.yul\":3596:3603   */\n      dup6\n        /* \"#utility.yul\":3589:3593   */\n      0x1f\n        /* \"#utility.yul\":3585:3587   */\n      dup4\n        /* \"#utility.yul\":3581:3594   */\n      add\n        /* \"#utility.yul\":3577:3604   */\n      slt\n        /* \"#utility.yul\":3567:3622   */\n      tag_392\n      jumpi\n        /* \"#utility.yul\":3618:3619   */\n      0x00\n        /* \"#utility.yul\":3615:3616   */\n      dup1\n        /* \"#utility.yul\":3608:3620   */\n      revert\n        /* \"#utility.yul\":3567:3622   */\n    tag_392:\n        /* \"#utility.yul\":3658:3660   */\n      dup2\n        /* \"#utility.yul\":3645:3661   */\n      calldataload\n        /* \"#utility.yul\":3684:3686   */\n      dup2\n        /* \"#utility.yul\":3676:3682   */\n      dup2\n        /* \"#utility.yul\":3673:3687   */\n      gt\n        /* \"#utility.yul\":3670:3704   */\n      iszero\n      tag_393\n      jumpi\n        /* \"#utility.yul\":3700:3701   */\n      0x00\n        /* \"#utility.yul\":3697:3698   */\n      dup1\n        /* \"#utility.yul\":3690:3702   */\n      revert\n        /* \"#utility.yul\":3670:3704   */\n    tag_393:\n        /* \"#utility.yul\":3745:3752   */\n      dup7\n        /* \"#utility.yul\":3740:3742   */\n      0x20\n        /* \"#utility.yul\":3731:3737   */\n      dup3\n        /* \"#utility.yul\":3727:3729   */\n      dup6\n        /* \"#utility.yul\":3723:3738   */\n      add\n        /* \"#utility.yul\":3719:3743   */\n      add\n        /* \"#utility.yul\":3716:3753   */\n      gt\n        /* \"#utility.yul\":3713:3770   */\n      iszero\n      tag_394\n      jumpi\n        /* \"#utility.yul\":3766:3767   */\n      0x00\n        /* \"#utility.yul\":3763:3764   */\n      dup1\n        /* \"#utility.yul\":3756:3768   */\n      revert\n        /* \"#utility.yul\":3713:3770   */\n    tag_394:\n        /* \"#utility.yul\":3797:3799   */\n      0x20\n        /* \"#utility.yul\":3789:3800   */\n      swap3\n      swap1\n      swap3\n      add\n      swap7\n        /* \"#utility.yul\":3819:3825   */\n      swap2\n      swap6\n      pop\n        /* \"#utility.yul\":3239:3831   */\n      swap1\n      swap4\n      pop\n      pop\n      pop\n      pop\n      jump\t// out\n        /* \"#utility.yul\":3836:4016   */\n    tag_39:\n        /* \"#utility.yul\":3895:3901   */\n      0x00\n        /* \"#utility.yul\":3948:3950   */\n      0x20\n        /* \"#utility.yul\":3936:3945   */\n      dup3\n        /* \"#utility.yul\":3927:3934   */\n      dup5\n        /* \"#utility.yul\":3923:3946   */\n      sub\n        /* \"#utility.yul\":3919:3951   */\n      slt\n        /* \"#utility.yul\":3916:3968   */\n      iszero\n      tag_396\n      jumpi\n        /* \"#utility.yul\":3964:3965   */\n      0x00\n        /* \"#utility.yul\":3961:3962   */\n      dup1\n        /* \"#utility.yul\":3954:3966   */\n      revert\n        /* \"#utility.yul\":3916:3968   */\n    tag_396:\n      pop\n        /* \"#utility.yul\":3987:4010   */\n      calldataload\n      swap2\n        /* \"#utility.yul\":3836:4016   */\n      swap1\n      pop\n      jump\t// out\n        /* \"#utility.yul\":4021:4278   */\n    tag_397:\n        /* \"#utility.yul\":4062:4065   */\n      0x00\n        /* \"#utility.yul\":4100:4105   */\n      dup2\n        /* \"#utility.yul\":4094:4106   */\n      mload\n        /* \"#utility.yul\":4127:4133   */\n      dup1\n        /* \"#utility.yul\":4122:4125   */\n      dup5\n        /* \"#utility.yul\":4115:4134   */\n      mstore\n        /* \"#utility.yul\":4143:4206   */\n      tag_399\n        /* \"#utility.yul\":4199:4205   */\n      dup2\n        /* \"#utility.yul\":4192:4196   */\n      0x20\n        /* \"#utility.yul\":4187:4190   */\n      dup7\n        /* \"#utility.yul\":4183:4197   */\n      add\n        /* \"#utility.yul\":4176:4180   */\n      0x20\n        /* \"#utility.yul\":4169:4174   */\n      dup7\n        /* \"#utility.yul\":4165:4181   */\n      add\n        /* \"#utility.yul\":4143:4206   */\n      tag_400\n      jump\t// in\n    tag_399:\n        /* \"#utility.yul\":4260:4262   */\n      0x1f\n        /* \"#utility.yul\":4239:4254   */\n      add\n      not(0x1f)\n        /* \"#utility.yul\":4235:4264   */\n      and\n        /* \"#utility.yul\":4226:4265   */\n      swap3\n      swap1\n      swap3\n      add\n        /* \"#utility.yul\":4267:4271   */\n      0x20\n        /* \"#utility.yul\":4222:4272   */\n      add\n      swap3\n        /* \"#utility.yul\":4021:4278   */\n      swap2\n      pop\n      pop\n      jump\t// out\n        /* \"#utility.yul\":4283:4753   */\n    tag_209:\n        /* \"#utility.yul\":4462:4465   */\n      0x00\n        /* \"#utility.yul\":4500:4506   */\n      dup4\n        /* \"#utility.yul\":4494:4507   */\n      mload\n        /* \"#utility.yul\":4516:4569   */\n      tag_402\n        /* \"#utility.yul\":4562:4568   */\n      dup2\n        /* \"#utility.yul\":4557:4560   */\n      dup5\n        /* \"#utility.yul\":4550:4554   */\n      0x20\n        /* \"#utility.yul\":4542:4548   */\n      dup9\n        /* \"#utility.yul\":4538:4555   */\n      add\n        /* \"#utility.yul\":4516:4569   */\n      tag_400\n      jump\t// in\n    tag_402:\n        /* \"#utility.yul\":4632:4645   */\n      dup4\n      mload\n        /* \"#utility.yul\":4591:4607   */\n      swap1\n      dup4\n      add\n      swap1\n        /* \"#utility.yul\":4654:4711   */\n      tag_403\n        /* \"#utility.yul\":4632:4645   */\n      dup2\n        /* \"#utility.yul\":4591:4607   */\n      dup4\n        /* \"#utility.yul\":4688:4692   */\n      0x20\n        /* \"#utility.yul\":4676:4693   */\n      dup9\n      add\n        /* \"#utility.yul\":4654:4711   */\n      tag_400\n      jump\t// in\n    tag_403:\n        /* \"#utility.yul\":4727:4747   */\n      add\n      swap5\n        /* \"#utility.yul\":4283:4753   */\n      swap4\n      pop\n      pop\n      pop\n      pop\n      jump\t// out\n        /* \"#utility.yul\":4966:5454   */\n    tag_271:\n      sub(shl(0xa0, 0x01), 0x01)\n        /* \"#utility.yul\":5235:5250   */\n      dup6\n      dup2\n      and\n        /* \"#utility.yul\":5217:5251   */\n      dup3\n      mstore\n        /* \"#utility.yul\":5287:5302   */\n      dup5\n      and\n        /* \"#utility.yul\":5282:5284   */\n      0x20\n        /* \"#utility.yul\":5267:5285   */\n      dup3\n      add\n        /* \"#utility.yul\":5260:5303   */\n      mstore\n        /* \"#utility.yul\":5334:5336   */\n      0x40\n        /* \"#utility.yul\":5319:5337   */\n      dup2\n      add\n        /* \"#utility.yul\":5312:5346   */\n      dup4\n      swap1\n      mstore\n        /* \"#utility.yul\":5382:5385   */\n      0x80\n        /* \"#utility.yul\":5377:5379   */\n      0x60\n        /* \"#utility.yul\":5362:5380   */\n      dup3\n      add\n        /* \"#utility.yul\":5355:5386   */\n      dup2\n      swap1\n      mstore\n        /* \"#utility.yul\":5160:5164   */\n      0x00\n      swap1\n        /* \"#utility.yul\":5403:5448   */\n      tag_406\n      swap1\n        /* \"#utility.yul\":5428:5447   */\n      dup4\n      add\n        /* \"#utility.yul\":5420:5426   */\n      dup5\n        /* \"#utility.yul\":5403:5448   */\n      tag_397\n      jump\t// in\n    tag_406:\n        /* \"#utility.yul\":5395:5448   */\n      swap7\n        /* \"#utility.yul\":4966:5454   */\n      swap6\n      pop\n      pop\n      pop\n      pop\n      pop\n      pop\n      jump\t// out\n        /* \"#utility.yul\":5651:5870   */\n    tag_35:\n        /* \"#utility.yul\":5800:5802   */\n      0x20\n        /* \"#utility.yul\":5789:5798   */\n      dup2\n        /* \"#utility.yul\":5782:5803   */\n      mstore\n        /* \"#utility.yul\":5763:5767   */\n      0x00\n        /* \"#utility.yul\":5820:5864   */\n      tag_205\n        /* \"#utility.yul\":5860:5862   */\n      0x20\n        /* \"#utility.yul\":5849:5858   */\n      dup4\n        /* \"#utility.yul\":5845:5863   */\n      add\n        /* \"#utility.yul\":5837:5843   */\n      dup5\n        /* \"#utility.yul\":5820:5864   */\n      tag_397\n      jump\t// in\n        /* \"#utility.yul\":6282:6638   */\n    tag_158:\n        /* \"#utility.yul\":6484:6486   */\n      0x20\n        /* \"#utility.yul\":6466:6487   */\n      dup1\n      dup3\n      mstore\n        /* \"#utility.yul\":6503:6521   */\n      dup2\n      dup2\n      add\n        /* \"#utility.yul\":6496:6526   */\n      mstore\n        /* \"#utility.yul\":6562:6596   */\n      0x4f776e61626c653a2063616c6c6572206973206e6f7420746865206f776e6572\n        /* \"#utility.yul\":6557:6559   */\n      0x40\n        /* \"#utility.yul\":6542:6560   */\n      dup3\n      add\n        /* \"#utility.yul\":6535:6597   */\n      mstore\n        /* \"#utility.yul\":6629:6631   */\n      0x60\n        /* \"#utility.yul\":6614:6632   */\n      add\n      swap1\n        /* \"#utility.yul\":6282:6638   */\n      jump\t// out\n        /* \"#utility.yul\":6825:6953   */\n    tag_310:\n        /* \"#utility.yul\":6865:6868   */\n      0x00\n        /* \"#utility.yul\":6896:6897   */\n      dup3\n        /* \"#utility.yul\":6892:6898   */\n      not\n        /* \"#utility.yul\":6889:6890   */\n      dup3\n        /* \"#utility.yul\":6886:6899   */\n      gt\n        /* \"#utility.yul\":6883:6922   */\n      iszero\n      tag_415\n      jumpi\n        /* \"#utility.yul\":6902:6920   */\n      tag_415\n      tag_416\n      jump\t// in\n    tag_415:\n      pop\n        /* \"#utility.yul\":6938:6947   */\n      add\n      swap1\n        /* \"#utility.yul\":6825:6953   */\n      jump\t// out\n        /* \"#utility.yul\":6958:7078   */\n    tag_298:\n        /* \"#utility.yul\":6998:6999   */\n      0x00\n        /* \"#utility.yul\":7024:7025   */\n      dup3\n        /* \"#utility.yul\":7014:7049   */\n      tag_419\n      jumpi\n        /* \"#utility.yul\":7029:7047   */\n      tag_419\n      tag_420\n      jump\t// in\n    tag_419:\n      pop\n        /* \"#utility.yul\":7063:7072   */\n      div\n      swap1\n        /* \"#utility.yul\":6958:7078   */\n      jump\t// out\n        /* \"#utility.yul\":7083:7208   */\n    tag_306:\n        /* \"#utility.yul\":7123:7127   */\n      0x00\n        /* \"#utility.yul\":7151:7152   */\n      dup3\n        /* \"#utility.yul\":7148:7149   */\n      dup3\n        /* \"#utility.yul\":7145:7153   */\n      lt\n        /* \"#utility.yul\":7142:7176   */\n      iszero\n      tag_423\n      jumpi\n        /* \"#utility.yul\":7156:7174   */\n      tag_423\n      tag_416\n      jump\t// in\n    tag_423:\n      pop\n        /* \"#utility.yul\":7193:7202   */\n      sub\n      swap1\n        /* \"#utility.yul\":7083:7208   */\n      jump\t// out\n        /* \"#utility.yul\":7213:7471   */\n    tag_400:\n        /* \"#utility.yul\":7285:7286   */\n      0x00\n        /* \"#utility.yul\":7295:7408   */\n    tag_425:\n        /* \"#utility.yul\":7309:7315   */\n      dup4\n        /* \"#utility.yul\":7306:7307   */\n      dup2\n        /* \"#utility.yul\":7303:7316   */\n      lt\n        /* \"#utility.yul\":7295:7408   */\n      iszero\n      tag_427\n      jumpi\n        /* \"#utility.yul\":7385:7396   */\n      dup2\n      dup2\n      add\n        /* \"#utility.yul\":7379:7397   */\n      mload\n        /* \"#utility.yul\":7366:7377   */\n      dup4\n      dup3\n      add\n        /* \"#utility.yul\":7359:7398   */\n      mstore\n        /* \"#utility.yul\":7331:7333   */\n      0x20\n        /* \"#utility.yul\":7324:7334   */\n      add\n        /* \"#utility.yul\":7295:7408   */\n      jump(tag_425)\n    tag_427:\n        /* \"#utility.yul\":7426:7432   */\n      dup4\n        /* \"#utility.yul\":7423:7424   */\n      dup2\n        /* \"#utility.yul\":7420:7433   */\n      gt\n        /* \"#utility.yul\":7417:7465   */\n      iszero\n      tag_198\n      jumpi\n      pop\n      pop\n        /* \"#utility.yul\":7461:7462   */\n      0x00\n        /* \"#utility.yul\":7443:7459   */\n      swap2\n      add\n        /* \"#utility.yul\":7436:7463   */\n      mstore\n        /* \"#utility.yul\":7213:7471   */\n      jump\t// out\n        /* \"#utility.yul\":7476:7856   */\n    tag_125:\n        /* \"#utility.yul\":7555:7556   */\n      0x01\n        /* \"#utility.yul\":7551:7563   */\n      dup2\n      dup2\n      shr\n      swap1\n        /* \"#utility.yul\":7598:7610   */\n      dup3\n      and\n      dup1\n        /* \"#utility.yul\":7619:7680   */\n      tag_430\n      jumpi\n        /* \"#utility.yul\":7673:7677   */\n      0x7f\n        /* \"#utility.yul\":7665:7671   */\n      dup3\n        /* \"#utility.yul\":7661:7678   */\n      and\n        /* \"#utility.yul\":7651:7678   */\n      swap2\n      pop\n        /* \"#utility.yul\":7619:7680   */\n    tag_430:\n        /* \"#utility.yul\":7726:7728   */\n      0x20\n        /* \"#utility.yul\":7718:7724   */\n      dup3\n        /* \"#utility.yul\":7715:7729   */\n      lt\n        /* \"#utility.yul\":7695:7713   */\n      dup2\n        /* \"#utility.yul\":7692:7730   */\n      eq\n        /* \"#utility.yul\":7689:7850   */\n      iszero\n      tag_431\n      jumpi\n        /* \"#utility.yul\":7772:7782   */\n      0x4e487b71\n        /* \"#utility.yul\":7767:7770   */\n      0xe0\n        /* \"#utility.yul\":7763:7783   */\n      shl\n        /* \"#utility.yul\":7760:7761   */\n      0x00\n        /* \"#utility.yul\":7753:7784   */\n      mstore\n        /* \"#utility.yul\":7807:7811   */\n      0x22\n        /* \"#utility.yul\":7804:7805   */\n      0x04\n        /* \"#utility.yul\":7797:7812   */\n      mstore\n        /* \"#utility.yul\":7835:7839   */\n      0x24\n        /* \"#utility.yul\":7832:7833   */\n      0x00\n        /* \"#utility.yul\":7825:7840   */\n      revert\n        /* \"#utility.yul\":7689:7850   */\n    tag_431:\n      pop\n        /* \"#utility.yul\":7476:7856   */\n      swap2\n      swap1\n      pop\n      jump\t// out\n        /* \"#utility.yul\":7861:7996   */\n    tag_296:\n        /* \"#utility.yul\":7900:7903   */\n      0x00\n      not(0x00)\n        /* \"#utility.yul\":7921:7938   */\n      dup3\n      eq\n        /* \"#utility.yul\":7918:7961   */\n      iszero\n      tag_434\n      jumpi\n        /* \"#utility.yul\":7941:7959   */\n      tag_434\n      tag_416\n      jump\t// in\n    tag_434:\n      pop\n        /* \"#utility.yul\":7988:7989   */\n      0x01\n        /* \"#utility.yul\":7977:7990   */\n      add\n      swap1\n        /* \"#utility.yul\":7861:7996   */\n      jump\t// out\n        /* \"#utility.yul\":8001:8113   */\n    tag_308:\n        /* \"#utility.yul\":8033:8034   */\n      0x00\n        /* \"#utility.yul\":8059:8060   */\n      dup3\n        /* \"#utility.yul\":8049:8084   */\n      tag_437\n      jumpi\n        /* \"#utility.yul\":8064:8082   */\n      tag_437\n      tag_420\n      jump\t// in\n    tag_437:\n      pop\n        /* \"#utility.yul\":8098:8107   */\n      mod\n      swap1\n        /* \"#utility.yul\":8001:8113   */\n      jump\t// out\n        /* \"#utility.yul\":8118:8245   */\n    tag_416:\n        /* \"#utility.yul\":8179:8189   */\n      0x4e487b71\n        /* \"#utility.yul\":8174:8177   */\n      0xe0\n        /* \"#utility.yul\":8170:8190   */\n      shl\n        /* \"#utility.yul\":8167:8168   */\n      0x00\n        /* \"#utility.yul\":8160:8191   */\n      mstore\n        /* \"#utility.yul\":8210:8214   */\n      0x11\n        /* \"#utility.yul\":8207:8208   */\n      0x04\n        /* \"#utility.yul\":8200:8215   */\n      mstore\n        /* \"#utility.yul\":8234:8238   */\n      0x24\n        /* \"#utility.yul\":8231:8232   */\n      0x00\n        /* \"#utility.yul\":8224:8239   */\n      revert\n        /* \"#utility.yul\":8250:8377   */\n    tag_420:\n        /* \"#utility.yul\":8311:8321   */\n      0x4e487b71\n        /* \"#utility.yul\":8306:8309   */\n      0xe0\n        /* \"#utility.yul\":8302:8322   */\n      shl\n        /* \"#utility.yul\":8299:8300   */\n      0x00\n        /* \"#utility.yul\":8292:8323   */\n      mstore\n        /* \"#utility.yul\":8342:8346   */\n      0x12\n        /* \"#utility.yul\":8339:8340   */\n      0x04\n        /* \"#utility.yul\":8332:8347   */\n      mstore\n        /* \"#utility.yul\":8366:8370   */\n      0x24\n        /* \"#utility.yul\":8363:8364   */\n      0x00\n        /* \"#utility.yul\":8356:8371   */\n      revert\n        /* \"#utility.yul\":8382:8509   */\n    tag_313:\n        /* \"#utility.yul\":8443:8453   */\n      0x4e487b71\n        /* \"#utility.yul\":8438:8441   */\n      0xe0\n        /* \"#utility.yul\":8434:8454   */\n      shl\n        /* \"#utility.yul\":8431:8432   */\n      0x00\n        /* \"#utility.yul\":8424:8455   */\n      mstore\n        /* \"#utility.yul\":8474:8478   */\n      0x32\n        /* \"#utility.yul\":8471:8472   */\n      0x04\n        /* \"#utility.yul\":8464:8479   */\n      mstore\n        /* \"#utility.yul\":8498:8502   */\n      0x24\n        /* \"#utility.yul\":8495:8496   */\n      0x00\n        /* \"#utility.yul\":8488:8503   */\n      revert\n        /* \"#utility.yul\":8514:8641   */\n    tag_301:\n        /* \"#utility.yul\":8575:8585   */\n      0x4e487b71\n        /* \"#utility.yul\":8570:8573   */\n      0xe0\n        /* \"#utility.yul\":8566:8586   */\n      shl\n        /* \"#utility.yul\":8563:8564   */\n      0x00\n        /* \"#utility.yul\":8556:8587   */\n      mstore\n        /* \"#utility.yul\":8606:8610   */\n      0x41\n        /* \"#utility.yul\":8603:8604   */\n      0x04\n        /* \"#utility.yul\":8596:8611   */\n      mstore\n        /* \"#utility.yul\":8630:8634   */\n      0x24\n        /* \"#utility.yul\":8627:8628   */\n      0x00\n        /* \"#utility.yul\":8620:8635   */\n      revert\n        /* \"#utility.yul\":8646:8777   */\n    tag_385:\n      not(sub(shl(0xe0, 0x01), 0x01))\n        /* \"#utility.yul\":8720:8752   */\n      dup2\n      and\n        /* \"#utility.yul\":8710:8753   */\n      dup2\n      eq\n        /* \"#utility.yul\":8700:8771   */\n      tag_183\n      jumpi\n        /* \"#utility.yul\":8767:8768   */\n      0x00\n        /* \"#utility.yul\":8764:8765   */\n      dup1\n        /* \"#utility.yul\":8757:8769   */\n      revert\n\n    auxdata: 0xa26469706673582212207ffda8653c8083e8de9afa9edd1b09e613a0c03700ff4837ae6c5755f05560c564736f6c63430008070033\n}\n",
				"bytecode": {
					"linkReferences": {},
					"object": "60806040523480156200001157600080fd5b506040518060400160405280600c81526020016b526f746174696e674375626560a01b815250604051806040016040528060048152602001634355424560e01b8152506200006e62000068620000a760201b60201c565b620000ab565b815162000083906003906020850190620000fb565b50805162000099906004906020840190620000fb565b5050600060015550620001de565b3390565b600080546001600160a01b038381166001600160a01b0319831681178455604051919092169283917f8be0079c531659141344cd1fd0a4f28419497f9722a3daafe3b4186f6b6457e09190a35050565b8280546200010990620001a1565b90600052602060002090601f0160209004810192826200012d576000855562000178565b82601f106200014857805160ff191683800117855562000178565b8280016001018555821562000178579182015b82811115620001785782518255916020019190600101906200015b565b50620001869291506200018a565b5090565b5b808211156200018657600081556001016200018b565b600181811c90821680620001b657607f821691505b60208210811415620001d857634e487b7160e01b600052602260045260246000fd5b50919050565b61166480620001ee6000396000f3fe6080604052600436106101145760003560e01c806370a08231116100a0578063a22cb46511610064578063a22cb465146102e8578063b88d4fde14610308578063c87b56dd14610328578063e985e9c514610348578063f2fde38b1461039157600080fd5b806370a082311461026d578063715018a61461028d5780638da5cb5b146102a257806395d89b41146102c0578063a0712d68146102d557600080fd5b806318160ddd116100e757806318160ddd146101ca57806323b872dd146101ed57806342842e0e1461020d57806355f804b31461022d5780636352211e1461024d57600080fd5b806301ffc9a71461011957806306fdde031461014e578063081812fc14610170578063095ea7b3146101a8575b600080fd5b34801561012557600080fd5b50610139610134366004611342565b6103b1565b60405190151581526020015b60405180910390f35b34801561015a57600080fd5b50610163610412565b604051610145919061149f565b34801561017c57600080fd5b5061019061018b3660046113ee565b6104a4565b6040516001600160a01b039091168152602001610145565b3480156101b457600080fd5b506101c86101c3366004611318565b6104e8565b005b3480156101d657600080fd5b50600254600154035b604051908152602001610145565b3480156101f957600080fd5b506101c86102083660046111c4565b610576565b34801561021957600080fd5b506101c86102283660046111c4565b610581565b34801561023957600080fd5b506101c861024836600461137c565b61059c565b34801561025957600080fd5b506101906102683660046113ee565b6105db565b34801561027957600080fd5b506101df610288366004611176565b6105ed565b34801561029957600080fd5b506101c861063c565b3480156102ae57600080fd5b506000546001600160a01b0316610190565b3480156102cc57600080fd5b50610163610672565b6101c86102e33660046113ee565b610681565b3480156102f457600080fd5b506101c86103033660046112dc565b61068e565b34801561031457600080fd5b506101c8610323366004611200565b610724565b34801561033457600080fd5b506101636103433660046113ee565b610775565b34801561035457600080fd5b50610139610363366004611191565b6001600160a01b03918216600090815260086020908152604080832093909416825291909152205460ff1690565b34801561039d57600080fd5b506101c86103ac366004611176565b6107fa565b60006001600160e01b031982166380ac58cd60e01b14806103e257506001600160e01b03198216635b5e139f60e01b145b806103fd57506001600160e01b0319821663780e9d6360e01b145b8061040c575061040c82610892565b92915050565b60606003805461042190611556565b80601f016020809104026020016040519081016040528092919081815260200182805461044d90611556565b801561049a5780601f1061046f5761010080835404028352916020019161049a565b820191906000526020600020905b81548152906001019060200180831161047d57829003601f168201915b5050505050905090565b60006104af826108e2565b6104cc576040516333d1c03960e21b815260040160405180910390fd5b506000908152600760205260409020546001600160a01b031690565b60006104f3826105db565b9050806001600160a01b0316836001600160a01b031614156105285760405163250fdee360e21b815260040160405180910390fd5b336001600160a01b0382161480159061054857506105468133610363565b155b15610566576040516367d9dca160e11b815260040160405180910390fd5b61057183838361090e565b505050565b61057183838361096a565b61057183838360405180602001604052806000815250610724565b6000546001600160a01b031633146105cf5760405162461bcd60e51b81526004016105c6906114b2565b60405180910390fd5b610571600983836110c1565b60006105e682610b5a565b5192915050565b60006001600160a01b038216610616576040516323d3ad8160e21b815260040160405180910390fd5b506001600160a01b031660009081526006602052604090205467ffffffffffffffff1690565b6000546001600160a01b031633146106665760405162461bcd60e51b81526004016105c6906114b2565b6106706000610c76565b565b60606004805461042190611556565b61068b3382610cc6565b50565b6001600160a01b0382163314156106b85760405163b06307db60e01b815260040160405180910390fd5b3360008181526008602090815260408083206001600160a01b03871680855290835292819020805460ff191686151590811790915590519081529192917f17307eab39ab6107e8899845ad3d59bd9653f200f220920489ca2b5937696c31910160405180910390a35050565b61072f84848461096a565b6001600160a01b0383163b15158015610751575061074f84848484610ce4565b155b1561076f576040516368d2bf6b60e11b815260040160405180910390fd5b50505050565b6060610780826108e2565b61079d57604051630a14c4b560e41b815260040160405180910390fd5b60006107a7610ddc565b90508051600014156107c857604051806020016040528060008152506107f3565b806107d284610deb565b6040516020016107e3929190611433565b6040516020818303038152906040525b9392505050565b6000546001600160a01b031633146108245760405162461bcd60e51b81526004016105c6906114b2565b6001600160a01b0381166108895760405162461bcd60e51b815260206004820152602660248201527f4f776e61626c653a206e6577206f776e657220697320746865207a65726f206160448201526564647265737360d01b60648201526084016105c6565b61068b81610c76565b60006001600160e01b031982166380ac58cd60e01b14806108c357506001600160e01b03198216635b5e139f60e01b145b8061040c57506301ffc9a760e01b6001600160e01b031983161461040c565b60006001548210801561040c575050600090815260056020526040902054600160e01b900460ff161590565b60008281526007602052604080822080546001600160a01b0319166001600160a01b0387811691821790925591518593918516917f8c5be1e5ebec7d5bd14f71427d1e84f3dd0314c0f7b2291e5b200ac8c7c3b92591a4505050565b600061097582610b5a565b9050836001600160a01b031681600001516001600160a01b0316146109ac5760405162a1148160e81b815260040160405180910390fd5b6000336001600160a01b03861614806109ca57506109ca8533610363565b806109e55750336109da846104a4565b6001600160a01b0316145b905080610a0557604051632ce44b5f60e11b815260040160405180910390fd5b6001600160a01b038416610a2c57604051633a954ecd60e21b815260040160405180910390fd5b610a386000848761090e565b6001600160a01b038581166000908152600660209081526040808320805467ffffffffffffffff1980821667ffffffffffffffff92831660001901831617909255898616808652838620805493841693831660019081018416949094179055898652600590945282852080546001600160e01b031916909417600160a01b42909216919091021783558701808452922080549193909116610b0e576001548214610b0e578054602086015167ffffffffffffffff16600160a01b026001600160e01b03199091166001600160a01b038a16171781555b50505082846001600160a01b0316866001600160a01b03167fddf252ad1be2c89b69c2b068fc378daa952ba7f163c4a11628f55a4df523b3ef60405160405180910390a45b5050505050565b604080516060810182526000808252602082018190529181019190915281600154811015610c5d57600081815260056020908152604091829020825160608101845290546001600160a01b0381168252600160a01b810467ffffffffffffffff1692820192909252600160e01b90910460ff16151591810182905290610c5b5780516001600160a01b031615610bf1579392505050565b5060001901600081815260056020908152604091829020825160608101845290546001600160a01b038116808352600160a01b820467ffffffffffffffff1693830193909352600160e01b900460ff1615159281019290925215610c56579392505050565b610bf1565b505b604051636f96cda160e11b815260040160405180910390fd5b600080546001600160a01b038381166001600160a01b0319831681178455604051919092169283917f8be0079c531659141344cd1fd0a4f28419497f9722a3daafe3b4186f6b6457e09190a35050565b610ce0828260405180602001604052806000815250610ee9565b5050565b604051630a85bd0160e11b81526000906001600160a01b0385169063150b7a0290610d19903390899088908890600401611462565b602060405180830381600087803b158015610d3357600080fd5b505af1925050508015610d63575060408051601f3d908101601f19168201909252610d609181019061135f565b60015b610dbe573d808015610d91576040519150601f19603f3d011682016040523d82523d6000602084013e610d96565b606091505b508051610db6576040516368d2bf6b60e11b815260040160405180910390fd5b805181602001fd5b6001600160e01b031916630a85bd0160e11b1490505b949350505050565b60606009805461042190611556565b606081610e0f5750506040805180820190915260018152600360fc1b602082015290565b8160005b8115610e395780610e2381611591565b9150610e329050600a836114ff565b9150610e13565b60008167ffffffffffffffff811115610e5457610e54611602565b6040519080825280601f01601f191660200182016040528015610e7e576020820181803683370190505b5090505b8415610dd457610e93600183611513565b9150610ea0600a866115ac565b610eab9060306114e7565b60f81b818381518110610ec057610ec06115ec565b60200101906001600160f81b031916908160001a905350610ee2600a866114ff565b9450610e82565b610571838383600180546001600160a01b038516610f1957604051622e076360e81b815260040160405180910390fd5b83610f375760405163b562e8dd60e01b815260040160405180910390fd5b6001600160a01b038516600081815260066020908152604080832080546fffffffffffffffffffffffffffffffff19811667ffffffffffffffff8083168c0181169182176801000000000000000067ffffffffffffffff1990941690921783900481168c01811690920217909155858452600590925290912080546001600160e01b031916909217600160a01b429092169190910217905580808501838015610fe957506001600160a01b0387163b15155b15611072575b60405182906001600160a01b038916906000907fddf252ad1be2c89b69c2b068fc378daa952ba7f163c4a11628f55a4df523b3ef908290a461103a6000888480600101955088610ce4565b611057576040516368d2bf6b60e11b815260040160405180910390fd5b80821415610fef57826001541461106d57600080fd5b6110b8565b5b6040516001830192906001600160a01b038916906000907fddf252ad1be2c89b69c2b068fc378daa952ba7f163c4a11628f55a4df523b3ef908290a480821415611073575b50600155610b53565b8280546110cd90611556565b90600052602060002090601f0160209004810192826110ef5760008555611135565b82601f106111085782800160ff19823516178555611135565b82800160010185558215611135579182015b8281111561113557823582559160200191906001019061111a565b50611141929150611145565b5090565b5b808211156111415760008155600101611146565b80356001600160a01b038116811461117157600080fd5b919050565b60006020828403121561118857600080fd5b6107f38261115a565b600080604083850312156111a457600080fd5b6111ad8361115a565b91506111bb6020840161115a565b90509250929050565b6000806000606084860312156111d957600080fd5b6111e28461115a565b92506111f06020850161115a565b9150604084013590509250925092565b6000806000806080858703121561121657600080fd5b61121f8561115a565b935061122d6020860161115a565b925060408501359150606085013567ffffffffffffffff8082111561125157600080fd5b818701915087601f83011261126557600080fd5b81358181111561127757611277611602565b604051601f8201601f19908116603f0116810190838211818310171561129f5761129f611602565b816040528281528a60208487010111156112b857600080fd5b82602086016020830137600060208483010152809550505050505092959194509250565b600080604083850312156112ef57600080fd5b6112f88361115a565b91506020830135801515811461130d57600080fd5b809150509250929050565b6000806040838503121561132b57600080fd5b6113348361115a565b946020939093013593505050565b60006020828403121561135457600080fd5b81356107f381611618565b60006020828403121561137157600080fd5b81516107f381611618565b6000806020838503121561138f57600080fd5b823567ffffffffffffffff808211156113a757600080fd5b818501915085601f8301126113bb57600080fd5b8135818111156113ca57600080fd5b8660208285010111156113dc57600080fd5b60209290920196919550909350505050565b60006020828403121561140057600080fd5b5035919050565b6000815180845261141f81602086016020860161152a565b601f01601f19169290920160200192915050565b6000835161144581846020880161152a565b83519083019061145981836020880161152a565b01949350505050565b6001600160a01b038581168252841660208201526040810183905260806060820181905260009061149590830184611407565b9695505050505050565b6020815260006107f36020830184611407565b6020808252818101527f4f776e61626c653a2063616c6c6572206973206e6f7420746865206f776e6572604082015260600190565b600082198211156114fa576114fa6115c0565b500190565b60008261150e5761150e6115d6565b500490565b600082821015611525576115256115c0565b500390565b60005b8381101561154557818101518382015260200161152d565b8381111561076f5750506000910152565b600181811c9082168061156a57607f821691505b6020821081141561158b57634e487b7160e01b600052602260045260246000fd5b50919050565b60006000198214156115a5576115a56115c0565b5060010190565b6000826115bb576115bb6115d6565b500690565b634e487b7160e01b600052601160045260246000fd5b634e487b7160e01b600052601260045260246000fd5b634e487b7160e01b600052603260045260246000fd5b634e487b7160e01b600052604160045260246000fd5b6001600160e01b03198116811461068b57600080fdfea26469706673582212207ffda8653c8083e8de9afa9edd1b09e613a0c03700ff4837ae6c5755f05560c564736f6c63430008070033",
					"opcodes": "PUSH1 0x80 PUSH1 0x40 MSTORE CALLVALUE DUP1 ISZERO PUSH3 0x11 JUMPI PUSH1 0x0 DUP1 REVERT JUMPDEST POP PUSH1 0x40 MLOAD DUP1 PUSH1 0x40 ADD PUSH1 0x40 MSTORE DUP1 PUSH1 0xC DUP2 MSTORE PUSH1 0x20 ADD PUSH12 0x526F746174696E6743756265 PUSH1 0xA0 SHL DUP2 MSTORE POP PUSH1 0x40 MLOAD DUP1 PUSH1 0x40 ADD PUSH1 0x40 MSTORE DUP1 PUSH1 0x4 DUP2 MSTORE PUSH1 0x20 ADD PUSH4 0x43554245 PUSH1 0xE0 SHL DUP2 MSTORE POP PUSH3 0x6E PUSH3 0x68 PUSH3 0xA7 PUSH1 0x20 SHL PUSH1 0x20 SHR JUMP JUMPDEST PUSH3 0xAB JUMP JUMPDEST DUP2 MLOAD PUSH3 0x83 SWAP1 PUSH1 0x3 SWAP1 PUSH1 0x20 DUP6 ADD SWAP1 PUSH3 0xFB JUMP JUMPDEST POP DUP1 MLOAD PUSH3 0x99 SWAP1 PUSH1 0x4 SWAP1 PUSH1 0x20 DUP5 ADD SWAP1 PUSH3 0xFB JUMP JUMPDEST POP POP PUSH1 0x0 PUSH1 0x1 SSTORE POP PUSH3 0x1DE JUMP JUMPDEST CALLER SWAP1 JUMP JUMPDEST PUSH1 0x0 DUP1 SLOAD PUSH1 0x1 PUSH1 0x1 PUSH1 0xA0 SHL SUB DUP4 DUP2 AND PUSH1 0x1 PUSH1 0x1 PUSH1 0xA0 SHL SUB NOT DUP4 AND DUP2 OR DUP5 SSTORE PUSH1 0x40 MLOAD SWAP2 SWAP1 SWAP3 AND SWAP3 DUP4 SWAP2 PUSH32 0x8BE0079C531659141344CD1FD0A4F28419497F9722A3DAAFE3B4186F6B6457E0 SWAP2 SWAP1 LOG3 POP POP JUMP JUMPDEST DUP3 DUP1 SLOAD PUSH3 0x109 SWAP1 PUSH3 0x1A1 JUMP JUMPDEST SWAP1 PUSH1 0x0 MSTORE PUSH1 0x20 PUSH1 0x0 KECCAK256 SWAP1 PUSH1 0x1F ADD PUSH1 0x20 SWAP1 DIV DUP2 ADD SWAP3 DUP3 PUSH3 0x12D JUMPI PUSH1 0x0 DUP6 SSTORE PUSH3 0x178 JUMP JUMPDEST DUP3 PUSH1 0x1F LT PUSH3 0x148 JUMPI DUP1 MLOAD PUSH1 0xFF NOT AND DUP4 DUP1 ADD OR DUP6 SSTORE PUSH3 0x178 JUMP JUMPDEST DUP3 DUP1 ADD PUSH1 0x1 ADD DUP6 SSTORE DUP3 ISZERO PUSH3 0x178 JUMPI SWAP2 DUP3 ADD JUMPDEST DUP3 DUP2 GT ISZERO PUSH3 0x178 JUMPI DUP3 MLOAD DUP3 SSTORE SWAP2 PUSH1 0x20 ADD SWAP2 SWAP1 PUSH1 0x1 ADD SWAP1 PUSH3 0x15B JUMP JUMPDEST POP PUSH3 0x186 SWAP3 SWAP2 POP PUSH3 0x18A JUMP JUMPDEST POP SWAP1 JUMP JUMPDEST JUMPDEST DUP1 DUP3 GT ISZERO PUSH3 0x186 JUMPI PUSH1 0x0 DUP2 SSTORE PUSH1 0x1 ADD PUSH3 0x18B JUMP JUMPDEST PUSH1 0x1 DUP2 DUP2 SHR SWAP1 DUP3 AND DUP1 PUSH3 0x1B6 JUMPI PUSH1 0x7F DUP3 AND SWAP2 POP JUMPDEST PUSH1 0x20 DUP3 LT DUP2 EQ ISZERO PUSH3 0x1D8 JUMPI PUSH4 0x4E487B71 PUSH1 0xE0 SHL PUSH1 0x0 MSTORE PUSH1 0x22 PUSH1 0x4 MSTORE PUSH1 0x24 PUSH1 0x0 REVERT JUMPDEST POP SWAP2 SWAP1 POP JUMP JUMPDEST PUSH2 0x1664 DUP1 PUSH3 0x1EE PUSH1 0x0 CODECOPY PUSH1 0x0 RETURN INVALID PUSH1 0x80 PUSH1 0x40 MSTORE PUSH1 0x4 CALLDATASIZE LT PUSH2 0x114 JUMPI PUSH1 0x0 CALLDATALOAD PUSH1 0xE0 SHR DUP1 PUSH4 0x70A08231 GT PUSH2 0xA0 JUMPI DUP1 PUSH4 0xA22CB465 GT PUSH2 0x64 JUMPI DUP1 PUSH4 0xA22CB465 EQ PUSH2 0x2E8 JUMPI DUP1 PUSH4 0xB88D4FDE EQ PUSH2 0x308 JUMPI DUP1 PUSH4 0xC87B56DD EQ PUSH2 0x328 JUMPI DUP1 PUSH4 0xE985E9C5 EQ PUSH2 0x348 JUMPI DUP1 PUSH4 0xF2FDE38B EQ PUSH2 0x391 JUMPI PUSH1 0x0 DUP1 REVERT JUMPDEST DUP1 PUSH4 0x70A08231 EQ PUSH2 0x26D JUMPI DUP1 PUSH4 0x715018A6 EQ PUSH2 0x28D JUMPI DUP1 PUSH4 0x8DA5CB5B EQ PUSH2 0x2A2 JUMPI DUP1 PUSH4 0x95D89B41 EQ PUSH2 0x2C0 JUMPI DUP1 PUSH4 0xA0712D68 EQ PUSH2 0x2D5 JUMPI PUSH1 0x0 DUP1 REVERT JUMPDEST DUP1 PUSH4 0x18160DDD GT PUSH2 0xE7 JUMPI DUP1 PUSH4 0x18160DDD EQ PUSH2 0x1CA JUMPI DUP1 PUSH4 0x23B872DD EQ PUSH2 0x1ED JUMPI DUP1 PUSH4 0x42842E0E EQ PUSH2 0x20D JUMPI DUP1 PUSH4 0x55F804B3 EQ PUSH2 0x22D JUMPI DUP1 PUSH4 0x6352211E EQ PUSH2 0x24D JUMPI PUSH1 0x0 DUP1 REVERT JUMPDEST DUP1 PUSH4 0x1FFC9A7 EQ PUSH2 0x119 JUMPI DUP1 PUSH4 0x6FDDE03 EQ PUSH2 0x14E JUMPI DUP1 PUSH4 0x81812FC EQ PUSH2 0x170 JUMPI DUP1 PUSH4 0x95EA7B3 EQ PUSH2 0x1A8 JUMPI JUMPDEST PUSH1 0x0 DUP1 REVERT JUMPDEST CALLVALUE DUP1 ISZERO PUSH2 0x125 JUMPI PUSH1 0x0 DUP1 REVERT JUMPDEST POP PUSH2 0x139 PUSH2 0x134 CALLDATASIZE PUSH1 0x4 PUSH2 0x1342 JUMP JUMPDEST PUSH2 0x3B1 JUMP JUMPDEST PUSH1 0x40 MLOAD SWAP1 ISZERO ISZERO DUP2 MSTORE PUSH1 0x20 ADD JUMPDEST PUSH1 0x40 MLOAD DUP1 SWAP2 SUB SWAP1 RETURN JUMPDEST CALLVALUE DUP1 ISZERO PUSH2 0x15A JUMPI PUSH1 0x0 DUP1 REVERT JUMPDEST POP PUSH2 0x163 PUSH2 0x412 JUMP JUMPDEST PUSH1 0x40 MLOAD PUSH2 0x145 SWAP2 SWAP1 PUSH2 0x149F JUMP JUMPDEST CALLVALUE DUP1 ISZERO PUSH2 0x17C JUMPI PUSH1 0x0 DUP1 REVERT JUMPDEST POP PUSH2 0x190 PUSH2 0x18B CALLDATASIZE PUSH1 0x4 PUSH2 0x13EE JUMP JUMPDEST PUSH2 0x4A4 JUMP JUMPDEST PUSH1 0x40 MLOAD PUSH1 0x1 PUSH1 0x1 PUSH1 0xA0 SHL SUB SWAP1 SWAP2 AND DUP2 MSTORE PUSH1 0x20 ADD PUSH2 0x145 JUMP JUMPDEST CALLVALUE DUP1 ISZERO PUSH2 0x1B4 JUMPI PUSH1 0x0 DUP1 REVERT JUMPDEST POP PUSH2 0x1C8 PUSH2 0x1C3 CALLDATASIZE PUSH1 0x4 PUSH2 0x1318 JUMP JUMPDEST PUSH2 0x4E8 JUMP JUMPDEST STOP JUMPDEST CALLVALUE DUP1 ISZERO PUSH2 0x1D6 JUMPI PUSH1 0x0 DUP1 REVERT JUMPDEST POP PUSH1 0x2 SLOAD PUSH1 0x1 SLOAD SUB JUMPDEST PUSH1 0x40 MLOAD SWAP1 DUP2 MSTORE PUSH1 0x20 ADD PUSH2 0x145 JUMP JUMPDEST CALLVALUE DUP1 ISZERO PUSH2 0x1F9 JUMPI PUSH1 0x0 DUP1 REVERT JUMPDEST POP PUSH2 0x1C8 PUSH2 0x208 CALLDATASIZE PUSH1 0x4 PUSH2 0x11C4 JUMP JUMPDEST PUSH2 0x576 JUMP JUMPDEST CALLVALUE DUP1 ISZERO PUSH2 0x219 JUMPI PUSH1 0x0 DUP1 REVERT JUMPDEST POP PUSH2 0x1C8 PUSH2 0x228 CALLDATASIZE PUSH1 0x4 PUSH2 0x11C4 JUMP JUMPDEST PUSH2 0x581 JUMP JUMPDEST CALLVALUE DUP1 ISZERO PUSH2 0x239 JUMPI PUSH1 0x0 DUP1 REVERT JUMPDEST POP PUSH2 0x1C8 PUSH2 0x248 CALLDATASIZE PUSH1 0x4 PUSH2 0x137C JUMP JUMPDEST PUSH2 0x59C JUMP JUMPDEST CALLVALUE DUP1 ISZERO PUSH2 0x259 JUMPI PUSH1 0x0 DUP1 REVERT JUMPDEST POP PUSH2 0x190 PUSH2 0x268 CALLDATASIZE PUSH1 0x4 PUSH2 0x13EE JUMP JUMPDEST PUSH2 0x5DB JUMP JUMPDEST CALLVALUE DUP1 ISZERO PUSH2 0x279 JUMPI PUSH1 0x0 DUP1 REVERT JUMPDEST POP PUSH2 0x1DF PUSH2 0x288 CALLDATASIZE PUSH1 0x4 PUSH2 0x1176 JUMP JUMPDEST PUSH2 0x5ED JUMP JUMPDEST CALLVALUE DUP1 ISZERO PUSH2 0x299 JUMPI PUSH1 0x0 DUP1 REVERT JUMPDEST POP PUSH2 0x1C8 PUSH2 0x63C JUMP JUMPDEST CALLVALUE DUP1 ISZERO PUSH2 0x2AE JUMPI PUSH1 0x0 DUP1 REVERT JUMPDEST POP PUSH1 0x0 SLOAD PUSH1 0x1 PUSH1 0x1 PUSH1 0xA0 SHL SUB AND PUSH2 0x190 JUMP JUMPDEST CALLVALUE DUP1 ISZERO PUSH2 0x2CC JUMPI PUSH1 0x0 DUP1 REVERT JUMPDEST POP PUSH2 0x163 PUSH2 0x672 JUMP JUMPDEST PUSH2 0x1C8 PUSH2 0x2E3 CALLDATASIZE PUSH1 0x4 PUSH2 0x13EE JUMP JUMPDEST PUSH2 0x681 JUMP JUMPDEST CALLVALUE DUP1 ISZERO PUSH2 0x2F4 JUMPI PUSH1 0x0 DUP1 REVERT JUMPDEST POP PUSH2 0x1C8 PUSH2 0x303 CALLDATASIZE PUSH1 0x4 PUSH2 0x12DC JUMP JUMPDEST PUSH2 0x68E JUMP JUMPDEST CALLVALUE DUP1 ISZERO PUSH2 0x314 JUMPI PUSH1 0x0 DUP1 REVERT JUMPDEST POP PUSH2 0x1C8 PUSH2 0x323 CALLDATASIZE PUSH1 0x4 PUSH2 0x1200 JUMP JUMPDEST PUSH2 0x724 JUMP JUMPDEST CALLVALUE DUP1 ISZERO PUSH2 0x334 JUMPI PUSH1 0x0 DUP1 REVERT JUMPDEST POP PUSH2 0x163 PUSH2 0x343 CALLDATASIZE PUSH1 0x4 PUSH2 0x13EE JUMP JUMPDEST PUSH2 0x775 JUMP JUMPDEST CALLVALUE DUP1 ISZERO PUSH2 0x354 JUMPI PUSH1 0x0 DUP1 REVERT JUMPDEST POP PUSH2 0x139 PUSH2 0x363 CALLDATASIZE PUSH1 0x4 PUSH2 0x1191 JUMP JUMPDEST PUSH1 0x1 PUSH1 0x1 PUSH1 0xA0 SHL SUB SWAP2 DUP3 AND PUSH1 0x0 SWAP1 DUP2 MSTORE PUSH1 0x8 PUSH1 0x20 SWAP1 DUP2 MSTORE PUSH1 0x40 DUP1 DUP4 KECCAK256 SWAP4 SWAP1 SWAP5 AND DUP3 MSTORE SWAP2 SWAP1 SWAP2 MSTORE KECCAK256 SLOAD PUSH1 0xFF AND SWAP1 JUMP JUMPDEST CALLVALUE DUP1 ISZERO PUSH2 0x39D JUMPI PUSH1 0x0 DUP1 REVERT JUMPDEST POP PUSH2 0x1C8 PUSH2 0x3AC CALLDATASIZE PUSH1 0x4 PUSH2 0x1176 JUMP JUMPDEST PUSH2 0x7FA JUMP JUMPDEST PUSH1 0x0 PUSH1 0x1 PUSH1 0x1 PUSH1 0xE0 SHL SUB NOT DUP3 AND PUSH4 0x80AC58CD PUSH1 0xE0 SHL EQ DUP1 PUSH2 0x3E2 JUMPI POP PUSH1 0x1 PUSH1 0x1 PUSH1 0xE0 SHL SUB NOT DUP3 AND PUSH4 0x5B5E139F PUSH1 0xE0 SHL EQ JUMPDEST DUP1 PUSH2 0x3FD JUMPI POP PUSH1 0x1 PUSH1 0x1 PUSH1 0xE0 SHL SUB NOT DUP3 AND PUSH4 0x780E9D63 PUSH1 0xE0 SHL EQ JUMPDEST DUP1 PUSH2 0x40C JUMPI POP PUSH2 0x40C DUP3 PUSH2 0x892 JUMP JUMPDEST SWAP3 SWAP2 POP POP JUMP JUMPDEST PUSH1 0x60 PUSH1 0x3 DUP1 SLOAD PUSH2 0x421 SWAP1 PUSH2 0x1556 JUMP JUMPDEST DUP1 PUSH1 0x1F ADD PUSH1 0x20 DUP1 SWAP2 DIV MUL PUSH1 0x20 ADD PUSH1 0x40 MLOAD SWAP1 DUP2 ADD PUSH1 0x40 MSTORE DUP1 SWAP3 SWAP2 SWAP1 DUP2 DUP2 MSTORE PUSH1 0x20 ADD DUP3 DUP1 SLOAD PUSH2 0x44D SWAP1 PUSH2 0x1556 JUMP JUMPDEST DUP1 ISZERO PUSH2 0x49A JUMPI DUP1 PUSH1 0x1F LT PUSH2 0x46F JUMPI PUSH2 0x100 DUP1 DUP4 SLOAD DIV MUL DUP4 MSTORE SWAP2 PUSH1 0x20 ADD SWAP2 PUSH2 0x49A JUMP JUMPDEST DUP3 ADD SWAP2 SWAP1 PUSH1 0x0 MSTORE PUSH1 0x20 PUSH1 0x0 KECCAK256 SWAP1 JUMPDEST DUP2 SLOAD DUP2 MSTORE SWAP1 PUSH1 0x1 ADD SWAP1 PUSH1 0x20 ADD DUP1 DUP4 GT PUSH2 0x47D JUMPI DUP3 SWAP1 SUB PUSH1 0x1F AND DUP3 ADD SWAP2 JUMPDEST POP POP POP POP POP SWAP1 POP SWAP1 JUMP JUMPDEST PUSH1 0x0 PUSH2 0x4AF DUP3 PUSH2 0x8E2 JUMP JUMPDEST PUSH2 0x4CC JUMPI PUSH1 0x40 MLOAD PUSH4 0x33D1C039 PUSH1 0xE2 SHL DUP2 MSTORE PUSH1 0x4 ADD PUSH1 0x40 MLOAD DUP1 SWAP2 SUB SWAP1 REVERT JUMPDEST POP PUSH1 0x0 SWAP1 DUP2 MSTORE PUSH1 0x7 PUSH1 0x20 MSTORE PUSH1 0x40 SWAP1 KECCAK256 SLOAD PUSH1 0x1 PUSH1 0x1 PUSH1 0xA0 SHL SUB AND SWAP1 JUMP JUMPDEST PUSH1 0x0 PUSH2 0x4F3 DUP3 PUSH2 0x5DB JUMP JUMPDEST SWAP1 POP DUP1 PUSH1 0x1 PUSH1 0x1 PUSH1 0xA0 SHL SUB AND DUP4 PUSH1 0x1 PUSH1 0x1 PUSH1 0xA0 SHL SUB AND EQ ISZERO PUSH2 0x528 JUMPI PUSH1 0x40 MLOAD PUSH4 0x250FDEE3 PUSH1 0xE2 SHL DUP2 MSTORE PUSH1 0x4 ADD PUSH1 0x40 MLOAD DUP1 SWAP2 SUB SWAP1 REVERT JUMPDEST CALLER PUSH1 0x1 PUSH1 0x1 PUSH1 0xA0 SHL SUB DUP3 AND EQ DUP1 ISZERO SWAP1 PUSH2 0x548 JUMPI POP PUSH2 0x546 DUP2 CALLER PUSH2 0x363 JUMP JUMPDEST ISZERO JUMPDEST ISZERO PUSH2 0x566 JUMPI PUSH1 0x40 MLOAD PUSH4 0x67D9DCA1 PUSH1 0xE1 SHL DUP2 MSTORE PUSH1 0x4 ADD PUSH1 0x40 MLOAD DUP1 SWAP2 SUB SWAP1 REVERT JUMPDEST PUSH2 0x571 DUP4 DUP4 DUP4 PUSH2 0x90E JUMP JUMPDEST POP POP POP JUMP JUMPDEST PUSH2 0x571 DUP4 DUP4 DUP4 PUSH2 0x96A JUMP JUMPDEST PUSH2 0x571 DUP4 DUP4 DUP4 PUSH1 0x40 MLOAD DUP1 PUSH1 0x20 ADD PUSH1 0x40 MSTORE DUP1 PUSH1 0x0 DUP2 MSTORE POP PUSH2 0x724 JUMP JUMPDEST PUSH1 0x0 SLOAD PUSH1 0x1 PUSH1 0x1 PUSH1 0xA0 SHL SUB AND CALLER EQ PUSH2 0x5CF JUMPI PUSH1 0x40 MLOAD PUSH3 0x461BCD PUSH1 0xE5 SHL DUP2 MSTORE PUSH1 0x4 ADD PUSH2 0x5C6 SWAP1 PUSH2 0x14B2 JUMP JUMPDEST PUSH1 0x40 MLOAD DUP1 SWAP2 SUB SWAP1 REVERT JUMPDEST PUSH2 0x571 PUSH1 0x9 DUP4 DUP4 PUSH2 0x10C1 JUMP JUMPDEST PUSH1 0x0 PUSH2 0x5E6 DUP3 PUSH2 0xB5A JUMP JUMPDEST MLOAD SWAP3 SWAP2 POP POP JUMP JUMPDEST PUSH1 0x0 PUSH1 0x1 PUSH1 0x1 PUSH1 0xA0 SHL SUB DUP3 AND PUSH2 0x616 JUMPI PUSH1 0x40 MLOAD PUSH4 0x23D3AD81 PUSH1 0xE2 SHL DUP2 MSTORE PUSH1 0x4 ADD PUSH1 0x40 MLOAD DUP1 SWAP2 SUB SWAP1 REVERT JUMPDEST POP PUSH1 0x1 PUSH1 0x1 PUSH1 0xA0 SHL SUB AND PUSH1 0x0 SWAP1 DUP2 MSTORE PUSH1 0x6 PUSH1 0x20 MSTORE PUSH1 0x40 SWAP1 KECCAK256 SLOAD PUSH8 0xFFFFFFFFFFFFFFFF AND SWAP1 JUMP JUMPDEST PUSH1 0x0 SLOAD PUSH1 0x1 PUSH1 0x1 PUSH1 0xA0 SHL SUB AND CALLER EQ PUSH2 0x666 JUMPI PUSH1 0x40 MLOAD PUSH3 0x461BCD PUSH1 0xE5 SHL DUP2 MSTORE PUSH1 0x4 ADD PUSH2 0x5C6 SWAP1 PUSH2 0x14B2 JUMP JUMPDEST PUSH2 0x670 PUSH1 0x0 PUSH2 0xC76 JUMP JUMPDEST JUMP JUMPDEST PUSH1 0x60 PUSH1 0x4 DUP1 SLOAD PUSH2 0x421 SWAP1 PUSH2 0x1556 JUMP JUMPDEST PUSH2 0x68B CALLER DUP3 PUSH2 0xCC6 JUMP JUMPDEST POP JUMP JUMPDEST PUSH1 0x1 PUSH1 0x1 PUSH1 0xA0 SHL SUB DUP3 AND CALLER EQ ISZERO PUSH2 0x6B8 JUMPI PUSH1 0x40 MLOAD PUSH4 0xB06307DB PUSH1 0xE0 SHL DUP2 MSTORE PUSH1 0x4 ADD PUSH1 0x40 MLOAD DUP1 SWAP2 SUB SWAP1 REVERT JUMPDEST CALLER PUSH1 0x0 DUP2 DUP2 MSTORE PUSH1 0x8 PUSH1 0x20 SWAP1 DUP2 MSTORE PUSH1 0x40 DUP1 DUP4 KECCAK256 PUSH1 0x1 PUSH1 0x1 PUSH1 0xA0 SHL SUB DUP8 AND DUP1 DUP6 MSTORE SWAP1 DUP4 MSTORE SWAP3 DUP2 SWAP1 KECCAK256 DUP1 SLOAD PUSH1 0xFF NOT AND DUP7 ISZERO ISZERO SWAP1 DUP2 OR SWAP1 SWAP2 SSTORE SWAP1 MLOAD SWAP1 DUP2 MSTORE SWAP2 SWAP3 SWAP2 PUSH32 0x17307EAB39AB6107E8899845AD3D59BD9653F200F220920489CA2B5937696C31 SWAP2 ADD PUSH1 0x40 MLOAD DUP1 SWAP2 SUB SWAP1 LOG3 POP POP JUMP JUMPDEST PUSH2 0x72F DUP5 DUP5 DUP5 PUSH2 0x96A JUMP JUMPDEST PUSH1 0x1 PUSH1 0x1 PUSH1 0xA0 SHL SUB DUP4 AND EXTCODESIZE ISZERO ISZERO DUP1 ISZERO PUSH2 0x751 JUMPI POP PUSH2 0x74F DUP5 DUP5 DUP5 DUP5 PUSH2 0xCE4 JUMP JUMPDEST ISZERO JUMPDEST ISZERO PUSH2 0x76F JUMPI PUSH1 0x40 MLOAD PUSH4 0x68D2BF6B PUSH1 0xE1 SHL DUP2 MSTORE PUSH1 0x4 ADD PUSH1 0x40 MLOAD DUP1 SWAP2 SUB SWAP1 REVERT JUMPDEST POP POP POP POP JUMP JUMPDEST PUSH1 0x60 PUSH2 0x780 DUP3 PUSH2 0x8E2 JUMP JUMPDEST PUSH2 0x79D JUMPI PUSH1 0x40 MLOAD PUSH4 0xA14C4B5 PUSH1 0xE4 SHL DUP2 MSTORE PUSH1 0x4 ADD PUSH1 0x40 MLOAD DUP1 SWAP2 SUB SWAP1 REVERT JUMPDEST PUSH1 0x0 PUSH2 0x7A7 PUSH2 0xDDC JUMP JUMPDEST SWAP1 POP DUP1 MLOAD PUSH1 0x0 EQ ISZERO PUSH2 0x7C8 JUMPI PUSH1 0x40 MLOAD DUP1 PUSH1 0x20 ADD PUSH1 0x40 MSTORE DUP1 PUSH1 0x0 DUP2 MSTORE POP PUSH2 0x7F3 JUMP JUMPDEST DUP1 PUSH2 0x7D2 DUP5 PUSH2 0xDEB JUMP JUMPDEST PUSH1 0x40 MLOAD PUSH1 0x20 ADD PUSH2 0x7E3 SWAP3 SWAP2 SWAP1 PUSH2 0x1433 JUMP JUMPDEST PUSH1 0x40 MLOAD PUSH1 0x20 DUP2 DUP4 SUB SUB DUP2 MSTORE SWAP1 PUSH1 0x40 MSTORE JUMPDEST SWAP4 SWAP3 POP POP POP JUMP JUMPDEST PUSH1 0x0 SLOAD PUSH1 0x1 PUSH1 0x1 PUSH1 0xA0 SHL SUB AND CALLER EQ PUSH2 0x824 JUMPI PUSH1 0x40 MLOAD PUSH3 0x461BCD PUSH1 0xE5 SHL DUP2 MSTORE PUSH1 0x4 ADD PUSH2 0x5C6 SWAP1 PUSH2 0x14B2 JUMP JUMPDEST PUSH1 0x1 PUSH1 0x1 PUSH1 0xA0 SHL SUB DUP2 AND PUSH2 0x889 JUMPI PUSH1 0x40 MLOAD PUSH3 0x461BCD PUSH1 0xE5 SHL DUP2 MSTORE PUSH1 0x20 PUSH1 0x4 DUP3 ADD MSTORE PUSH1 0x26 PUSH1 0x24 DUP3 ADD MSTORE PUSH32 0x4F776E61626C653A206E6577206F776E657220697320746865207A65726F2061 PUSH1 0x44 DUP3 ADD MSTORE PUSH6 0x646472657373 PUSH1 0xD0 SHL PUSH1 0x64 DUP3 ADD MSTORE PUSH1 0x84 ADD PUSH2 0x5C6 JUMP JUMPDEST PUSH2 0x68B DUP2 PUSH2 0xC76 JUMP JUMPDEST PUSH1 0x0 PUSH1 0x1 PUSH1 0x1 PUSH1 0xE0 SHL SUB NOT DUP3 AND PUSH4 0x80AC58CD PUSH1 0xE0 SHL EQ DUP1 PUSH2 0x8C3 JUMPI POP PUSH1 0x1 PUSH1 0x1 PUSH1 0xE0 SHL SUB NOT DUP3 AND PUSH4 0x5B5E139F PUSH1 0xE0 SHL EQ JUMPDEST DUP1 PUSH2 0x40C JUMPI POP PUSH4 0x1FFC9A7 PUSH1 0xE0 SHL PUSH1 0x1 PUSH1 0x1 PUSH1 0xE0 SHL SUB NOT DUP4 AND EQ PUSH2 0x40C JUMP JUMPDEST PUSH1 0x0 PUSH1 0x1 SLOAD DUP3 LT DUP1 ISZERO PUSH2 0x40C JUMPI POP POP PUSH1 0x0 SWAP1 DUP2 MSTORE PUSH1 0x5 PUSH1 0x20 MSTORE PUSH1 0x40 SWAP1 KECCAK256 SLOAD PUSH1 0x1 PUSH1 0xE0 SHL SWAP1 DIV PUSH1 0xFF AND ISZERO SWAP1 JUMP JUMPDEST PUSH1 0x0 DUP3 DUP2 MSTORE PUSH1 0x7 PUSH1 0x20 MSTORE PUSH1 0x40 DUP1 DUP3 KECCAK256 DUP1 SLOAD PUSH1 0x1 PUSH1 0x1 PUSH1 0xA0 SHL SUB NOT AND PUSH1 0x1 PUSH1 0x1 PUSH1 0xA0 SHL SUB DUP8 DUP2 AND SWAP2 DUP3 OR SWAP1 SWAP3 SSTORE SWAP2 MLOAD DUP6 SWAP4 SWAP2 DUP6 AND SWAP2 PUSH32 0x8C5BE1E5EBEC7D5BD14F71427D1E84F3DD0314C0F7B2291E5B200AC8C7C3B925 SWAP2 LOG4 POP POP POP JUMP JUMPDEST PUSH1 0x0 PUSH2 0x975 DUP3 PUSH2 0xB5A JUMP JUMPDEST SWAP1 POP DUP4 PUSH1 0x1 PUSH1 0x1 PUSH1 0xA0 SHL SUB AND DUP2 PUSH1 0x0 ADD MLOAD PUSH1 0x1 PUSH1 0x1 PUSH1 0xA0 SHL SUB AND EQ PUSH2 0x9AC JUMPI PUSH1 0x40 MLOAD PUSH3 0xA11481 PUSH1 0xE8 SHL DUP2 MSTORE PUSH1 0x4 ADD PUSH1 0x40 MLOAD DUP1 SWAP2 SUB SWAP1 REVERT JUMPDEST PUSH1 0x0 CALLER PUSH1 0x1 PUSH1 0x1 PUSH1 0xA0 SHL SUB DUP7 AND EQ DUP1 PUSH2 0x9CA JUMPI POP PUSH2 0x9CA DUP6 CALLER PUSH2 0x363 JUMP JUMPDEST DUP1 PUSH2 0x9E5 JUMPI POP CALLER PUSH2 0x9DA DUP5 PUSH2 0x4A4 JUMP JUMPDEST PUSH1 0x1 PUSH1 0x1 PUSH1 0xA0 SHL SUB AND EQ JUMPDEST SWAP1 POP DUP1 PUSH2 0xA05 JUMPI PUSH1 0x40 MLOAD PUSH4 0x2CE44B5F PUSH1 0xE1 SHL DUP2 MSTORE PUSH1 0x4 ADD PUSH1 0x40 MLOAD DUP1 SWAP2 SUB SWAP1 REVERT JUMPDEST PUSH1 0x1 PUSH1 0x1 PUSH1 0xA0 SHL SUB DUP5 AND PUSH2 0xA2C JUMPI PUSH1 0x40 MLOAD PUSH4 0x3A954ECD PUSH1 0xE2 SHL DUP2 MSTORE PUSH1 0x4 ADD PUSH1 0x40 MLOAD DUP1 SWAP2 SUB SWAP1 REVERT JUMPDEST PUSH2 0xA38 PUSH1 0x0 DUP5 DUP8 PUSH2 0x90E JUMP JUMPDEST PUSH1 0x1 PUSH1 0x1 PUSH1 0xA0 SHL SUB DUP6 DUP2 AND PUSH1 0x0 SWAP1 DUP2 MSTORE PUSH1 0x6 PUSH1 0x20 SWAP1 DUP2 MSTORE PUSH1 0x40 DUP1 DUP4 KECCAK256 DUP1 SLOAD PUSH8 0xFFFFFFFFFFFFFFFF NOT DUP1 DUP3 AND PUSH8 0xFFFFFFFFFFFFFFFF SWAP3 DUP4 AND PUSH1 0x0 NOT ADD DUP4 AND OR SWAP1 SWAP3 SSTORE DUP10 DUP7 AND DUP1 DUP7 MSTORE DUP4 DUP7 KECCAK256 DUP1 SLOAD SWAP4 DUP5 AND SWAP4 DUP4 AND PUSH1 0x1 SWAP1 DUP2 ADD DUP5 AND SWAP5 SWAP1 SWAP5 OR SWAP1 SSTORE DUP10 DUP7 MSTORE PUSH1 0x5 SWAP1 SWAP5 MSTORE DUP3 DUP6 KECCAK256 DUP1 SLOAD PUSH1 0x1 PUSH1 0x1 PUSH1 0xE0 SHL SUB NOT AND SWAP1 SWAP5 OR PUSH1 0x1 PUSH1 0xA0 SHL TIMESTAMP SWAP1 SWAP3 AND SWAP2 SWAP1 SWAP2 MUL OR DUP4 SSTORE DUP8 ADD DUP1 DUP5 MSTORE SWAP3 KECCAK256 DUP1 SLOAD SWAP2 SWAP4 SWAP1 SWAP2 AND PUSH2 0xB0E JUMPI PUSH1 0x1 SLOAD DUP3 EQ PUSH2 0xB0E JUMPI DUP1 SLOAD PUSH1 0x20 DUP7 ADD MLOAD PUSH8 0xFFFFFFFFFFFFFFFF AND PUSH1 0x1 PUSH1 0xA0 SHL MUL PUSH1 0x1 PUSH1 0x1 PUSH1 0xE0 SHL SUB NOT SWAP1 SWAP2 AND PUSH1 0x1 PUSH1 0x1 PUSH1 0xA0 SHL SUB DUP11 AND OR OR DUP2 SSTORE JUMPDEST POP POP POP DUP3 DUP5 PUSH1 0x1 PUSH1 0x1 PUSH1 0xA0 SHL SUB AND DUP7 PUSH1 0x1 PUSH1 0x1 PUSH1 0xA0 SHL SUB AND PUSH32 0xDDF252AD1BE2C89B69C2B068FC378DAA952BA7F163C4A11628F55A4DF523B3EF PUSH1 0x40 MLOAD PUSH1 0x40 MLOAD DUP1 SWAP2 SUB SWAP1 LOG4 JUMPDEST POP POP POP POP POP JUMP JUMPDEST PUSH1 0x40 DUP1 MLOAD PUSH1 0x60 DUP2 ADD DUP3 MSTORE PUSH1 0x0 DUP1 DUP3 MSTORE PUSH1 0x20 DUP3 ADD DUP2 SWAP1 MSTORE SWAP2 DUP2 ADD SWAP2 SWAP1 SWAP2 MSTORE DUP2 PUSH1 0x1 SLOAD DUP2 LT ISZERO PUSH2 0xC5D JUMPI PUSH1 0x0 DUP2 DUP2 MSTORE PUSH1 0x5 PUSH1 0x20 SWAP1 DUP2 MSTORE PUSH1 0x40 SWAP2 DUP3 SWAP1 KECCAK256 DUP3 MLOAD PUSH1 0x60 DUP2 ADD DUP5 MSTORE SWAP1 SLOAD PUSH1 0x1 PUSH1 0x1 PUSH1 0xA0 SHL SUB DUP2 AND DUP3 MSTORE PUSH1 0x1 PUSH1 0xA0 SHL DUP2 DIV PUSH8 0xFFFFFFFFFFFFFFFF AND SWAP3 DUP3 ADD SWAP3 SWAP1 SWAP3 MSTORE PUSH1 0x1 PUSH1 0xE0 SHL SWAP1 SWAP2 DIV PUSH1 0xFF AND ISZERO ISZERO SWAP2 DUP2 ADD DUP3 SWAP1 MSTORE SWAP1 PUSH2 0xC5B JUMPI DUP1 MLOAD PUSH1 0x1 PUSH1 0x1 PUSH1 0xA0 SHL SUB AND ISZERO PUSH2 0xBF1 JUMPI SWAP4 SWAP3 POP POP POP JUMP JUMPDEST POP PUSH1 0x0 NOT ADD PUSH1 0x0 DUP2 DUP2 MSTORE PUSH1 0x5 PUSH1 0x20 SWAP1 DUP2 MSTORE PUSH1 0x40 SWAP2 DUP3 SWAP1 KECCAK256 DUP3 MLOAD PUSH1 0x60 DUP2 ADD DUP5 MSTORE SWAP1 SLOAD PUSH1 0x1 PUSH1 0x1 PUSH1 0xA0 SHL SUB DUP2 AND DUP1 DUP4 MSTORE PUSH1 0x1 PUSH1 0xA0 SHL DUP3 DIV PUSH8 0xFFFFFFFFFFFFFFFF AND SWAP4 DUP4 ADD SWAP4 SWAP1 SWAP4 MSTORE PUSH1 0x1 PUSH1 0xE0 SHL SWAP1 DIV PUSH1 0xFF AND ISZERO ISZERO SWAP3 DUP2 ADD SWAP3 SWAP1 SWAP3 MSTORE ISZERO PUSH2 0xC56 JUMPI SWAP4 SWAP3 POP POP POP JUMP JUMPDEST PUSH2 0xBF1 JUMP JUMPDEST POP JUMPDEST PUSH1 0x40 MLOAD PUSH4 0x6F96CDA1 PUSH1 0xE1 SHL DUP2 MSTORE PUSH1 0x4 ADD PUSH1 0x40 MLOAD DUP1 SWAP2 SUB SWAP1 REVERT JUMPDEST PUSH1 0x0 DUP1 SLOAD PUSH1 0x1 PUSH1 0x1 PUSH1 0xA0 SHL SUB DUP4 DUP2 AND PUSH1 0x1 PUSH1 0x1 PUSH1 0xA0 SHL SUB NOT DUP4 AND DUP2 OR DUP5 SSTORE PUSH1 0x40 MLOAD SWAP2 SWAP1 SWAP3 AND SWAP3 DUP4 SWAP2 PUSH32 0x8BE0079C531659141344CD1FD0A4F28419497F9722A3DAAFE3B4186F6B6457E0 SWAP2 SWAP1 LOG3 POP POP JUMP JUMPDEST PUSH2 0xCE0 DUP3 DUP3 PUSH1 0x40 MLOAD DUP1 PUSH1 0x20 ADD PUSH1 0x40 MSTORE DUP1 PUSH1 0x0 DUP2 MSTORE POP PUSH2 0xEE9 JUMP JUMPDEST POP POP JUMP JUMPDEST PUSH1 0x40 MLOAD PUSH4 0xA85BD01 PUSH1 0xE1 SHL DUP2 MSTORE PUSH1 0x0 SWAP1 PUSH1 0x1 PUSH1 0x1 PUSH1 0xA0 SHL SUB DUP6 AND SWAP1 PUSH4 0x150B7A02 SWAP1 PUSH2 0xD19 SWAP1 CALLER SWAP1 DUP10 SWAP1 DUP9 SWAP1 DUP9 SWAP1 PUSH1 0x4 ADD PUSH2 0x1462 JUMP JUMPDEST PUSH1 0x20 PUSH1 0x40 MLOAD DUP1 DUP4 SUB DUP2 PUSH1 0x0 DUP8 DUP1 EXTCODESIZE ISZERO DUP1 ISZERO PUSH2 0xD33 JUMPI PUSH1 0x0 DUP1 REVERT JUMPDEST POP GAS CALL SWAP3 POP POP POP DUP1 ISZERO PUSH2 0xD63 JUMPI POP PUSH1 0x40 DUP1 MLOAD PUSH1 0x1F RETURNDATASIZE SWAP1 DUP2 ADD PUSH1 0x1F NOT AND DUP3 ADD SWAP1 SWAP3 MSTORE PUSH2 0xD60 SWAP2 DUP2 ADD SWAP1 PUSH2 0x135F JUMP JUMPDEST PUSH1 0x1 JUMPDEST PUSH2 0xDBE JUMPI RETURNDATASIZE DUP1 DUP1 ISZERO PUSH2 0xD91 JUMPI PUSH1 0x40 MLOAD SWAP2 POP PUSH1 0x1F NOT PUSH1 0x3F RETURNDATASIZE ADD AND DUP3 ADD PUSH1 0x40 MSTORE RETURNDATASIZE DUP3 MSTORE RETURNDATASIZE PUSH1 0x0 PUSH1 0x20 DUP5 ADD RETURNDATACOPY PUSH2 0xD96 JUMP JUMPDEST PUSH1 0x60 SWAP2 POP JUMPDEST POP DUP1 MLOAD PUSH2 0xDB6 JUMPI PUSH1 0x40 MLOAD PUSH4 0x68D2BF6B PUSH1 0xE1 SHL DUP2 MSTORE PUSH1 0x4 ADD PUSH1 0x40 MLOAD DUP1 SWAP2 SUB SWAP1 REVERT JUMPDEST DUP1 MLOAD DUP2 PUSH1 0x20 ADD REVERT JUMPDEST PUSH1 0x1 PUSH1 0x1 PUSH1 0xE0 SHL SUB NOT AND PUSH4 0xA85BD01 PUSH1 0xE1 SHL EQ SWAP1 POP JUMPDEST SWAP5 SWAP4 POP POP POP POP JUMP JUMPDEST PUSH1 0x60 PUSH1 0x9 DUP1 SLOAD PUSH2 0x421 SWAP1 PUSH2 0x1556 JUMP JUMPDEST PUSH1 0x60 DUP2 PUSH2 0xE0F JUMPI POP POP PUSH1 0x40 DUP1 MLOAD DUP1 DUP3 ADD SWAP1 SWAP2 MSTORE PUSH1 0x1 DUP2 MSTORE PUSH1 0x3 PUSH1 0xFC SHL PUSH1 0x20 DUP3 ADD MSTORE SWAP1 JUMP JUMPDEST DUP2 PUSH1 0x0 JUMPDEST DUP2 ISZERO PUSH2 0xE39 JUMPI DUP1 PUSH2 0xE23 DUP2 PUSH2 0x1591 JUMP JUMPDEST SWAP2 POP PUSH2 0xE32 SWAP1 POP PUSH1 0xA DUP4 PUSH2 0x14FF JUMP JUMPDEST SWAP2 POP PUSH2 0xE13 JUMP JUMPDEST PUSH1 0x0 DUP2 PUSH8 0xFFFFFFFFFFFFFFFF DUP2 GT ISZERO PUSH2 0xE54 JUMPI PUSH2 0xE54 PUSH2 0x1602 JUMP JUMPDEST PUSH1 0x40 MLOAD SWAP1 DUP1 DUP3 MSTORE DUP1 PUSH1 0x1F ADD PUSH1 0x1F NOT AND PUSH1 0x20 ADD DUP3 ADD PUSH1 0x40 MSTORE DUP1 ISZERO PUSH2 0xE7E JUMPI PUSH1 0x20 DUP3 ADD DUP2 DUP1 CALLDATASIZE DUP4 CALLDATACOPY ADD SWAP1 POP JUMPDEST POP SWAP1 POP JUMPDEST DUP5 ISZERO PUSH2 0xDD4 JUMPI PUSH2 0xE93 PUSH1 0x1 DUP4 PUSH2 0x1513 JUMP JUMPDEST SWAP2 POP PUSH2 0xEA0 PUSH1 0xA DUP7 PUSH2 0x15AC JUMP JUMPDEST PUSH2 0xEAB SWAP1 PUSH1 0x30 PUSH2 0x14E7 JUMP JUMPDEST PUSH1 0xF8 SHL DUP2 DUP4 DUP2 MLOAD DUP2 LT PUSH2 0xEC0 JUMPI PUSH2 0xEC0 PUSH2 0x15EC JUMP JUMPDEST PUSH1 0x20 ADD ADD SWAP1 PUSH1 0x1 PUSH1 0x1 PUSH1 0xF8 SHL SUB NOT AND SWAP1 DUP2 PUSH1 0x0 BYTE SWAP1 MSTORE8 POP PUSH2 0xEE2 PUSH1 0xA DUP7 PUSH2 0x14FF JUMP JUMPDEST SWAP5 POP PUSH2 0xE82 JUMP JUMPDEST PUSH2 0x571 DUP4 DUP4 DUP4 PUSH1 0x1 DUP1 SLOAD PUSH1 0x1 PUSH1 0x1 PUSH1 0xA0 SHL SUB DUP6 AND PUSH2 0xF19 JUMPI PUSH1 0x40 MLOAD PUSH3 0x2E0763 PUSH1 0xE8 SHL DUP2 MSTORE PUSH1 0x4 ADD PUSH1 0x40 MLOAD DUP1 SWAP2 SUB SWAP1 REVERT JUMPDEST DUP4 PUSH2 0xF37 JUMPI PUSH1 0x40 MLOAD PUSH4 0xB562E8DD PUSH1 0xE0 SHL DUP2 MSTORE PUSH1 0x4 ADD PUSH1 0x40 MLOAD DUP1 SWAP2 SUB SWAP1 REVERT JUMPDEST PUSH1 0x1 PUSH1 0x1 PUSH1 0xA0 SHL SUB DUP6 AND PUSH1 0x0 DUP2 DUP2 MSTORE PUSH1 0x6 PUSH1 0x20 SWAP1 DUP2 MSTORE PUSH1 0x40 DUP1 DUP4 KECCAK256 DUP1 SLOAD PUSH16 0xFFFFFFFFFFFFFFFFFFFFFFFFFFFFFFFF NOT DUP2 AND PUSH8 0xFFFFFFFFFFFFFFFF DUP1 DUP4 AND DUP13 ADD DUP2 AND SWAP2 DUP3 OR PUSH9 0x10000000000000000 PUSH8 0xFFFFFFFFFFFFFFFF NOT SWAP1 SWAP5 AND SWAP1 SWAP3 OR DUP4 SWAP1 DIV DUP2 AND DUP13 ADD DUP2 AND SWAP1 SWAP3 MUL OR SWAP1 SWAP2 SSTORE DUP6 DUP5 MSTORE PUSH1 0x5 SWAP1 SWAP3 MSTORE SWAP1 SWAP2 KECCAK256 DUP1 SLOAD PUSH1 0x1 PUSH1 0x1 PUSH1 0xE0 SHL SUB NOT AND SWAP1 SWAP3 OR PUSH1 0x1 PUSH1 0xA0 SHL TIMESTAMP SWAP1 SWAP3 AND SWAP2 SWAP1 SWAP2 MUL OR SWAP1 SSTORE DUP1 DUP1 DUP6 ADD DUP4 DUP1 ISZERO PUSH2 0xFE9 JUMPI POP PUSH1 0x1 PUSH1 0x1 PUSH1 0xA0 SHL SUB DUP8 AND EXTCODESIZE ISZERO ISZERO JUMPDEST ISZERO PUSH2 0x1072 JUMPI JUMPDEST PUSH1 0x40 MLOAD DUP3 SWAP1 PUSH1 0x1 PUSH1 0x1 PUSH1 0xA0 SHL SUB DUP10 AND SWAP1 PUSH1 0x0 SWAP1 PUSH32 0xDDF252AD1BE2C89B69C2B068FC378DAA952BA7F163C4A11628F55A4DF523B3EF SWAP1 DUP3 SWAP1 LOG4 PUSH2 0x103A PUSH1 0x0 DUP9 DUP5 DUP1 PUSH1 0x1 ADD SWAP6 POP DUP9 PUSH2 0xCE4 JUMP JUMPDEST PUSH2 0x1057 JUMPI PUSH1 0x40 MLOAD PUSH4 0x68D2BF6B PUSH1 0xE1 SHL DUP2 MSTORE PUSH1 0x4 ADD PUSH1 0x40 MLOAD DUP1 SWAP2 SUB SWAP1 REVERT JUMPDEST DUP1 DUP3 EQ ISZERO PUSH2 0xFEF JUMPI DUP3 PUSH1 0x1 SLOAD EQ PUSH2 0x106D JUMPI PUSH1 0x0 DUP1 REVERT JUMPDEST PUSH2 0x10B8 JUMP JUMPDEST JUMPDEST PUSH1 0x40 MLOAD PUSH1 0x1 DUP4 ADD SWAP3 SWAP1 PUSH1 0x1 PUSH1 0x1 PUSH1 0xA0 SHL SUB DUP10 AND SWAP1 PUSH1 0x0 SWAP1 PUSH32 0xDDF252AD1BE2C89B69C2B068FC378DAA952BA7F163C4A11628F55A4DF523B3EF SWAP1 DUP3 SWAP1 LOG4 DUP1 DUP3 EQ ISZERO PUSH2 0x1073 JUMPI JUMPDEST POP PUSH1 0x1 SSTORE PUSH2 0xB53 JUMP JUMPDEST DUP3 DUP1 SLOAD PUSH2 0x10CD SWAP1 PUSH2 0x1556 JUMP JUMPDEST SWAP1 PUSH1 0x0 MSTORE PUSH1 0x20 PUSH1 0x0 KECCAK256 SWAP1 PUSH1 0x1F ADD PUSH1 0x20 SWAP1 DIV DUP2 ADD SWAP3 DUP3 PUSH2 0x10EF JUMPI PUSH1 0x0 DUP6 SSTORE PUSH2 0x1135 JUMP JUMPDEST DUP3 PUSH1 0x1F LT PUSH2 0x1108 JUMPI DUP3 DUP1 ADD PUSH1 0xFF NOT DUP3 CALLDATALOAD AND OR DUP6 SSTORE PUSH2 0x1135 JUMP JUMPDEST DUP3 DUP1 ADD PUSH1 0x1 ADD DUP6 SSTORE DUP3 ISZERO PUSH2 0x1135 JUMPI SWAP2 DUP3 ADD JUMPDEST DUP3 DUP2 GT ISZERO PUSH2 0x1135 JUMPI DUP3 CALLDATALOAD DUP3 SSTORE SWAP2 PUSH1 0x20 ADD SWAP2 SWAP1 PUSH1 0x1 ADD SWAP1 PUSH2 0x111A JUMP JUMPDEST POP PUSH2 0x1141 SWAP3 SWAP2 POP PUSH2 0x1145 JUMP JUMPDEST POP SWAP1 JUMP JUMPDEST JUMPDEST DUP1 DUP3 GT ISZERO PUSH2 0x1141 JUMPI PUSH1 0x0 DUP2 SSTORE PUSH1 0x1 ADD PUSH2 0x1146 JUMP JUMPDEST DUP1 CALLDATALOAD PUSH1 0x1 PUSH1 0x1 PUSH1 0xA0 SHL SUB DUP2 AND DUP2 EQ PUSH2 0x1171 JUMPI PUSH1 0x0 DUP1 REVERT JUMPDEST SWAP2 SWAP1 POP JUMP JUMPDEST PUSH1 0x0 PUSH1 0x20 DUP3 DUP5 SUB SLT ISZERO PUSH2 0x1188 JUMPI PUSH1 0x0 DUP1 REVERT JUMPDEST PUSH2 0x7F3 DUP3 PUSH2 0x115A JUMP JUMPDEST PUSH1 0x0 DUP1 PUSH1 0x40 DUP4 DUP6 SUB SLT ISZERO PUSH2 0x11A4 JUMPI PUSH1 0x0 DUP1 REVERT JUMPDEST PUSH2 0x11AD DUP4 PUSH2 0x115A JUMP JUMPDEST SWAP2 POP PUSH2 0x11BB PUSH1 0x20 DUP5 ADD PUSH2 0x115A JUMP JUMPDEST SWAP1 POP SWAP3 POP SWAP3 SWAP1 POP JUMP JUMPDEST PUSH1 0x0 DUP1 PUSH1 0x0 PUSH1 0x60 DUP5 DUP7 SUB SLT ISZERO PUSH2 0x11D9 JUMPI PUSH1 0x0 DUP1 REVERT JUMPDEST PUSH2 0x11E2 DUP5 PUSH2 0x115A JUMP JUMPDEST SWAP3 POP PUSH2 0x11F0 PUSH1 0x20 DUP6 ADD PUSH2 0x115A JUMP JUMPDEST SWAP2 POP PUSH1 0x40 DUP5 ADD CALLDATALOAD SWAP1 POP SWAP3 POP SWAP3 POP SWAP3 JUMP JUMPDEST PUSH1 0x0 DUP1 PUSH1 0x0 DUP1 PUSH1 0x80 DUP6 DUP8 SUB SLT ISZERO PUSH2 0x1216 JUMPI PUSH1 0x0 DUP1 REVERT JUMPDEST PUSH2 0x121F DUP6 PUSH2 0x115A JUMP JUMPDEST SWAP4 POP PUSH2 0x122D PUSH1 0x20 DUP7 ADD PUSH2 0x115A JUMP JUMPDEST SWAP3 POP PUSH1 0x40 DUP6 ADD CALLDATALOAD SWAP2 POP PUSH1 0x60 DUP6 ADD CALLDATALOAD PUSH8 0xFFFFFFFFFFFFFFFF DUP1 DUP3 GT ISZERO PUSH2 0x1251 JUMPI PUSH1 0x0 DUP1 REVERT JUMPDEST DUP2 DUP8 ADD SWAP2 POP DUP8 PUSH1 0x1F DUP4 ADD SLT PUSH2 0x1265 JUMPI PUSH1 0x0 DUP1 REVERT JUMPDEST DUP2 CALLDATALOAD DUP2 DUP2 GT ISZERO PUSH2 0x1277 JUMPI PUSH2 0x1277 PUSH2 0x1602 JUMP JUMPDEST PUSH1 0x40 MLOAD PUSH1 0x1F DUP3 ADD PUSH1 0x1F NOT SWAP1 DUP2 AND PUSH1 0x3F ADD AND DUP2 ADD SWAP1 DUP4 DUP3 GT DUP2 DUP4 LT OR ISZERO PUSH2 0x129F JUMPI PUSH2 0x129F PUSH2 0x1602 JUMP JUMPDEST DUP2 PUSH1 0x40 MSTORE DUP3 DUP2 MSTORE DUP11 PUSH1 0x20 DUP5 DUP8 ADD ADD GT ISZERO PUSH2 0x12B8 JUMPI PUSH1 0x0 DUP1 REVERT JUMPDEST DUP3 PUSH1 0x20 DUP7 ADD PUSH1 0x20 DUP4 ADD CALLDATACOPY PUSH1 0x0 PUSH1 0x20 DUP5 DUP4 ADD ADD MSTORE DUP1 SWAP6 POP POP POP POP POP POP SWAP3 SWAP6 SWAP2 SWAP5 POP SWAP3 POP JUMP JUMPDEST PUSH1 0x0 DUP1 PUSH1 0x40 DUP4 DUP6 SUB SLT ISZERO PUSH2 0x12EF JUMPI PUSH1 0x0 DUP1 REVERT JUMPDEST PUSH2 0x12F8 DUP4 PUSH2 0x115A JUMP JUMPDEST SWAP2 POP PUSH1 0x20 DUP4 ADD CALLDATALOAD DUP1 ISZERO ISZERO DUP2 EQ PUSH2 0x130D JUMPI PUSH1 0x0 DUP1 REVERT JUMPDEST DUP1 SWAP2 POP POP SWAP3 POP SWAP3 SWAP1 POP JUMP JUMPDEST PUSH1 0x0 DUP1 PUSH1 0x40 DUP4 DUP6 SUB SLT ISZERO PUSH2 0x132B JUMPI PUSH1 0x0 DUP1 REVERT JUMPDEST PUSH2 0x1334 DUP4 PUSH2 0x115A JUMP JUMPDEST SWAP5 PUSH1 0x20 SWAP4 SWAP1 SWAP4 ADD CALLDATALOAD SWAP4 POP POP POP JUMP JUMPDEST PUSH1 0x0 PUSH1 0x20 DUP3 DUP5 SUB SLT ISZERO PUSH2 0x1354 JUMPI PUSH1 0x0 DUP1 REVERT JUMPDEST DUP2 CALLDATALOAD PUSH2 0x7F3 DUP2 PUSH2 0x1618 JUMP JUMPDEST PUSH1 0x0 PUSH1 0x20 DUP3 DUP5 SUB SLT ISZERO PUSH2 0x1371 JUMPI PUSH1 0x0 DUP1 REVERT JUMPDEST DUP2 MLOAD PUSH2 0x7F3 DUP2 PUSH2 0x1618 JUMP JUMPDEST PUSH1 0x0 DUP1 PUSH1 0x20 DUP4 DUP6 SUB SLT ISZERO PUSH2 0x138F JUMPI PUSH1 0x0 DUP1 REVERT JUMPDEST DUP3 CALLDATALOAD PUSH8 0xFFFFFFFFFFFFFFFF DUP1 DUP3 GT ISZERO PUSH2 0x13A7 JUMPI PUSH1 0x0 DUP1 REVERT JUMPDEST DUP2 DUP6 ADD SWAP2 POP DUP6 PUSH1 0x1F DUP4 ADD SLT PUSH2 0x13BB JUMPI PUSH1 0x0 DUP1 REVERT JUMPDEST DUP2 CALLDATALOAD DUP2 DUP2 GT ISZERO PUSH2 0x13CA JUMPI PUSH1 0x0 DUP1 REVERT JUMPDEST DUP7 PUSH1 0x20 DUP3 DUP6 ADD ADD GT ISZERO PUSH2 0x13DC JUMPI PUSH1 0x0 DUP1 REVERT JUMPDEST PUSH1 0x20 SWAP3 SWAP1 SWAP3 ADD SWAP7 SWAP2 SWAP6 POP SWAP1 SWAP4 POP POP POP POP JUMP JUMPDEST PUSH1 0x0 PUSH1 0x20 DUP3 DUP5 SUB SLT ISZERO PUSH2 0x1400 JUMPI PUSH1 0x0 DUP1 REVERT JUMPDEST POP CALLDATALOAD SWAP2 SWAP1 POP JUMP JUMPDEST PUSH1 0x0 DUP2 MLOAD DUP1 DUP5 MSTORE PUSH2 0x141F DUP2 PUSH1 0x20 DUP7 ADD PUSH1 0x20 DUP7 ADD PUSH2 0x152A JUMP JUMPDEST PUSH1 0x1F ADD PUSH1 0x1F NOT AND SWAP3 SWAP1 SWAP3 ADD PUSH1 0x20 ADD SWAP3 SWAP2 POP POP JUMP JUMPDEST PUSH1 0x0 DUP4 MLOAD PUSH2 0x1445 DUP2 DUP5 PUSH1 0x20 DUP9 ADD PUSH2 0x152A JUMP JUMPDEST DUP4 MLOAD SWAP1 DUP4 ADD SWAP1 PUSH2 0x1459 DUP2 DUP4 PUSH1 0x20 DUP9 ADD PUSH2 0x152A JUMP JUMPDEST ADD SWAP5 SWAP4 POP POP POP POP JUMP JUMPDEST PUSH1 0x1 PUSH1 0x1 PUSH1 0xA0 SHL SUB DUP6 DUP2 AND DUP3 MSTORE DUP5 AND PUSH1 0x20 DUP3 ADD MSTORE PUSH1 0x40 DUP2 ADD DUP4 SWAP1 MSTORE PUSH1 0x80 PUSH1 0x60 DUP3 ADD DUP2 SWAP1 MSTORE PUSH1 0x0 SWAP1 PUSH2 0x1495 SWAP1 DUP4 ADD DUP5 PUSH2 0x1407 JUMP JUMPDEST SWAP7 SWAP6 POP POP POP POP POP POP JUMP JUMPDEST PUSH1 0x20 DUP2 MSTORE PUSH1 0x0 PUSH2 0x7F3 PUSH1 0x20 DUP4 ADD DUP5 PUSH2 0x1407 JUMP JUMPDEST PUSH1 0x20 DUP1 DUP3 MSTORE DUP2 DUP2 ADD MSTORE PUSH32 0x4F776E61626C653A2063616C6C6572206973206E6F7420746865206F776E6572 PUSH1 0x40 DUP3 ADD MSTORE PUSH1 0x60 ADD SWAP1 JUMP JUMPDEST PUSH1 0x0 DUP3 NOT DUP3 GT ISZERO PUSH2 0x14FA JUMPI PUSH2 0x14FA PUSH2 0x15C0 JUMP JUMPDEST POP ADD SWAP1 JUMP JUMPDEST PUSH1 0x0 DUP3 PUSH2 0x150E JUMPI PUSH2 0x150E PUSH2 0x15D6 JUMP JUMPDEST POP DIV SWAP1 JUMP JUMPDEST PUSH1 0x0 DUP3 DUP3 LT ISZERO PUSH2 0x1525 JUMPI PUSH2 0x1525 PUSH2 0x15C0 JUMP JUMPDEST POP SUB SWAP1 JUMP JUMPDEST PUSH1 0x0 JUMPDEST DUP4 DUP2 LT ISZERO PUSH2 0x1545 JUMPI DUP2 DUP2 ADD MLOAD DUP4 DUP3 ADD MSTORE PUSH1 0x20 ADD PUSH2 0x152D JUMP JUMPDEST DUP4 DUP2 GT ISZERO PUSH2 0x76F JUMPI POP POP PUSH1 0x0 SWAP2 ADD MSTORE JUMP JUMPDEST PUSH1 0x1 DUP2 DUP2 SHR SWAP1 DUP3 AND DUP1 PUSH2 0x156A JUMPI PUSH1 0x7F DUP3 AND SWAP2 POP JUMPDEST PUSH1 0x20 DUP3 LT DUP2 EQ ISZERO PUSH2 0x158B JUMPI PUSH4 0x4E487B71 PUSH1 0xE0 SHL PUSH1 0x0 MSTORE PUSH1 0x22 PUSH1 0x4 MSTORE PUSH1 0x24 PUSH1 0x0 REVERT JUMPDEST POP SWAP2 SWAP1 POP JUMP JUMPDEST PUSH1 0x0 PUSH1 0x0 NOT DUP3 EQ ISZERO PUSH2 0x15A5 JUMPI PUSH2 0x15A5 PUSH2 0x15C0 JUMP JUMPDEST POP PUSH1 0x1 ADD SWAP1 JUMP JUMPDEST PUSH1 0x0 DUP3 PUSH2 0x15BB JUMPI PUSH2 0x15BB PUSH2 0x15D6 JUMP JUMPDEST POP MOD SWAP1 JUMP JUMPDEST PUSH4 0x4E487B71 PUSH1 0xE0 SHL PUSH1 0x0 MSTORE PUSH1 0x11 PUSH1 0x4 MSTORE PUSH1 0x24 PUSH1 0x0 REVERT JUMPDEST PUSH4 0x4E487B71 PUSH1 0xE0 SHL PUSH1 0x0 MSTORE PUSH1 0x12 PUSH1 0x4 MSTORE PUSH1 0x24 PUSH1 0x0 REVERT JUMPDEST PUSH4 0x4E487B71 PUSH1 0xE0 SHL PUSH1 0x0 MSTORE PUSH1 0x32 PUSH1 0x4 MSTORE PUSH1 0x24 PUSH1 0x0 REVERT JUMPDEST PUSH4 0x4E487B71 PUSH1 0xE0 SHL PUSH1 0x0 MSTORE PUSH1 0x41 PUSH1 0x4 MSTORE PUSH1 0x24 PUSH1 0x0 REVERT JUMPDEST PUSH1 0x1 PUSH1 0x1 PUSH1 0xE0 SHL SUB NOT DUP2 AND DUP2 EQ PUSH2 0x68B JUMPI PUSH1 0x0 DUP1 REVERT INVALID LOG2 PUSH5 0x6970667358 0x22 SLT KECCAK256 PUSH32 0xFDA8653C8083E8DE9AFA9EDD1B09E613A0C03700FF4837AE6C5755F05560C564 PUSH20 0x6F6C634300080700330000000000000000000000 "
				},
				"gasEstimates": {
					"creation": {
						"codeDepositCost": "1146400",
						"executionCost": "infinite",
						"totalCost": "infinite"
					},
					"external": {
						"approve(address,uint256)": "infinite",
						"balanceOf(address)": "2618",
						"getApproved(uint256)": "6936",
						"isApprovedForAll(address,address)": "infinite",
						"mint(uint256)": "infinite",
						"name()": "infinite",
						"owner()": "2398",
						"ownerOf(uint256)": "infinite",
						"renounceOwnership()": "28159",
						"safeTransferFrom(address,address,uint256)": "infinite",
						"safeTransferFrom(address,address,uint256,bytes)": "infinite",
						"setApprovalForAll(address,bool)": "26650",
						"setBaseURI(string)": "infinite",
						"supportsInterface(bytes4)": "infinite",
						"symbol()": "infinite",
						"tokenURI(uint256)": "infinite",
						"totalSupply()": "4410",
						"transferFrom(address,address,uint256)": "infinite",
						"transferOwnership(address)": "28419"
					},
					"internal": {
						"_baseURI()": "infinite"
					}
				},
				"methodIdentifiers": {
					"approve(address,uint256)": "095ea7b3",
					"balanceOf(address)": "70a08231",
					"getApproved(uint256)": "081812fc",
					"isApprovedForAll(address,address)": "e985e9c5",
					"mint(uint256)": "a0712d68",
					"name()": "06fdde03",
					"owner()": "8da5cb5b",
					"ownerOf(uint256)": "6352211e",
					"renounceOwnership()": "715018a6",
					"safeTransferFrom(address,address,uint256)": "42842e0e",
					"safeTransferFrom(address,address,uint256,bytes)": "b88d4fde",
					"setApprovalForAll(address,bool)": "a22cb465",
					"setBaseURI(string)": "55f804b3",
					"supportsInterface(bytes4)": "01ffc9a7",
					"symbol()": "95d89b41",
					"tokenURI(uint256)": "c87b56dd",
					"totalSupply()": "18160ddd",
					"transferFrom(address,address,uint256)": "23b872dd",
					"transferOwnership(address)": "f2fde38b"
				}
			},
			"userdoc": {
				"kind": "user",
				"methods": {},
				"version": 1
			}
		}
	}
}